{
  "contractName": "MLE",
  "abi": [
    {
      "inputs": [],
      "stateMutability": "nonpayable",
      "type": "constructor"
    },
    {
      "anonymous": false,
      "inputs": [
        {
          "indexed": false,
          "internalType": "address",
          "name": "recruiterAddress",
          "type": "address"
        },
        {
          "indexed": false,
          "internalType": "uint256",
          "name": "announceId",
          "type": "uint256"
        }
      ],
      "name": "AnnouncePublished",
      "type": "event"
    },
    {
      "anonymous": false,
      "inputs": [
        {
          "indexed": true,
          "internalType": "address",
          "name": "owner",
          "type": "address"
        },
        {
          "indexed": true,
          "internalType": "address",
          "name": "spender",
          "type": "address"
        },
        {
          "indexed": false,
          "internalType": "uint256",
          "name": "value",
          "type": "uint256"
        }
      ],
      "name": "Approval",
      "type": "event"
    },
    {
      "anonymous": false,
      "inputs": [
        {
          "indexed": true,
          "internalType": "address",
          "name": "delegator",
          "type": "address"
        },
        {
          "indexed": true,
          "internalType": "address",
          "name": "fromDelegate",
          "type": "address"
        },
        {
          "indexed": true,
          "internalType": "address",
          "name": "toDelegate",
          "type": "address"
        }
      ],
      "name": "DelegateChanged",
      "type": "event"
    },
    {
      "anonymous": false,
      "inputs": [
        {
          "indexed": true,
          "internalType": "address",
          "name": "delegate",
          "type": "address"
        },
        {
          "indexed": false,
          "internalType": "uint256",
          "name": "previousBalance",
          "type": "uint256"
        },
        {
          "indexed": false,
          "internalType": "uint256",
          "name": "newBalance",
          "type": "uint256"
        }
      ],
      "name": "DelegateVotesChanged",
      "type": "event"
    },
    {
      "anonymous": false,
      "inputs": [
        {
          "indexed": false,
          "internalType": "address",
          "name": "teacherAddress",
          "type": "address"
        },
        {
          "indexed": false,
          "internalType": "uint256",
          "name": "teacherFormationId",
          "type": "uint256"
        },
        {
          "indexed": false,
          "internalType": "address",
          "name": "studentAddress",
          "type": "address"
        }
      ],
      "name": "FormationCertified",
      "type": "event"
    },
    {
      "anonymous": false,
      "inputs": [
        {
          "indexed": false,
          "internalType": "address",
          "name": "teacherAddress",
          "type": "address"
        },
        {
          "indexed": false,
          "internalType": "uint256",
          "name": "teacherFormationId",
          "type": "uint256"
        }
      ],
      "name": "FormationPublished",
      "type": "event"
    },
    {
      "anonymous": false,
      "inputs": [
        {
          "indexed": true,
          "internalType": "address",
          "name": "previousOwner",
          "type": "address"
        },
        {
          "indexed": true,
          "internalType": "address",
          "name": "newOwner",
          "type": "address"
        }
      ],
      "name": "OwnershipTransferred",
      "type": "event"
    },
    {
      "anonymous": false,
      "inputs": [
        {
          "indexed": false,
          "internalType": "address",
          "name": "recruiterAddress",
          "type": "address"
        }
      ],
      "name": "RecruiterRegistered",
      "type": "event"
    },
    {
      "anonymous": false,
      "inputs": [
        {
          "indexed": false,
          "internalType": "address",
          "name": "studentAddress",
          "type": "address"
        },
        {
          "indexed": false,
          "internalType": "uint16",
          "name": "jobId",
          "type": "uint16"
        }
      ],
      "name": "RecruitmentReward",
      "type": "event"
    },
    {
      "anonymous": false,
      "inputs": [
        {
          "indexed": false,
          "internalType": "address",
          "name": "studentAddress",
          "type": "address"
        }
      ],
      "name": "StudentRegistered",
      "type": "event"
    },
    {
      "anonymous": false,
      "inputs": [
        {
          "indexed": false,
          "internalType": "address",
          "name": "teacherAddress",
          "type": "address"
        }
      ],
      "name": "TeacherRegistered",
      "type": "event"
    },
    {
      "anonymous": false,
      "inputs": [
        {
          "indexed": false,
          "internalType": "address",
          "name": "teacherAddress",
          "type": "address"
        }
      ],
      "name": "TeacherRewarded",
      "type": "event"
    },
    {
      "anonymous": false,
      "inputs": [
        {
          "indexed": true,
          "internalType": "address",
          "name": "from",
          "type": "address"
        },
        {
          "indexed": true,
          "internalType": "address",
          "name": "to",
          "type": "address"
        },
        {
          "indexed": false,
          "internalType": "uint256",
          "name": "value",
          "type": "uint256"
        }
      ],
      "name": "Transfer",
      "type": "event"
    },
    {
      "stateMutability": "payable",
      "type": "fallback",
      "payable": true
    },
    {
      "inputs": [],
      "name": "DOMAIN_SEPARATOR",
      "outputs": [
        {
          "internalType": "bytes32",
          "name": "",
          "type": "bytes32"
        }
      ],
      "stateMutability": "view",
      "type": "function",
      "constant": true
    },
    {
      "inputs": [
        {
          "internalType": "address",
          "name": "owner",
          "type": "address"
        },
        {
          "internalType": "address",
          "name": "spender",
          "type": "address"
        }
      ],
      "name": "allowance",
      "outputs": [
        {
          "internalType": "uint256",
          "name": "",
          "type": "uint256"
        }
      ],
      "stateMutability": "view",
      "type": "function",
      "constant": true
    },
    {
      "inputs": [
        {
          "internalType": "address",
          "name": "spender",
          "type": "address"
        },
        {
          "internalType": "uint256",
          "name": "amount",
          "type": "uint256"
        }
      ],
      "name": "approve",
      "outputs": [
        {
          "internalType": "bool",
          "name": "",
          "type": "bool"
        }
      ],
      "stateMutability": "nonpayable",
      "type": "function"
    },
    {
      "inputs": [
        {
          "internalType": "address",
          "name": "account",
          "type": "address"
        }
      ],
      "name": "balanceOf",
      "outputs": [
        {
          "internalType": "uint256",
          "name": "",
          "type": "uint256"
        }
      ],
      "stateMutability": "view",
      "type": "function",
      "constant": true
    },
    {
      "inputs": [
        {
          "internalType": "address",
          "name": "account",
          "type": "address"
        },
        {
          "internalType": "uint32",
          "name": "pos",
          "type": "uint32"
        }
      ],
      "name": "checkpoints",
      "outputs": [
        {
          "components": [
            {
              "internalType": "uint32",
              "name": "fromBlock",
              "type": "uint32"
            },
            {
              "internalType": "uint224",
              "name": "votes",
              "type": "uint224"
            }
          ],
          "internalType": "struct ERC20Votes.Checkpoint",
          "name": "",
          "type": "tuple"
        }
      ],
      "stateMutability": "view",
      "type": "function",
      "constant": true
    },
    {
      "inputs": [],
      "name": "decimals",
      "outputs": [
        {
          "internalType": "uint8",
          "name": "",
          "type": "uint8"
        }
      ],
      "stateMutability": "view",
      "type": "function",
      "constant": true
    },
    {
      "inputs": [
        {
          "internalType": "address",
          "name": "spender",
          "type": "address"
        },
        {
          "internalType": "uint256",
          "name": "subtractedValue",
          "type": "uint256"
        }
      ],
      "name": "decreaseAllowance",
      "outputs": [
        {
          "internalType": "bool",
          "name": "",
          "type": "bool"
        }
      ],
      "stateMutability": "nonpayable",
      "type": "function"
    },
    {
      "inputs": [
        {
          "internalType": "address",
          "name": "delegatee",
          "type": "address"
        }
      ],
      "name": "delegate",
      "outputs": [],
      "stateMutability": "nonpayable",
      "type": "function"
    },
    {
      "inputs": [
        {
          "internalType": "address",
          "name": "delegatee",
          "type": "address"
        },
        {
          "internalType": "uint256",
          "name": "nonce",
          "type": "uint256"
        },
        {
          "internalType": "uint256",
          "name": "expiry",
          "type": "uint256"
        },
        {
          "internalType": "uint8",
          "name": "v",
          "type": "uint8"
        },
        {
          "internalType": "bytes32",
          "name": "r",
          "type": "bytes32"
        },
        {
          "internalType": "bytes32",
          "name": "s",
          "type": "bytes32"
        }
      ],
      "name": "delegateBySig",
      "outputs": [],
      "stateMutability": "nonpayable",
      "type": "function"
    },
    {
      "inputs": [
        {
          "internalType": "address",
          "name": "account",
          "type": "address"
        }
      ],
      "name": "delegates",
      "outputs": [
        {
          "internalType": "address",
          "name": "",
          "type": "address"
        }
      ],
      "stateMutability": "view",
      "type": "function",
      "constant": true
    },
    {
      "inputs": [
        {
          "internalType": "uint256",
          "name": "blockNumber",
          "type": "uint256"
        }
      ],
      "name": "getPastTotalSupply",
      "outputs": [
        {
          "internalType": "uint256",
          "name": "",
          "type": "uint256"
        }
      ],
      "stateMutability": "view",
      "type": "function",
      "constant": true
    },
    {
      "inputs": [
        {
          "internalType": "address",
          "name": "account",
          "type": "address"
        },
        {
          "internalType": "uint256",
          "name": "blockNumber",
          "type": "uint256"
        }
      ],
      "name": "getPastVotes",
      "outputs": [
        {
          "internalType": "uint256",
          "name": "",
          "type": "uint256"
        }
      ],
      "stateMutability": "view",
      "type": "function",
      "constant": true
    },
    {
      "inputs": [
        {
          "internalType": "address",
          "name": "account",
          "type": "address"
        }
      ],
      "name": "getVotes",
      "outputs": [
        {
          "internalType": "uint256",
          "name": "",
          "type": "uint256"
        }
      ],
      "stateMutability": "view",
      "type": "function",
      "constant": true
    },
    {
      "inputs": [
        {
          "internalType": "address",
          "name": "spender",
          "type": "address"
        },
        {
          "internalType": "uint256",
          "name": "addedValue",
          "type": "uint256"
        }
      ],
      "name": "increaseAllowance",
      "outputs": [
        {
          "internalType": "bool",
          "name": "",
          "type": "bool"
        }
      ],
      "stateMutability": "nonpayable",
      "type": "function"
    },
    {
      "inputs": [],
      "name": "mleStaking",
      "outputs": [
        {
          "internalType": "contract MLEStaking",
          "name": "",
          "type": "address"
        }
      ],
      "stateMutability": "view",
      "type": "function",
      "constant": true
    },
    {
      "inputs": [],
      "name": "name",
      "outputs": [
        {
          "internalType": "string",
          "name": "",
          "type": "string"
        }
      ],
      "stateMutability": "view",
      "type": "function",
      "constant": true
    },
    {
      "inputs": [
        {
          "internalType": "address",
          "name": "owner",
          "type": "address"
        }
      ],
      "name": "nonces",
      "outputs": [
        {
          "internalType": "uint256",
          "name": "",
          "type": "uint256"
        }
      ],
      "stateMutability": "view",
      "type": "function",
      "constant": true
    },
    {
      "inputs": [
        {
          "internalType": "address",
          "name": "account",
          "type": "address"
        }
      ],
      "name": "numCheckpoints",
      "outputs": [
        {
          "internalType": "uint32",
          "name": "",
          "type": "uint32"
        }
      ],
      "stateMutability": "view",
      "type": "function",
      "constant": true
    },
    {
      "inputs": [],
      "name": "owner",
      "outputs": [
        {
          "internalType": "address",
          "name": "",
          "type": "address"
        }
      ],
      "stateMutability": "view",
      "type": "function",
      "constant": true
    },
    {
      "inputs": [
        {
          "internalType": "address",
          "name": "owner",
          "type": "address"
        },
        {
          "internalType": "address",
          "name": "spender",
          "type": "address"
        },
        {
          "internalType": "uint256",
          "name": "value",
          "type": "uint256"
        },
        {
          "internalType": "uint256",
          "name": "deadline",
          "type": "uint256"
        },
        {
          "internalType": "uint8",
          "name": "v",
          "type": "uint8"
        },
        {
          "internalType": "bytes32",
          "name": "r",
          "type": "bytes32"
        },
        {
          "internalType": "bytes32",
          "name": "s",
          "type": "bytes32"
        }
      ],
      "name": "permit",
      "outputs": [],
      "stateMutability": "nonpayable",
      "type": "function"
    },
    {
      "inputs": [],
      "name": "profitToDistribute",
      "outputs": [
        {
          "internalType": "uint256",
          "name": "",
          "type": "uint256"
        }
      ],
      "stateMutability": "view",
      "type": "function",
      "constant": true
    },
    {
      "inputs": [
        {
          "internalType": "uint256",
          "name": "",
          "type": "uint256"
        }
      ],
      "name": "recruitersAddress",
      "outputs": [
        {
          "internalType": "address",
          "name": "",
          "type": "address"
        }
      ],
      "stateMutability": "view",
      "type": "function",
      "constant": true
    },
    {
      "inputs": [],
      "name": "renounceOwnership",
      "outputs": [],
      "stateMutability": "nonpayable",
      "type": "function"
    },
    {
      "inputs": [
        {
          "internalType": "uint256",
          "name": "",
          "type": "uint256"
        }
      ],
      "name": "studentsAddress",
      "outputs": [
        {
          "internalType": "address",
          "name": "",
          "type": "address"
        }
      ],
      "stateMutability": "view",
      "type": "function",
      "constant": true
    },
    {
      "inputs": [],
      "name": "symbol",
      "outputs": [
        {
          "internalType": "string",
          "name": "",
          "type": "string"
        }
      ],
      "stateMutability": "view",
      "type": "function",
      "constant": true
    },
    {
      "inputs": [
        {
          "internalType": "uint256",
          "name": "",
          "type": "uint256"
        }
      ],
      "name": "teachersAddress",
      "outputs": [
        {
          "internalType": "address",
          "name": "",
          "type": "address"
        }
      ],
      "stateMutability": "view",
      "type": "function",
      "constant": true
    },
    {
      "inputs": [],
      "name": "totalSupply",
      "outputs": [
        {
          "internalType": "uint256",
          "name": "",
          "type": "uint256"
        }
      ],
      "stateMutability": "view",
      "type": "function",
      "constant": true
    },
    {
      "inputs": [
        {
          "internalType": "address",
          "name": "to",
          "type": "address"
        },
        {
          "internalType": "uint256",
          "name": "amount",
          "type": "uint256"
        }
      ],
      "name": "transfer",
      "outputs": [
        {
          "internalType": "bool",
          "name": "",
          "type": "bool"
        }
      ],
      "stateMutability": "nonpayable",
      "type": "function"
    },
    {
      "inputs": [
        {
          "internalType": "address",
          "name": "from",
          "type": "address"
        },
        {
          "internalType": "address",
          "name": "to",
          "type": "address"
        },
        {
          "internalType": "uint256",
          "name": "amount",
          "type": "uint256"
        }
      ],
      "name": "transferFrom",
      "outputs": [
        {
          "internalType": "bool",
          "name": "",
          "type": "bool"
        }
      ],
      "stateMutability": "nonpayable",
      "type": "function"
    },
    {
      "inputs": [
        {
          "internalType": "address",
          "name": "newOwner",
          "type": "address"
        }
      ],
      "name": "transferOwnership",
      "outputs": [],
      "stateMutability": "nonpayable",
      "type": "function"
    },
    {
      "stateMutability": "payable",
      "type": "receive",
      "payable": true
    },
    {
      "inputs": [
        {
          "internalType": "bool",
          "name": "_asStudent",
          "type": "bool"
        },
        {
          "internalType": "bool",
          "name": "_asTeacher",
          "type": "bool"
        },
        {
          "internalType": "bool",
          "name": "_asRecruiter",
          "type": "bool"
        }
      ],
      "name": "register",
      "outputs": [],
      "stateMutability": "nonpayable",
      "type": "function"
    },
    {
      "inputs": [],
      "name": "getTeachersAddresses",
      "outputs": [
        {
          "internalType": "address[]",
          "name": "",
          "type": "address[]"
        }
      ],
      "stateMutability": "view",
      "type": "function",
      "constant": true
    },
    {
      "inputs": [],
      "name": "getStudentsAddress",
      "outputs": [
        {
          "internalType": "address[]",
          "name": "",
          "type": "address[]"
        }
      ],
      "stateMutability": "view",
      "type": "function",
      "constant": true
    },
    {
      "inputs": [],
      "name": "getRecruitersAddress",
      "outputs": [
        {
          "internalType": "address[]",
          "name": "",
          "type": "address[]"
        }
      ],
      "stateMutability": "view",
      "type": "function",
      "constant": true
    },
    {
      "inputs": [
        {
          "internalType": "address",
          "name": "_recruiterAddress",
          "type": "address"
        }
      ],
      "name": "getAnnounceForRecruiter",
      "outputs": [
        {
          "components": [
            {
              "internalType": "bool",
              "name": "isActive",
              "type": "bool"
            },
            {
              "internalType": "uint256",
              "name": "creationDate",
              "type": "uint256"
            },
            {
              "internalType": "string",
              "name": "title",
              "type": "string"
            },
            {
              "internalType": "string",
              "name": "description",
              "type": "string"
            },
            {
              "internalType": "string[]",
              "name": "tags",
              "type": "string[]"
            },
            {
              "internalType": "address[]",
              "name": "candidates",
              "type": "address[]"
            }
          ],
          "internalType": "struct MLEUtils.Announce[]",
          "name": "",
          "type": "tuple[]"
        }
      ],
      "stateMutability": "view",
      "type": "function",
      "constant": true
    },
    {
      "inputs": [
        {
          "internalType": "address",
          "name": "_teacherAddress",
          "type": "address"
        }
      ],
      "name": "getFormationForTeacher",
      "outputs": [
        {
          "components": [
            {
              "internalType": "uint8",
              "name": "modulesCount",
              "type": "uint8"
            },
            {
              "internalType": "uint32",
              "name": "ratingsSum",
              "type": "uint32"
            },
            {
              "internalType": "uint32",
              "name": "ratingsCount",
              "type": "uint32"
            },
            {
              "internalType": "uint32",
              "name": "duration",
              "type": "uint32"
            },
            {
              "internalType": "uint128",
              "name": "creationDate",
              "type": "uint128"
            },
            {
              "internalType": "uint256",
              "name": "price",
              "type": "uint256"
            },
            {
              "internalType": "string",
              "name": "title",
              "type": "string"
            },
            {
              "internalType": "string[]",
              "name": "tags",
              "type": "string[]"
            },
            {
              "internalType": "address[]",
              "name": "students",
              "type": "address[]"
            }
          ],
          "internalType": "struct MLEUtils.TeacherFormation[]",
          "name": "",
          "type": "tuple[]"
        }
      ],
      "stateMutability": "view",
      "type": "function",
      "constant": true
    },
    {
      "inputs": [
        {
          "internalType": "address",
          "name": "_studentAddress",
          "type": "address"
        }
      ],
      "name": "getFormationForStudent",
      "outputs": [
        {
          "components": [
            {
              "internalType": "address",
              "name": "teacherAddress",
              "type": "address"
            },
            {
              "internalType": "uint16",
              "name": "formationId",
              "type": "uint16"
            },
            {
              "internalType": "uint8",
              "name": "validatedModulesNumber",
              "type": "uint8"
            },
            {
              "internalType": "bool",
              "name": "isCertified",
              "type": "bool"
            },
            {
              "internalType": "bool",
              "name": "isRated",
              "type": "bool"
            },
            {
              "internalType": "uint256",
              "name": "cashback",
              "type": "uint256"
            }
          ],
          "internalType": "struct MLEUtils.StudentFormation[]",
          "name": "",
          "type": "tuple[]"
        }
      ],
      "stateMutability": "view",
      "type": "function",
      "constant": true
    },
    {
      "inputs": [
        {
          "internalType": "address",
          "name": "_studentAddress",
          "type": "address"
        }
      ],
      "name": "getJobsForStudent",
      "outputs": [
        {
          "components": [
            {
              "internalType": "bool",
              "name": "isAccepted",
              "type": "bool"
            },
            {
              "internalType": "address",
              "name": "recruiterAddress",
              "type": "address"
            },
            {
              "internalType": "uint16",
              "name": "announceId",
              "type": "uint16"
            },
            {
              "internalType": "uint128",
              "name": "entryDate",
              "type": "uint128"
            },
            {
              "internalType": "string",
              "name": "title",
              "type": "string"
            },
            {
              "internalType": "uint256",
              "name": "challenge",
              "type": "uint256"
            }
          ],
          "internalType": "struct MLEUtils.Job[]",
          "name": "",
          "type": "tuple[]"
        }
      ],
      "stateMutability": "view",
      "type": "function",
      "constant": true
    },
    {
      "inputs": [
        {
          "internalType": "uint256",
          "name": "_announcePostPrice",
          "type": "uint256"
        }
      ],
      "name": "setAnnouncePostPrice",
      "outputs": [],
      "stateMutability": "nonpayable",
      "type": "function"
    },
    {
      "inputs": [
        {
          "internalType": "uint256",
          "name": "_formationFee",
          "type": "uint256"
        }
      ],
      "name": "setFormationFee",
      "outputs": [],
      "stateMutability": "nonpayable",
      "type": "function"
    },
    {
      "inputs": [
        {
          "internalType": "uint256",
          "name": "_formationFeeBurn",
          "type": "uint256"
        }
      ],
      "name": "setFormationFeeBurn",
      "outputs": [],
      "stateMutability": "nonpayable",
      "type": "function"
    },
    {
      "inputs": [
        {
          "internalType": "uint256",
          "name": "_teacherReward",
          "type": "uint256"
        }
      ],
      "name": "setQualityFormationReward",
      "outputs": [],
      "stateMutability": "nonpayable",
      "type": "function"
    },
    {
      "inputs": [
        {
          "internalType": "uint256",
          "name": "_jobSignedReward",
          "type": "uint256"
        }
      ],
      "name": "setJobSignedReward",
      "outputs": [],
      "stateMutability": "nonpayable",
      "type": "function"
    },
    {
      "inputs": [
        {
          "internalType": "uint8",
          "name": "_modulesCount",
          "type": "uint8"
        },
        {
          "internalType": "uint32",
          "name": "_duration",
          "type": "uint32"
        },
        {
          "internalType": "uint256",
          "name": "_price",
          "type": "uint256"
        },
        {
          "internalType": "string",
          "name": "_title",
          "type": "string"
        },
        {
          "internalType": "string[]",
          "name": "_tags",
          "type": "string[]"
        }
      ],
      "name": "postFormation",
      "outputs": [],
      "stateMutability": "nonpayable",
      "type": "function"
    },
    {
      "inputs": [
        {
          "internalType": "address",
          "name": "_studentAddress",
          "type": "address"
        },
        {
          "internalType": "uint16",
          "name": "_teacherFormationId",
          "type": "uint16"
        }
      ],
      "name": "validateUserModule",
      "outputs": [],
      "stateMutability": "nonpayable",
      "type": "function"
    },
    {
      "inputs": [
        {
          "internalType": "address",
          "name": "_studentAddress",
          "type": "address"
        },
        {
          "internalType": "uint16",
          "name": "_teacherFormationId",
          "type": "uint16"
        }
      ],
      "name": "certifyUserFormation",
      "outputs": [],
      "stateMutability": "nonpayable",
      "type": "function"
    },
    {
      "inputs": [
        {
          "internalType": "address",
          "name": "_teacherAddress",
          "type": "address"
        },
        {
          "internalType": "uint16",
          "name": "_teacherFormationId",
          "type": "uint16"
        }
      ],
      "name": "buyFormation",
      "outputs": [],
      "stateMutability": "nonpayable",
      "type": "function"
    },
    {
      "inputs": [
        {
          "internalType": "address",
          "name": "_teacherAddress",
          "type": "address"
        },
        {
          "internalType": "uint16",
          "name": "_teacherFormationId",
          "type": "uint16"
        },
        {
          "internalType": "uint8",
          "name": "grade",
          "type": "uint8"
        }
      ],
      "name": "evaluateFormation",
      "outputs": [],
      "stateMutability": "nonpayable",
      "type": "function"
    },
    {
      "inputs": [
        {
          "internalType": "string",
          "name": "_title",
          "type": "string"
        },
        {
          "internalType": "string",
          "name": "_description",
          "type": "string"
        },
        {
          "internalType": "string[]",
          "name": "_tags",
          "type": "string[]"
        }
      ],
      "name": "postAnnounce",
      "outputs": [],
      "stateMutability": "nonpayable",
      "type": "function"
    },
    {
      "inputs": [
        {
          "internalType": "address",
          "name": "_studentAddress",
          "type": "address"
        },
        {
          "internalType": "uint16",
          "name": "_announceId",
          "type": "uint16"
        },
        {
          "internalType": "string",
          "name": "_title",
          "type": "string"
        }
      ],
      "name": "offerJob",
      "outputs": [],
      "stateMutability": "nonpayable",
      "type": "function"
    },
    {
      "inputs": [
        {
          "internalType": "address",
          "name": "_recruiterAddress",
          "type": "address"
        },
        {
          "internalType": "uint16",
          "name": "_announceId",
          "type": "uint16"
        }
      ],
      "name": "applyAnnounce",
      "outputs": [],
      "stateMutability": "nonpayable",
      "type": "function"
    },
    {
      "inputs": [
        {
          "internalType": "bool",
          "name": "_doAccept",
          "type": "bool"
        },
        {
          "internalType": "uint16",
          "name": "_jobId",
          "type": "uint16"
        }
      ],
      "name": "answerJobOffer",
      "outputs": [],
      "stateMutability": "nonpayable",
      "type": "function"
    },
    {
      "inputs": [
        {
          "internalType": "uint16",
          "name": "_jobId",
          "type": "uint16"
        },
        {
          "internalType": "uint256",
          "name": "_challenge",
          "type": "uint256"
        }
      ],
      "name": "proveId",
      "outputs": [],
      "stateMutability": "nonpayable",
      "type": "function"
    },
    {
      "inputs": [
        {
          "internalType": "address",
          "name": "_studentAddress",
          "type": "address"
        },
        {
          "internalType": "uint16",
          "name": "_jobId",
          "type": "uint16"
        },
        {
          "internalType": "uint256",
          "name": "_challenge",
          "type": "uint256"
        }
      ],
      "name": "verifyId",
      "outputs": [],
      "stateMutability": "nonpayable",
      "type": "function"
    },
    {
      "inputs": [
        {
          "internalType": "uint256",
          "name": "_amount",
          "type": "uint256"
        }
      ],
      "name": "DAOMint",
      "outputs": [],
      "stateMutability": "nonpayable",
      "type": "function"
    },
    {
      "inputs": [
        {
          "internalType": "uint256",
          "name": "_amount",
          "type": "uint256"
        },
        {
          "internalType": "uint8",
          "name": "_planId",
          "type": "uint8"
        }
      ],
      "name": "stakeDeposit",
      "outputs": [],
      "stateMutability": "nonpayable",
      "type": "function"
    },
    {
      "inputs": [
        {
          "internalType": "uint256",
          "name": "_amount",
          "type": "uint256"
        },
        {
          "internalType": "uint8",
          "name": "_planId",
          "type": "uint8"
        }
      ],
      "name": "stakeWithdraw",
      "outputs": [],
      "stateMutability": "nonpayable",
      "type": "function"
    },
    {
      "inputs": [],
      "name": "distributeProfits",
      "outputs": [],
      "stateMutability": "nonpayable",
      "type": "function"
    }
  ],
  "bytecode": "0x6101406040526802b5e3af16b188000060135560036014556000601555683635c9adc5dea000006016819055601755601880546001600160401b0319166423000000051790553480156200005257600080fd5b506040518060400160405280600d81526020016c26b0b9ba32b910261322b0b93760991b81525080604051806040016040528060018152602001603160f81b8152506040518060400160405280600d81526020016c26b0b9ba32b910261322b0b93760991b815250604051806040016040528060038152602001624d4c4560e81b8152508160039081620000e7919062000b94565b506004620000f6828262000b94565b5050825160209384012082519284019290922060e08390526101008190524660a0818152604080517f8b73c3c69bb8fe3d512ecc4cf759cc79239f7b179b0ffacaa9a75d522b39400f818901819052818301979097526060810194909452608080850193909352308483018190528151808603909301835260c09485019091528151919096012090529290925261012052506200019590503362000305565b620001ab3369d3c21bcecceda100000062000357565b604051620001b99062000ae2565b604051809103906000f080158015620001d6573d6000803e3d6000fd5b50601280546001600160a01b0319166001600160a01b0392909216919091179055738c558db06f214a38aedee77017560555f71a1402732afdc89fdc0471cecb9afd277620b6e7aa25fce2731e74a5cc99ab4fef6c567e133a92faf679e1692273791d5ec28598a7691fd17a98b8eae8388762848173fb2f05f21d658d1c163be1377ea9c37f8a87f9af73914e4d81949df38eb24439362d73db054a75ac986200028a81683635c9adc5dea0000062000372565b50620002a086683635c9adc5dea0000062000372565b50620002b685683635c9adc5dea0000062000372565b50620002cc84683635c9adc5dea0000062000372565b50620002e283683635c9adc5dea0000062000372565b50620002f882683635c9adc5dea0000062000372565b5050505050505062000ca2565b600a80546001600160a01b038381166001600160a01b0319831681179093556040519116919082907f8be0079c531659141344cd1fd0a4f28419497f9722a3daafe3b4186f6b6457e090600090a35050565b6200036e82826200038e60201b620038c71760201c565b5050565b6000336200038281858562000445565b60019150505b92915050565b620003a58282620005e660201b620039511760201c565b6001600160e01b03620003b9620006a28216565b1115620004265760405162461bcd60e51b815260206004820152603060248201527f4552433230566f7465733a20746f74616c20737570706c79207269736b73206f60448201526f766572666c6f77696e6720766f74657360801b60648201526084015b60405180910390fd5b6200043f600962003a06620006a860201b1783620006bd565b50505050565b6001600160a01b038316620004ab5760405162461bcd60e51b815260206004820152602560248201527f45524332303a207472616e736665722066726f6d20746865207a65726f206164604482015264647265737360d81b60648201526084016200041d565b6001600160a01b0382166200050f5760405162461bcd60e51b815260206004820152602360248201527f45524332303a207472616e7366657220746f20746865207a65726f206164647260448201526265737360e81b60648201526084016200041d565b6001600160a01b03831660009081526020819052604090205481811015620005895760405162461bcd60e51b815260206004820152602660248201527f45524332303a207472616e7366657220616d6f756e7420657863656564732062604482015265616c616e636560d01b60648201526084016200041d565b6001600160a01b03848116600081815260208181526040808320878703905593871680835291849020805487019055925185815290926000805160206200839e833981519152910160405180910390a36200043f84848462000854565b6001600160a01b0382166200063e5760405162461bcd60e51b815260206004820152601f60248201527f45524332303a206d696e7420746f20746865207a65726f20616464726573730060448201526064016200041d565b806002600082825462000652919062000c76565b90915550506001600160a01b038216600081815260208181526040808320805486019055518481526000805160206200839e833981519152910160405180910390a36200036e6000838362000854565b60025490565b6000620006b6828462000c76565b9392505050565b825460009081908181156200071d57620006ec87620006de60018562000c8c565b600091825260209091200190565b60408051808201909152905463ffffffff8116825264010000000090046001600160e01b0316602082015262000732565b60408051808201909152600080825260208201525b905080602001516001600160e01b031693506200075084868860201c565b9250600082118015620007695750805163ffffffff1643145b15620007c05762000785836200086c60201b62003a121760201c565b6200079788620006de60018662000c8c565b80546001600160e01b03929092166401000000000263ffffffff90921691909117905562000845565b866040518060400160405280620007e243620008db60201b62003a7f1760201c565b63ffffffff16815260200162000803866200086c60201b62003a121760201c565b6001600160e01b0390811690915282546001810184556000938452602093849020835194909301519091166401000000000263ffffffff909316929092179101555b5050935093915050565b505050565b6200084f8383836200094260201b62003ae41760201c565b60006001600160e01b03821115620008d75760405162461bcd60e51b815260206004820152602760248201527f53616665436173743a2076616c756520646f65736e27742066697420696e20326044820152663234206269747360c81b60648201526084016200041d565b5090565b600063ffffffff821115620008d75760405162461bcd60e51b815260206004820152602660248201527f53616665436173743a2076616c756520646f65736e27742066697420696e203360448201526532206269747360d01b60648201526084016200041d565b6200095a8383836200084f60201b6200322c1760201c565b6200084f62000969846200097b565b62000974846200097b565b8362000999565b6001600160a01b039081166000908152600760205260409020541690565b816001600160a01b0316836001600160a01b031614158015620009bc5750600081115b156200084f576001600160a01b0383161562000a49576001600160a01b03831660009081526008602090815260408220829162000a06919062000ad4901b62003aff1785620006bd565b91509150846001600160a01b0316600080516020620083be833981519152838360405162000a3e929190918252602082015260400190565b60405180910390a250505b6001600160a01b038216156200084f576001600160a01b03821660009081526008602090815260408220829162000a8d9190620006a8901b62003a061785620006bd565b91509150836001600160a01b0316600080516020620083be833981519152838360405162000ac5929190918252602082015260400190565b60405180910390a25050505050565b6000620006b6828462000c8c565b6119208062006a7e83390190565b634e487b7160e01b600052604160045260246000fd5b600181811c9082168062000b1b57607f821691505b60208210810362000b3c57634e487b7160e01b600052602260045260246000fd5b50919050565b601f8211156200084f57600081815260208120601f850160051c8101602086101562000b6b5750805b601f850160051c820191505b8181101562000b8c5782815560010162000b77565b505050505050565b81516001600160401b0381111562000bb05762000bb062000af0565b62000bc88162000bc1845462000b06565b8462000b42565b602080601f83116001811462000c00576000841562000be75750858301515b600019600386901b1c1916600185901b17855562000b8c565b600085815260208120601f198616915b8281101562000c315788860151825594840194600190910190840162000c10565b508582101562000c505787850151600019600388901b60f8161c191681555b5050505050600190811b01905550565b634e487b7160e01b600052601160045260246000fd5b8082018082111562000388576200038862000c60565b8181038181111562000388576200038862000c60565b60805160a05160c05160e0516101005161012051615d8c62000cf26000396000614166015260006141b501526000614190015260006140e9015260006141130152600061413d0152615d8c6000f3fe6080604052600436106102925760003560e01c8063015c99e41461029b57806306fdde03146102d1578063079d1ce8146102f3578063095ea7b3146103135780630b2138281461034357806313d5a7f714610363578063170b8a1c1461038357806318160ddd146103a35780631a4eea2a146103c25780631c63f258146103e25780631fee5ccd1461040257806323b872dd146104175780632b8e567f14610437578063313ce5671461045757806332bb09401461047357806333ad4fc1146104935780633644e515146104c057806339509351146104d55780633a05ca6f146104f55780633a46b1a814610515578063499ab700146105355780634be70e2a146105625780634f2be46814610582578063587cde1e146105a25780635babdc7c146105c25780635c19a95c146105e25780635c4f84191461060257806368cb519b146106225780636b9d1cf41461064f5780636fcfff451461066f57806370a08231146106a4578063715018a6146106c457806376c967fb146106d9578063774d0b6f146106f95780637d8e0db51461071b5780637ecebe00146107485780638b96a3a0146107685780638da5cb5b146107885780638e539e8c1461079d57806395d89b41146107bd5780639ab24eb0146107d25780639dc1a1ab146107f2578063a3c718db14610807578063a457c2d714610827578063a9059cbb14610847578063aa5fa39814610867578063b8058bac14610887578063c3cda520146108a7578063c7190a54146108c7578063c8dc948e146108e7578063d04a1ec0146108fc578063d2c36ad114610912578063d505accf14610932578063dd62ed3e14610952578063e472b03a14610972578063f08ddf7a14610992578063f1127ed8146109b2578063f2fde38b146109fc57005b3661029957005b005b3480156102a757600080fd5b506102bb6102b6366004614e1e565b610a1c565b6040516102c89190614e39565b60405180910390f35b3480156102dd57600080fd5b506102e6610b2d565b6040516102c89190614f0b565b3480156102ff57600080fd5b5061029961030e366004614f30565b610bbf565b34801561031f57600080fd5b5061033361032e366004614f63565b611170565b60405190151581526020016102c8565b34801561034f57600080fd5b5061029961035e366004614f8d565b61118a565b34801561036f57600080fd5b5061029961037e366004614f8d565b611197565b34801561038f57600080fd5b5061029961039e366004614fa6565b6111a4565b3480156103af57600080fd5b506002545b6040519081526020016102c8565b3480156103ce57600080fd5b506102996103dd36600461513a565b611217565b3480156103ee57600080fd5b506102996103fd366004614f30565b611446565b34801561040e57600080fd5b50610299611707565b34801561042357600080fd5b506103336104323660046151c8565b6117b3565b34801561044357600080fd5b50610299610452366004614f30565b6117d7565b34801561046357600080fd5b50604051601281526020016102c8565b34801561047f57600080fd5b5061029961048e366004615204565b611a04565b34801561049f57600080fd5b506104b36104ae366004614e1e565b611bbf565b6040516102c891906152cc565b3480156104cc57600080fd5b506103b4611e93565b3480156104e157600080fd5b506103336104f0366004614f63565b611ea2565b34801561050157600080fd5b506102996105103660046153ca565b611ec4565b34801561052157600080fd5b506103b4610530366004614f63565b61205a565b34801561054157600080fd5b50610555610550366004614f8d565b6120a4565b6040516102c89190615451565b34801561056e57600080fd5b5061029961057d366004615465565b6120ce565b34801561058e57600080fd5b5061055561059d366004614f8d565b612169565b3480156105ae57600080fd5b506105556105bd366004614e1e565b612179565b3480156105ce57600080fd5b506102996105dd366004614f8d565b612197565b3480156105ee57600080fd5b506102996105fd366004614e1e565b6121a4565b34801561060e57600080fd5b5061029961061d366004615488565b6121b1565b34801561062e57600080fd5b5061064261063d366004614e1e565b61253d565b6040516102c891906154cb565b34801561065b57600080fd5b5061029961066a366004614f30565b6126c7565b34801561067b57600080fd5b5061068f61068a366004614e1e565b61291d565b60405163ffffffff90911681526020016102c8565b3480156106b057600080fd5b506103b46106bf366004614e1e565b61293f565b3480156106d057600080fd5b5061029961295a565b3480156106e557600080fd5b506102996106f4366004615589565b61296e565b34801561070557600080fd5b5061070e612a40565b6040516102c891906155a5565b34801561072757600080fd5b5061073b610736366004614e1e565b612aa1565b6040516102c891906155b8565b34801561075457600080fd5b506103b4610763366004614e1e565b612dbf565b34801561077457600080fd5b50601254610555906001600160a01b031681565b34801561079457600080fd5b50610555612ddd565b3480156107a957600080fd5b506103b46107b8366004614f8d565b612dec565b3480156107c957600080fd5b506102e6612e18565b3480156107de57600080fd5b506103b46107ed366004614e1e565b612e27565b3480156107fe57600080fd5b5061070e612ead565b34801561081357600080fd5b50610299610822366004614f8d565b612f0d565b34801561083357600080fd5b50610333610842366004614f63565b612f74565b34801561085357600080fd5b50610333610862366004614f63565b612fef565b34801561087357600080fd5b50610555610882366004614f8d565b612ffd565b34801561089357600080fd5b506102996108a236600461567e565b61300d565b3480156108b357600080fd5b506102996108c23660046156b8565b613231565b3480156108d357600080fd5b506102996108e2366004614f8d565b613363565b3480156108f357600080fd5b5061070e61337c565b34801561090857600080fd5b506103b460195481565b34801561091e57600080fd5b5061029961092d366004615465565b6133dc565b34801561093e57600080fd5b5061029961094d366004615710565b613471565b34801561095e57600080fd5b506103b461096d36600461577a565b6135d5565b34801561097e57600080fd5b5061029961098d366004614f8d565b613600565b34801561099e57600080fd5b506102996109ad3660046157a4565b61366b565b3480156109be57600080fd5b506109d26109cd3660046157f7565b6137ce565b60408051825163ffffffff1681526020928301516001600160e01b031692810192909252016102c8565b348015610a0857600080fd5b50610299610a17366004614e1e565b613851565b6001600160a01b0381166000908152600b602052604090205460609060ff16610a605760405162461bcd60e51b8152600401610a5790615821565b60405180910390fd5b6001600160a01b0382166000908152600b6020908152604080832060010180548251818502810185019093528083529193909284015b82821015610b225760008481526020908190206040805160c0810182526002860290920180546001600160a01b038116845261ffff600160a01b8204168486015260ff600160b01b8204811693850193909352600160b81b8104831615156060850152600160c01b90049091161515608083015260019081015460a08301529083529092019101610a96565b505050509050919050565b606060038054610b3c90615858565b80601f0160208091040260200160405190810160405280929190818152602001828054610b6890615858565b8015610bb55780601f10610b8a57610100808354040283529160200191610bb5565b820191906000526020600020905b815481529060010190602001808311610b9857829003601f168201915b5050505050905090565b336000908152600b602052604090205460ff16610bee5760405162461bcd60e51b8152600401610a579061588c565b6001600160a01b0382166000908152600c602052604090205460ff16610c265760405162461bcd60e51b8152600401610a5790615821565b6001600160a01b0382166000908152600c602052604090206001015461ffff821610610c645760405162461bcd60e51b8152600401610a57906158be565b6001600160a01b0382166000908152600c60205260408120600101805461ffff8416908110610c9557610c956158eb565b600091825260209182902060408051610120810182526005909302909101805460ff8116845263ffffffff6101008204811695850195909552600160281b8104851692840192909252600160481b820490931660608301526001600160801b03600160681b909104166080820152600182015460a082015260028201805491929160c084019190610d2590615858565b80601f0160208091040260200160405190810160405280929190818152602001828054610d5190615858565b8015610d9e5780601f10610d7357610100808354040283529160200191610d9e565b820191906000526020600020905b815481529060010190602001808311610d8157829003601f168201915b5050505050815260200160038201805480602002602001604051908101604052809291908181526020016000905b82821015610e78578382906000526020600020018054610deb90615858565b80601f0160208091040260200160405190810160405280929190818152602001828054610e1790615858565b8015610e645780601f10610e3957610100808354040283529160200191610e64565b820191906000526020600020905b815481529060010190602001808311610e4757829003601f168201915b505050505081526020019060010190610dcc565b50505050815260200160048201805480602002602001604051908101604052809291908181526020018280548015610ed957602002820191906000526020600020905b81546001600160a01b03168152600190910190602001808311610ebb575b50505050508152505090508060a001516002610ef59190615917565b610efe3361293f565b1015610f1c5760405162461bcd60e51b8152600401610a579061592e565b600060646014548360a00151610f329190615917565b610f3c9190615972565b905060006064601554601454610f529190615917565b610f5c9190615972565b90506000828460a00151610f709190615994565b9050610f7c8682612fef565b610f8557600080fd5b610fa43083858760a00151610f9a91906159a7565b6108629190615994565b610fad57600080fd5b610fb78683613b0b565b60a08401513360009081526011602052604081208054909190610fdb9084906159a7565b9091555050835160a0850151600091610ff99160ff90911690615972565b6040805160c0810182526001600160a01b03808b16825261ffff808b1660208085019182526000858701818152606087018281526080880183815260a089018b8152338552600b8652998420600190810180548083018255908652959094208951600290960201805496519351925191511515600160c01b0260ff60c01b19921515600160b81b0260ff60b81b1960ff95909516600160b01b029490941661ffff60b01b1995909916600160a01b026001600160b01b03199098169690991695909517959095179190911694909417939093179190911692909217825592519201919091559091506110eb8486615994565b601960008282546110fc91906159a7565b90915550506001600160a01b0388166000908152600c60205260409020600101805461ffff8916908110611132576111326158eb565b60009182526020808320600460059093020191909101805460018101825590835291200180546001600160a01b031916331790555050505050505050565b60003361117e818585613b15565b60019150505b92915050565b611192613c39565b601355565b61119f613c39565b601655565b336000908152600b602052604090205460ff166111d35760405162461bcd60e51b8152600401610a579061588c565b336000908152600b60205260409020600201805482919061ffff85169081106111fe576111fe6158eb565b9060005260206000209060040201600301819055505050565b336000908152600c602052604090205460ff166112465760405162461bcd60e51b8152600401610a57906159ba565b604080516101208101825260008082526020820181905291810182905260608181018390526080820183905260a082019290925260c0810182905260e08101829052610100810182905250604080516101208101825260ff80891682526000602080840182815284860183815263ffffffff8c8116606088019081526001600160801b0342811660808a0190815260a08a018f815260c08b018f815260e08c018f9052610100808d018f9052338b52600c8a529c8a20600190810180548083018255908c5299909a208c516005909a020180549851975195519351909416600160681b02600160681b600160e81b0319938716600160481b0263ffffffff60481b19968816600160281b0296909616600160281b600160681b031998909716909d0264ffffffffff1990981698909a169790971795909517939093169190911717919091169590951785555190840155519091829160028201906113aa9082615a3a565b5060e082015180516113c6916003840191602090910190614ce3565b5061010082015180516113e3916004840191602090910190614d35565b5050336000818152600c602052604090206001908101547ff8f544580205e01b906f7eabb7d1c93ea2ddbed202ef620ff77af9d85ffb056593506114279190615994565b604051611435929190615af9565b60405180910390a150505050505050565b336000908152600c602052604090205460ff166114755760405162461bcd60e51b8152600401610a57906159ba565b6001600160a01b0382166000908152600b602052604090205460ff166114ad5760405162461bcd60e51b8152600401610a5790615821565b60006114ba833384613c98565b6001600160a01b0384166000908152600b602052604081206001018054929350909161ffff84169081106114f0576114f06158eb565b60009182526020918290206040805160c081018252600290930290910180546001600160a01b038116845261ffff600160a01b8204169484019490945260ff600160b01b8504811692840192909252600160b81b840482161580156060850152600160c01b909404909116151560808301526001015460a082015291506115895760405162461bcd60e51b8152600401610a5790615b12565b336000908152600c60205260409020600101805461ffff85169081106115b1576115b16158eb565b6000918252602090912060059091020154604082015160ff91821691161061161b5760405162461bcd60e51b815260206004820152601d60248201527f4c617374206d6f64756c6520616c72656164792076616c6964617465640000006044820152606401610a57565b6001600160a01b0384166000908152600b60205260409020600101805461ffff841690811061164c5761164c6158eb565b600091825260209091206002909102018054600160b01b900460ff1690601661167483615b47565b91906101000a81548160ff021916908360ff160217905550508060a0015160116000866001600160a01b03166001600160a01b031681526020019081526020016000205411156117015760a08101516001600160a01b038516600090815260116020526040812080549091906116eb908490615994565b9250508190555061170130858360a00151613dde565b50505050565b61170f613c39565b60125460195461172c9130916001600160a01b0390911690613b15565b601254601954604051631352d2ed60e31b81526001600160a01b0390921691639a969768916117619160040190815260200190565b600060405180830381600087803b15801561177b57600080fd5b505af115801561178f573d6000803e3d6000fd5b50506012546117ac92503091506001600160a01b03166000613b15565b6000601955565b6000336117c1858285613f76565b6117cc858585613dde565b506001949350505050565b336000908152600c602052604090205460ff166118065760405162461bcd60e51b8152600401610a57906159ba565b6001600160a01b0382166000908152600b602052604090205460ff1661183e5760405162461bcd60e51b8152600401610a5790615821565b600061184b833384613c98565b6001600160a01b0384166000908152600b6020526040902060010180549192509061ffff8316908110611880576118806158eb565b6000918252602090912060029091020154600160b81b900460ff16156118b85760405162461bcd60e51b8152600401610a5790615b12565b336000908152600c602052604090206001018054611955919061ffff85169081106118e5576118e56158eb565b906000526020600020906005020160040180548060200260200160405190810160405280929190818152602001828054801561194a57602002820191906000526020600020905b81546001600160a01b0316815260019091019060200180831161192c575b505050505084613fea565b336000908152600c60205260409020600101805461ffff851690811061197d5761197d6158eb565b906000526020600020906005020160040190805190602001906119a1929190614d35565b506001600160a01b0383166000908152600b602052604090206001908101805461ffff84169081106119d5576119d56158eb565b600091825260209091206002909102018054911515600160b81b0260ff60b81b19909216919091179055505050565b336000908152600d602052604090205460ff16611a335760405162461bcd60e51b8152600401610a5790615b66565b6001600160a01b0383166000908152600b60205260409020600201805482919061ffff8516908110611a6757611a676158eb565b90600052602060002090600402016003015414611ab85760405162461bcd60e51b815260206004820152600f60248201526e1259081b9bdd081d995c9a599a5959608a1b6044820152606401610a57565b6001600160a01b0383166000908152600b60205260408120600201805461ffff8516908110611ae957611ae96158eb565b6000918252602080832060049290920290910154338352600d909152604082206001018054600160a81b90920461ffff1693509083908110611b2d57611b2d6158eb565b60009182526020909120600690910201805460ff1916911515919091179055601754611b5a9030906140d2565b60175460196000828254611b6e91906159a7565b9091555050604080516001600160a01b038616815261ffff851660208201527fc6921912a8b31c32b2619342be5b4850647fd26a3b11a2a31621af0fe41c9ee591015b60405180910390a150505050565b6001600160a01b0381166000908152600c602052604090205460609060ff16611bfa5760405162461bcd60e51b8152600401610a5790615b9a565b6001600160a01b0382166000908152600c6020908152604080832060010180548251818502810185019093528083529193909284015b82821015610b22576000848152602090819020604080516101208101825260058602909201805460ff8116845263ffffffff6101008204811695850195909552600160281b8104851692840192909252600160481b820490931660608301526001600160801b03600160681b909104166080820152600182015460a082015260028201805491929160c084019190611cc790615858565b80601f0160208091040260200160405190810160405280929190818152602001828054611cf390615858565b8015611d405780601f10611d1557610100808354040283529160200191611d40565b820191906000526020600020905b815481529060010190602001808311611d2357829003601f168201915b5050505050815260200160038201805480602002602001604051908101604052809291908181526020016000905b82821015611e1a578382906000526020600020018054611d8d90615858565b80601f0160208091040260200160405190810160405280929190818152602001828054611db990615858565b8015611e065780601f10611ddb57610100808354040283529160200191611e06565b820191906000526020600020905b815481529060010190602001808311611de957829003601f168201915b505050505081526020019060010190611d6e565b50505050815260200160048201805480602002602001604051908101604052809291908181526020018280548015611e7b57602002820191906000526020600020905b81546001600160a01b03168152600190910190602001808311611e5d575b50505050508152505081526020019060010190611c30565b6000611e9d6140dc565b905090565b60003361117e818585611eb583836135d5565b611ebf91906159a7565b613b15565b336000908152600d602052604090205460ff16611ef35760405162461bcd60e51b8152600401610a5790615b66565b611eff30601354612fef565b611f1b5760405162461bcd60e51b8152600401610a579061592e565b60135460196000828254611f2f91906159a7565b9091555050336000908152600d60209081526040808320815160c08101835260018082524282860190815293820189815260608084018a90526080840189905260a0840181905293820180548084018255908852959096208251600690960201805460ff191695151595909517855592519284019290925592519091906002820190611fbb9082615a3a565b5060608201516003820190611fd09082615a3a565b5060808201518051611fec916004840191602090910190614ce3565b5060a08201518051612008916005840191602090910190614d35565b5050336000818152600d602052604090206001908101547f52d05653c98fe667b599754f13c6143c478090c2f1e7550217d2a412837190ff935061204c9190615994565b604051611bb1929190615af9565b600043821061207b5760405162461bcd60e51b8152600401610a5790615bd1565b6001600160a01b038316600090815260086020526040902061209d9083614203565b9392505050565b600f81815481106120b457600080fd5b6000918252602090912001546001600160a01b0316905081565b6012546120e69030906001600160a01b031684613b15565b601254604051636efc6d9360e01b81526001600160a01b0390911690636efc6d939061211a90339086908690600401615c08565b600060405180830381600087803b15801561213457600080fd5b505af1158015612148573d6000803e3d6000fd5b505060125461216592503091506001600160a01b03166000613b15565b5050565b600e81815481106120b457600080fd5b6001600160a01b039081166000908152600760205260409020541690565b61219f613c39565b601755565b6121ae33826142f9565b50565b336000908152600b602052604090205460ff166121e05760405162461bcd60e51b8152600401610a579061588c565b60328160ff1611156122255760405162461bcd60e51b815260206004820152600e60248201526d08ee4c2c8ca40e8dede40d0d2ced60931b6044820152606401610a57565b6001600160a01b0383166000908152600c602052604090205460ff1661225d5760405162461bcd60e51b8152600401610a5790615b9a565b6001600160a01b0383166000908152600c602052604090206001015461ffff83161061229b5760405162461bcd60e51b8152600401610a57906158be565b60006122a8338585613c98565b336000908152600b6020526040902060010180549192509061ffff83169081106122d4576122d46158eb565b6000918252602090912060029091020154600160b81b900460ff166123395760405162461bcd60e51b815260206004820152601b60248201527a14dd1d59195b9d0818d85b9b9bdd08195d985b1d585d19481e595d602a1b6044820152606401610a57565b336000908152600b60205260409020600101805461ffff8316908110612361576123616158eb565b6000918252602090912060029091020154600160c01b900460ff16156123da5760405162461bcd60e51b815260206004820152602860248201527f53747564656e7420616c7265616479206576616c75617465642074686973206660448201526737b936b0ba34b7b760c11b6064820152608401610a57565b336000908152600b602052604090206001908101805461ffff8416908110612404576124046158eb565b6000918252602080832060029092029091018054931515600160c01b0260ff60c01b19909416939093179092556001600160a01b0386168152600c90915260409020600101805460ff8416919061ffff8616908110612465576124656158eb565b600091825260209091206005909102018054600190612490908490610100900463ffffffff16615c2c565b92506101000a81548163ffffffff021916908363ffffffff160217905550600c6000856001600160a01b03166001600160a01b031681526020019081526020016000206001018361ffff16815481106124eb576124eb6158eb565b600091825260209091206005918202018054600160281b900463ffffffff169161251483615c50565b91906101000a81548163ffffffff021916908363ffffffff160217905550506117018484614379565b6001600160a01b0381166000908152600b602052604090205460609060ff166125785760405162461bcd60e51b8152600401610a5790615821565b6001600160a01b0382166000908152600b6020908152604080832060020180548251818502810185019093528083529193909284015b82821015610b225760008481526020908190206040805160c08101825260048602909201805460ff81161515845261010081046001600160a01b031694840194909452600160a81b90930461ffff169082015260018201546001600160801b0316606082015260028201805491929160808401919061262c90615858565b80601f016020809104026020016040519081016040528092919081815260200182805461265890615858565b80156126a55780601f1061267a576101008083540402835291602001916126a5565b820191906000526020600020905b81548152906001019060200180831161268857829003601f168201915b50505050508152602001600382015481525050815260200190600101906125ae565b336000908152600b602052604090205460ff166126f65760405162461bcd60e51b8152600401610a579061588c565b6001600160a01b0382166000908152600d602052604090205460ff1661272e5760405162461bcd60e51b8152600401610a5790615c73565b6001600160a01b0382166000908152600d602052604090206001015461ffff8216106127915760405162461bcd60e51b8152602060048201526012602482015271105b9b9bdd5b98d9481b9bdd08199bdd5b9960721b6044820152606401610a57565b6000805b6001600160a01b0384166000908152600d60205260409020600101805461ffff85169081106127c6576127c66158eb565b906000526020600020906006020160050180549050811015612869576001600160a01b0384166000908152600d60205260409020600101805433919061ffff8616908110612816576128166158eb565b90600052602060002090600602016005018281548110612838576128386158eb565b6000918252602090912001546001600160a01b03160361285757600191505b8061286181615ca8565b915050612795565b5080156128b35760405162461bcd60e51b8152602060048201526018602482015277105b9b9bdd5b98d948185b1c9958591e48185c1c1b1a595960421b6044820152606401610a57565b6001600160a01b0383166000908152600d60205260409020600101805461ffff84169081106128e4576128e46158eb565b60009182526020808320600560069093020191909101805460018101825590835291200180546001600160a01b03191633179055505050565b6001600160a01b03811660009081526008602052604081205461118490613a7f565b6001600160a01b031660009081526020819052604090205490565b612962613c39565b61296c6000614493565b565b336000908152600b602052604090205460ff1661299d5760405162461bcd60e51b8152600401610a579061588c565b336000908152600b602052604090206002015461ffff8216106129f25760405162461bcd60e51b815260206004820152600d60248201526c129bd8881b9bdd08199bdd5b99609a1b6044820152606401610a57565b336000908152600b60205260409020600201805483919061ffff8416908110612a1d57612a1d6158eb565b60009182526020909120600490910201805460ff19169115159190911790555050565b60606010805480602002602001604051908101604052809291908181526020018280548015610bb557602002820191906000526020600020905b81546001600160a01b03168152600190910190602001808311612a7a575050505050905090565b6001600160a01b0381166000908152600d602052604090205460609060ff16612adc5760405162461bcd60e51b8152600401610a5790615c73565b6001600160a01b0382166000908152600d6020908152604080832060010180548251818502810185019093528083529193909284015b82821015610b225760008481526020908190206040805160c08101825260068602909201805460ff161515835260018101549383019390935260028301805492939291840191612b6190615858565b80601f0160208091040260200160405190810160405280929190818152602001828054612b8d90615858565b8015612bda5780601f10612baf57610100808354040283529160200191612bda565b820191906000526020600020905b815481529060010190602001808311612bbd57829003601f168201915b50505050508152602001600382018054612bf390615858565b80601f0160208091040260200160405190810160405280929190818152602001828054612c1f90615858565b8015612c6c5780601f10612c4157610100808354040283529160200191612c6c565b820191906000526020600020905b815481529060010190602001808311612c4f57829003601f168201915b5050505050815260200160048201805480602002602001604051908101604052809291908181526020016000905b82821015612d46578382906000526020600020018054612cb990615858565b80601f0160208091040260200160405190810160405280929190818152602001828054612ce590615858565b8015612d325780601f10612d0757610100808354040283529160200191612d32565b820191906000526020600020905b815481529060010190602001808311612d1557829003601f168201915b505050505081526020019060010190612c9a565b50505050815260200160058201805480602002602001604051908101604052809291908181526020018280548015612da757602002820191906000526020600020905b81546001600160a01b03168152600190910190602001808311612d89575b50505050508152505081526020019060010190612b12565b6001600160a01b038116600090815260056020526040812054611184565b600a546001600160a01b031690565b6000438210612e0d5760405162461bcd60e51b8152600401610a5790615bd1565b611184600983614203565b606060048054610b3c90615858565b6001600160a01b0381166000908152600860205260408120548015612e9a576001600160a01b0383166000908152600860205260409020612e69600183615994565b81548110612e7957612e796158eb565b600091825260209091200154600160201b90046001600160e01b0316612e9d565b60005b6001600160e01b03169392505050565b6060600f805480602002602001604051908101604052809291908181526020018280548015610bb5576020028201919060005260206000209081546001600160a01b03168152600190910190602001808311612a7a575050505050905090565b612f15613c39565b60648110612f6f5760405162461bcd60e51b815260206004820152602160248201527f666f726d6174696f6e46656520697320696e2070657263656e7420283c3130306044820152602960f81b6064820152608401610a57565b601455565b60003381612f8282866135d5565b905083811015612fe25760405162461bcd60e51b815260206004820152602560248201527f45524332303a2064656372656173656420616c6c6f77616e63652062656c6f77604482015264207a65726f60d81b6064820152608401610a57565b6117cc8286868403613b15565b60003361117e818585613dde565b601081815481106120b457600080fd5b82801561302a5750336000908152600b602052604090205460ff16155b156130c257600f805460018181019092557f8d1108e10bcb7c27dddfc02ed9d693a074039d026cf4ea4240b40f7d581ac8020180546001600160a01b031916339081179091556000818152600b602052604090819020805460ff191690931790925590517f413281c709cf2c555b5d6d90e43f841b9ed7d34daa82e221aedbb3773082fcc8916130b991615451565b60405180910390a15b8180156130df5750336000908152600c602052604090205460ff16155b1561317757600e805460018181019092557fbb7b4a454dc3493923482f07822329ed19e8244eff582cc204f8554c3620c3fd0180546001600160a01b031916339081179091556000818152600c602052604090819020805460ff191690931790925590517fde256622a68c110b10d2bfa4a983d8c309a49b3f1c1e5af8c8dc50209835cc619161316e91615451565b60405180910390a15b8080156131945750336000908152600d602052604090205460ff16155b1561322c576010805460018181019092557f1b6847dc741a1b0cd08d278845f9d819d87b734759afb55fe2de5cb82a9ae6720180546001600160a01b031916339081179091556000818152600d602052604090819020805460ff191690931790925590517f683e556028c0336eede6df2677149514f1553dc004138cb67a26080a6bbaf3fb9161322391615451565b60405180910390a15b505050565b834211156132815760405162461bcd60e51b815260206004820152601d60248201527f4552433230566f7465733a207369676e617475726520657870697265640000006044820152606401610a57565b604080517fe48329057bfd03d55e49b547132e39cffd9c1820ad7b9d4c5307691425d15adf60208201526001600160a01b0388169181019190915260608101869052608081018590526000906132fb906132f39060a001604051602081830303815290604052805190602001206144e5565b858585614533565b90506133068161455b565b86146133505760405162461bcd60e51b81526020600482015260196024820152784552433230566f7465733a20696e76616c6964206e6f6e636560381b6044820152606401610a57565b61335a81886142f9565b50505050505050565b61336b613c39565b6121ae613376612ddd565b826140d2565b6060600e805480602002602001604051908101604052809291908181526020018280548015610bb5576020028201919060005260206000209081546001600160a01b03168152600190910190602001808311612a7a575050505050905090565b6012546133f2906001600160a01b031683611170565b506012546040516382369def60e01b81526001600160a01b03909116906382369def9061342790339086908690600401615c08565b600060405180830381600087803b15801561344157600080fd5b505af1158015613455573d6000803e3d6000fd5b505060125461322c92506001600160a01b031690506000611170565b834211156134c15760405162461bcd60e51b815260206004820152601d60248201527f45524332305065726d69743a206578706972656420646561646c696e650000006044820152606401610a57565b60007f6e71edae12b1b97f4d1f60370fef10105fa2faae0126114a169c64845d6126c98888886134f08c61455b565b6040805160208101969096526001600160a01b0394851690860152929091166060840152608083015260a082015260c0810186905260e001604051602081830303815290604052805190602001209050600061354b826144e5565b9050600061355b82878787614533565b9050896001600160a01b0316816001600160a01b0316146135be5760405162461bcd60e51b815260206004820152601e60248201527f45524332305065726d69743a20696e76616c6964207369676e617475726500006044820152606401610a57565b6135c98a8a8a613b15565b50505050505050505050565b6001600160a01b03918216600090815260016020908152604080832093909416825291909152205490565b613608613c39565b606481106136665760405162461bcd60e51b815260206004820152602560248201527f666f726d6174696f6e4665654275726e20697320696e2070657263656e7420286044820152643c3130302960d81b6064820152608401610a57565b601555565b336000908152600d602052604090205460ff1661369a5760405162461bcd60e51b8152600401610a5790615b66565b6001600160a01b0383166000908152600b602052604090205460ff166136d25760405162461bcd60e51b8152600401610a5790615821565b6001600160a01b038381166000908152600b60209081526040808320815160c0810183528481523381850190815261ffff89811694830194855260608301878152608084018a815260a085018990526002958601805460018082018355918b529890992085516004909902018054945197516001600160a81b0319909516981515610100600160a81b0319169890981761010097909a16969096029890981761ffff60a81b1916600160a81b9290911691909102178455945193830180546001600160801b0319166001600160801b03909516949094179093555190918201906137bc9082615a3a565b5060a082015181600301555050505050565b60408051808201909152600080825260208201526001600160a01b0383166000908152600860205260409020805463ffffffff8416908110613812576138126158eb565b60009182526020918290206040805180820190915291015463ffffffff81168252600160201b90046001600160e01b0316918101919091529392505050565b613859613c39565b6001600160a01b0381166138be5760405162461bcd60e51b815260206004820152602660248201527f4f776e61626c653a206e6577206f776e657220697320746865207a65726f206160448201526564647265737360d01b6064820152608401610a57565b6121ae81614493565b6138d18282613951565b6002546001600160e01b0310156139435760405162461bcd60e51b815260206004820152603060248201527f4552433230566f7465733a20746f74616c20737570706c79207269736b73206f60448201526f766572666c6f77696e6720766f74657360801b6064820152608401610a57565b6117016009613a0683614583565b6001600160a01b0382166139a75760405162461bcd60e51b815260206004820152601f60248201527f45524332303a206d696e7420746f20746865207a65726f2061646472657373006044820152606401610a57565b80600260008282546139b991906159a7565b90915550506001600160a01b03821660008181526020818152604080832080548601905551848152600080516020615d17833981519152910160405180910390a3612165600083836146d4565b600061209d82846159a7565b60006001600160e01b03821115613a7b5760405162461bcd60e51b815260206004820152602760248201527f53616665436173743a2076616c756520646f65736e27742066697420696e20326044820152663234206269747360c81b6064820152608401610a57565b5090565b600063ffffffff821115613a7b5760405162461bcd60e51b815260206004820152602660248201527f53616665436173743a2076616c756520646f65736e27742066697420696e203360448201526532206269747360d01b6064820152608401610a57565b61322c613af084612179565b613af984612179565b836146df565b600061209d8284615994565b61216582826147f8565b6001600160a01b038316613b775760405162461bcd60e51b8152602060048201526024808201527f45524332303a20617070726f76652066726f6d20746865207a65726f206164646044820152637265737360e01b6064820152608401610a57565b6001600160a01b038216613bd85760405162461bcd60e51b815260206004820152602260248201527f45524332303a20617070726f766520746f20746865207a65726f206164647265604482015261737360f01b6064820152608401610a57565b6001600160a01b0383811660008181526001602090815260408083209487168084529482529182902085905590518481527f8c5be1e5ebec7d5bd14f71427d1e84f3dd0314c0f7b2291e5b200ac8c7c3b925910160405180910390a3505050565b33613c42612ddd565b6001600160a01b03161461296c5760405162461bcd60e51b815260206004820181905260248201527f4f776e61626c653a2063616c6c6572206973206e6f7420746865206f776e65726044820152606401610a57565b60008060005b6001600160a01b0386166000908152600b602052604090206001015461ffff82161015613d92576001600160a01b038681166000908152600b6020526040902060010180549187169161ffff8416908110613cfb57613cfb6158eb565b60009182526020909120600290910201546001600160a01b0316148015613d7257506001600160a01b0386166000908152600b60205260409020600101805461ffff8087169291908416908110613d5457613d546158eb565b6000918252602090912060029091020154600160a01b900461ffff16145b15613d805760019150613d92565b80613d8a81615cc1565b915050613c9e565b81613dd55760405162461bcd60e51b8152602060048201526013602482015272199bdc9b585d1a5bdb881b9bdd08199bdd5b99606a1b6044820152606401610a57565b95945050505050565b6001600160a01b038316613e425760405162461bcd60e51b815260206004820152602560248201527f45524332303a207472616e736665722066726f6d20746865207a65726f206164604482015264647265737360d81b6064820152608401610a57565b6001600160a01b038216613ea45760405162461bcd60e51b815260206004820152602360248201527f45524332303a207472616e7366657220746f20746865207a65726f206164647260448201526265737360e81b6064820152608401610a57565b6001600160a01b03831660009081526020819052604090205481811015613f1c5760405162461bcd60e51b815260206004820152602660248201527f45524332303a207472616e7366657220616d6f756e7420657863656564732062604482015265616c616e636560d01b6064820152608401610a57565b6001600160a01b0384811660008181526020818152604080832087870390559387168083529184902080548701905592518581529092600080516020615d17833981519152910160405180910390a36117018484846146d4565b6000613f8284846135d5565b905060001981146117015781811015613fdd5760405162461bcd60e51b815260206004820152601d60248201527f45524332303a20696e73756666696369656e7420616c6c6f77616e63650000006044820152606401610a57565b6117018484848403613b15565b606060005b83518110156140ca57826001600160a01b0316848281518110614014576140146158eb565b60200260200101516001600160a01b0316036140b85783600185516140399190615994565b81518110614049576140496158eb565b6020026020010151848281518110614063576140636158eb565b60200260200101906001600160a01b031690816001600160a01b03168152505083600185516140929190615994565b815181106140a2576140a26158eb565b6020026020010160006001600160a01b03168152505b806140c281615ca8565b915050613fef565b509192915050565b61216582826138c7565b6000306001600160a01b037f00000000000000000000000000000000000000000000000000000000000000001614801561413557507f000000000000000000000000000000000000000000000000000000000000000046145b1561415f57507f000000000000000000000000000000000000000000000000000000000000000090565b50604080517f00000000000000000000000000000000000000000000000000000000000000006020808301919091527f0000000000000000000000000000000000000000000000000000000000000000828401527f000000000000000000000000000000000000000000000000000000000000000060608301524660808301523060a0808401919091528351808403909101815260c0909201909252805191012090565b81546000908181600581111561425d57600061421e84614810565b6142289085615994565b600088815260209020909150869082015463ffffffff16111561424d5780915061425b565b6142588160016159a7565b92505b505b808210156142aa57600061427183836148f8565b600088815260209020909150869082015463ffffffff161115614296578091506142a4565b6142a18160016159a7565b92505b5061425d565b80156142e3576142cd866142bf600184615994565b600091825260209091200190565b54600160201b90046001600160e01b03166142e6565b60005b6001600160e01b03169695505050505050565b600061430483612179565b905060006143118461293f565b6001600160a01b0385811660008181526007602052604080822080546001600160a01b031916898616908117909155905194955093928616927f3134e8a2e6d97e929a7e54011ea5485d7d196dd5f0ba4d4ef95803e8e3fc257f9190a46117018284836146df565b6001600160a01b0382166000908152600c60205260408120600101805461ffff84169081106143aa576143aa6158eb565b60009182526020808320600592909202909101546001600160a01b0386168352600c90915260408220600101805461010090920463ffffffff1693509061ffff85169081106143fb576143fb6158eb565b600091825260209091206005909102015460185463ffffffff600160281b909204821692501681118015614453575060185461444490600160201b900463ffffffff1682615cd8565b63ffffffff168263ffffffff16115b1561170157614464846016546140d2565b7fbb11e28bff673d5e1588f064cd972443dd1cad19d46e9d744529e30524bade0184604051611bb19190615451565b600a80546001600160a01b038381166001600160a01b0319831681179093556040519116919082907f8be0079c531659141344cd1fd0a4f28419497f9722a3daafe3b4186f6b6457e090600090a35050565b60006111846144f26140dc565b8360405161190160f01b6020820152602281018390526042810182905260009060620160405160208183030381529060405280519060200120905092915050565b600080600061454487878787614913565b91509150614551816149cd565b5095945050505050565b6001600160a01b03811660009081526005602052604090208054600181018255905b50919050565b825460009081908181156145cf576145a0876142bf600185615994565b60408051808201909152905463ffffffff81168252600160201b90046001600160e01b031660208201526145e4565b60408051808201909152600080825260208201525b905080602001516001600160e01b0316935061460484868863ffffffff16565b925060008211801561461c5750805163ffffffff1643145b156146605761462a83613a12565b614639886142bf600186615994565b80546001600160e01b0392909216600160201b0263ffffffff9092169190911790556146ca565b86604051806040016040528061467543613a7f565b63ffffffff16815260200161468986613a12565b6001600160e01b039081169091528254600181018455600093845260209384902083519490930151909116600160201b0263ffffffff909316929092179101555b5050935093915050565b61322c838383613ae4565b816001600160a01b0316836001600160a01b0316141580156147015750600081115b1561322c576001600160a01b0383161561477d576001600160a01b0383166000908152600860205260408120819061473c90613aff85614583565b91509150846001600160a01b0316600080516020615d378339815191528383604051614772929190918252602082015260400190565b60405180910390a250505b6001600160a01b0382161561322c576001600160a01b038216600090815260086020526040812081906147b390613a0685614583565b91509150836001600160a01b0316600080516020615d3783398151915283836040516147e9929190918252602082015260400190565b60405180910390a25050505050565b6148028282614b12565b6117016009613aff83614583565b60008160000361482257506000919050565b6000600161482f84614c39565b901c6001901b905060018184816148485761484861595c565b048201901c905060018184816148605761486061595c565b048201901c905060018184816148785761487861595c565b048201901c905060018184816148905761489061595c565b048201901c905060018184816148a8576148a861595c565b048201901c905060018184816148c0576148c061595c565b048201901c905060018184816148d8576148d861595c565b048201901c905061209d818285816148f2576148f261595c565b04614ccd565b60006149076002848418615972565b61209d908484166159a7565b6000806fa2a8918ca85bafe22016d0b997e4df60600160ff1b0383111561494057506000905060036149c4565b6040805160008082526020820180845289905260ff881692820192909252606081018690526080810185905260019060a0016020604051602081039080840390855afa158015614994573d6000803e3d6000fd5b5050604051601f1901519150506001600160a01b0381166149bd576000600192509250506149c4565b9150600090505b94509492505050565b60008160048111156149e1576149e1615d00565b036149e95750565b60018160048111156149fd576149fd615d00565b03614a455760405162461bcd60e51b815260206004820152601860248201527745434453413a20696e76616c6964207369676e617475726560401b6044820152606401610a57565b6002816004811115614a5957614a59615d00565b03614aa65760405162461bcd60e51b815260206004820152601f60248201527f45434453413a20696e76616c6964207369676e6174757265206c656e677468006044820152606401610a57565b6003816004811115614aba57614aba615d00565b036121ae5760405162461bcd60e51b815260206004820152602260248201527f45434453413a20696e76616c6964207369676e6174757265202773272076616c604482015261756560f01b6064820152608401610a57565b6001600160a01b038216614b725760405162461bcd60e51b815260206004820152602160248201527f45524332303a206275726e2066726f6d20746865207a65726f206164647265736044820152607360f81b6064820152608401610a57565b6001600160a01b03821660009081526020819052604090205481811015614be65760405162461bcd60e51b815260206004820152602260248201527f45524332303a206275726e20616d6f756e7420657863656564732062616c616e604482015261636560f01b6064820152608401610a57565b6001600160a01b038316600081815260208181526040808320868603905560028054879003905551858152919291600080516020615d17833981519152910160405180910390a361322c836000846146d4565b600080608083901c15614c4e57608092831c92015b604083901c15614c6057604092831c92015b602083901c15614c7257602092831c92015b601083901c15614c8457601092831c92015b600883901c15614c9657600892831c92015b600483901c15614ca857600492831c92015b600283901c15614cba57600292831c92015b600183901c156111845760010192915050565b6000818310614cdc578161209d565b5090919050565b828054828255906000526020600020908101928215614d29579160200282015b82811115614d295782518290614d199082615a3a565b5091602001919060010190614d03565b50613a7b929150614d96565b828054828255906000526020600020908101928215614d8a579160200282015b82811115614d8a57825182546001600160a01b0319166001600160a01b03909116178255602090920191600190910190614d55565b50613a7b929150614db3565b80821115613a7b576000614daa8282614dc8565b50600101614d96565b5b80821115613a7b5760008155600101614db4565b508054614dd490615858565b6000825580601f10614de4575050565b601f0160209004906000526020600020908101906121ae9190614db3565b80356001600160a01b0381168114614e1957600080fd5b919050565b600060208284031215614e3057600080fd5b61209d82614e02565b602080825282518282018190526000919060409081850190868401855b82811015614eb857815180516001600160a01b031685528681015161ffff16878601528581015160ff168686015260608082015115159086015260808082015115159086015260a0908101519085015260c09093019290850190600101614e56565b5091979650505050505050565b6000815180845260005b81811015614eeb57602081850181015186830182015201614ecf565b506000602082860101526020601f19601f83011685010191505092915050565b60208152600061209d6020830184614ec5565b803561ffff81168114614e1957600080fd5b60008060408385031215614f4357600080fd5b614f4c83614e02565b9150614f5a60208401614f1e565b90509250929050565b60008060408385031215614f7657600080fd5b614f7f83614e02565b946020939093013593505050565b600060208284031215614f9f57600080fd5b5035919050565b60008060408385031215614fb957600080fd5b614f7f83614f1e565b803560ff81168114614e1957600080fd5b803563ffffffff81168114614e1957600080fd5b634e487b7160e01b600052604160045260246000fd5b604051601f8201601f191681016001600160401b038111828210171561502557615025614fe7565b604052919050565b600082601f83011261503e57600080fd5b81356001600160401b0381111561505757615057614fe7565b61506a601f8201601f1916602001614ffd565b81815284602083860101111561507f57600080fd5b816020850160208301376000918101602001919091529392505050565b600082601f8301126150ad57600080fd5b813560206001600160401b03808311156150c9576150c9614fe7565b8260051b6150d8838201614ffd565b93845285810183019383810190888611156150f257600080fd5b84880192505b8583101561512e578235848111156151105760008081fd5b61511e8a87838c010161502d565b83525091840191908401906150f8565b98975050505050505050565b600080600080600060a0868803121561515257600080fd5b61515b86614fc2565b945061516960208701614fd3565b93506040860135925060608601356001600160401b038082111561518c57600080fd5b61519889838a0161502d565b935060808801359150808211156151ae57600080fd5b506151bb8882890161509c565b9150509295509295909350565b6000806000606084860312156151dd57600080fd5b6151e684614e02565b92506151f460208501614e02565b9150604084013590509250925092565b60008060006060848603121561521957600080fd5b61522284614e02565b92506151f460208501614f1e565b600082825180855260208086019550808260051b84010181860160005b8481101561527b57601f19868403018952615269838351614ec5565b9884019892509083019060010161524d565b5090979650505050505050565b600081518084526020808501945080840160005b838110156152c15781516001600160a01b03168752958201959082019060010161529c565b509495945050505050565b60006020808301818452808551808352604092508286019150828160051b87010184880160005b838110156153bc57603f198984030185528151805160ff1684528781015163ffffffff9081168986015287820151811688860152606080830151909116908501526080808201516001600160801b03169085015260a0808201519085015260c080820151610120828701819052919061536e83880182614ec5565b9250505060e080830151868303828801526153898382615230565b9250505061010080830151925085820381870152506153a88183615288565b9689019694505050908601906001016152f3565b509098975050505050505050565b6000806000606084860312156153df57600080fd5b83356001600160401b03808211156153f657600080fd5b6154028783880161502d565b9450602086013591508082111561541857600080fd5b6154248783880161502d565b9350604086013591508082111561543a57600080fd5b506154478682870161509c565b9150509250925092565b6001600160a01b0391909116815260200190565b6000806040838503121561547857600080fd5b82359150614f5a60208401614fc2565b60008060006060848603121561549d57600080fd5b6154a684614e02565b92506154b460208501614f1e565b91506154c260408501614fc2565b90509250925092565b60006020808301818452808551808352604092508286019150828160051b87010184880160005b838110156153bc57888303603f190185528151805115158452878101516001600160a01b0316888501528681015161ffff16878501526060808201516001600160801b03169085015260808082015160c0828701819052919061555783880182614ec5565b60a09485015197909401969096525050948701949250908601906001016154f2565b80358015158114614e1957600080fd5b6000806040838503121561559c57600080fd5b614f4c83615579565b60208152600061209d6020830184615288565b60006020808301818452808551808352604092508286019150828160051b87010184880160005b838110156153bc57603f19898403018552815160c0815115158552888201518986015287820151818987015261561782870182614ec5565b915050606080830151868303828801526156318382614ec5565b925050506080808301518683038288015261564c8382615230565b9250505060a0808301519250858203818701525061566a8183615288565b9689019694505050908601906001016155df565b60008060006060848603121561569357600080fd5b61569c84615579565b92506156aa60208501615579565b91506154c260408501615579565b60008060008060008060c087890312156156d157600080fd5b6156da87614e02565b955060208701359450604087013593506156f660608801614fc2565b92506080870135915060a087013590509295509295509295565b600080600080600080600060e0888a03121561572b57600080fd5b61573488614e02565b965061574260208901614e02565b9550604088013594506060880135935061575e60808901614fc2565b925060a0880135915060c0880135905092959891949750929550565b6000806040838503121561578d57600080fd5b61579683614e02565b9150614f5a60208401614e02565b6000806000606084860312156157b957600080fd5b6157c284614e02565b92506157d060208501614f1e565b915060408401356001600160401b038111156157eb57600080fd5b6154478682870161502d565b6000806040838503121561580a57600080fd5b61581383614e02565b9150614f5a60208401614fd3565b6020808252601e908201527f53747564656e742061646472657373206e6f7420726567697374657265640000604082015260600190565b600181811c9082168061586c57607f821691505b60208210810361457d57634e487b7160e01b600052602260045260246000fd5b60208082526018908201527711195b9a59590e881a5cc81b9bdd0818481cdd1d59195b9d60421b604082015260600190565b602080825260139082015272119bdc9b585d1a5bdb881b9bdd08199bdd5b99606a1b604082015260600190565b634e487b7160e01b600052603260045260246000fd5b634e487b7160e01b600052601160045260246000fd5b808202811582820484141761118457611184615901565b602080825260149082015273496e73756666696369656e742062616c616e636560601b604082015260600190565b634e487b7160e01b600052601260045260246000fd5b60008261598f57634e487b7160e01b600052601260045260246000fd5b500490565b8181038181111561118457611184615901565b8082018082111561118457611184615901565b6020808252601890820152772232b734b2b21d1034b9903737ba1030903a32b0b1b432b960411b604082015260600190565b601f82111561322c57600081815260208120601f850160051c81016020861015615a135750805b601f850160051c820191505b81811015615a3257828155600101615a1f565b505050505050565b81516001600160401b03811115615a5357615a53614fe7565b615a6781615a618454615858565b846159ec565b602080601f831160018114615a9c5760008415615a845750858301515b600019600386901b1c1916600185901b178555615a32565b600085815260208120601f198616915b82811015615acb57888601518255948401946001909101908401615aac565b5085821015615ae95787850151600019600388901b60f8161c191681555b5050505050600190811b01905550565b6001600160a01b03929092168252602082015260400190565b6020808252601b908201527a119bdc9b585d1a5bdb88185b1c9958591e4818d95c9d1a599a5959602a1b604082015260600190565b600060ff821660ff8103615b5d57615b5d615901565b60010192915050565b6020808252601a90820152792232b734b2b21d1034b9903737ba1030903932b1b93ab4ba32b960311b604082015260600190565b6020808252601e908201527f546561636865722061646472657373206e6f7420726567697374657265640000604082015260600190565b6020808252601f908201527f4552433230566f7465733a20626c6f636b206e6f7420796574206d696e656400604082015260600190565b6001600160a01b03939093168352602083019190915260ff16604082015260600190565b63ffffffff818116838216019080821115615c4957615c49615901565b5092915050565b600063ffffffff808316818103615c6957615c69615901565b6001019392505050565b6020808252818101527f5265637275697465722061646472657373206e6f742072656769737465726564604082015260600190565b600060018201615cba57615cba615901565b5060010190565b600061ffff808316818103615c6957615c69615901565b63ffffffff818116838216028082169190828114615cf857615cf8615901565b505092915050565b634e487b7160e01b600052602160045260246000fdfeddf252ad1be2c89b69c2b068fc378daa952ba7f163c4a11628f55a4df523b3efdec2bacdd2f05b59de34da9b523dff8be42e5e38e818c82fdb0bae774387a724a264697066735822122075afc59950dab789000883977902b88af2a5d0c93b0c9fbeaf3bf9d28c70679e64736f6c63430008110033608060405260016005553480156200001657600080fd5b50620000223362000048565b6200002c62000098565b600180546001600160a01b03191633179055426004556200056a565b600080546001600160a01b038381166001600160a01b0319831681178455604051919092169283917f8be0079c531659141344cd1fd0a4f28419497f9722a3daafe3b4186f6b6457e09190a35050565b60608060006040518060e00160405280600060ff1681526020016000815260200160008152602001681b1ae4d6e2ef50000081526020016a0211654585005212800000815260200160405180604001604052806006815260200165506c616e203160d01b815250815260200184815250905060006040518060e00160405280600160ff168152602001630375f000815260200160008152602001681b1ae4d6e2ef50000081526020016a0422ca8b0a00a425000000815260200160405180604001604052806006815260200165283630b7101960d11b8152508152602001848152509050600382908060018154018082558091505060019003906000526020600020906007020160009091909190915060008201518160000160006101000a81548160ff021916908360ff1602179055506020820151816001015560408201518160020155606082015181600301556080820151816004015560a08201518160050190816200020891906200049e565b5060c082015180516200022691600684019160209091019062000378565b50506003805460018101825560009190915282517fc2575a0e9e593c00f959f8c92f12db2869c3395a3b0502d05e2516446f71f85b6007909202918201805460ff191660ff90921691909117815560208401517fc2575a0e9e593c00f959f8c92f12db2869c3395a3b0502d05e2516446f71f85c83015560408401517fc2575a0e9e593c00f959f8c92f12db2869c3395a3b0502d05e2516446f71f85d83015560608401517fc2575a0e9e593c00f959f8c92f12db2869c3395a3b0502d05e2516446f71f85e83015560808401517fc2575a0e9e593c00f959f8c92f12db2869c3395a3b0502d05e2516446f71f85f83015560a084015184935090917fc2575a0e9e593c00f959f8c92f12db2869c3395a3b0502d05e2516446f71f86001906200035190826200049e565b5060c082015180516200036f91600684019160209091019062000378565b50505050505050565b828054828255906000526020600020908101928215620003d0579160200282015b82811115620003d057825182546001600160a01b0319166001600160a01b0390911617825560209092019160019091019062000399565b50620003de929150620003e2565b5090565b5b80821115620003de5760008155600101620003e3565b634e487b7160e01b600052604160045260246000fd5b600181811c908216806200042457607f821691505b6020821081036200044557634e487b7160e01b600052602260045260246000fd5b50919050565b601f8211156200049957600081815260208120601f850160051c81016020861015620004745750805b601f850160051c820191505b81811015620004955782815560010162000480565b5050505b505050565b81516001600160401b03811115620004ba57620004ba620003f9565b620004d281620004cb84546200040f565b846200044b565b602080601f8311600181146200050a5760008415620004f15750858301515b600019600386901b1c1916600185901b17855562000495565b600085815260208120601f198616915b828110156200053b578886015182559484019460019091019084016200051a565b50858210156200055a5787850151600019600388901b60f8161c191681555b5050505050600190811b01905550565b6113a6806200057a6000396000f3fe608060405234801561001057600080fd5b50600436106100785760003560e01c80636efc6d931461007d578063715018a614610092578063762e7a341461009a57806382369def146100c8578063853a3346146100db5780638da5cb5b146100fc5780639a96976814610111578063f2fde38b14610124575b600080fd5b61009061008b366004611040565b610137565b005b61009061025b565b6100ad6100a836600461107c565b61026f565b6040516100bf96959493929190611095565b60405180910390f35b6100906100d6366004611040565b610347565b6100ee6100e936600461110a565b6105ce565b6040519081526020016100bf565b61010461060a565b6040516100bf919061113d565b61009061011f36600461107c565b610619565b610090610132366004611151565b61088f565b61013f610908565b60018160ff16111561016c5760405162461bcd60e51b815260040161016390611173565b60405180910390fd5b61017a838260ff1684610967565b6001546040516323b872dd60e01b81526001600160a01b03909116906323b872dd906101ae908390879087906004016111a9565b6020604051808303816000875af11580156101cd573d6000803e3d6000fd5b505050506040513d601f19601f820116820180604052508101906101f191906111cd565b61020d5760405162461bcd60e51b8152600401610163906111ef565b61021b838260ff1684610ada565b7fd528c97d64de1294b16315170ac446fd4a93c82e9ba85bb06e10ea9fe1888cc582848360405161024e93929190611222565b60405180910390a1505050565b610263610908565b61026d6000610c1b565b565b6003818154811061027f57600080fd5b600091825260209091206007909102018054600182015460028301546003840154600485015460058601805460ff90961697509395929491939092916102c490611244565b80601f01602080910402602001604051908101604052809291908181526020018280546102f090611244565b801561033d5780601f106103125761010080835404028352916020019161033d565b820191906000526020600020905b81548152906001019060200180831161032057829003601f168201915b5050505050905086565b61034f610908565b60018160ff1611156103735760405162461bcd60e51b815260040161016390611173565b60038160ff16815481106103895761038961127e565b9060005260206000209060070201600401548260038360ff16815481106103b2576103b261127e565b9060005260206000209060070201600201546103ce91906112aa565b1061041b5760405162461bcd60e51b815260206004820152601d60248201527f5374616b696e67206465706f736974206c696d697420726561636865640000006044820152606401610163565b6001546040516370a0823160e01b815283916001600160a01b0316906370a082319061044b90879060040161113d565b602060405180830381865afa158015610468573d6000803e3d6000fd5b505050506040513d601f19601f8201168201806040525081019061048c91906112bd565b10156104d15760405162461bcd60e51b8152602060048201526014602482015273496e73756666696369656e742062616c616e636560601b6044820152606401610163565b6001546040516323b872dd60e01b81526001600160a01b03909116906323b872dd90610505908690849087906004016111a9565b6020604051808303816000875af1158015610524573d6000803e3d6000fd5b505050506040513d601f19601f8201168201806040525081019061054891906111cd565b61058d5760405162461bcd60e51b815260206004820152601660248201527511985a5b1959081cdd185ada5b99c819195c1bdcda5d60521b6044820152606401610163565b61059b838260ff1684610c6b565b7fb72f28219f1f1456e8f5b4862718755bf520ff53a139e8616c347826e91f98b982848360405161024e93929190611222565b6001600160a01b038216600090815260026020819052604082206004019060ff84169081106105ff576105ff61127e565b015490505b92915050565b6000546001600160a01b031690565b610621610908565b60008060036001815481106106385761063861127e565b906000526020600020906007020160020154600360008154811061065e5761065e61127e565b90600052602060002090600702016002015461067a91906112aa565b90506000805b60028160ff1610156108845760005b60038260ff16815481106106a5576106a561127e565b9060005260206000209060070201600601805490508110156108715760038260ff16815481106106d7576106d761127e565b906000526020600020906007020160060181815481106106f9576106f961127e565b600091825260209091200154600380546001600160a01b039092169450859160ff851690811061072b5761072b61127e565b90600052602060002090600702016002015460038460ff16815481106107535761075361127e565b90600052602060002090600702016002015460026000876001600160a01b03166001600160a01b031681526020019081526020016000206004018560ff16600281106107a1576107a161127e565b01546107ad908a6112d6565b6107b791906112ed565b6107c191906112d6565b6107cb91906112ed565b6001546040516323b872dd60e01b81529196506001600160a01b0316906323b872dd9061080090839087908a906004016111a9565b6020604051808303816000875af115801561081f573d6000803e3d6000fd5b505050506040513d601f19601f8201168201806040525081019061084391906111cd565b61085f5760405162461bcd60e51b8152600401610163906111ef565b806108698161130f565b91505061068f565b508061087c81611328565b915050610680565b505042600455505050565b610897610908565b6001600160a01b0381166108fc5760405162461bcd60e51b815260206004820152602660248201527f4f776e61626c653a206e6577206f776e657220697320746865207a65726f206160448201526564647265737360d01b6064820152608401610163565b61090581610c1b565b50565b3361091161060a565b6001600160a01b03161461026d5760405162461bcd60e51b815260206004820181905260248201527f4f776e61626c653a2063616c6c6572206973206e6f7420746865206f776e65726044820152606401610163565b8060026000856001600160a01b03166001600160a01b0316815260200190815260200160002060040183600281106109a1576109a161127e565b015410156109f15760405162461bcd60e51b815260206004820181905260248201527f496e73756666696369656e742062616c616e636520746f2077697468647261776044820152606401610163565b6001600160a01b038316600090815260026020819052604082209084908110610a1c57610a1c61127e565b01600081548110610a2f57610a2f61127e565b9060005260206000209060020201600001549050600060038481548110610a5857610a5861127e565b90600052602060002090600702016001015490508082610a7891906112aa565b421015610ad35760405162461bcd60e51b8152602060048201526024808201527f596f752063616e2774207769746864726177206265666f7265206c6f636b50656044820152631c9a5bd960e21b6064820152608401610163565b5050505050565b6000604051806040016040528042815260200183815250905060026000856001600160a01b03166001600160a01b031681526020019081526020016000206002018360028110610b2c57610b2c61127e565b018054600181810183556000928352602080842085516002948502909101908155818601519201919091556001600160a01b03871683528190526040909120839160049091019085908110610b8357610b8361127e565b016000828254610b939190611347565b925050819055508160038481548110610bae57610bae61127e565b90600052602060002090600702016002016000828254610bce9190611347565b90915550506001600160a01b03841660009081526002602081905260409091206004019084908110610c0257610c0261127e565b0154600003610c1557610c158484610d5c565b50505050565b600080546001600160a01b038381166001600160a01b0319831681178455604051919092169283917f8be0079c531659141344cd1fd0a4f28419497f9722a3daafe3b4186f6b6457e09190a35050565b60408051808201825242815260208082018490526001600160a01b038616600090815260029182905292909220909184908110610caa57610caa61127e565b018054600181810183556000928352602080842085516002948502909101908155818601519201919091556001600160a01b03871683528190526040909120839160049091019085908110610d0157610d0161127e565b016000828254610d1191906112aa565b925050819055508160038481548110610d2c57610d2c61127e565b90600052602060002090600702016002016000828254610d4c91906112aa565b90915550610c1590508484610f17565b600060038281548110610d7157610d7161127e565b6000918252602082206006600790920201015491505b81811015610ebc57836001600160a01b031660038481548110610dac57610dac61127e565b90600052602060002090600702016006018281548110610dce57610dce61127e565b6000918252602090912001546001600160a01b031603610eaa5760038381548110610dfb57610dfb61127e565b9060005260206000209060070201600601600183610e199190611347565b81548110610e2957610e2961127e565b600091825260209091200154600380546001600160a01b039092169185908110610e5557610e5561127e565b90600052602060002090600702016006018281548110610e7757610e7761127e565b9060005260206000200160006101000a8154816001600160a01b0302191690836001600160a01b03160217905550610ebc565b80610eb48161130f565b915050610d87565b5060038281548110610ed057610ed061127e565b9060005260206000209060070201600601805480610ef057610ef061135a565b600082815260209020810160001990810180546001600160a01b0319169055019055505050565b60005b60038281548110610f2d57610f2d61127e565b906000526020600020906007020160060180549050811015610fb957826001600160a01b031660038381548110610f6657610f6661127e565b90600052602060002090600702016006018281548110610f8857610f8861127e565b6000918252602090912001546001600160a01b031603610fa757505050565b80610fb18161130f565b915050610f1a565b5060038181548110610fcd57610fcd61127e565b60009182526020808320600792909202909101600601805460018101825590835291200180546001600160a01b0319166001600160a01b03939093169290921790915550565b80356001600160a01b038116811461102a57600080fd5b919050565b803560ff8116811461102a57600080fd5b60008060006060848603121561105557600080fd5b61105e84611013565b9250602084013591506110736040850161102f565b90509250925092565b60006020828403121561108e57600080fd5b5035919050565b60ff8716815260006020878184015286604084015285606084015284608084015260c060a084015283518060c085015260005b818110156110e45785810183015185820160e0015282016110c8565b50600060e0828601015260e0601f19601f83011685010192505050979650505050505050565b6000806040838503121561111d57600080fd5b61112683611013565b91506111346020840161102f565b90509250929050565b6001600160a01b0391909116815260200190565b60006020828403121561116357600080fd5b61116c82611013565b9392505050565b6020808252601c908201527b5374616b696e6720706c616e20646f6573206e6f742065786973747360201b604082015260600190565b6001600160a01b039384168152919092166020820152604081019190915260600190565b6000602082840312156111df57600080fd5b8151801515811461116c57600080fd5b60208082526019908201527811985a5b1959081cdd185ada5b99c81dda5d1a191c985dd85b603a1b604082015260600190565b9283526001600160a01b0391909116602083015260ff16604082015260600190565b600181811c9082168061125857607f821691505b60208210810361127857634e487b7160e01b600052602260045260246000fd5b50919050565b634e487b7160e01b600052603260045260246000fd5b634e487b7160e01b600052601160045260246000fd5b8082018082111561060457610604611294565b6000602082840312156112cf57600080fd5b5051919050565b808202811582820484141761060457610604611294565b60008261130a57634e487b7160e01b600052601260045260246000fd5b500490565b60006001820161132157611321611294565b5060010190565b600060ff821660ff810361133e5761133e611294565b60010192915050565b8181038181111561060457610604611294565b634e487b7160e01b600052603160045260246000fdfea26469706673582212207be5588807211806afeef93580c92346129b3317f03a6121e6eb61904320754664736f6c63430008110033ddf252ad1be2c89b69c2b068fc378daa952ba7f163c4a11628f55a4df523b3efdec2bacdd2f05b59de34da9b523dff8be42e5e38e818c82fdb0bae774387a724",
  "immutableReferences": {
    "8369": [
      {
        "length": 32,
        "start": 16701
      }
    ],
    "8371": [
      {
        "length": 32,
        "start": 16659
      }
    ],
    "8373": [
      {
        "length": 32,
        "start": 16617
      }
    ],
    "8375": [
      {
        "length": 32,
        "start": 16784
      }
    ],
    "8377": [
      {
        "length": 32,
        "start": 16821
      }
    ],
    "8379": [
      {
        "length": 32,
        "start": 16742
      }
    ]
  },
  "source": "// SPDX-License-Identifier: MIT\npragma solidity ^0.8.17;\n\nimport \"@openzeppelin/contracts/token/ERC20/ERC20.sol\";\nimport \"@openzeppelin/contracts/token/ERC20/extensions/ERC20Votes.sol\";\nimport \"@openzeppelin/contracts/access/Ownable.sol\";\nimport \"./MLEUtils.sol\";\nimport \"./MLEStaking.sol\";\n\n/**\n * @title The smart contract to handle the MLE token, and interractions between :\n * - the students,\n * - the teachers,\n * - the recruiters.\n * @author Cyril Marois & Maxence Guillemain d'Echon\n**/\ncontract MLE is ERC20, ERC20Votes, Ownable {\n\n/******************************** STATE VARIABLES ********************************/\n\n    mapping (address => MLEUtils.Student) students;\n    mapping (address => MLEUtils.Teacher) teachers;\n    mapping (address => MLEUtils.Recruiter) recruiters;\n\n    address[] public teachersAddress;\n    address[] public studentsAddress;\n    address[] public recruitersAddress;\n\n    mapping (address => uint256) formationStakingBalance;\n    MLEStaking public mleStaking;\n\n    uint announcePostPrice = 50e18;\n    uint formationFee = 3; // %\n    uint formationFeeBurn = 0; // %\n    uint teacherReward = 1000e18;\n    uint jobSignedReward = 1000e18;\n    uint32 minRatingCountForTeacherReward = 5;\n    uint32 minRatingForTeacherReward = 35;\n    uint public profitToDistribute;\n\n    uint constant INITIAL_SUPPLY = 1000000e18;\n    uint constant RECRUITMENT_COMMISSION = 10; // %\n    uint constant MAX_GRADE = 50;\n\n\n/******************************* DEFAULT FUNCTIONS *******************************/\n\n    /**\n     * @notice Initializes the contract.\n    **/\n    constructor() ERC20(\"Master L&Earn\", \"MLE\") Ownable() ERC20Permit(\"Master L&Earn\") {\n        _mint(msg.sender, INITIAL_SUPPLY);\n        mleStaking = new MLEStaking();\n        address teacher1 = 0x8c558Db06F214a38AeDee77017560555F71A1402;\n        address teacher2 = 0x2AfdC89fDC0471CecB9afd277620b6E7aa25fcE2;\n        address student1 = 0x1e74A5Cc99ab4fEf6c567E133A92fAF679E16922;\n        address student2 = 0x791D5EC28598A7691fD17A98b8eaE83887628481;\n        address recruiter1 = 0xFb2f05F21D658D1c163BE1377eA9c37F8a87f9AF;\n        address holder = 0x914e4d81949dF38eB24439362d73db054A75ac98;\n\n        //teacher\n        transfer(holder, 1000e18);\n        transfer(teacher1, 1000e18);\n        transfer(teacher2, 1000e18);\n        transfer(student1, 1000e18);\n        transfer(student2, 1000e18);\n        transfer(recruiter1, 1000e18);\n    }\n\n    receive() external payable {}\n    fallback() external payable {}\n\n/*********************************** MODIFIERS ***********************************/\n    modifier onlyTeachers() {\n        require(teachers[msg.sender].isRegistered, \"Denied: is not a teacher\");\n        _;\n    }\n\n    modifier onlyStudents() {\n        require(students[msg.sender].isRegistered, \"Denied: is not a student\");\n        _;\n    }\n\n    modifier onlyRecruiters() {\n        require(recruiters[msg.sender].isRegistered, \"Denied: is not a recruiter\");\n        _;\n    }\n/************************************ EVENTS *************************************/\n\n    event StudentRegistered (address studentAddress);\n    event TeacherRegistered (address teacherAddress);\n    event RecruiterRegistered (address recruiterAddress);\n\n    event FormationPublished (address teacherAddress, uint teacherFormationId);\n    event FormationCertified (address teacherAddress, uint teacherFormationId, address studentAddress);\n    event AnnouncePublished (address recruiterAddress, uint announceId);\n\n    event TeacherRewarded(address teacherAddress);\n    event RecruitmentReward(address studentAddress, uint16 jobId);\n/*********************************** FUNCTIONS ***********************************/\n/***************** UTILS ********************/\n\n    function _afterTokenTransfer(address from, address to, uint amount) internal override(ERC20, ERC20Votes) {\n        super._afterTokenTransfer(from, to, amount);\n    }\n\n    function _mint(address account, uint amount) internal override(ERC20, ERC20Votes) {\n        super._mint(account, amount);\n    }\n\n    function _burn(address account, uint amount) internal override(ERC20, ERC20Votes) {\n        super._burn(account, amount);\n    }\n\n/************* GETTERS & SETTERS ************/\n    function register(bool _asStudent, bool _asTeacher, bool _asRecruiter) external {\n        if (_asStudent && !students[msg.sender].isRegistered) {\n            studentsAddress.push(msg.sender);\n            students[msg.sender].isRegistered = true;\n            emit StudentRegistered(msg.sender);\n        }\n        if (_asTeacher && !teachers[msg.sender].isRegistered) {\n            teachersAddress.push(msg.sender);\n            teachers[msg.sender].isRegistered = true;\n            emit TeacherRegistered(msg.sender);\n        }\n        if (_asRecruiter && !recruiters[msg.sender].isRegistered) {\n            recruitersAddress.push(msg.sender);\n            recruiters[msg.sender].isRegistered = true;\n            emit RecruiterRegistered(msg.sender);\n        }\n    }\n\n    function getTeachersAddresses() external view returns(address[] memory) {\n        return teachersAddress;\n    }\n\n    function getStudentsAddress() external view returns(address[] memory) {\n        return studentsAddress;\n    }\n\n    function getRecruitersAddress() external view returns(address[] memory) {\n        return recruitersAddress;\n    }\n\n    function getAnnounceForRecruiter (address _recruiterAddress)\n    external view returns(MLEUtils.Announce[] memory) {\n        require (recruiters[_recruiterAddress].isRegistered, \"Recruiter address not registered\");\n        return recruiters[_recruiterAddress].announces;\n    }\n\n    function getFormationForTeacher (address _teacherAddress)\n    external view returns(MLEUtils.TeacherFormation[] memory) {\n        require (teachers[_teacherAddress].isRegistered, \"Teacher address not registered\");\n        return teachers[_teacherAddress].formations;\n    }\n\n    function getFormationForStudent (address _studentAddress)\n    external view returns(MLEUtils.StudentFormation[] memory) {\n        require (students[_studentAddress].isRegistered, \"Student address not registered\");\n        return students[_studentAddress].formations;\n    }\n\n    function getJobsForStudent (address _studentAddress)\n    external view returns(MLEUtils.Job[] memory) {\n        require (students[_studentAddress].isRegistered, \"Student address not registered\");\n        return students[_studentAddress].jobs;\n    }\n\n    function setAnnouncePostPrice (uint _announcePostPrice) external onlyOwner {\n        announcePostPrice = _announcePostPrice;\n    }\n\n    function setFormationFee (uint _formationFee) external onlyOwner {\n        require (_formationFee < 100, \"formationFee is in percent (<100)\");\n        formationFee = _formationFee;\n    }\n\n    function setFormationFeeBurn (uint _formationFeeBurn) external onlyOwner {\n        require (_formationFeeBurn < 100, \"formationFeeBurn is in percent (<100)\");\n        formationFeeBurn = _formationFeeBurn;\n    }\n\n    function setQualityFormationReward (uint _teacherReward) external onlyOwner {\n        teacherReward = _teacherReward;\n    }\n\n    function setJobSignedReward (uint _jobSignedReward) external onlyOwner {\n        jobSignedReward = _jobSignedReward;\n    }\n\n/********** FORMATIONS FUNCTIONS ************/\n\n    function postFormation (\n        uint8 _modulesCount,\n        uint32 _duration,\n        uint _price,\n        string memory _title,\n        string[] memory _tags\n    ) onlyTeachers external {\n        address[] memory stds;\n        MLEUtils.TeacherFormation memory newTeacherFormation;\n        newTeacherFormation = MLEUtils.TeacherFormation (\n            _modulesCount,\n            0,\n            0,\n            _duration,\n            uint128(block.timestamp),\n            _price,\n            _title,\n            _tags,\n            stds\n        );\n        teachers[msg.sender].formations.push(newTeacherFormation);\n\n        emit FormationPublished(msg.sender, teachers[msg.sender].formations.length - 1);\n    }\n\n    function validateUserModule (address _studentAddress, uint16 _teacherFormationId) onlyTeachers external {\n        require (students[_studentAddress].isRegistered, \"Student address not registered\");\n\n        uint16 _id = _retrieveStudentFormationId(_studentAddress, msg.sender, _teacherFormationId);\n        MLEUtils.StudentFormation memory _studentFormation = students[_studentAddress].formations[_id];\n        require (!_studentFormation.isCertified, \"Formation already certified\");\n        require (_studentFormation.validatedModulesNumber < teachers[msg.sender].formations[_teacherFormationId].modulesCount, \"Last module already validated\");\n\n        students[_studentAddress].formations[_id].validatedModulesNumber++;\n\n        // Cashback\n        if (formationStakingBalance[_studentAddress] > _studentFormation.cashback) {\n            formationStakingBalance[_studentAddress] -= _studentFormation.cashback;\n            _transfer(address(this), _studentAddress, _studentFormation.cashback);\n        }\n    }\n\n    function certifyUserFormation (address _studentAddress, uint16 _teacherFormationId) onlyTeachers external {\n        require (students[_studentAddress].isRegistered, \"Student address not registered\");\n\n        uint16 _id = _retrieveStudentFormationId(_studentAddress, msg.sender, _teacherFormationId);\n        require (!students[_studentAddress].formations[_id].isCertified, \"Formation already certified\");\n\n        teachers[msg.sender].formations[_teacherFormationId].students\n         = MLEUtils._removeAddressFromTab(teachers[msg.sender].formations[_teacherFormationId].students,\n         _studentAddress);\n\n        students[_studentAddress].formations[_id].isCertified = true;\n    }\n\n    function _retrieveStudentFormationId (address _studentAddress, address _teacherAddress, uint16 _teacherFormationId)\n        internal view returns(uint16) {\n        // Retrieve within the formations owned by the sender and followed by the student the formation which:\n        // - has the teacherAddress msg.sender\n        // - has the id _teacherFormationId\n        bool _found;\n        uint16 _id;\n        for (; _id < students[_studentAddress].formations.length; _id++) {\n            if (students[_studentAddress].formations[_id].teacherAddress == _teacherAddress\n                && students[_studentAddress].formations[_id].formationId == _teacherFormationId) {\n                _found = true;\n                break;\n            }\n        }\n        require (_found, \"formation not found\");\n        return _id;\n    }\n\n    function buyFormation (address _teacherAddress, uint16 _teacherFormationId) onlyStudents external {\n        require (teachers[_teacherAddress].isRegistered, \"Student address not registered\");\n        require (_teacherFormationId < teachers[_teacherAddress].formations.length, \"Formation not found\");\n\n        MLEUtils.TeacherFormation memory _teacherFormation = teachers[_teacherAddress].formations[_teacherFormationId];\n\n        // Pay formation\n        require (balanceOf(msg.sender) >= 2 * _teacherFormation.price, \"Insufficient balance\");\n        uint _fee = _teacherFormation.price * formationFee / 100;\n        uint _feeBurn = formationFee * formationFeeBurn / 100;\n        uint _teacherCut = _teacherFormation.price - _fee;\n        require (transfer(_teacherAddress, _teacherCut));\n        require (transfer(address(this), _teacherFormation.price + _fee - _feeBurn));\n        _burn(_teacherAddress, _feeBurn);\n        formationStakingBalance[msg.sender] += _teacherFormation.price;\n\n        // Add new StudentFormation to student\n        uint cashback = _teacherFormation.price / _teacherFormation.modulesCount ;\n        MLEUtils.StudentFormation memory _studentFormation =\n            MLEUtils.StudentFormation (_teacherAddress, _teacherFormationId, 0, false, false, cashback);\n        students[msg.sender].formations.push(_studentFormation);\n\n        profitToDistribute += _fee - _feeBurn;\n        // Add student address to formation\n        teachers[_teacherAddress].formations[_teacherFormationId].students.push(msg.sender);\n    }\n\n    function evaluateFormation (address _teacherAddress, uint16 _teacherFormationId, uint8 grade) onlyStudents external {\n        require (grade <= MAX_GRADE, \"Grade too high\");\n        require (teachers[_teacherAddress].isRegistered, \"Teacher address not registered\");\n        require (_teacherFormationId < teachers[_teacherAddress].formations.length, \"Formation not found\");\n        uint16 _id = _retrieveStudentFormationId(msg.sender, _teacherAddress, _teacherFormationId);\n        // TBD conditions de droit de notation :\n        require (students[msg.sender].formations[_id].isCertified, \"Student cannot evaluate yet\");\n        require (!students[msg.sender].formations[_id].isRated, \"Student already evaluated this formation\");\n\n        students[msg.sender].formations[_id].isRated = true;\n        teachers[_teacherAddress].formations[_teacherFormationId].ratingsSum += grade;\n        teachers[_teacherAddress].formations[_teacherFormationId].ratingsCount ++;\n\n        _rewardTeacher(_teacherAddress, _teacherFormationId);\n    }\n\n    function _rewardTeacher (address _teacherAddress, uint16 _teacherFormationId) internal {\n        // TDB condition reward\n\n        uint32 ratingsSum = teachers[_teacherAddress].formations[_teacherFormationId].ratingsSum;\n        uint32 ratingsCount = teachers[_teacherAddress].formations[_teacherFormationId].ratingsCount;\n\n        if (ratingsCount > minRatingCountForTeacherReward &&\n            ratingsSum > ratingsCount * minRatingForTeacherReward) {\n            _mint(_teacherAddress, teacherReward);\n            emit TeacherRewarded(_teacherAddress);\n        }\n    }\n\n/******* ANNOUNCES & JOBS FUNCTIONS *********/\n\n    function postAnnounce(\n        string memory _title,\n        string memory _description,\n        string[] memory _tags\n    ) onlyRecruiters external {\n        require (transfer(address(this), announcePostPrice), \"Insufficient balance\");\n        profitToDistribute += announcePostPrice;\n        address[] memory candidates;\n        recruiters[msg.sender].announces.push( MLEUtils.Announce (\n            true,\n            block.timestamp,\n            _title,\n            _description,\n            _tags,\n            candidates\n        ));\n        emit AnnouncePublished(msg.sender, recruiters[msg.sender].announces.length - 1);\n    }\n\n    function offerJob(\n        address _studentAddress,\n        uint16 _announceId,\n        string memory _title\n    ) onlyRecruiters external {\n        require (students[_studentAddress].isRegistered, \"Student address not registered\");\n        students[_studentAddress].jobs.push( MLEUtils.Job (\n            false,\n            msg.sender,\n            _announceId,\n            0,\n            _title,\n            0\n        ));\n    }\n\n    function applyAnnounce(address _recruiterAddress, uint16 _announceId) onlyStudents external {\n        require (recruiters[_recruiterAddress].isRegistered, \"Recruiter address not registered\");\n        require (_announceId < recruiters[_recruiterAddress].announces.length, \"Announce not found\");\n\n        bool _found;\n        // TBD : limit size of candidates tab ?\n        for (uint _id; _id < recruiters[_recruiterAddress].announces[_announceId].candidates.length; _id++) {\n            if (recruiters[_recruiterAddress].announces[_announceId].candidates[_id] == msg.sender)\n                _found = true;\n        }\n        require (!_found, \"Announce already applied\");\n\n        recruiters[_recruiterAddress].announces[_announceId].candidates.push(msg.sender);\n    }\n\n    function answerJobOffer(bool _doAccept, uint16 _jobId) onlyStudents external {\n        require (_jobId < students[msg.sender].jobs.length, \"Job not found\");\n\n        students[msg.sender].jobs[_jobId].isAccepted = _doAccept;\n    }\n\n    function proveId(uint16 _jobId, uint _challenge) onlyStudents external {\n        students[msg.sender].jobs[_jobId].challenge = _challenge;\n    }\n\n    function verifyId(address _studentAddress, uint16 _jobId, uint _challenge) onlyRecruiters external {\n        // verify ID by checking challenge\n        require (students[_studentAddress].jobs[_jobId].challenge == _challenge, \"Id not verified\");\n\n        // Remove Job Announce\n        uint16 _id = students[_studentAddress].jobs[_jobId].announceId;\n        recruiters[msg.sender].announces[_id].isActive = false;\n\n        // Reward the DAO by minting 1000 MLE\n        _mint(address(this), jobSignedReward);\n        profitToDistribute += jobSignedReward;\n        emit RecruitmentReward(_studentAddress, _jobId);\n    }\n\n/************ TOKEN FUNCTIONS ***************/\n\n    function DAOMint(uint _amount) onlyOwner external {\n        _mint(owner(), _amount);\n    }\n\n    function stakeDeposit(uint256 _amount, uint8 _planId) external {\n        approve(address(mleStaking), _amount);\n        mleStaking.stakeDeposit(msg.sender, _amount, _planId);\n        approve(address(mleStaking), 0);\n    }\n\n    function stakeWithdraw(uint256 _amount, uint8 _planId) external {\n        _approve(address(this), address(mleStaking), _amount);\n        mleStaking.stakeWithdraw(msg.sender, _amount, _planId);\n        _approve(address(this), address(mleStaking), 0);\n    }\n\n    function distributeProfits() onlyOwner external {\n        _approve(address(this), address(mleStaking), profitToDistribute);\n        mleStaking.distributeProfits(profitToDistribute);\n        _approve(address(this), address(mleStaking), 0);\n        profitToDistribute = 0;\n    }\n\n}",
  "sourcePath": "/home/cyrilmarois/Code/Formations/Alyra/master-L-earn/truffle/contracts/MLE.sol",
  "compiler": {
    "name": "solc",
    "version": "0.8.17+commit.8df45f5f.Emscripten.clang"
  },
  "schemaVersion": "3.4.10",
  "updatedAt": "2022-12-14T01:17:25.410Z",
  "networkType": "ethereum",
  "devdoc": {
    "author": "Cyril Marois & Maxence Guillemain d'Echon*",
    "kind": "dev",
    "methods": {
      "DOMAIN_SEPARATOR()": {
        "details": "See {IERC20Permit-DOMAIN_SEPARATOR}."
      },
      "allowance(address,address)": {
        "details": "See {IERC20-allowance}."
      },
      "approve(address,uint256)": {
        "details": "See {IERC20-approve}. NOTE: If `amount` is the maximum `uint256`, the allowance is not updated on `transferFrom`. This is semantically equivalent to an infinite approval. Requirements: - `spender` cannot be the zero address."
      },
      "balanceOf(address)": {
        "details": "See {IERC20-balanceOf}."
      },
      "checkpoints(address,uint32)": {
        "details": "Get the `pos`-th checkpoint for `account`."
      },
      "decimals()": {
        "details": "Returns the number of decimals used to get its user representation. For example, if `decimals` equals `2`, a balance of `505` tokens should be displayed to a user as `5.05` (`505 / 10 ** 2`). Tokens usually opt for a value of 18, imitating the relationship between Ether and Wei. This is the value {ERC20} uses, unless this function is overridden; NOTE: This information is only used for _display_ purposes: it in no way affects any of the arithmetic of the contract, including {IERC20-balanceOf} and {IERC20-transfer}."
      },
      "decreaseAllowance(address,uint256)": {
        "details": "Atomically decreases the allowance granted to `spender` by the caller. This is an alternative to {approve} that can be used as a mitigation for problems described in {IERC20-approve}. Emits an {Approval} event indicating the updated allowance. Requirements: - `spender` cannot be the zero address. - `spender` must have allowance for the caller of at least `subtractedValue`."
      },
      "delegate(address)": {
        "details": "Delegate votes from the sender to `delegatee`."
      },
      "delegateBySig(address,uint256,uint256,uint8,bytes32,bytes32)": {
        "details": "Delegates votes from signer to `delegatee`"
      },
      "delegates(address)": {
        "details": "Get the address `account` is currently delegating to."
      },
      "getPastTotalSupply(uint256)": {
        "details": "Retrieve the `totalSupply` at the end of `blockNumber`. Note, this value is the sum of all balances. It is but NOT the sum of all the delegated votes! Requirements: - `blockNumber` must have been already mined"
      },
      "getPastVotes(address,uint256)": {
        "details": "Retrieve the number of votes for `account` at the end of `blockNumber`. Requirements: - `blockNumber` must have been already mined"
      },
      "getVotes(address)": {
        "details": "Gets the current votes balance for `account`"
      },
      "increaseAllowance(address,uint256)": {
        "details": "Atomically increases the allowance granted to `spender` by the caller. This is an alternative to {approve} that can be used as a mitigation for problems described in {IERC20-approve}. Emits an {Approval} event indicating the updated allowance. Requirements: - `spender` cannot be the zero address."
      },
      "name()": {
        "details": "Returns the name of the token."
      },
      "nonces(address)": {
        "details": "See {IERC20Permit-nonces}."
      },
      "numCheckpoints(address)": {
        "details": "Get number of checkpoints for `account`."
      },
      "owner()": {
        "details": "Returns the address of the current owner."
      },
      "permit(address,address,uint256,uint256,uint8,bytes32,bytes32)": {
        "details": "See {IERC20Permit-permit}."
      },
      "renounceOwnership()": {
        "details": "Leaves the contract without owner. It will not be possible to call `onlyOwner` functions anymore. Can only be called by the current owner. NOTE: Renouncing ownership will leave the contract without an owner, thereby removing any functionality that is only available to the owner."
      },
      "symbol()": {
        "details": "Returns the symbol of the token, usually a shorter version of the name."
      },
      "totalSupply()": {
        "details": "See {IERC20-totalSupply}."
      },
      "transfer(address,uint256)": {
        "details": "See {IERC20-transfer}. Requirements: - `to` cannot be the zero address. - the caller must have a balance of at least `amount`."
      },
      "transferFrom(address,address,uint256)": {
        "details": "See {IERC20-transferFrom}. Emits an {Approval} event indicating the updated allowance. This is not required by the EIP. See the note at the beginning of {ERC20}. NOTE: Does not update the allowance if the current allowance is the maximum `uint256`. Requirements: - `from` and `to` cannot be the zero address. - `from` must have a balance of at least `amount`. - the caller must have allowance for ``from``'s tokens of at least `amount`."
      },
      "transferOwnership(address)": {
        "details": "Transfers ownership of the contract to a new account (`newOwner`). Can only be called by the current owner."
      }
    },
    "title": "The smart contract to handle the MLE token, and interractions between : - the students, - the teachers, - the recruiters.",
    "version": 1
  },
  "userdoc": {
    "kind": "user",
    "methods": {
      "constructor": {
        "notice": "Initializes the contract.*"
      }
    },
    "version": 1
  }
}