{
  "contractName": "MLE",
  "abi": [
    {
      "inputs": [],
      "stateMutability": "nonpayable",
      "type": "constructor"
    },
    {
      "anonymous": false,
      "inputs": [
        {
          "indexed": false,
          "internalType": "address",
          "name": "recruiterAddress",
          "type": "address"
        },
        {
          "indexed": false,
          "internalType": "uint256",
          "name": "announceId",
          "type": "uint256"
        }
      ],
      "name": "AnnouncePublished",
      "type": "event"
    },
    {
      "anonymous": false,
      "inputs": [
        {
          "indexed": true,
          "internalType": "address",
          "name": "owner",
          "type": "address"
        },
        {
          "indexed": true,
          "internalType": "address",
          "name": "spender",
          "type": "address"
        },
        {
          "indexed": false,
          "internalType": "uint256",
          "name": "value",
          "type": "uint256"
        }
      ],
      "name": "Approval",
      "type": "event"
    },
    {
      "anonymous": false,
      "inputs": [
        {
          "indexed": true,
          "internalType": "address",
          "name": "delegator",
          "type": "address"
        },
        {
          "indexed": true,
          "internalType": "address",
          "name": "fromDelegate",
          "type": "address"
        },
        {
          "indexed": true,
          "internalType": "address",
          "name": "toDelegate",
          "type": "address"
        }
      ],
      "name": "DelegateChanged",
      "type": "event"
    },
    {
      "anonymous": false,
      "inputs": [
        {
          "indexed": true,
          "internalType": "address",
          "name": "delegate",
          "type": "address"
        },
        {
          "indexed": false,
          "internalType": "uint256",
          "name": "previousBalance",
          "type": "uint256"
        },
        {
          "indexed": false,
          "internalType": "uint256",
          "name": "newBalance",
          "type": "uint256"
        }
      ],
      "name": "DelegateVotesChanged",
      "type": "event"
    },
    {
      "anonymous": false,
      "inputs": [
        {
          "indexed": false,
          "internalType": "address",
          "name": "teacherAddress",
          "type": "address"
        },
        {
          "indexed": false,
          "internalType": "uint256",
          "name": "teacherFormationId",
          "type": "uint256"
        },
        {
          "indexed": false,
          "internalType": "address",
          "name": "studentAddress",
          "type": "address"
        }
      ],
      "name": "FormationCertified",
      "type": "event"
    },
    {
      "anonymous": false,
      "inputs": [
        {
          "indexed": false,
          "internalType": "address",
          "name": "teacherAddress",
          "type": "address"
        },
        {
          "indexed": false,
          "internalType": "uint256",
          "name": "teacherFormationId",
          "type": "uint256"
        }
      ],
      "name": "FormationPublished",
      "type": "event"
    },
    {
      "anonymous": false,
      "inputs": [
        {
          "indexed": true,
          "internalType": "address",
          "name": "previousOwner",
          "type": "address"
        },
        {
          "indexed": true,
          "internalType": "address",
          "name": "newOwner",
          "type": "address"
        }
      ],
      "name": "OwnershipTransferred",
      "type": "event"
    },
    {
      "anonymous": false,
      "inputs": [
        {
          "indexed": false,
          "internalType": "address",
          "name": "recruiterAddress",
          "type": "address"
        }
      ],
      "name": "RecruiterRegistered",
      "type": "event"
    },
    {
      "anonymous": false,
      "inputs": [
        {
          "indexed": false,
          "internalType": "address",
          "name": "studentAddress",
          "type": "address"
        },
        {
          "indexed": false,
          "internalType": "uint16",
          "name": "jobId",
          "type": "uint16"
        }
      ],
      "name": "RecruitmentReward",
      "type": "event"
    },
    {
      "anonymous": false,
      "inputs": [
        {
          "indexed": false,
          "internalType": "address",
          "name": "studentAddress",
          "type": "address"
        }
      ],
      "name": "StudentRegistered",
      "type": "event"
    },
    {
      "anonymous": false,
      "inputs": [
        {
          "indexed": false,
          "internalType": "address",
          "name": "teacherAddress",
          "type": "address"
        }
      ],
      "name": "TeacherRegistered",
      "type": "event"
    },
    {
      "anonymous": false,
      "inputs": [
        {
          "indexed": false,
          "internalType": "address",
          "name": "teacherAddress",
          "type": "address"
        }
      ],
      "name": "TeacherRewarded",
      "type": "event"
    },
    {
      "anonymous": false,
      "inputs": [
        {
          "indexed": true,
          "internalType": "address",
          "name": "from",
          "type": "address"
        },
        {
          "indexed": true,
          "internalType": "address",
          "name": "to",
          "type": "address"
        },
        {
          "indexed": false,
          "internalType": "uint256",
          "name": "value",
          "type": "uint256"
        }
      ],
      "name": "Transfer",
      "type": "event"
    },
    {
      "stateMutability": "payable",
      "type": "fallback",
      "payable": true
    },
    {
      "inputs": [],
      "name": "DOMAIN_SEPARATOR",
      "outputs": [
        {
          "internalType": "bytes32",
          "name": "",
          "type": "bytes32"
        }
      ],
      "stateMutability": "view",
      "type": "function",
      "constant": true
    },
    {
      "inputs": [
        {
          "internalType": "address",
          "name": "owner",
          "type": "address"
        },
        {
          "internalType": "address",
          "name": "spender",
          "type": "address"
        }
      ],
      "name": "allowance",
      "outputs": [
        {
          "internalType": "uint256",
          "name": "",
          "type": "uint256"
        }
      ],
      "stateMutability": "view",
      "type": "function",
      "constant": true
    },
    {
      "inputs": [
        {
          "internalType": "address",
          "name": "spender",
          "type": "address"
        },
        {
          "internalType": "uint256",
          "name": "amount",
          "type": "uint256"
        }
      ],
      "name": "approve",
      "outputs": [
        {
          "internalType": "bool",
          "name": "",
          "type": "bool"
        }
      ],
      "stateMutability": "nonpayable",
      "type": "function"
    },
    {
      "inputs": [
        {
          "internalType": "address",
          "name": "account",
          "type": "address"
        }
      ],
      "name": "balanceOf",
      "outputs": [
        {
          "internalType": "uint256",
          "name": "",
          "type": "uint256"
        }
      ],
      "stateMutability": "view",
      "type": "function",
      "constant": true
    },
    {
      "inputs": [
        {
          "internalType": "address",
          "name": "account",
          "type": "address"
        },
        {
          "internalType": "uint32",
          "name": "pos",
          "type": "uint32"
        }
      ],
      "name": "checkpoints",
      "outputs": [
        {
          "components": [
            {
              "internalType": "uint32",
              "name": "fromBlock",
              "type": "uint32"
            },
            {
              "internalType": "uint224",
              "name": "votes",
              "type": "uint224"
            }
          ],
          "internalType": "struct ERC20Votes.Checkpoint",
          "name": "",
          "type": "tuple"
        }
      ],
      "stateMutability": "view",
      "type": "function",
      "constant": true
    },
    {
      "inputs": [],
      "name": "decimals",
      "outputs": [
        {
          "internalType": "uint8",
          "name": "",
          "type": "uint8"
        }
      ],
      "stateMutability": "view",
      "type": "function",
      "constant": true
    },
    {
      "inputs": [
        {
          "internalType": "address",
          "name": "spender",
          "type": "address"
        },
        {
          "internalType": "uint256",
          "name": "subtractedValue",
          "type": "uint256"
        }
      ],
      "name": "decreaseAllowance",
      "outputs": [
        {
          "internalType": "bool",
          "name": "",
          "type": "bool"
        }
      ],
      "stateMutability": "nonpayable",
      "type": "function"
    },
    {
      "inputs": [
        {
          "internalType": "address",
          "name": "delegatee",
          "type": "address"
        }
      ],
      "name": "delegate",
      "outputs": [],
      "stateMutability": "nonpayable",
      "type": "function"
    },
    {
      "inputs": [
        {
          "internalType": "address",
          "name": "delegatee",
          "type": "address"
        },
        {
          "internalType": "uint256",
          "name": "nonce",
          "type": "uint256"
        },
        {
          "internalType": "uint256",
          "name": "expiry",
          "type": "uint256"
        },
        {
          "internalType": "uint8",
          "name": "v",
          "type": "uint8"
        },
        {
          "internalType": "bytes32",
          "name": "r",
          "type": "bytes32"
        },
        {
          "internalType": "bytes32",
          "name": "s",
          "type": "bytes32"
        }
      ],
      "name": "delegateBySig",
      "outputs": [],
      "stateMutability": "nonpayable",
      "type": "function"
    },
    {
      "inputs": [
        {
          "internalType": "address",
          "name": "account",
          "type": "address"
        }
      ],
      "name": "delegates",
      "outputs": [
        {
          "internalType": "address",
          "name": "",
          "type": "address"
        }
      ],
      "stateMutability": "view",
      "type": "function",
      "constant": true
    },
    {
      "inputs": [
        {
          "internalType": "uint256",
          "name": "blockNumber",
          "type": "uint256"
        }
      ],
      "name": "getPastTotalSupply",
      "outputs": [
        {
          "internalType": "uint256",
          "name": "",
          "type": "uint256"
        }
      ],
      "stateMutability": "view",
      "type": "function",
      "constant": true
    },
    {
      "inputs": [
        {
          "internalType": "address",
          "name": "account",
          "type": "address"
        },
        {
          "internalType": "uint256",
          "name": "blockNumber",
          "type": "uint256"
        }
      ],
      "name": "getPastVotes",
      "outputs": [
        {
          "internalType": "uint256",
          "name": "",
          "type": "uint256"
        }
      ],
      "stateMutability": "view",
      "type": "function",
      "constant": true
    },
    {
      "inputs": [
        {
          "internalType": "address",
          "name": "account",
          "type": "address"
        }
      ],
      "name": "getVotes",
      "outputs": [
        {
          "internalType": "uint256",
          "name": "",
          "type": "uint256"
        }
      ],
      "stateMutability": "view",
      "type": "function",
      "constant": true
    },
    {
      "inputs": [
        {
          "internalType": "address",
          "name": "spender",
          "type": "address"
        },
        {
          "internalType": "uint256",
          "name": "addedValue",
          "type": "uint256"
        }
      ],
      "name": "increaseAllowance",
      "outputs": [
        {
          "internalType": "bool",
          "name": "",
          "type": "bool"
        }
      ],
      "stateMutability": "nonpayable",
      "type": "function"
    },
    {
      "inputs": [],
      "name": "mleStaking",
      "outputs": [
        {
          "internalType": "contract MLEStaking",
          "name": "",
          "type": "address"
        }
      ],
      "stateMutability": "view",
      "type": "function",
      "constant": true
    },
    {
      "inputs": [],
      "name": "name",
      "outputs": [
        {
          "internalType": "string",
          "name": "",
          "type": "string"
        }
      ],
      "stateMutability": "view",
      "type": "function",
      "constant": true
    },
    {
      "inputs": [
        {
          "internalType": "address",
          "name": "owner",
          "type": "address"
        }
      ],
      "name": "nonces",
      "outputs": [
        {
          "internalType": "uint256",
          "name": "",
          "type": "uint256"
        }
      ],
      "stateMutability": "view",
      "type": "function",
      "constant": true
    },
    {
      "inputs": [
        {
          "internalType": "address",
          "name": "account",
          "type": "address"
        }
      ],
      "name": "numCheckpoints",
      "outputs": [
        {
          "internalType": "uint32",
          "name": "",
          "type": "uint32"
        }
      ],
      "stateMutability": "view",
      "type": "function",
      "constant": true
    },
    {
      "inputs": [],
      "name": "owner",
      "outputs": [
        {
          "internalType": "address",
          "name": "",
          "type": "address"
        }
      ],
      "stateMutability": "view",
      "type": "function",
      "constant": true
    },
    {
      "inputs": [
        {
          "internalType": "address",
          "name": "owner",
          "type": "address"
        },
        {
          "internalType": "address",
          "name": "spender",
          "type": "address"
        },
        {
          "internalType": "uint256",
          "name": "value",
          "type": "uint256"
        },
        {
          "internalType": "uint256",
          "name": "deadline",
          "type": "uint256"
        },
        {
          "internalType": "uint8",
          "name": "v",
          "type": "uint8"
        },
        {
          "internalType": "bytes32",
          "name": "r",
          "type": "bytes32"
        },
        {
          "internalType": "bytes32",
          "name": "s",
          "type": "bytes32"
        }
      ],
      "name": "permit",
      "outputs": [],
      "stateMutability": "nonpayable",
      "type": "function"
    },
    {
      "inputs": [
        {
          "internalType": "uint256",
          "name": "",
          "type": "uint256"
        }
      ],
      "name": "recruitersAddress",
      "outputs": [
        {
          "internalType": "address",
          "name": "",
          "type": "address"
        }
      ],
      "stateMutability": "view",
      "type": "function",
      "constant": true
    },
    {
      "inputs": [],
      "name": "renounceOwnership",
      "outputs": [],
      "stateMutability": "nonpayable",
      "type": "function"
    },
    {
      "inputs": [
        {
          "internalType": "uint256",
          "name": "",
          "type": "uint256"
        }
      ],
      "name": "studentsAddress",
      "outputs": [
        {
          "internalType": "address",
          "name": "",
          "type": "address"
        }
      ],
      "stateMutability": "view",
      "type": "function",
      "constant": true
    },
    {
      "inputs": [],
      "name": "symbol",
      "outputs": [
        {
          "internalType": "string",
          "name": "",
          "type": "string"
        }
      ],
      "stateMutability": "view",
      "type": "function",
      "constant": true
    },
    {
      "inputs": [
        {
          "internalType": "uint256",
          "name": "",
          "type": "uint256"
        }
      ],
      "name": "teachersAddress",
      "outputs": [
        {
          "internalType": "address",
          "name": "",
          "type": "address"
        }
      ],
      "stateMutability": "view",
      "type": "function",
      "constant": true
    },
    {
      "inputs": [],
      "name": "totalSupply",
      "outputs": [
        {
          "internalType": "uint256",
          "name": "",
          "type": "uint256"
        }
      ],
      "stateMutability": "view",
      "type": "function",
      "constant": true
    },
    {
      "inputs": [
        {
          "internalType": "address",
          "name": "to",
          "type": "address"
        },
        {
          "internalType": "uint256",
          "name": "amount",
          "type": "uint256"
        }
      ],
      "name": "transfer",
      "outputs": [
        {
          "internalType": "bool",
          "name": "",
          "type": "bool"
        }
      ],
      "stateMutability": "nonpayable",
      "type": "function"
    },
    {
      "inputs": [
        {
          "internalType": "address",
          "name": "from",
          "type": "address"
        },
        {
          "internalType": "address",
          "name": "to",
          "type": "address"
        },
        {
          "internalType": "uint256",
          "name": "amount",
          "type": "uint256"
        }
      ],
      "name": "transferFrom",
      "outputs": [
        {
          "internalType": "bool",
          "name": "",
          "type": "bool"
        }
      ],
      "stateMutability": "nonpayable",
      "type": "function"
    },
    {
      "inputs": [
        {
          "internalType": "address",
          "name": "newOwner",
          "type": "address"
        }
      ],
      "name": "transferOwnership",
      "outputs": [],
      "stateMutability": "nonpayable",
      "type": "function"
    },
    {
      "stateMutability": "payable",
      "type": "receive",
      "payable": true
    },
    {
      "inputs": [
        {
          "internalType": "bool",
          "name": "_asStudent",
          "type": "bool"
        },
        {
          "internalType": "bool",
          "name": "_asTeacher",
          "type": "bool"
        },
        {
          "internalType": "bool",
          "name": "_asRecruiter",
          "type": "bool"
        }
      ],
      "name": "register",
      "outputs": [],
      "stateMutability": "nonpayable",
      "type": "function"
    },
    {
      "inputs": [],
      "name": "getTeachersAddresses",
      "outputs": [
        {
          "internalType": "address[]",
          "name": "",
          "type": "address[]"
        }
      ],
      "stateMutability": "view",
      "type": "function",
      "constant": true
    },
    {
      "inputs": [
        {
          "internalType": "address",
          "name": "_recruiterAddress",
          "type": "address"
        }
      ],
      "name": "getAnnounceForRecruiter",
      "outputs": [
        {
          "components": [
            {
              "internalType": "bool",
              "name": "isActive",
              "type": "bool"
            },
            {
              "internalType": "uint256",
              "name": "creationDate",
              "type": "uint256"
            },
            {
              "internalType": "string",
              "name": "title",
              "type": "string"
            },
            {
              "internalType": "string[]",
              "name": "tags",
              "type": "string[]"
            },
            {
              "internalType": "address[]",
              "name": "candidates",
              "type": "address[]"
            }
          ],
          "internalType": "struct MLEUtils.Announce[]",
          "name": "",
          "type": "tuple[]"
        }
      ],
      "stateMutability": "view",
      "type": "function",
      "constant": true
    },
    {
      "inputs": [
        {
          "internalType": "address",
          "name": "_teacherAddress",
          "type": "address"
        }
      ],
      "name": "getFormationForTeacher",
      "outputs": [
        {
          "components": [
            {
              "internalType": "uint8",
              "name": "modulesCount",
              "type": "uint8"
            },
            {
              "internalType": "uint32",
              "name": "ratingsSum",
              "type": "uint32"
            },
            {
              "internalType": "uint32",
              "name": "ratingsCount",
              "type": "uint32"
            },
            {
              "internalType": "uint32",
              "name": "duration",
              "type": "uint32"
            },
            {
              "internalType": "uint128",
              "name": "creationDate",
              "type": "uint128"
            },
            {
              "internalType": "uint256",
              "name": "price",
              "type": "uint256"
            },
            {
              "internalType": "string",
              "name": "title",
              "type": "string"
            },
            {
              "internalType": "string[]",
              "name": "tags",
              "type": "string[]"
            },
            {
              "internalType": "address[]",
              "name": "students",
              "type": "address[]"
            }
          ],
          "internalType": "struct MLEUtils.TeacherFormation[]",
          "name": "",
          "type": "tuple[]"
        }
      ],
      "stateMutability": "view",
      "type": "function",
      "constant": true
    },
    {
      "inputs": [
        {
          "internalType": "address",
          "name": "_studentAddress",
          "type": "address"
        }
      ],
      "name": "getFormationForStudent",
      "outputs": [
        {
          "components": [
            {
              "internalType": "address",
              "name": "teacherAddress",
              "type": "address"
            },
            {
              "internalType": "uint16",
              "name": "formationId",
              "type": "uint16"
            },
            {
              "internalType": "uint8",
              "name": "validatedModulesNumber",
              "type": "uint8"
            },
            {
              "internalType": "bool",
              "name": "isCertified",
              "type": "bool"
            },
            {
              "internalType": "bool",
              "name": "isRated",
              "type": "bool"
            },
            {
              "internalType": "uint256",
              "name": "cashback",
              "type": "uint256"
            }
          ],
          "internalType": "struct MLEUtils.StudentFormation[]",
          "name": "",
          "type": "tuple[]"
        }
      ],
      "stateMutability": "view",
      "type": "function",
      "constant": true
    },
    {
      "inputs": [
        {
          "internalType": "address",
          "name": "_studentAddress",
          "type": "address"
        }
      ],
      "name": "getJobsForStudent",
      "outputs": [
        {
          "components": [
            {
              "internalType": "bool",
              "name": "isAccepted",
              "type": "bool"
            },
            {
              "internalType": "address",
              "name": "recruiterAddress",
              "type": "address"
            },
            {
              "internalType": "uint16",
              "name": "announceId",
              "type": "uint16"
            },
            {
              "internalType": "uint128",
              "name": "entryDate",
              "type": "uint128"
            },
            {
              "internalType": "string",
              "name": "title",
              "type": "string"
            },
            {
              "internalType": "uint256",
              "name": "challenge",
              "type": "uint256"
            }
          ],
          "internalType": "struct MLEUtils.Job[]",
          "name": "",
          "type": "tuple[]"
        }
      ],
      "stateMutability": "view",
      "type": "function",
      "constant": true
    },
    {
      "inputs": [
        {
          "internalType": "uint256",
          "name": "_announcePostPrice",
          "type": "uint256"
        }
      ],
      "name": "setAnnouncePostPrice",
      "outputs": [],
      "stateMutability": "nonpayable",
      "type": "function"
    },
    {
      "inputs": [
        {
          "internalType": "uint256",
          "name": "_formationFee",
          "type": "uint256"
        }
      ],
      "name": "setFormationFee",
      "outputs": [],
      "stateMutability": "nonpayable",
      "type": "function"
    },
    {
      "inputs": [
        {
          "internalType": "uint256",
          "name": "_formationFeeBurn",
          "type": "uint256"
        }
      ],
      "name": "setFormationFeeBurn",
      "outputs": [],
      "stateMutability": "nonpayable",
      "type": "function"
    },
    {
      "inputs": [
        {
          "internalType": "uint256",
          "name": "_teacherReward",
          "type": "uint256"
        }
      ],
      "name": "setQualityFormationReward",
      "outputs": [],
      "stateMutability": "nonpayable",
      "type": "function"
    },
    {
      "inputs": [
        {
          "internalType": "uint256",
          "name": "_jobSignedReward",
          "type": "uint256"
        }
      ],
      "name": "setJobSignedReward",
      "outputs": [],
      "stateMutability": "nonpayable",
      "type": "function"
    },
    {
      "inputs": [
        {
          "internalType": "uint8",
          "name": "_modulesCount",
          "type": "uint8"
        },
        {
          "internalType": "uint32",
          "name": "_duration",
          "type": "uint32"
        },
        {
          "internalType": "uint256",
          "name": "_price",
          "type": "uint256"
        },
        {
          "internalType": "string",
          "name": "_title",
          "type": "string"
        },
        {
          "internalType": "string[]",
          "name": "_tags",
          "type": "string[]"
        }
      ],
      "name": "postFormation",
      "outputs": [],
      "stateMutability": "nonpayable",
      "type": "function"
    },
    {
      "inputs": [
        {
          "internalType": "address",
          "name": "_studentAddress",
          "type": "address"
        },
        {
          "internalType": "uint16",
          "name": "_teacherFormationId",
          "type": "uint16"
        }
      ],
      "name": "validateUserModule",
      "outputs": [],
      "stateMutability": "nonpayable",
      "type": "function"
    },
    {
      "inputs": [
        {
          "internalType": "address",
          "name": "_studentAddress",
          "type": "address"
        },
        {
          "internalType": "uint16",
          "name": "_teacherFormationId",
          "type": "uint16"
        }
      ],
      "name": "certifyUserFormation",
      "outputs": [],
      "stateMutability": "nonpayable",
      "type": "function"
    },
    {
      "inputs": [
        {
          "internalType": "address",
          "name": "_teacherAddress",
          "type": "address"
        },
        {
          "internalType": "uint16",
          "name": "_teacherFormationId",
          "type": "uint16"
        }
      ],
      "name": "buyFormation",
      "outputs": [],
      "stateMutability": "nonpayable",
      "type": "function"
    },
    {
      "inputs": [
        {
          "internalType": "address",
          "name": "_teacherAddress",
          "type": "address"
        },
        {
          "internalType": "uint16",
          "name": "_teacherFormationId",
          "type": "uint16"
        },
        {
          "internalType": "uint8",
          "name": "grade",
          "type": "uint8"
        }
      ],
      "name": "evaluateFormation",
      "outputs": [],
      "stateMutability": "nonpayable",
      "type": "function"
    },
    {
      "inputs": [
        {
          "internalType": "string",
          "name": "_title",
          "type": "string"
        },
        {
          "internalType": "string[]",
          "name": "_tags",
          "type": "string[]"
        }
      ],
      "name": "postAnnounce",
      "outputs": [],
      "stateMutability": "nonpayable",
      "type": "function"
    },
    {
      "inputs": [
        {
          "internalType": "address",
          "name": "_studentAddress",
          "type": "address"
        },
        {
          "internalType": "uint16",
          "name": "_announceId",
          "type": "uint16"
        },
        {
          "internalType": "string",
          "name": "_title",
          "type": "string"
        }
      ],
      "name": "offerJob",
      "outputs": [],
      "stateMutability": "nonpayable",
      "type": "function"
    },
    {
      "inputs": [
        {
          "internalType": "address",
          "name": "_recruiterAddress",
          "type": "address"
        },
        {
          "internalType": "uint16",
          "name": "_announceId",
          "type": "uint16"
        }
      ],
      "name": "applyAnnounce",
      "outputs": [],
      "stateMutability": "nonpayable",
      "type": "function"
    },
    {
      "inputs": [
        {
          "internalType": "bool",
          "name": "_doAccept",
          "type": "bool"
        },
        {
          "internalType": "uint16",
          "name": "_jobId",
          "type": "uint16"
        }
      ],
      "name": "answerJobOffer",
      "outputs": [],
      "stateMutability": "nonpayable",
      "type": "function"
    },
    {
      "inputs": [
        {
          "internalType": "uint16",
          "name": "_jobId",
          "type": "uint16"
        },
        {
          "internalType": "uint256",
          "name": "_challenge",
          "type": "uint256"
        }
      ],
      "name": "proveId",
      "outputs": [],
      "stateMutability": "nonpayable",
      "type": "function"
    },
    {
      "inputs": [
        {
          "internalType": "address",
          "name": "_studentAddress",
          "type": "address"
        },
        {
          "internalType": "uint16",
          "name": "_jobId",
          "type": "uint16"
        },
        {
          "internalType": "uint256",
          "name": "_challenge",
          "type": "uint256"
        }
      ],
      "name": "verifyId",
      "outputs": [],
      "stateMutability": "nonpayable",
      "type": "function"
    },
    {
      "inputs": [
        {
          "internalType": "uint256",
          "name": "_amount",
          "type": "uint256"
        }
      ],
      "name": "DAOMint",
      "outputs": [],
      "stateMutability": "nonpayable",
      "type": "function"
    },
    {
      "inputs": [
        {
          "internalType": "uint256",
          "name": "_amount",
          "type": "uint256"
        },
        {
          "internalType": "uint8",
          "name": "_planId",
          "type": "uint8"
        }
      ],
      "name": "stakeDeposit",
      "outputs": [],
      "stateMutability": "nonpayable",
      "type": "function"
    },
    {
      "inputs": [
        {
          "internalType": "uint256",
          "name": "_amount",
          "type": "uint256"
        },
        {
          "internalType": "uint8",
          "name": "_planId",
          "type": "uint8"
        }
      ],
      "name": "stakeWithdraw",
      "outputs": [],
      "stateMutability": "nonpayable",
      "type": "function"
    }
  ],
  "bytecode": "0x6101406040526802b5e3af16b188000060135560036014556000601555683635c9adc5dea000006016819055601755601880546001600160401b0319166423000000051790553480156200005257600080fd5b506040518060400160405280600d81526020016c26b0b9ba32b910261322b0b93760991b81525080604051806040016040528060018152602001603160f81b8152506040518060400160405280600d81526020016c26b0b9ba32b910261322b0b93760991b815250604051806040016040528060038152602001624d4c4560e81b8152508160039081620000e7919062000de0565b506004620000f6828262000de0565b5050825160209384012082519284019290922060e08390526101008190524660a0818152604080517f8b73c3c69bb8fe3d512ecc4cf759cc79239f7b179b0ffacaa9a75d522b39400f818901819052818301979097526060810194909452608080850193909352308483018190528151808603909301835260c094850190915281519190960120905292909252610120525062000195905033620002ed565b620001ab3369d3c21bcecceda10000006200033f565b604051620001b99062000d2e565b604051809103906000f080158015620001d6573d6000803e3d6000fd5b50601280546001600160a01b0319166001600160a01b03929092169190911790557397635a8aecb3cfcae96f7a11ec6a0ab213e3f065735f33213c35933cee1e32e8796710d24cfc844ddf7351b58b2583c49de79bbaf762f7eeaf1cbc33b7ce734f76fd57f86c14faa7d4dff8edd9986d982ba5696200026084683635c9adc5dea000006200035a565b506200027184600060018162000376565b6200028683683635c9adc5dea000006200035a565b506200029783600160008062000376565b620002ac82683635c9adc5dea000006200035a565b50620002bd82600160008062000376565b620002d281683635c9adc5dea000006200035a565b50620002e381600080600162000376565b5050505062000f02565b600a80546001600160a01b038381166001600160a01b0319831681179093556040519116919082907f8be0079c531659141344cd1fd0a4f28419497f9722a3daafe3b4186f6b6457e090600090a35050565b620003568282620005e060201b620033c71760201c565b5050565b6000336200036a81858562000691565b60019150505b92915050565b8280156200039d57506001600160a01b0384166000908152600b602052604090205460ff16155b156200044257600f805460018082019092557f8d1108e10bcb7c27dddfc02ed9d693a074039d026cf4ea4240b40f7d581ac8020180546001600160a01b0319166001600160a01b0387169081179091556000908152600b602052604090819020805460ff1916909217909155517f413281c709cf2c555b5d6d90e43f841b9ed7d34daa82e221aedbb3773082fcc8906200043990869062000eac565b60405180910390a15b8180156200046957506001600160a01b0384166000908152600c602052604090205460ff16155b156200050e57600e805460018082019092557fbb7b4a454dc3493923482f07822329ed19e8244eff582cc204f8554c3620c3fd0180546001600160a01b0319166001600160a01b0387169081179091556000908152600c602052604090819020805460ff1916909217909155517fde256622a68c110b10d2bfa4a983d8c309a49b3f1c1e5af8c8dc50209835cc61906200050590869062000eac565b60405180910390a15b8080156200053557506001600160a01b0384166000908152600d602052604090205460ff16155b15620005da576010805460018082019092557f1b6847dc741a1b0cd08d278845f9d819d87b734759afb55fe2de5cb82a9ae6720180546001600160a01b0319166001600160a01b0387169081179091556000908152600d602052604090819020805460ff1916909217909155517f683e556028c0336eede6df2677149514f1553dc004138cb67a26080a6bbaf3fb90620005d190869062000eac565b60405180910390a15b50505050565b620005f782826200083260201b620034511760201c565b6001600160e01b036200060b620008ee8216565b1115620006785760405162461bcd60e51b815260206004820152603060248201527f4552433230566f7465733a20746f74616c20737570706c79207269736b73206f60448201526f766572666c6f77696e6720766f74657360801b60648201526084015b60405180910390fd5b620005da600962003506620008f460201b178362000909565b6001600160a01b038316620006f75760405162461bcd60e51b815260206004820152602560248201527f45524332303a207472616e736665722066726f6d20746865207a65726f206164604482015264647265737360d81b60648201526084016200066f565b6001600160a01b0382166200075b5760405162461bcd60e51b815260206004820152602360248201527f45524332303a207472616e7366657220746f20746865207a65726f206164647260448201526265737360e81b60648201526084016200066f565b6001600160a01b03831660009081526020819052604090205481811015620007d55760405162461bcd60e51b815260206004820152602660248201527f45524332303a207472616e7366657220616d6f756e7420657863656564732062604482015265616c616e636560d01b60648201526084016200066f565b6001600160a01b038481166000818152602081815260408083208787039055938716808352918490208054870190559251858152909260008051602062007e59833981519152910160405180910390a3620005da84848462000aa0565b6001600160a01b0382166200088a5760405162461bcd60e51b815260206004820152601f60248201527f45524332303a206d696e7420746f20746865207a65726f20616464726573730060448201526064016200066f565b80600260008282546200089e919062000ed6565b90915550506001600160a01b0382166000818152602081815260408083208054860190555184815260008051602062007e59833981519152910160405180910390a3620003566000838362000aa0565b60025490565b600062000902828462000ed6565b9392505050565b82546000908190818115620009695762000938876200092a60018562000eec565b600091825260209091200190565b60408051808201909152905463ffffffff8116825264010000000090046001600160e01b031660208201526200097e565b60408051808201909152600080825260208201525b905080602001516001600160e01b031693506200099c84868860201c565b9250600082118015620009b55750805163ffffffff1643145b1562000a0c57620009d18362000ab860201b620035121760201c565b620009e3886200092a60018662000eec565b80546001600160e01b03929092166401000000000263ffffffff90921691909117905562000a91565b86604051806040016040528062000a2e4362000b2760201b6200357f1760201c565b63ffffffff16815260200162000a4f8662000ab860201b620035121760201c565b6001600160e01b0390811690915282546001810184556000938452602093849020835194909301519091166401000000000263ffffffff909316929092179101555b5050935093915050565b505050565b62000a9b83838362000b8e60201b620035e41760201c565b60006001600160e01b0382111562000b235760405162461bcd60e51b815260206004820152602760248201527f53616665436173743a2076616c756520646f65736e27742066697420696e20326044820152663234206269747360c81b60648201526084016200066f565b5090565b600063ffffffff82111562000b235760405162461bcd60e51b815260206004820152602660248201527f53616665436173743a2076616c756520646f65736e27742066697420696e203360448201526532206269747360d01b60648201526084016200066f565b62000ba683838362000a9b60201b62002d611760201c565b62000a9b62000bb58462000bc7565b62000bc08462000bc7565b8362000be5565b6001600160a01b039081166000908152600760205260409020541690565b816001600160a01b0316836001600160a01b03161415801562000c085750600081115b1562000a9b576001600160a01b0383161562000c95576001600160a01b03831660009081526008602090815260408220829162000c52919062000d20901b620035ff178562000909565b91509150846001600160a01b031660008051602062007e79833981519152838360405162000c8a929190918252602082015260400190565b60405180910390a250505b6001600160a01b0382161562000a9b576001600160a01b03821660009081526008602090815260408220829162000cd99190620008f4901b62003506178562000909565b91509150836001600160a01b031660008051602062007e79833981519152838360405162000d11929190918252602082015260400190565b60405180910390a25050505050565b600062000902828462000eec565b6117a780620066b283390190565b634e487b7160e01b600052604160045260246000fd5b600181811c9082168062000d6757607f821691505b60208210810362000d8857634e487b7160e01b600052602260045260246000fd5b50919050565b601f82111562000a9b57600081815260208120601f850160051c8101602086101562000db75750805b601f850160051c820191505b8181101562000dd85782815560010162000dc3565b505050505050565b81516001600160401b0381111562000dfc5762000dfc62000d3c565b62000e148162000e0d845462000d52565b8462000d8e565b602080601f83116001811462000e4c576000841562000e335750858301515b600019600386901b1c1916600185901b17855562000dd8565b600085815260208120601f198616915b8281101562000e7d5788860151825594840194600190910190840162000e5c565b508582101562000e9c5787850151600019600388901b60f8161c191681555b5050505050600190811b01905550565b6001600160a01b0391909116815260200190565b634e487b7160e01b600052601160045260246000fd5b8082018082111562000370576200037062000ec0565b8181038181111562000370576200037062000ec0565b60805160a05160c05160e051610100516101205161576062000f526000396000613c6601526000613cb501526000613c9001526000613be901526000613c1301526000613c3d01526157606000f3fe6080604052600436106102665760003560e01c8063015c99e41461026f57806306fdde03146102a5578063079d1ce8146102c7578063095ea7b3146102e75780630b2138281461031757806313d5a7f714610337578063170b8a1c1461035757806318160ddd146103775780631a4eea2a146103965780631c63f258146103b657806323b872dd146103d65780632b8e567f146103f6578063313ce5671461041657806332bb09401461043257806333ad4fc1146104525780633644e5151461047f57806339509351146104945780633a46b1a8146104b4578063499ab700146104d45780634be70e2a146105015780634f2be46814610521578063587cde1e1461054157806359946ff9146105615780635babdc7c146105815780635c19a95c146105a15780635c4f8419146105c157806368cb519b146105e15780636b9d1cf41461060e5780636fcfff451461062e57806370a0823114610663578063715018a61461068357806376c967fb146106985780637d8e0db5146106b85780637ecebe00146106e55780638b96a3a0146107055780638da5cb5b146107255780638e539e8c1461073a57806395d89b411461075a5780639ab24eb01461076f578063a3c718db1461078f578063a457c2d7146107af578063a9059cbb146107cf578063aa5fa398146107ef578063b8058bac1461080f578063c3cda5201461082f578063c7190a541461084f578063c8dc948e1461086f578063d2c36ad114610891578063d505accf146108b1578063dd62ed3e146108d1578063e472b03a146108f1578063f08ddf7a14610911578063f1127ed814610931578063f2fde38b1461097b57005b3661026d57005b005b34801561027b57600080fd5b5061028f61028a36600461491e565b61099b565b60405161029c9190614939565b60405180910390f35b3480156102b157600080fd5b506102ba610aac565b60405161029c9190614a0b565b3480156102d357600080fd5b5061026d6102e2366004614a30565b610b3e565b3480156102f357600080fd5b50610307610302366004614a63565b6110b3565b604051901515815260200161029c565b34801561032357600080fd5b5061026d610332366004614a8d565b6110cd565b34801561034357600080fd5b5061026d610352366004614a8d565b6110da565b34801561036357600080fd5b5061026d610372366004614aa6565b6110e7565b34801561038357600080fd5b506002545b60405190815260200161029c565b3480156103a257600080fd5b5061026d6103b1366004614c3a565b61112b565b3480156103c257600080fd5b5061026d6103d1366004614a30565b611337565b3480156103e257600080fd5b506103076103f1366004614cc8565b6115c9565b34801561040257600080fd5b5061026d610411366004614a30565b6115ed565b34801561042257600080fd5b506040516012815260200161029c565b34801561043e57600080fd5b5061026d61044d366004614d04565b6117eb565b34801561045e57600080fd5b5061047261046d36600461491e565b61195e565b60405161029c9190614dbc565b34801561048b57600080fd5b50610388611c32565b3480156104a057600080fd5b506103076104af366004614a63565b611c41565b3480156104c057600080fd5b506103886104cf366004614a63565b611c63565b3480156104e057600080fd5b506104f46104ef366004614a8d565b611cad565b60405161029c9190614eba565b34801561050d57600080fd5b5061026d61051c366004614ece565b611cd7565b34801561052d57600080fd5b506104f461053c366004614a8d565b611d72565b34801561054d57600080fd5b506104f461055c36600461491e565b611d82565b34801561056d57600080fd5b5061026d61057c366004614ef1565b611da0565b34801561058d57600080fd5b5061026d61059c366004614a8d565b611eac565b3480156105ad57600080fd5b5061026d6105bc36600461491e565b611eb9565b3480156105cd57600080fd5b5061026d6105dc366004614f54565b611ec6565b3480156105ed57600080fd5b506106016105fc36600461491e565b612223565b60405161029c9190614f97565b34801561061a57600080fd5b5061026d610629366004614a30565b6123ad565b34801561063a57600080fd5b5061064e61064936600461491e565b6125d4565b60405163ffffffff909116815260200161029c565b34801561066f57600080fd5b5061038861067e36600461491e565b6125f6565b34801561068f57600080fd5b5061026d612611565b3480156106a457600080fd5b5061026d6106b3366004615055565b612625565b3480156106c457600080fd5b506106d86106d336600461491e565b6126c8565b60405161029c9190615071565b3480156106f157600080fd5b5061038861070036600461491e565b612954565b34801561071157600080fd5b506012546104f4906001600160a01b031681565b34801561073157600080fd5b506104f4612972565b34801561074657600080fd5b50610388610755366004614a8d565b612981565b34801561076657600080fd5b506102ba6129ad565b34801561077b57600080fd5b5061038861078a36600461491e565b6129bc565b34801561079b57600080fd5b5061026d6107aa366004614a8d565b612a42565b3480156107bb57600080fd5b506103076107ca366004614a63565b612aa9565b3480156107db57600080fd5b506103076107ea366004614a63565b612b24565b3480156107fb57600080fd5b506104f461080a366004614a8d565b612b32565b34801561081b57600080fd5b5061026d61082a36600461511c565b612b42565b34801561083b57600080fd5b5061026d61084a366004615156565b612d66565b34801561085b57600080fd5b5061026d61086a366004614a8d565b612e98565b34801561087b57600080fd5b50610884612eaa565b60405161029c91906151ae565b34801561089d57600080fd5b5061026d6108ac366004614ece565b612f0b565b3480156108bd57600080fd5b5061026d6108cc3660046151c1565b612fa0565b3480156108dd57600080fd5b506103886108ec36600461522b565b613104565b3480156108fd57600080fd5b5061026d61090c366004614a8d565b61312f565b34801561091d57600080fd5b5061026d61092c366004615255565b61319a565b34801561093d57600080fd5b5061095161094c3660046152b2565b6132ce565b60408051825163ffffffff1681526020928301516001600160e01b0316928101929092520161029c565b34801561098757600080fd5b5061026d61099636600461491e565b613351565b6001600160a01b0381166000908152600b602052604090205460609060ff166109df5760405162461bcd60e51b81526004016109d6906152dc565b60405180910390fd5b6001600160a01b0382166000908152600b6020908152604080832060010180548251818502810185019093528083529193909284015b82821015610aa15760008481526020908190206040805160c0810182526002860290920180546001600160a01b038116845261ffff600160a01b8204168486015260ff600160b01b8204811693850193909352600160b81b8104831615156060850152600160c01b90049091161515608083015260019081015460a08301529083529092019101610a15565b505050509050919050565b606060038054610abb90615313565b80601f0160208091040260200160405190810160405280929190818152602001828054610ae790615313565b8015610b345780601f10610b0957610100808354040283529160200191610b34565b820191906000526020600020905b815481529060010190602001808311610b1757829003601f168201915b5050505050905090565b6001600160a01b0382166000908152600c602052604090205460ff16610b765760405162461bcd60e51b81526004016109d6906152dc565b6001600160a01b0382166000908152600c602052604090206001015461ffff821610610bb45760405162461bcd60e51b81526004016109d690615347565b6001600160a01b0382166000908152600c60205260408120600101805461ffff8416908110610be557610be5615374565b600091825260209182902060408051610120810182526005909302909101805460ff8116845263ffffffff6101008204811695850195909552600160281b8104851692840192909252600160481b820490931660608301526001600160801b03600160681b909104166080820152600182015460a082015260028201805491929160c084019190610c7590615313565b80601f0160208091040260200160405190810160405280929190818152602001828054610ca190615313565b8015610cee5780601f10610cc357610100808354040283529160200191610cee565b820191906000526020600020905b815481529060010190602001808311610cd157829003601f168201915b5050505050815260200160038201805480602002602001604051908101604052809291908181526020016000905b82821015610dc8578382906000526020600020018054610d3b90615313565b80601f0160208091040260200160405190810160405280929190818152602001828054610d6790615313565b8015610db45780601f10610d8957610100808354040283529160200191610db4565b820191906000526020600020905b815481529060010190602001808311610d9757829003601f168201915b505050505081526020019060010190610d1c565b50505050815260200160048201805480602002602001604051908101604052809291908181526020018280548015610e2957602002820191906000526020600020905b81546001600160a01b03168152600190910190602001808311610e0b575b50505050508152505090508060a001516002610e4591906153a0565b610e4e336125f6565b1015610e935760405162461bcd60e51b8152602060048201526014602482015273496e73756666696369656e742062616c616e636560601b60448201526064016109d6565b600060646014548360a00151610ea991906153a0565b610eb391906153cd565b905060006064601554601454610ec991906153a0565b610ed391906153cd565b90506000828460a00151610ee791906153ef565b9050610ef38682612b24565b610efc57600080fd5b610f1b3083858760a00151610f119190615402565b6107ea91906153ef565b610f2457600080fd5b610f2e868361360b565b60a08401513360009081526011602052604081208054909190610f52908490615402565b9091555050835160a0850151600091610f709160ff909116906153cd565b6040805160c0810182526001600160a01b03808b1680835261ffff808c16602080860182815260008789018181526060890182815260808a0183815260a08b018d8152338552600b87528c85206001908101805480830182559087528887208e51600290920201805498519651955194511515600160c01b0260ff60c01b19951515600160b81b0260ff60b81b1960ff98909816600160b01b029790971661ffff60b01b1998909d16600160a01b026001600160b01b0319909a1692909e16919091179790971794909416989098179190911716979097178255935190860155928252600c909252939093200180549394509092909190811061107557611075615374565b60009182526020808320600460059093020191909101805460018101825590835291200180546001600160a01b031916331790555050505050505050565b6000336110c1818585613615565b60019150505b92915050565b6110d5613739565b601355565b6110e2613739565b601655565b336000908152600b60205260409020600201805482919061ffff851690811061111257611112615374565b9060005260206000209060040201600301819055505050565b604080516101208101825260008082526020820181905291810182905260608181018390526080820183905260a082019290925260c0810182905260e08101829052610100810182905250604080516101208101825260ff80891682526000602080840182815284860183815263ffffffff8c8116606088019081526001600160801b0342811660808a0190815260a08a018f815260c08b018f815260e08c018f9052610100808d018f9052338b52600c8a529c8a20600190810180548083018255908c5299909a208c516005909a020180549851975195519351909416600160681b02600160681b600160e81b0319938716600160481b0263ffffffff60481b19968816600160281b0296909616600160281b600160681b031998909716909d0264ffffffffff1990981698909a1697909717959095179390931691909117179190911695909517855551908401555190918291600282019061128f908261545b565b5060e082015180516112ab9160038401916020909101906147e3565b5061010082015180516112c8916004840191602090910190614835565b5050336000818152600c602052604090206001908101547ff8f544580205e01b906f7eabb7d1c93ea2ddbed202ef620ff77af9d85ffb0565935061130c91906153ef565b604080516001600160a01b03909316835260208301919091520160405180910390a150505050505050565b6001600160a01b0382166000908152600b602052604090205460ff1661136f5760405162461bcd60e51b81526004016109d6906152dc565b600061137c833384613798565b6001600160a01b0384166000908152600b602052604081206001018054929350909161ffff84169081106113b2576113b2615374565b60009182526020918290206040805160c081018252600290930290910180546001600160a01b038116845261ffff600160a01b8204169484019490945260ff600160b01b8504811692840192909252600160b81b840482161580156060850152600160c01b909404909116151560808301526001015460a0820152915061144b5760405162461bcd60e51b81526004016109d69061551a565b336000908152600c60205260409020600101805461ffff851690811061147357611473615374565b6000918252602090912060059091020154604082015160ff9182169116106114dd5760405162461bcd60e51b815260206004820152601d60248201527f4c617374206d6f64756c6520616c72656164792076616c69646174656400000060448201526064016109d6565b6001600160a01b0384166000908152600b60205260409020600101805461ffff841690811061150e5761150e615374565b600091825260209091206002909102018054600160b01b900460ff169060166115368361554f565b91906101000a81548160ff021916908360ff160217905550508060a0015160116000866001600160a01b03166001600160a01b031681526020019081526020016000205411156115c35760a08101516001600160a01b038516600090815260116020526040812080549091906115ad9084906153ef565b925050819055506115c330858360a001516138de565b50505050565b6000336115d7858285613a76565b6115e28585856138de565b506001949350505050565b6001600160a01b0382166000908152600b602052604090205460ff166116255760405162461bcd60e51b81526004016109d6906152dc565b6000611632833384613798565b6001600160a01b0384166000908152600b6020526040902060010180549192509061ffff831690811061166757611667615374565b6000918252602090912060029091020154600160b81b900460ff161561169f5760405162461bcd60e51b81526004016109d69061551a565b336000908152600c60205260409020600101805461173c919061ffff85169081106116cc576116cc615374565b906000526020600020906005020160040180548060200260200160405190810160405280929190818152602001828054801561173157602002820191906000526020600020905b81546001600160a01b03168152600190910190602001808311611713575b505050505084613aea565b336000908152600c60205260409020600101805461ffff851690811061176457611764615374565b90600052602060002090600502016004019080519060200190611788929190614835565b506001600160a01b0383166000908152600b602052604090206001908101805461ffff84169081106117bc576117bc615374565b600091825260209091206002909102018054911515600160b81b0260ff60b81b19909216919091179055505050565b6001600160a01b0383166000908152600b60205260409020600201805482919061ffff851690811061181f5761181f615374565b906000526020600020906004020160030154146118705760405162461bcd60e51b815260206004820152600f60248201526e1259081b9bdd081d995c9a599a5959608a1b60448201526064016109d6565b6001600160a01b0383166000908152600b60205260408120600201805461ffff85169081106118a1576118a1615374565b6000918252602080832060049290920290910154338352600d909152604082206001018054600160a81b90920461ffff16935090839081106118e5576118e5615374565b60009182526020909120600590910201805460ff1916911515919091179055601754611912903090613bd2565b604080516001600160a01b038616815261ffff851660208201527fc6921912a8b31c32b2619342be5b4850647fd26a3b11a2a31621af0fe41c9ee591015b60405180910390a150505050565b6001600160a01b0381166000908152600c602052604090205460609060ff166119995760405162461bcd60e51b81526004016109d69061556e565b6001600160a01b0382166000908152600c6020908152604080832060010180548251818502810185019093528083529193909284015b82821015610aa1576000848152602090819020604080516101208101825260058602909201805460ff8116845263ffffffff6101008204811695850195909552600160281b8104851692840192909252600160481b820490931660608301526001600160801b03600160681b909104166080820152600182015460a082015260028201805491929160c084019190611a6690615313565b80601f0160208091040260200160405190810160405280929190818152602001828054611a9290615313565b8015611adf5780601f10611ab457610100808354040283529160200191611adf565b820191906000526020600020905b815481529060010190602001808311611ac257829003601f168201915b5050505050815260200160038201805480602002602001604051908101604052809291908181526020016000905b82821015611bb9578382906000526020600020018054611b2c90615313565b80601f0160208091040260200160405190810160405280929190818152602001828054611b5890615313565b8015611ba55780601f10611b7a57610100808354040283529160200191611ba5565b820191906000526020600020905b815481529060010190602001808311611b8857829003601f168201915b505050505081526020019060010190611b0d565b50505050815260200160048201805480602002602001604051908101604052809291908181526020018280548015611c1a57602002820191906000526020600020905b81546001600160a01b03168152600190910190602001808311611bfc575b505050505081525050815260200190600101906119cf565b6000611c3c613bdc565b905090565b6000336110c1818585611c548383613104565b611c5e9190615402565b613615565b6000438210611c845760405162461bcd60e51b81526004016109d6906155a5565b6001600160a01b0383166000908152600860205260409020611ca69083613d03565b9392505050565b600f8181548110611cbd57600080fd5b6000918252602090912001546001600160a01b0316905081565b601254611cef9030906001600160a01b031684613615565b601254604051636efc6d9360e01b81526001600160a01b0390911690636efc6d9390611d23903390869086906004016155dc565b600060405180830381600087803b158015611d3d57600080fd5b505af1158015611d51573d6000803e3d6000fd5b5050601254611d6e92503091506001600160a01b03166000613615565b5050565b600e8181548110611cbd57600080fd5b6001600160a01b039081166000908152600760205260409020541690565b611dac30601354612b24565b611dec5760405162461bcd60e51b81526020600482015260116024820152704e6f7420656e6f75676820746f6b656e7360781b60448201526064016109d6565b336000908152600d60209081526040808320815160a08101835260018082524282860190815293820188815260608084018990526080840181905293820180548084018255908852959096208251600590960201805460ff191695151595909517855592519284019290925592519091906002820190611e6c908261545b565b5060608201518051611e889160038401916020909101906147e3565b5060808201518051611ea4916004840191602090910190614835565b505050505050565b611eb4613739565b601755565b611ec33382613df9565b50565b60328160ff161115611f0b5760405162461bcd60e51b815260206004820152600e60248201526d08ee4c2c8ca40e8dede40d0d2ced60931b60448201526064016109d6565b6001600160a01b0383166000908152600c602052604090205460ff16611f435760405162461bcd60e51b81526004016109d69061556e565b6001600160a01b0383166000908152600c602052604090206001015461ffff831610611f815760405162461bcd60e51b81526004016109d690615347565b6000611f8e338585613798565b336000908152600b6020526040902060010180549192509061ffff8316908110611fba57611fba615374565b6000918252602090912060029091020154600160b81b900460ff1661201f5760405162461bcd60e51b815260206004820152601b60248201527a14dd1d59195b9d0818d85b9b9bdd08195d985b1d585d19481e595d602a1b60448201526064016109d6565b336000908152600b60205260409020600101805461ffff831690811061204757612047615374565b6000918252602090912060029091020154600160c01b900460ff16156120c05760405162461bcd60e51b815260206004820152602860248201527f53747564656e7420616c7265616479206576616c75617465642074686973206660448201526737b936b0ba34b7b760c11b60648201526084016109d6565b336000908152600b602052604090206001908101805461ffff84169081106120ea576120ea615374565b6000918252602080832060029092029091018054931515600160c01b0260ff60c01b19909416939093179092556001600160a01b0386168152600c90915260409020600101805460ff8416919061ffff861690811061214b5761214b615374565b600091825260209091206005909102018054600190612176908490610100900463ffffffff16615600565b92506101000a81548163ffffffff021916908363ffffffff160217905550600c6000856001600160a01b03166001600160a01b031681526020019081526020016000206001018361ffff16815481106121d1576121d1615374565b600091825260209091206005918202018054600160281b900463ffffffff16916121fa83615624565b91906101000a81548163ffffffff021916908363ffffffff160217905550506115c38484613e79565b6001600160a01b0381166000908152600b602052604090205460609060ff1661225e5760405162461bcd60e51b81526004016109d6906152dc565b6001600160a01b0382166000908152600b6020908152604080832060020180548251818502810185019093528083529193909284015b82821015610aa15760008481526020908190206040805160c08101825260048602909201805460ff81161515845261010081046001600160a01b031694840194909452600160a81b90930461ffff169082015260018201546001600160801b0316606082015260028201805491929160808401919061231290615313565b80601f016020809104026020016040519081016040528092919081815260200182805461233e90615313565b801561238b5780601f106123605761010080835404028352916020019161238b565b820191906000526020600020905b81548152906001019060200180831161236e57829003601f168201915b5050505050815260200160038201548152505081526020019060010190612294565b6001600160a01b0382166000908152600d602052604090205460ff166123e55760405162461bcd60e51b81526004016109d690615647565b6001600160a01b0382166000908152600d602052604090206001015461ffff8216106124485760405162461bcd60e51b8152602060048201526012602482015271105b9b9bdd5b98d9481b9bdd08199bdd5b9960721b60448201526064016109d6565b6000805b6001600160a01b0384166000908152600d60205260409020600101805461ffff851690811061247d5761247d615374565b906000526020600020906005020160040180549050811015612520576001600160a01b0384166000908152600d60205260409020600101805433919061ffff86169081106124cd576124cd615374565b906000526020600020906005020160040182815481106124ef576124ef615374565b6000918252602090912001546001600160a01b03160361250e57600191505b806125188161567c565b91505061244c565b50801561256a5760405162461bcd60e51b8152602060048201526018602482015277105b9b9bdd5b98d948185b1c9958591e48185c1c1b1a595960421b60448201526064016109d6565b6001600160a01b0383166000908152600d60205260409020600101805461ffff841690811061259b5761259b615374565b60009182526020808320600460059093020191909101805460018101825590835291200180546001600160a01b03191633179055505050565b6001600160a01b0381166000908152600860205260408120546110c79061357f565b6001600160a01b031660009081526020819052604090205490565b612619613739565b6126236000613f93565b565b336000908152600b602052604090206002015461ffff82161061267a5760405162461bcd60e51b815260206004820152600d60248201526c129bd8881b9bdd08199bdd5b99609a1b60448201526064016109d6565b336000908152600b60205260409020600201805483919061ffff84169081106126a5576126a5615374565b60009182526020909120600490910201805460ff19169115159190911790555050565b6001600160a01b0381166000908152600d602052604090205460609060ff166127035760405162461bcd60e51b81526004016109d690615647565b6001600160a01b0382166000908152600d6020908152604080832060010180548251818502810185019093528083529193909284015b82821015610aa15760008481526020908190206040805160a08101825260058602909201805460ff16151583526001810154938301939093526002830180549293929184019161278890615313565b80601f01602080910402602001604051908101604052809291908181526020018280546127b490615313565b80156128015780601f106127d657610100808354040283529160200191612801565b820191906000526020600020905b8154815290600101906020018083116127e457829003601f168201915b5050505050815260200160038201805480602002602001604051908101604052809291908181526020016000905b828210156128db57838290600052602060002001805461284e90615313565b80601f016020809104026020016040519081016040528092919081815260200182805461287a90615313565b80156128c75780601f1061289c576101008083540402835291602001916128c7565b820191906000526020600020905b8154815290600101906020018083116128aa57829003601f168201915b50505050508152602001906001019061282f565b5050505081526020016004820180548060200260200160405190810160405280929190818152602001828054801561293c57602002820191906000526020600020905b81546001600160a01b0316815260019091019060200180831161291e575b50505050508152505081526020019060010190612739565b6001600160a01b0381166000908152600560205260408120546110c7565b600a546001600160a01b031690565b60004382106129a25760405162461bcd60e51b81526004016109d6906155a5565b6110c7600983613d03565b606060048054610abb90615313565b6001600160a01b0381166000908152600860205260408120548015612a2f576001600160a01b03831660009081526008602052604090206129fe6001836153ef565b81548110612a0e57612a0e615374565b600091825260209091200154600160201b90046001600160e01b0316612a32565b60005b6001600160e01b03169392505050565b612a4a613739565b60648110612aa45760405162461bcd60e51b815260206004820152602160248201527f666f726d6174696f6e46656520697320696e2070657263656e7420283c3130306044820152602960f81b60648201526084016109d6565b601455565b60003381612ab78286613104565b905083811015612b175760405162461bcd60e51b815260206004820152602560248201527f45524332303a2064656372656173656420616c6c6f77616e63652062656c6f77604482015264207a65726f60d81b60648201526084016109d6565b6115e28286868403613615565b6000336110c18185856138de565b60108181548110611cbd57600080fd5b828015612b5f5750336000908152600b602052604090205460ff16155b15612bf757600f805460018181019092557f8d1108e10bcb7c27dddfc02ed9d693a074039d026cf4ea4240b40f7d581ac8020180546001600160a01b031916339081179091556000818152600b602052604090819020805460ff191690931790925590517f413281c709cf2c555b5d6d90e43f841b9ed7d34daa82e221aedbb3773082fcc891612bee91614eba565b60405180910390a15b818015612c145750336000908152600c602052604090205460ff16155b15612cac57600e805460018181019092557fbb7b4a454dc3493923482f07822329ed19e8244eff582cc204f8554c3620c3fd0180546001600160a01b031916339081179091556000818152600c602052604090819020805460ff191690931790925590517fde256622a68c110b10d2bfa4a983d8c309a49b3f1c1e5af8c8dc50209835cc6191612ca391614eba565b60405180910390a15b808015612cc95750336000908152600d602052604090205460ff16155b15612d61576010805460018181019092557f1b6847dc741a1b0cd08d278845f9d819d87b734759afb55fe2de5cb82a9ae6720180546001600160a01b031916339081179091556000818152600d602052604090819020805460ff191690931790925590517f683e556028c0336eede6df2677149514f1553dc004138cb67a26080a6bbaf3fb91612d5891614eba565b60405180910390a15b505050565b83421115612db65760405162461bcd60e51b815260206004820152601d60248201527f4552433230566f7465733a207369676e6174757265206578706972656400000060448201526064016109d6565b604080517fe48329057bfd03d55e49b547132e39cffd9c1820ad7b9d4c5307691425d15adf60208201526001600160a01b038816918101919091526060810186905260808101859052600090612e3090612e289060a00160405160208183030381529060405280519060200120613fe5565b858585614033565b9050612e3b8161405b565b8614612e855760405162461bcd60e51b81526020600482015260196024820152784552433230566f7465733a20696e76616c6964206e6f6e636560381b60448201526064016109d6565b612e8f8188613df9565b50505050505050565b612ea0613739565b611ec33082613bd2565b6060600e805480602002602001604051908101604052809291908181526020018280548015610b3457602002820191906000526020600020905b81546001600160a01b03168152600190910190602001808311612ee4575050505050905090565b601254612f21906001600160a01b0316836110b3565b506012546040516382369def60e01b81526001600160a01b03909116906382369def90612f56903390869086906004016155dc565b600060405180830381600087803b158015612f7057600080fd5b505af1158015612f84573d6000803e3d6000fd5b5050601254612d6192506001600160a01b0316905060006110b3565b83421115612ff05760405162461bcd60e51b815260206004820152601d60248201527f45524332305065726d69743a206578706972656420646561646c696e6500000060448201526064016109d6565b60007f6e71edae12b1b97f4d1f60370fef10105fa2faae0126114a169c64845d6126c988888861301f8c61405b565b6040805160208101969096526001600160a01b0394851690860152929091166060840152608083015260a082015260c0810186905260e001604051602081830303815290604052805190602001209050600061307a82613fe5565b9050600061308a82878787614033565b9050896001600160a01b0316816001600160a01b0316146130ed5760405162461bcd60e51b815260206004820152601e60248201527f45524332305065726d69743a20696e76616c6964207369676e6174757265000060448201526064016109d6565b6130f88a8a8a613615565b50505050505050505050565b6001600160a01b03918216600090815260016020908152604080832093909416825291909152205490565b613137613739565b606481106131955760405162461bcd60e51b815260206004820152602560248201527f666f726d6174696f6e4665654275726e20697320696e2070657263656e7420286044820152643c3130302960d81b60648201526084016109d6565b601555565b6001600160a01b0383166000908152600b602052604090205460ff166131d25760405162461bcd60e51b81526004016109d6906152dc565b6001600160a01b038381166000908152600b60209081526040808320815160c0810183528481523381850190815261ffff89811694830194855260608301878152608084018a815260a085018990526002958601805460018082018355918b529890992085516004909902018054945197516001600160a81b0319909516981515610100600160a81b0319169890981761010097909a16969096029890981761ffff60a81b1916600160a81b9290911691909102178455945193830180546001600160801b0319166001600160801b03909516949094179093555190918201906132bc908261545b565b5060a082015181600301555050505050565b60408051808201909152600080825260208201526001600160a01b0383166000908152600860205260409020805463ffffffff841690811061331257613312615374565b60009182526020918290206040805180820190915291015463ffffffff81168252600160201b90046001600160e01b0316918101919091529392505050565b613359613739565b6001600160a01b0381166133be5760405162461bcd60e51b815260206004820152602660248201527f4f776e61626c653a206e6577206f776e657220697320746865207a65726f206160448201526564647265737360d01b60648201526084016109d6565b611ec381613f93565b6133d18282613451565b6002546001600160e01b0310156134435760405162461bcd60e51b815260206004820152603060248201527f4552433230566f7465733a20746f74616c20737570706c79207269736b73206f60448201526f766572666c6f77696e6720766f74657360801b60648201526084016109d6565b6115c3600961350683614083565b6001600160a01b0382166134a75760405162461bcd60e51b815260206004820152601f60248201527f45524332303a206d696e7420746f20746865207a65726f20616464726573730060448201526064016109d6565b80600260008282546134b99190615402565b90915550506001600160a01b038216600081815260208181526040808320805486019055518481526000805160206156eb833981519152910160405180910390a3611d6e600083836141d4565b6000611ca68284615402565b60006001600160e01b0382111561357b5760405162461bcd60e51b815260206004820152602760248201527f53616665436173743a2076616c756520646f65736e27742066697420696e20326044820152663234206269747360c81b60648201526084016109d6565b5090565b600063ffffffff82111561357b5760405162461bcd60e51b815260206004820152602660248201527f53616665436173743a2076616c756520646f65736e27742066697420696e203360448201526532206269747360d01b60648201526084016109d6565b612d616135f084611d82565b6135f984611d82565b836141df565b6000611ca682846153ef565b611d6e82826142f8565b6001600160a01b0383166136775760405162461bcd60e51b8152602060048201526024808201527f45524332303a20617070726f76652066726f6d20746865207a65726f206164646044820152637265737360e01b60648201526084016109d6565b6001600160a01b0382166136d85760405162461bcd60e51b815260206004820152602260248201527f45524332303a20617070726f766520746f20746865207a65726f206164647265604482015261737360f01b60648201526084016109d6565b6001600160a01b0383811660008181526001602090815260408083209487168084529482529182902085905590518481527f8c5be1e5ebec7d5bd14f71427d1e84f3dd0314c0f7b2291e5b200ac8c7c3b925910160405180910390a3505050565b33613742612972565b6001600160a01b0316146126235760405162461bcd60e51b815260206004820181905260248201527f4f776e61626c653a2063616c6c6572206973206e6f7420746865206f776e657260448201526064016109d6565b60008060005b6001600160a01b0386166000908152600b602052604090206001015461ffff82161015613892576001600160a01b038681166000908152600b6020526040902060010180549187169161ffff84169081106137fb576137fb615374565b60009182526020909120600290910201546001600160a01b031614801561387257506001600160a01b0386166000908152600b60205260409020600101805461ffff808716929190841690811061385457613854615374565b6000918252602090912060029091020154600160a01b900461ffff16145b156138805760019150613892565b8061388a81615695565b91505061379e565b816138d55760405162461bcd60e51b8152602060048201526013602482015272199bdc9b585d1a5bdb881b9bdd08199bdd5b99606a1b60448201526064016109d6565b95945050505050565b6001600160a01b0383166139425760405162461bcd60e51b815260206004820152602560248201527f45524332303a207472616e736665722066726f6d20746865207a65726f206164604482015264647265737360d81b60648201526084016109d6565b6001600160a01b0382166139a45760405162461bcd60e51b815260206004820152602360248201527f45524332303a207472616e7366657220746f20746865207a65726f206164647260448201526265737360e81b60648201526084016109d6565b6001600160a01b03831660009081526020819052604090205481811015613a1c5760405162461bcd60e51b815260206004820152602660248201527f45524332303a207472616e7366657220616d6f756e7420657863656564732062604482015265616c616e636560d01b60648201526084016109d6565b6001600160a01b03848116600081815260208181526040808320878703905593871680835291849020805487019055925185815290926000805160206156eb833981519152910160405180910390a36115c38484846141d4565b6000613a828484613104565b905060001981146115c35781811015613add5760405162461bcd60e51b815260206004820152601d60248201527f45524332303a20696e73756666696369656e7420616c6c6f77616e636500000060448201526064016109d6565b6115c38484848403613615565b606060005b8351811015613bca57826001600160a01b0316848281518110613b1457613b14615374565b60200260200101516001600160a01b031603613bb8578360018551613b3991906153ef565b81518110613b4957613b49615374565b6020026020010151848281518110613b6357613b63615374565b60200260200101906001600160a01b031690816001600160a01b0316815250508360018551613b9291906153ef565b81518110613ba257613ba2615374565b6020026020010160006001600160a01b03168152505b80613bc28161567c565b915050613aef565b509192915050565b611d6e82826133c7565b6000306001600160a01b037f000000000000000000000000000000000000000000000000000000000000000016148015613c3557507f000000000000000000000000000000000000000000000000000000000000000046145b15613c5f57507f000000000000000000000000000000000000000000000000000000000000000090565b50604080517f00000000000000000000000000000000000000000000000000000000000000006020808301919091527f0000000000000000000000000000000000000000000000000000000000000000828401527f000000000000000000000000000000000000000000000000000000000000000060608301524660808301523060a0808401919091528351808403909101815260c0909201909252805191012090565b815460009081816005811115613d5d576000613d1e84614310565b613d2890856153ef565b600088815260209020909150869082015463ffffffff161115613d4d57809150613d5b565b613d58816001615402565b92505b505b80821015613daa576000613d7183836143f8565b600088815260209020909150869082015463ffffffff161115613d9657809150613da4565b613da1816001615402565b92505b50613d5d565b8015613de357613dcd86613dbf6001846153ef565b600091825260209091200190565b54600160201b90046001600160e01b0316613de6565b60005b6001600160e01b03169695505050505050565b6000613e0483611d82565b90506000613e11846125f6565b6001600160a01b0385811660008181526007602052604080822080546001600160a01b031916898616908117909155905194955093928616927f3134e8a2e6d97e929a7e54011ea5485d7d196dd5f0ba4d4ef95803e8e3fc257f9190a46115c38284836141df565b6001600160a01b0382166000908152600c60205260408120600101805461ffff8416908110613eaa57613eaa615374565b60009182526020808320600592909202909101546001600160a01b0386168352600c90915260408220600101805461010090920463ffffffff1693509061ffff8516908110613efb57613efb615374565b600091825260209091206005909102015460185463ffffffff600160281b909204821692501681118015613f535750601854613f4490600160201b900463ffffffff16826156ac565b63ffffffff168263ffffffff16115b156115c357613f6484601654613bd2565b7fbb11e28bff673d5e1588f064cd972443dd1cad19d46e9d744529e30524bade01846040516119509190614eba565b600a80546001600160a01b038381166001600160a01b0319831681179093556040519116919082907f8be0079c531659141344cd1fd0a4f28419497f9722a3daafe3b4186f6b6457e090600090a35050565b60006110c7613ff2613bdc565b8360405161190160f01b6020820152602281018390526042810182905260009060620160405160208183030381529060405280519060200120905092915050565b600080600061404487878787614413565b91509150614051816144cd565b5095945050505050565b6001600160a01b03811660009081526005602052604090208054600181018255905b50919050565b825460009081908181156140cf576140a087613dbf6001856153ef565b60408051808201909152905463ffffffff81168252600160201b90046001600160e01b031660208201526140e4565b60408051808201909152600080825260208201525b905080602001516001600160e01b0316935061410484868863ffffffff16565b925060008211801561411c5750805163ffffffff1643145b156141605761412a83613512565b61413988613dbf6001866153ef565b80546001600160e01b0392909216600160201b0263ffffffff9092169190911790556141ca565b8660405180604001604052806141754361357f565b63ffffffff16815260200161418986613512565b6001600160e01b039081169091528254600181018455600093845260209384902083519490930151909116600160201b0263ffffffff909316929092179101555b5050935093915050565b612d618383836135e4565b816001600160a01b0316836001600160a01b0316141580156142015750600081115b15612d61576001600160a01b0383161561427d576001600160a01b0383166000908152600860205260408120819061423c906135ff85614083565b91509150846001600160a01b031660008051602061570b8339815191528383604051614272929190918252602082015260400190565b60405180910390a250505b6001600160a01b03821615612d61576001600160a01b038216600090815260086020526040812081906142b39061350685614083565b91509150836001600160a01b031660008051602061570b83398151915283836040516142e9929190918252602082015260400190565b60405180910390a25050505050565b6143028282614612565b6115c360096135ff83614083565b60008160000361432257506000919050565b6000600161432f84614739565b901c6001901b90506001818481614348576143486153b7565b048201901c90506001818481614360576143606153b7565b048201901c90506001818481614378576143786153b7565b048201901c90506001818481614390576143906153b7565b048201901c905060018184816143a8576143a86153b7565b048201901c905060018184816143c0576143c06153b7565b048201901c905060018184816143d8576143d86153b7565b048201901c9050611ca6818285816143f2576143f26153b7565b046147cd565b600061440760028484186153cd565b611ca690848416615402565b6000806fa2a8918ca85bafe22016d0b997e4df60600160ff1b0383111561444057506000905060036144c4565b6040805160008082526020820180845289905260ff881692820192909252606081018690526080810185905260019060a0016020604051602081039080840390855afa158015614494573d6000803e3d6000fd5b5050604051601f1901519150506001600160a01b0381166144bd576000600192509250506144c4565b9150600090505b94509492505050565b60008160048111156144e1576144e16156d4565b036144e95750565b60018160048111156144fd576144fd6156d4565b036145455760405162461bcd60e51b815260206004820152601860248201527745434453413a20696e76616c6964207369676e617475726560401b60448201526064016109d6565b6002816004811115614559576145596156d4565b036145a65760405162461bcd60e51b815260206004820152601f60248201527f45434453413a20696e76616c6964207369676e6174757265206c656e6774680060448201526064016109d6565b60038160048111156145ba576145ba6156d4565b03611ec35760405162461bcd60e51b815260206004820152602260248201527f45434453413a20696e76616c6964207369676e6174757265202773272076616c604482015261756560f01b60648201526084016109d6565b6001600160a01b0382166146725760405162461bcd60e51b815260206004820152602160248201527f45524332303a206275726e2066726f6d20746865207a65726f206164647265736044820152607360f81b60648201526084016109d6565b6001600160a01b038216600090815260208190526040902054818110156146e65760405162461bcd60e51b815260206004820152602260248201527f45524332303a206275726e20616d6f756e7420657863656564732062616c616e604482015261636560f01b60648201526084016109d6565b6001600160a01b0383166000818152602081815260408083208686039055600280548790039055518581529192916000805160206156eb833981519152910160405180910390a3612d61836000846141d4565b600080608083901c1561474e57608092831c92015b604083901c1561476057604092831c92015b602083901c1561477257602092831c92015b601083901c1561478457601092831c92015b600883901c1561479657600892831c92015b600483901c156147a857600492831c92015b600283901c156147ba57600292831c92015b600183901c156110c75760010192915050565b60008183106147dc5781611ca6565b5090919050565b828054828255906000526020600020908101928215614829579160200282015b828111156148295782518290614819908261545b565b5091602001919060010190614803565b5061357b929150614896565b82805482825590600052602060002090810192821561488a579160200282015b8281111561488a57825182546001600160a01b0319166001600160a01b03909116178255602090920191600190910190614855565b5061357b9291506148b3565b8082111561357b5760006148aa82826148c8565b50600101614896565b5b8082111561357b57600081556001016148b4565b5080546148d490615313565b6000825580601f106148e4575050565b601f016020900490600052602060002090810190611ec391906148b3565b80356001600160a01b038116811461491957600080fd5b919050565b60006020828403121561493057600080fd5b611ca682614902565b602080825282518282018190526000919060409081850190868401855b828110156149b857815180516001600160a01b031685528681015161ffff16878601528581015160ff168686015260608082015115159086015260808082015115159086015260a0908101519085015260c09093019290850190600101614956565b5091979650505050505050565b6000815180845260005b818110156149eb576020818501810151868301820152016149cf565b506000602082860101526020601f19601f83011685010191505092915050565b602081526000611ca660208301846149c5565b803561ffff8116811461491957600080fd5b60008060408385031215614a4357600080fd5b614a4c83614902565b9150614a5a60208401614a1e565b90509250929050565b60008060408385031215614a7657600080fd5b614a7f83614902565b946020939093013593505050565b600060208284031215614a9f57600080fd5b5035919050565b60008060408385031215614ab957600080fd5b614a7f83614a1e565b803560ff8116811461491957600080fd5b803563ffffffff8116811461491957600080fd5b634e487b7160e01b600052604160045260246000fd5b604051601f8201601f191681016001600160401b0381118282101715614b2557614b25614ae7565b604052919050565b600082601f830112614b3e57600080fd5b81356001600160401b03811115614b5757614b57614ae7565b614b6a601f8201601f1916602001614afd565b818152846020838601011115614b7f57600080fd5b816020850160208301376000918101602001919091529392505050565b600082601f830112614bad57600080fd5b813560206001600160401b0380831115614bc957614bc9614ae7565b8260051b614bd8838201614afd565b9384528581018301938381019088861115614bf257600080fd5b84880192505b85831015614c2e57823584811115614c105760008081fd5b614c1e8a87838c0101614b2d565b8352509184019190840190614bf8565b98975050505050505050565b600080600080600060a08688031215614c5257600080fd5b614c5b86614ac2565b9450614c6960208701614ad3565b93506040860135925060608601356001600160401b0380821115614c8c57600080fd5b614c9889838a01614b2d565b93506080880135915080821115614cae57600080fd5b50614cbb88828901614b9c565b9150509295509295909350565b600080600060608486031215614cdd57600080fd5b614ce684614902565b9250614cf460208501614902565b9150604084013590509250925092565b600080600060608486031215614d1957600080fd5b614d2284614902565b9250614cf460208501614a1e565b600081518084526020808501808196508360051b8101915082860160005b858110156149b8578284038952614d668483516149c5565b98850198935090840190600101614d4e565b600081518084526020808501945080840160005b83811015614db15781516001600160a01b031687529582019590820190600101614d8c565b509495945050505050565b60006020808301818452808551808352604092508286019150828160051b87010184880160005b83811015614eac57603f198984030185528151805160ff1684528781015163ffffffff9081168986015287820151811688860152606080830151909116908501526080808201516001600160801b03169085015260a0808201519085015260c0808201516101208287018190529190614e5e838801826149c5565b9250505060e08083015186830382880152614e798382614d30565b925050506101008083015192508582038187015250614e988183614d78565b968901969450505090860190600101614de3565b509098975050505050505050565b6001600160a01b0391909116815260200190565b60008060408385031215614ee157600080fd5b82359150614a5a60208401614ac2565b60008060408385031215614f0457600080fd5b82356001600160401b0380821115614f1b57600080fd5b614f2786838701614b2d565b93506020850135915080821115614f3d57600080fd5b50614f4a85828601614b9c565b9150509250929050565b600080600060608486031215614f6957600080fd5b614f7284614902565b9250614f8060208501614a1e565b9150614f8e60408501614ac2565b90509250925092565b60006020808301818452808551808352604092508286019150828160051b87010184880160005b83811015614eac57888303603f190185528151805115158452878101516001600160a01b0316888501528681015161ffff16878501526060808201516001600160801b03169085015260808082015160c08287018190529190615023838801826149c5565b60a0948501519790940196909652505094870194925090860190600101614fbe565b8035801515811461491957600080fd5b6000806040838503121561506857600080fd5b614a4c83615045565b60006020808301818452808551808352604092508286019150828160051b87010184880160005b83811015614eac57603f19898403018552815160a081511515855288820151898601528782015181898701526150d0828701826149c5565b915050606080830151868303828801526150ea8382614d30565b92505050608080830151925085820381870152506151088183614d78565b968901969450505090860190600101615098565b60008060006060848603121561513157600080fd5b61513a84615045565b925061514860208501615045565b9150614f8e60408501615045565b60008060008060008060c0878903121561516f57600080fd5b61517887614902565b9550602087013594506040870135935061519460608801614ac2565b92506080870135915060a087013590509295509295509295565b602081526000611ca66020830184614d78565b600080600080600080600060e0888a0312156151dc57600080fd5b6151e588614902565b96506151f360208901614902565b9550604088013594506060880135935061520f60808901614ac2565b925060a0880135915060c0880135905092959891949750929550565b6000806040838503121561523e57600080fd5b61524783614902565b9150614a5a60208401614902565b60008060006060848603121561526a57600080fd5b61527384614902565b925061528160208501614a1e565b915060408401356001600160401b0381111561529c57600080fd5b6152a886828701614b2d565b9150509250925092565b600080604083850312156152c557600080fd5b6152ce83614902565b9150614a5a60208401614ad3565b6020808252601e908201527f53747564656e742061646472657373206e6f7420726567697374657265640000604082015260600190565b600181811c9082168061532757607f821691505b60208210810361407d57634e487b7160e01b600052602260045260246000fd5b602080825260139082015272119bdc9b585d1a5bdb881b9bdd08199bdd5b99606a1b604082015260600190565b634e487b7160e01b600052603260045260246000fd5b634e487b7160e01b600052601160045260246000fd5b80820281158282048414176110c7576110c761538a565b634e487b7160e01b600052601260045260246000fd5b6000826153ea57634e487b7160e01b600052601260045260246000fd5b500490565b818103818111156110c7576110c761538a565b808201808211156110c7576110c761538a565b601f821115612d6157600081815260208120601f850160051c8101602086101561543c5750805b601f850160051c820191505b81811015611ea457828155600101615448565b81516001600160401b0381111561547457615474614ae7565b615488816154828454615313565b84615415565b602080601f8311600181146154bd57600084156154a55750858301515b600019600386901b1c1916600185901b178555611ea4565b600085815260208120601f198616915b828110156154ec578886015182559484019460019091019084016154cd565b508582101561550a5787850151600019600388901b60f8161c191681555b5050505050600190811b01905550565b6020808252601b908201527a119bdc9b585d1a5bdb88185b1c9958591e4818d95c9d1a599a5959602a1b604082015260600190565b600060ff821660ff81036155655761556561538a565b60010192915050565b6020808252601e908201527f546561636865722061646472657373206e6f7420726567697374657265640000604082015260600190565b6020808252601f908201527f4552433230566f7465733a20626c6f636b206e6f7420796574206d696e656400604082015260600190565b6001600160a01b03939093168352602083019190915260ff16604082015260600190565b63ffffffff81811683821601908082111561561d5761561d61538a565b5092915050565b600063ffffffff80831681810361563d5761563d61538a565b6001019392505050565b6020808252818101527f5265637275697465722061646472657373206e6f742072656769737465726564604082015260600190565b60006001820161568e5761568e61538a565b5060010190565b600061ffff80831681810361563d5761563d61538a565b63ffffffff8181168382160280821691908281146156cc576156cc61538a565b505092915050565b634e487b7160e01b600052602160045260246000fdfeddf252ad1be2c89b69c2b068fc378daa952ba7f163c4a11628f55a4df523b3efdec2bacdd2f05b59de34da9b523dff8be42e5e38e818c82fdb0bae774387a724a264697066735822122010a7c2e346309ed3744c14c37fbe9a0e42cc9e628f8381465e449e88e9f2533764736f6c6343000811003360806040523480156200001157600080fd5b506200001d336200003f565b620000276200008f565b600180546001600160a01b0319163317905562000550565b600080546001600160a01b038381166001600160a01b0319831681178455604051919092169283917f8be0079c531659141344cd1fd0a4f28419497f9722a3daafe3b4186f6b6457e09190a35050565b6000604051806101000160405280600060ff168152602001600a60ff16815260200160006001600160801b031681526020016000815260200160008152602001681b1ae4d6e2ef50000081526020016a0211654585005212800000815260200160405180604001604052806006815260200165506c616e203160d01b81525081525090506000604051806101000160405280600160ff168152602001601460ff168152602001630375f0006001600160801b031681526020016000815260200160008152602001681b1ae4d6e2ef50000081526020016a0422ca8b0a00a425000000815260200160405180604001604052806006815260200165283630b7101960d11b8152508152509050600582908060018154018082558091505060019003906000526020600020906006020160009091909190915060008201518160000160006101000a81548160ff021916908360ff16021790555060208201518160000160016101000a81548160ff021916908360ff16021790555060408201518160000160026101000a8154816001600160801b0302191690836001600160801b03160217905550606082015181600101556080820151816002015560a0820151816003015560c0820151816004015560e082015181600501908162000274919062000484565b505060058054600181018255600091909152825160069091027f036b6384b5eca791c62761152d0c79bb0604c104a5fb6f4eb0703f3154bb3db081018054602086015160408701516001600160801b0316620100000262010000600160901b031960ff9283166101000261ffff199094169290961691909117919091179390931692909217825560608401517f036b6384b5eca791c62761152d0c79bb0604c104a5fb6f4eb0703f3154bb3db182015560808401517f036b6384b5eca791c62761152d0c79bb0604c104a5fb6f4eb0703f3154bb3db282015560a08401517f036b6384b5eca791c62761152d0c79bb0604c104a5fb6f4eb0703f3154bb3db382015560c08401517f036b6384b5eca791c62761152d0c79bb0604c104a5fb6f4eb0703f3154bb3db482015560e08401518493507f036b6384b5eca791c62761152d0c79bb0604c104a5fb6f4eb0703f3154bb3db590910190620003d8908262000484565b5050505050565b634e487b7160e01b600052604160045260246000fd5b600181811c908216806200040a57607f821691505b6020821081036200042b57634e487b7160e01b600052602260045260246000fd5b50919050565b601f8211156200047f57600081815260208120601f850160051c810160208610156200045a5750805b601f850160051c820191505b818110156200047b5782815560010162000466565b5050505b505050565b81516001600160401b03811115620004a057620004a0620003df565b620004b881620004b18454620003f5565b8462000431565b602080601f831160018114620004f05760008415620004d75750858301515b600019600386901b1c1916600185901b1785556200047b565b600085815260208120601f198616915b82811015620005215788860151825594840194600190910190840162000500565b5085821015620005405787850151600019600388901b60f8161c191681555b5050505050600190811b01905550565b61124780620005606000396000f3fe608060405234801561001057600080fd5b50600436106100785760003560e01c80636efc6d931461007d578063715018a614610092578063731c689a1461009a57806375caee97146100c7578063762e7a34146100da57806382369def146101015780638da5cb5b14610114578063f2fde38b14610129575b600080fd5b61009061008b366004610f2d565b61013c565b005b610090610251565b6100ad6100a8366004610f73565b610265565b604080519283526020830191909152015b60405180910390f35b6100ad6100d5366004610f73565b6102b2565b6100ed6100e8366004610fa6565b6102ce565b6040516100be989796959493929190610fbf565b61009061010f366004610f2d565b6103b7565b61011c610677565b6040516100be9190611056565b61009061013736600461106a565b610686565b6101446106ff565b60018160ff1611156101715760405162461bcd60e51b81526004016101689061108c565b60405180910390fd5b6000610181848360ff168561075e565b6001546040516323b872dd60e01b81529192506001600160a01b0316906323b872dd906101b6908390889088906004016110cf565b6020604051808303816000875af11580156101d5573d6000803e3d6000fd5b505050506040513d601f19601f820116820180604052508101906101f991906110f3565b50600061020b858460ff1686856108ae565b90507fefec184a7664a43868bb22a3991b53aa57ea0bb497a859754dd9a0d8b67b9ffe848685846040516102429493929190611115565b60405180910390a15050505050565b6102596106ff565b61026360006109ad565b565b6003602052826000526040600020826002811061028157600080fd5b01818154811061029057600080fd5b6000918252602090912060029091020180546001909101549093509150839050565b6002602052826000526040600020826002811061028157600080fd5b600581815481106102de57600080fd5b600091825260209091206006909102018054600182015460028301546003840154600485015460058601805460ff808816995061010088041697620100009097046001600160801b03169691906103349061113c565b80601f01602080910402602001604051908101604052809291908181526020018280546103609061113c565b80156103ad5780601f10610382576101008083540402835291602001916103ad565b820191906000526020600020905b81548152906001019060200180831161039057829003601f168201915b5050505050905088565b6103bf6106ff565b60018160ff1611156103e35760405162461bcd60e51b81526004016101689061108c565b60058160ff16815481106103f9576103f9611176565b9060005260206000209060060201600401548260058360ff168154811061042257610422611176565b90600052602060002090600602016002015461043e91906111a2565b106104965760405162461bcd60e51b815260206004820152602260248201527f4572726f722c207374616b696e67206465706f736974206c696d6974207265616044820152610c6d60f31b6064820152608401610168565b6001546040516370a0823160e01b815283916001600160a01b0316906370a08231906104c6908790600401611056565b602060405180830381865afa1580156104e3573d6000803e3d6000fd5b505050506040513d601f19601f8201168201806040525081019061050791906111b5565b101561055f5760405162461bcd60e51b815260206004820152602160248201527f4572726f722c20696e737566666973616e742066756e647320746f207374616b6044820152606560f81b6064820152608401610168565b6001546040516323b872dd60e01b81526001600160a01b03909116906323b872dd90610593908690849087906004016110cf565b6020604051808303816000875af11580156105b2573d6000803e3d6000fd5b505050506040513d601f19601f820116820180604052508101906105d691906110f3565b6106225760405162461bcd60e51b815260206004820152601d60248201527f4572726f722c206661696c6564207374616b696e67206465706f7369740000006044820152606401610168565b6000610632848360ff16856109fd565b90507f13d904717d3de3873e9fbd05dd78ac3c6b05e76126881d62902fb939a6bc87da838584846040516106699493929190611115565b60405180910390a150505050565b6000546001600160a01b031690565b61068e6106ff565b6001600160a01b0381166106f35760405162461bcd60e51b815260206004820152602660248201527f4f776e61626c653a206e6577206f776e657220697320746865207a65726f206160448201526564647265737360d01b6064820152608401610168565b6106fc816109ad565b50565b33610708610677565b6001600160a01b0316146102635760405162461bcd60e51b815260206004820181905260248201527f4f776e61626c653a2063616c6c6572206973206e6f7420746865206f776e65726044820152606401610168565b60008061076b8585610bce565b905060008061077a8787610cbf565b9092509050600061078b84846111ce565b9050600061079987836111ce565b10156107ff5760405162461bcd60e51b815260206004820152602f60248201527f4572726f722c20696e737566666973616e742066756e647320696e207374616b60448201526e696e6720746f20776974686472617760881b6064820152608401610168565b60006005888154811061081457610814611176565b60009182526020909120600690910201546201000090046001600160801b0316905061084081846111a2565b42116108a25760405162461bcd60e51b815260206004820152602b60248201527f4572726f722c20596f752063616e2774207769746864726177206265666f726560448201526a081b1bd8dad4195c9a5bd960aa1b6064820152608401610168565b50979650505050505050565b60408051808201825242815260208082018590526001600160a01b0387166000908152600390915291822085600281106108ea576108ea611176565b018054600181810183556000928352602092839020845160029093020191825591830151910155600580548591908790811061092857610928611176565b9060005260206000209060060201600201600082825461094891906111ce565b909155506000905061095a85856111ce565b9050806000036109a3576005868154811061097757610977611176565b600091825260208220600160069092020101805491610995836111e1565b91905055506109a387610ddd565b9695505050505050565b600080546001600160a01b038381166001600160a01b0319831681178455604051919092169283917f8be0079c531659141344cd1fd0a4f28419497f9722a3daafe3b4186f6b6457e09190a35050565b60408051808201825242815260208082018490526001600160a01b03861660009081526002918290529283209085908110610a3a57610a3a611176565b0180546001818101835560009283526020928390208451600290930201918255918301519101556005805484919086908110610a7857610a78611176565b90600052602060002090600602016002016000828254610a9891906111a2565b90915550610aa7905085610e64565b6004546005805486908110610abe57610abe611176565b90600052602060002090600602016001018190555060008060026000886001600160a01b03166001600160a01b031681526020019081526020016000208660028110610b0c57610b0c611176565b01805480602002602001604051908101604052809291908181526020016000905b82821015610b7357838290600052602060002090600202016040518060400160405290816000820154815260200160018201548152505081526020019060010190610b2d565b50505050905060005b8151811015610bc257818181518110610b9757610b97611176565b60200260200101516020015183610bae91906111a2565b925080610bba816111f8565b915050610b7c565b50909695505050505050565b6001600160a01b038216600090815260036020526040812081908360028110610bf957610bf9611176565b01805480602002602001604051908101604052809291908181526020016000905b82821015610c6057838290600052602060002090600202016040518060400160405290816000820154815260200160018201548152505081526020019060010190610c1a565b505050509050600080600090505b8251811015610cb457828181518110610c8957610c89611176565b60200260200101516020015182610ca091906111a2565b915080610cac816111f8565b915050610c6e565b509150505b92915050565b6001600160a01b03821660009081526002602081905260408220829182919085908110610cee57610cee611176565b01805480602002602001604051908101604052809291908181526020016000905b82821015610d5557838290600052602060002090600202016040518060400160405290816000820154815260200160018201548152505081526020019060010190610d0f565b50505050905060008060005b8351811015610dd05780600003610d9357838181518110610d8457610d84611176565b60200260200101516000015191505b838181518110610da557610da5611176565b60200260200101516020015183610dbc91906111a2565b925080610dc8816111f8565b915050610d61565b5090969095509350505050565b60005b600454811015610e6057816001600160a01b031660048281548110610e0757610e07611176565b6000918252602090912001546001600160a01b031603610e4e5760048181548110610e3457610e34611176565b600091825260209091200180546001600160a01b03191690555b80610e58816111f8565b915050610de0565b5050565b60005b600454811015610ebe57816001600160a01b031660048281548110610e8e57610e8e611176565b6000918252602090912001546001600160a01b031603610eac575050565b80610eb6816111f8565b915050610e67565b50600480546001810182556000919091527f8a35acfbc15ff81a39ae7d344fd709f28e8600b4aa8c65c6b64bfe7fe36bd19b0180546001600160a01b0319166001600160a01b0392909216919091179055565b80356001600160a01b0381168114610f2857600080fd5b919050565b600080600060608486031215610f4257600080fd5b610f4b84610f11565b925060208401359150604084013560ff81168114610f6857600080fd5b809150509250925092565b600080600060608486031215610f8857600080fd5b610f9184610f11565b95602085013595506040909401359392505050565b600060208284031215610fb857600080fd5b5035919050565b600061010060ff8b168352602060ff8b168185015260018060801b038a1660408501528860608501528760808501528660a08501528560c08501528160e085015284518083860152600092505b8083101561102b5785830182015185840161012001529181019161100c565b6101209250600083828701015282601f19601f83011686010193505050509998505050505050505050565b6001600160a01b0391909116815260200190565b60006020828403121561107c57600080fd5b61108582610f11565b9392505050565b60208082526023908201527f4572726f722c207374616b696e6720706c616e20646f6573206e6f742065786960408201526273747360e81b606082015260800190565b6001600160a01b039384168152919092166020820152604081019190915260600190565b60006020828403121561110557600080fd5b8151801515811461108557600080fd5b9384526001600160a01b0392909216602084015260ff166040830152606082015260800190565b600181811c9082168061115057607f821691505b60208210810361117057634e487b7160e01b600052602260045260246000fd5b50919050565b634e487b7160e01b600052603260045260246000fd5b634e487b7160e01b600052601160045260246000fd5b80820180821115610cb957610cb961118c565b6000602082840312156111c757600080fd5b5051919050565b81810381811115610cb957610cb961118c565b6000816111f0576111f061118c565b506000190190565b60006001820161120a5761120a61118c565b506001019056fea2646970667358221220e601eed01455b7da58e802a085ea842e618e968f75189438b32edd360620d39b64736f6c63430008110033ddf252ad1be2c89b69c2b068fc378daa952ba7f163c4a11628f55a4df523b3efdec2bacdd2f05b59de34da9b523dff8be42e5e38e818c82fdb0bae774387a724",
  "immutableReferences": {
    "2423": [
      {
        "length": 32,
        "start": 15421
      }
    ],
    "2425": [
      {
        "length": 32,
        "start": 15379
      }
    ],
    "2427": [
      {
        "length": 32,
        "start": 15337
      }
    ],
    "2429": [
      {
        "length": 32,
        "start": 15504
      }
    ],
    "2431": [
      {
        "length": 32,
        "start": 15541
      }
    ],
    "2433": [
      {
        "length": 32,
        "start": 15462
      }
    ]
  },
  "source": "// SPDX-License-Identifier: MIT\npragma solidity ^0.8.17;\n\nimport \"@openzeppelin/contracts/token/ERC20/ERC20.sol\";\nimport \"@openzeppelin/contracts/token/ERC20/extensions/ERC20Votes.sol\";\nimport \"@openzeppelin/contracts/access/Ownable.sol\";\nimport \"./MLEUtils.sol\";\nimport \"./MLEStaking.sol\";\n\n/**\n * @title The smart contract to handle the MLE token, and interractions between :\n * - the students,\n * - the teachers,\n * - the recruiters.\n * @author Cyril Marois & Maxence Guillemain d'Echon\n**/\ncontract MLE is ERC20, ERC20Votes, Ownable {\n\n/******************************** STATE VARIABLES ********************************/\n\n    mapping (address => MLEUtils.Student) students;\n    mapping (address => MLEUtils.Teacher) teachers;\n    mapping (address => MLEUtils.Recruiter) recruiters;\n\n    address[] public teachersAddress;\n    address[] public studentsAddress;\n    address[] public recruitersAddress;\n\n    mapping (address => uint256) formationStakingBalance;\n    MLEStaking public mleStaking;\n\n    uint announcePostPrice = 50e18;\n    uint formationFee = 3; // %\n    uint formationFeeBurn = 0; // %\n    uint teacherReward = 1000e18;\n    uint jobSignedReward = 1000e18;\n    uint32 minRatingCountForTeacherReward = 5;\n    uint32 minRatingForTeacherReward = 35;\n\n    uint constant INITIAL_SUPPLY = 1000000e18;\n    uint constant RECRUITMENT_COMMISSION = 10; // %\n    uint constant MAX_GRADE = 50;\n\n\n/******************************* DEFAULT FUNCTIONS *******************************/\n\n    /**\n     * @notice Initializes the contract.\n    **/\n    constructor() ERC20(\"Master L&Earn\", \"MLE\") Ownable() ERC20Permit(\"Master L&Earn\") {\n        _mint(msg.sender, INITIAL_SUPPLY);\n        mleStaking = new MLEStaking();\n        //0xD98c5d2949653CDb3F8935802E208E87C71dc7f7\n        address teacher1 = 0x97635a8AEcB3CfcaE96F7a11Ec6A0AB213E3F065;\n        address student1 = 0x5F33213C35933CEe1E32e8796710D24CfC844ddf;\n        address student2 = 0x51B58B2583c49De79bbaf762F7EeAf1cbC33b7Ce;\n        address recruiter1 = 0x4F76FD57f86C14fAa7d4DfF8EdD9986d982BA569;\n\n        //teacher\n        transfer(teacher1, 1000e18);\n        registerUser(teacher1, false, true, false);\n\n        //student\n        transfer(student1, 1000e18);\n        registerUser(student1, true, false, false);\n        transfer(student2, 1000e18);\n        registerUser(student2, true, false, false);\n\n        // recruiter\n        transfer(recruiter1, 1000e18);\n        registerUser(recruiter1, false, false, true);\n    }\n\n    receive() external payable {}\n    fallback() external payable {}\n\n/*********************************** MODIFIERS ***********************************/\n/************************************ EVENTS *************************************/\n\n    event StudentRegistered (address studentAddress);\n    event TeacherRegistered (address teacherAddress);\n    event RecruiterRegistered (address recruiterAddress);\n\n    event FormationPublished (address teacherAddress, uint teacherFormationId);\n    event FormationCertified (address teacherAddress, uint teacherFormationId, address studentAddress);\n    event AnnouncePublished (address recruiterAddress, uint announceId);\n\n    event TeacherRewarded(address teacherAddress);\n    event RecruitmentReward(address studentAddress, uint16 jobId);\n/*********************************** FUNCTIONS ***********************************/\n/***************** UTILS ********************/\n\n    function _afterTokenTransfer(address from, address to, uint amount) internal override(ERC20, ERC20Votes) {\n        super._afterTokenTransfer(from, to, amount);\n    }\n\n    function _mint(address account, uint amount) internal override(ERC20, ERC20Votes) {\n        super._mint(account, amount);\n    }\n\n    function _burn(address account, uint amount) internal override(ERC20, ERC20Votes) {\n        super._burn(account, amount);\n    }\n\n/************* GETTERS & SETTERS ************/\n    function registerUser(address _addr, bool _asStudent, bool _asTeacher, bool _asRecruiter) internal {\n        if (_asStudent && !students[_addr].isRegistered) {\n            studentsAddress.push(_addr);\n            students[_addr].isRegistered = true;\n            emit StudentRegistered(_addr);\n        }\n        if (_asTeacher && !teachers[_addr].isRegistered) {\n            teachersAddress.push(_addr);\n            teachers[_addr].isRegistered = true;\n            emit TeacherRegistered(_addr);\n        }\n        if (_asRecruiter && !recruiters[_addr].isRegistered) {\n            recruitersAddress.push(_addr);\n            recruiters[_addr].isRegistered = true;\n            emit RecruiterRegistered(_addr);\n        }\n    }\n\n    function register(bool _asStudent, bool _asTeacher, bool _asRecruiter) external {\n        if (_asStudent && !students[msg.sender].isRegistered) {\n            studentsAddress.push(msg.sender);\n            students[msg.sender].isRegistered = true;\n            emit StudentRegistered(msg.sender);\n        }\n        if (_asTeacher && !teachers[msg.sender].isRegistered) {\n            teachersAddress.push(msg.sender);\n            teachers[msg.sender].isRegistered = true;\n            emit TeacherRegistered(msg.sender);\n        }\n        if (_asRecruiter && !recruiters[msg.sender].isRegistered) {\n            recruitersAddress.push(msg.sender);\n            recruiters[msg.sender].isRegistered = true;\n            emit RecruiterRegistered(msg.sender);\n        }\n    }\n\n    function getTeachersAddresses() external view returns(address[] memory) {\n        return teachersAddress;\n    }\n\n    function getAnnounceForRecruiter (address _recruiterAddress)\n    external view returns(MLEUtils.Announce[] memory) {\n        require (recruiters[_recruiterAddress].isRegistered, \"Recruiter address not registered\");\n        return recruiters[_recruiterAddress].announces;\n    }\n\n    function getFormationForTeacher (address _teacherAddress)\n    external view returns(MLEUtils.TeacherFormation[] memory) {\n        require (teachers[_teacherAddress].isRegistered, \"Teacher address not registered\");\n        return teachers[_teacherAddress].formations;\n    }\n\n    function getFormationForStudent (address _studentAddress)\n    external view returns(MLEUtils.StudentFormation[] memory) {\n        require (students[_studentAddress].isRegistered, \"Student address not registered\");\n        return students[_studentAddress].formations;\n    }\n\n    function getJobsForStudent (address _studentAddress)\n    external view returns(MLEUtils.Job[] memory) {\n        require (students[_studentAddress].isRegistered, \"Student address not registered\");\n        return students[_studentAddress].jobs;\n    }\n\n    function setAnnouncePostPrice (uint _announcePostPrice) external onlyOwner {\n        announcePostPrice = _announcePostPrice;\n    }\n\n    function setFormationFee (uint _formationFee) external onlyOwner {\n        require (_formationFee < 100, \"formationFee is in percent (<100)\");\n        formationFee = _formationFee;\n    }\n\n    function setFormationFeeBurn (uint _formationFeeBurn) external onlyOwner {\n        require (_formationFeeBurn < 100, \"formationFeeBurn is in percent (<100)\");\n        formationFeeBurn = _formationFeeBurn;\n    }\n\n    function setQualityFormationReward (uint _teacherReward) external onlyOwner {\n        teacherReward = _teacherReward;\n    }\n\n    function setJobSignedReward (uint _jobSignedReward) external onlyOwner {\n        jobSignedReward = _jobSignedReward;\n    }\n\n/********** FORMATIONS FUNCTIONS ************/\n\n    function postFormation (\n        uint8 _modulesCount,\n        uint32 _duration,\n        uint _price,\n        string memory _title,\n        string[] memory _tags\n    ) external {\n        address[] memory stds;\n        MLEUtils.TeacherFormation memory newTeacherFormation;\n        newTeacherFormation = MLEUtils.TeacherFormation (\n            _modulesCount,\n            0,\n            0,\n            _duration,\n            uint128(block.timestamp),\n            _price,\n            _title,\n            _tags,\n            stds\n        );\n        teachers[msg.sender].formations.push(newTeacherFormation);\n\n        emit FormationPublished(msg.sender, teachers[msg.sender].formations.length - 1);\n    }\n\n    function validateUserModule (address _studentAddress, uint16 _teacherFormationId) external {\n        require (students[_studentAddress].isRegistered, \"Student address not registered\");\n\n        uint16 _id = _retrieveStudentFormationId(_studentAddress, msg.sender, _teacherFormationId);\n        MLEUtils.StudentFormation memory _studentFormation = students[_studentAddress].formations[_id];\n        require (!_studentFormation.isCertified, \"Formation already certified\");\n        require (_studentFormation.validatedModulesNumber < teachers[msg.sender].formations[_teacherFormationId].modulesCount, \"Last module already validated\");\n\n        students[_studentAddress].formations[_id].validatedModulesNumber++;\n\n        // Cashback\n        if (formationStakingBalance[_studentAddress] > _studentFormation.cashback) {\n            formationStakingBalance[_studentAddress] -= _studentFormation.cashback;\n            _transfer(address(this), _studentAddress, _studentFormation.cashback);\n        }\n    }\n\n    function certifyUserFormation (address _studentAddress, uint16 _teacherFormationId) external {\n        require (students[_studentAddress].isRegistered, \"Student address not registered\");\n\n        uint16 _id = _retrieveStudentFormationId(_studentAddress, msg.sender, _teacherFormationId);\n        require (!students[_studentAddress].formations[_id].isCertified, \"Formation already certified\");\n\n        teachers[msg.sender].formations[_teacherFormationId].students\n         = MLEUtils._removeAddressFromTab(teachers[msg.sender].formations[_teacherFormationId].students,\n         _studentAddress);\n\n        students[_studentAddress].formations[_id].isCertified = true;\n    }\n\n    function _retrieveStudentFormationId (address _studentAddress, address _teacherAddress, uint16 _teacherFormationId)\n        internal view returns(uint16) {\n        // Retrieve within the formations owned by the sender and followed by the student the formation which:\n        // - has the teacherAddress msg.sender\n        // - has the id _teacherFormationId\n        bool _found;\n        uint16 _id;\n        for (; _id < students[_studentAddress].formations.length; _id++) {\n            if (students[_studentAddress].formations[_id].teacherAddress == _teacherAddress\n                && students[_studentAddress].formations[_id].formationId == _teacherFormationId) {\n                _found = true;\n                break;\n            }\n        }\n        require (_found, \"formation not found\");\n        return _id;\n    }\n\n    function buyFormation (address _teacherAddress, uint16 _teacherFormationId) external {\n        require (teachers[_teacherAddress].isRegistered, \"Student address not registered\");\n        require (_teacherFormationId < teachers[_teacherAddress].formations.length, \"Formation not found\");\n\n        MLEUtils.TeacherFormation memory _teacherFormation = teachers[_teacherAddress].formations[_teacherFormationId];\n\n        // Pay formation\n        require (balanceOf(msg.sender) >= 2 * _teacherFormation.price, \"Insufficient balance\");\n        uint _fee = _teacherFormation.price * formationFee / 100;\n        uint _feeBurn = formationFee * formationFeeBurn / 100;\n        uint _teacherCut = _teacherFormation.price - _fee;\n        require (transfer(_teacherAddress, _teacherCut));\n        require (transfer(address(this), _teacherFormation.price + _fee - _feeBurn));\n        _burn(_teacherAddress, _feeBurn);\n        formationStakingBalance[msg.sender] += _teacherFormation.price;\n\n        // Add new StudentFormation to student\n        uint cashback = _teacherFormation.price / _teacherFormation.modulesCount ;\n        MLEUtils.StudentFormation memory _studentFormation =\n            MLEUtils.StudentFormation (_teacherAddress, _teacherFormationId, 0, false, false, cashback);\n        students[msg.sender].formations.push(_studentFormation);\n\n        // Add student address to formation\n        teachers[_teacherAddress].formations[_teacherFormationId].students.push(msg.sender);\n    }\n\n    function evaluateFormation (address _teacherAddress, uint16 _teacherFormationId, uint8 grade) external {\n        require (grade <= MAX_GRADE, \"Grade too high\");\n        require (teachers[_teacherAddress].isRegistered, \"Teacher address not registered\");\n        require (_teacherFormationId < teachers[_teacherAddress].formations.length, \"Formation not found\");\n        uint16 _id = _retrieveStudentFormationId(msg.sender, _teacherAddress, _teacherFormationId);\n        // TBD conditions de droit de notation :\n        require (students[msg.sender].formations[_id].isCertified, \"Student cannot evaluate yet\");\n        require (!students[msg.sender].formations[_id].isRated, \"Student already evaluated this formation\");\n\n        students[msg.sender].formations[_id].isRated = true;\n        teachers[_teacherAddress].formations[_teacherFormationId].ratingsSum += grade;\n        teachers[_teacherAddress].formations[_teacherFormationId].ratingsCount ++;\n\n        _rewardTeacher(_teacherAddress, _teacherFormationId);\n    }\n\n    function _rewardTeacher (address _teacherAddress, uint16 _teacherFormationId) internal {\n        // TDB condition reward\n\n        uint32 ratingsSum = teachers[_teacherAddress].formations[_teacherFormationId].ratingsSum;\n        uint32 ratingsCount = teachers[_teacherAddress].formations[_teacherFormationId].ratingsCount;\n\n        if (ratingsCount > minRatingCountForTeacherReward &&\n            ratingsSum > ratingsCount * minRatingForTeacherReward) {\n            _mint(_teacherAddress, teacherReward);\n            emit TeacherRewarded(_teacherAddress);\n        }\n    }\n\n/******* ANNOUNCES & JOBS FUNCTIONS *********/\n\n    function postAnnounce(\n        string memory _title,\n        string[] memory _tags\n    ) external {\n        require (transfer(address(this), announcePostPrice), \"Not enough tokens\");\n        address[] memory candidates;\n        recruiters[msg.sender].announces.push( MLEUtils.Announce (\n            true,\n            block.timestamp,\n            _title,\n            _tags,\n            candidates\n        ));\n    }\n\n    function offerJob(\n        address _studentAddress,\n        uint16 _announceId,\n        string memory _title\n    ) external {\n        require (students[_studentAddress].isRegistered, \"Student address not registered\");\n        students[_studentAddress].jobs.push( MLEUtils.Job (\n            false,\n            msg.sender,\n            _announceId,\n            0,\n            _title,\n            0\n        ));\n    }\n\n    function applyAnnounce(address _recruiterAddress, uint16 _announceId) external {\n        require (recruiters[_recruiterAddress].isRegistered, \"Recruiter address not registered\");\n        require (_announceId < recruiters[_recruiterAddress].announces.length, \"Announce not found\");\n\n        bool _found;\n        // TBD : limit size of candidates tab ?\n        for (uint _id; _id < recruiters[_recruiterAddress].announces[_announceId].candidates.length; _id++) {\n            if (recruiters[_recruiterAddress].announces[_announceId].candidates[_id] == msg.sender)\n                _found = true;\n        }\n        require (!_found, \"Announce already applied\");\n\n        recruiters[_recruiterAddress].announces[_announceId].candidates.push(msg.sender);\n    }\n\n    function answerJobOffer(bool _doAccept, uint16 _jobId) external {\n        require (_jobId < students[msg.sender].jobs.length, \"Job not found\");\n\n        students[msg.sender].jobs[_jobId].isAccepted = _doAccept;\n    }\n\n    function proveId(uint16 _jobId, uint _challenge) external {\n        students[msg.sender].jobs[_jobId].challenge = _challenge;\n    }\n\n    function verifyId(address _studentAddress, uint16 _jobId, uint _challenge) external {\n        // verify ID by checking challenge\n        require (students[_studentAddress].jobs[_jobId].challenge == _challenge, \"Id not verified\");\n\n        // Remove Job Announce\n        uint16 _id = students[_studentAddress].jobs[_jobId].announceId;\n        recruiters[msg.sender].announces[_id].isActive = false;\n\n        // Reward the DAO by minting 1000 MLE\n        _mint(address(this), jobSignedReward);\n        emit RecruitmentReward(_studentAddress, _jobId);\n    }\n\n/************ TOKEN FUNCTIONS ***************/\n\n    function DAOMint(uint _amount) onlyOwner external {\n        _mint(address(this), _amount);\n    }\n\n    function stakeDeposit(uint256 _amount, uint8 _planId) external {\n        approve(address(mleStaking), _amount);\n        mleStaking.stakeDeposit(msg.sender, _amount, _planId);\n        approve(address(mleStaking), 0);\n    }\n\n    function stakeWithdraw(uint256 _amount, uint8 _planId) external {\n        _approve(address(this), address(mleStaking), _amount);\n        mleStaking.stakeWithdraw(msg.sender, _amount, _planId);\n        _approve(address(this), address(mleStaking), 0);\n    }\n\n}",
  "sourcePath": "/home/cyrilmarois/Code/Formations/Alyra/master-L-earn/truffle/contracts/MLE.sol",
  "compiler": {
    "name": "solc",
    "version": "0.8.17+commit.8df45f5f.Emscripten.clang"
  },
  "schemaVersion": "3.4.10",
  "updatedAt": "2022-12-12T01:28:17.390Z",
  "networkType": "ethereum",
  "devdoc": {
    "author": "Cyril Marois & Maxence Guillemain d'Echon*",
    "kind": "dev",
    "methods": {
      "DOMAIN_SEPARATOR()": {
        "details": "See {IERC20Permit-DOMAIN_SEPARATOR}."
      },
      "allowance(address,address)": {
        "details": "See {IERC20-allowance}."
      },
      "approve(address,uint256)": {
        "details": "See {IERC20-approve}. NOTE: If `amount` is the maximum `uint256`, the allowance is not updated on `transferFrom`. This is semantically equivalent to an infinite approval. Requirements: - `spender` cannot be the zero address."
      },
      "balanceOf(address)": {
        "details": "See {IERC20-balanceOf}."
      },
      "checkpoints(address,uint32)": {
        "details": "Get the `pos`-th checkpoint for `account`."
      },
      "decimals()": {
        "details": "Returns the number of decimals used to get its user representation. For example, if `decimals` equals `2`, a balance of `505` tokens should be displayed to a user as `5.05` (`505 / 10 ** 2`). Tokens usually opt for a value of 18, imitating the relationship between Ether and Wei. This is the value {ERC20} uses, unless this function is overridden; NOTE: This information is only used for _display_ purposes: it in no way affects any of the arithmetic of the contract, including {IERC20-balanceOf} and {IERC20-transfer}."
      },
      "decreaseAllowance(address,uint256)": {
        "details": "Atomically decreases the allowance granted to `spender` by the caller. This is an alternative to {approve} that can be used as a mitigation for problems described in {IERC20-approve}. Emits an {Approval} event indicating the updated allowance. Requirements: - `spender` cannot be the zero address. - `spender` must have allowance for the caller of at least `subtractedValue`."
      },
      "delegate(address)": {
        "details": "Delegate votes from the sender to `delegatee`."
      },
      "delegateBySig(address,uint256,uint256,uint8,bytes32,bytes32)": {
        "details": "Delegates votes from signer to `delegatee`"
      },
      "delegates(address)": {
        "details": "Get the address `account` is currently delegating to."
      },
      "getPastTotalSupply(uint256)": {
        "details": "Retrieve the `totalSupply` at the end of `blockNumber`. Note, this value is the sum of all balances. It is but NOT the sum of all the delegated votes! Requirements: - `blockNumber` must have been already mined"
      },
      "getPastVotes(address,uint256)": {
        "details": "Retrieve the number of votes for `account` at the end of `blockNumber`. Requirements: - `blockNumber` must have been already mined"
      },
      "getVotes(address)": {
        "details": "Gets the current votes balance for `account`"
      },
      "increaseAllowance(address,uint256)": {
        "details": "Atomically increases the allowance granted to `spender` by the caller. This is an alternative to {approve} that can be used as a mitigation for problems described in {IERC20-approve}. Emits an {Approval} event indicating the updated allowance. Requirements: - `spender` cannot be the zero address."
      },
      "name()": {
        "details": "Returns the name of the token."
      },
      "nonces(address)": {
        "details": "See {IERC20Permit-nonces}."
      },
      "numCheckpoints(address)": {
        "details": "Get number of checkpoints for `account`."
      },
      "owner()": {
        "details": "Returns the address of the current owner."
      },
      "permit(address,address,uint256,uint256,uint8,bytes32,bytes32)": {
        "details": "See {IERC20Permit-permit}."
      },
      "renounceOwnership()": {
        "details": "Leaves the contract without owner. It will not be possible to call `onlyOwner` functions anymore. Can only be called by the current owner. NOTE: Renouncing ownership will leave the contract without an owner, thereby removing any functionality that is only available to the owner."
      },
      "symbol()": {
        "details": "Returns the symbol of the token, usually a shorter version of the name."
      },
      "totalSupply()": {
        "details": "See {IERC20-totalSupply}."
      },
      "transfer(address,uint256)": {
        "details": "See {IERC20-transfer}. Requirements: - `to` cannot be the zero address. - the caller must have a balance of at least `amount`."
      },
      "transferFrom(address,address,uint256)": {
        "details": "See {IERC20-transferFrom}. Emits an {Approval} event indicating the updated allowance. This is not required by the EIP. See the note at the beginning of {ERC20}. NOTE: Does not update the allowance if the current allowance is the maximum `uint256`. Requirements: - `from` and `to` cannot be the zero address. - `from` must have a balance of at least `amount`. - the caller must have allowance for ``from``'s tokens of at least `amount`."
      },
      "transferOwnership(address)": {
        "details": "Transfers ownership of the contract to a new account (`newOwner`). Can only be called by the current owner."
      }
    },
    "title": "The smart contract to handle the MLE token, and interractions between : - the students, - the teachers, - the recruiters.",
    "version": 1
  },
  "userdoc": {
    "kind": "user",
    "methods": {
      "constructor": {
        "notice": "Initializes the contract.*"
      }
    },
    "version": 1
  }
}