{
  "contractName": "MLEGovernorSimple",
  "abi": [
    {
      "inputs": [
        {
          "internalType": "contract IVotes",
          "name": "_token",
          "type": "address"
        }
      ],
      "stateMutability": "nonpayable",
      "type": "constructor"
    },
    {
      "inputs": [],
      "name": "Empty",
      "type": "error"
    },
    {
      "anonymous": false,
      "inputs": [
        {
          "indexed": false,
          "internalType": "uint256",
          "name": "proposalId",
          "type": "uint256"
        }
      ],
      "name": "ProposalCanceled",
      "type": "event"
    },
    {
      "anonymous": false,
      "inputs": [
        {
          "indexed": false,
          "internalType": "uint256",
          "name": "proposalId",
          "type": "uint256"
        },
        {
          "indexed": false,
          "internalType": "address",
          "name": "proposer",
          "type": "address"
        },
        {
          "indexed": false,
          "internalType": "address[]",
          "name": "targets",
          "type": "address[]"
        },
        {
          "indexed": false,
          "internalType": "uint256[]",
          "name": "values",
          "type": "uint256[]"
        },
        {
          "indexed": false,
          "internalType": "string[]",
          "name": "signatures",
          "type": "string[]"
        },
        {
          "indexed": false,
          "internalType": "bytes[]",
          "name": "calldatas",
          "type": "bytes[]"
        },
        {
          "indexed": false,
          "internalType": "uint256",
          "name": "startBlock",
          "type": "uint256"
        },
        {
          "indexed": false,
          "internalType": "uint256",
          "name": "endBlock",
          "type": "uint256"
        },
        {
          "indexed": false,
          "internalType": "string",
          "name": "description",
          "type": "string"
        }
      ],
      "name": "ProposalCreated",
      "type": "event"
    },
    {
      "anonymous": false,
      "inputs": [
        {
          "indexed": false,
          "internalType": "uint256",
          "name": "proposalId",
          "type": "uint256"
        }
      ],
      "name": "ProposalExecuted",
      "type": "event"
    },
    {
      "anonymous": false,
      "inputs": [
        {
          "indexed": false,
          "internalType": "uint256",
          "name": "oldProposalThreshold",
          "type": "uint256"
        },
        {
          "indexed": false,
          "internalType": "uint256",
          "name": "newProposalThreshold",
          "type": "uint256"
        }
      ],
      "name": "ProposalThresholdSet",
      "type": "event"
    },
    {
      "anonymous": false,
      "inputs": [
        {
          "indexed": false,
          "internalType": "uint256",
          "name": "oldQuorumNumerator",
          "type": "uint256"
        },
        {
          "indexed": false,
          "internalType": "uint256",
          "name": "newQuorumNumerator",
          "type": "uint256"
        }
      ],
      "name": "QuorumNumeratorUpdated",
      "type": "event"
    },
    {
      "anonymous": false,
      "inputs": [
        {
          "indexed": true,
          "internalType": "address",
          "name": "voter",
          "type": "address"
        },
        {
          "indexed": false,
          "internalType": "uint256",
          "name": "proposalId",
          "type": "uint256"
        },
        {
          "indexed": false,
          "internalType": "uint8",
          "name": "support",
          "type": "uint8"
        },
        {
          "indexed": false,
          "internalType": "uint256",
          "name": "weight",
          "type": "uint256"
        },
        {
          "indexed": false,
          "internalType": "string",
          "name": "reason",
          "type": "string"
        }
      ],
      "name": "VoteCast",
      "type": "event"
    },
    {
      "anonymous": false,
      "inputs": [
        {
          "indexed": true,
          "internalType": "address",
          "name": "voter",
          "type": "address"
        },
        {
          "indexed": false,
          "internalType": "uint256",
          "name": "proposalId",
          "type": "uint256"
        },
        {
          "indexed": false,
          "internalType": "uint8",
          "name": "support",
          "type": "uint8"
        },
        {
          "indexed": false,
          "internalType": "uint256",
          "name": "weight",
          "type": "uint256"
        },
        {
          "indexed": false,
          "internalType": "string",
          "name": "reason",
          "type": "string"
        },
        {
          "indexed": false,
          "internalType": "bytes",
          "name": "params",
          "type": "bytes"
        }
      ],
      "name": "VoteCastWithParams",
      "type": "event"
    },
    {
      "anonymous": false,
      "inputs": [
        {
          "indexed": false,
          "internalType": "uint256",
          "name": "oldVotingDelay",
          "type": "uint256"
        },
        {
          "indexed": false,
          "internalType": "uint256",
          "name": "newVotingDelay",
          "type": "uint256"
        }
      ],
      "name": "VotingDelaySet",
      "type": "event"
    },
    {
      "anonymous": false,
      "inputs": [
        {
          "indexed": false,
          "internalType": "uint256",
          "name": "oldVotingPeriod",
          "type": "uint256"
        },
        {
          "indexed": false,
          "internalType": "uint256",
          "name": "newVotingPeriod",
          "type": "uint256"
        }
      ],
      "name": "VotingPeriodSet",
      "type": "event"
    },
    {
      "inputs": [],
      "name": "BALLOT_TYPEHASH",
      "outputs": [
        {
          "internalType": "bytes32",
          "name": "",
          "type": "bytes32"
        }
      ],
      "stateMutability": "view",
      "type": "function",
      "constant": true
    },
    {
      "inputs": [],
      "name": "COUNTING_MODE",
      "outputs": [
        {
          "internalType": "string",
          "name": "",
          "type": "string"
        }
      ],
      "stateMutability": "pure",
      "type": "function",
      "constant": true
    },
    {
      "inputs": [],
      "name": "EXTENDED_BALLOT_TYPEHASH",
      "outputs": [
        {
          "internalType": "bytes32",
          "name": "",
          "type": "bytes32"
        }
      ],
      "stateMutability": "view",
      "type": "function",
      "constant": true
    },
    {
      "inputs": [
        {
          "internalType": "uint256",
          "name": "proposalId",
          "type": "uint256"
        },
        {
          "internalType": "uint8",
          "name": "support",
          "type": "uint8"
        }
      ],
      "name": "castVote",
      "outputs": [
        {
          "internalType": "uint256",
          "name": "",
          "type": "uint256"
        }
      ],
      "stateMutability": "nonpayable",
      "type": "function"
    },
    {
      "inputs": [
        {
          "internalType": "uint256",
          "name": "proposalId",
          "type": "uint256"
        },
        {
          "internalType": "uint8",
          "name": "support",
          "type": "uint8"
        },
        {
          "internalType": "uint8",
          "name": "v",
          "type": "uint8"
        },
        {
          "internalType": "bytes32",
          "name": "r",
          "type": "bytes32"
        },
        {
          "internalType": "bytes32",
          "name": "s",
          "type": "bytes32"
        }
      ],
      "name": "castVoteBySig",
      "outputs": [
        {
          "internalType": "uint256",
          "name": "",
          "type": "uint256"
        }
      ],
      "stateMutability": "nonpayable",
      "type": "function"
    },
    {
      "inputs": [
        {
          "internalType": "uint256",
          "name": "proposalId",
          "type": "uint256"
        },
        {
          "internalType": "uint8",
          "name": "support",
          "type": "uint8"
        },
        {
          "internalType": "string",
          "name": "reason",
          "type": "string"
        }
      ],
      "name": "castVoteWithReason",
      "outputs": [
        {
          "internalType": "uint256",
          "name": "",
          "type": "uint256"
        }
      ],
      "stateMutability": "nonpayable",
      "type": "function"
    },
    {
      "inputs": [
        {
          "internalType": "uint256",
          "name": "proposalId",
          "type": "uint256"
        },
        {
          "internalType": "uint8",
          "name": "support",
          "type": "uint8"
        },
        {
          "internalType": "string",
          "name": "reason",
          "type": "string"
        },
        {
          "internalType": "bytes",
          "name": "params",
          "type": "bytes"
        }
      ],
      "name": "castVoteWithReasonAndParams",
      "outputs": [
        {
          "internalType": "uint256",
          "name": "",
          "type": "uint256"
        }
      ],
      "stateMutability": "nonpayable",
      "type": "function"
    },
    {
      "inputs": [
        {
          "internalType": "uint256",
          "name": "proposalId",
          "type": "uint256"
        },
        {
          "internalType": "uint8",
          "name": "support",
          "type": "uint8"
        },
        {
          "internalType": "string",
          "name": "reason",
          "type": "string"
        },
        {
          "internalType": "bytes",
          "name": "params",
          "type": "bytes"
        },
        {
          "internalType": "uint8",
          "name": "v",
          "type": "uint8"
        },
        {
          "internalType": "bytes32",
          "name": "r",
          "type": "bytes32"
        },
        {
          "internalType": "bytes32",
          "name": "s",
          "type": "bytes32"
        }
      ],
      "name": "castVoteWithReasonAndParamsBySig",
      "outputs": [
        {
          "internalType": "uint256",
          "name": "",
          "type": "uint256"
        }
      ],
      "stateMutability": "nonpayable",
      "type": "function"
    },
    {
      "inputs": [
        {
          "internalType": "address[]",
          "name": "targets",
          "type": "address[]"
        },
        {
          "internalType": "uint256[]",
          "name": "values",
          "type": "uint256[]"
        },
        {
          "internalType": "bytes[]",
          "name": "calldatas",
          "type": "bytes[]"
        },
        {
          "internalType": "bytes32",
          "name": "descriptionHash",
          "type": "bytes32"
        }
      ],
      "name": "execute",
      "outputs": [
        {
          "internalType": "uint256",
          "name": "",
          "type": "uint256"
        }
      ],
      "stateMutability": "payable",
      "type": "function",
      "payable": true
    },
    {
      "inputs": [
        {
          "internalType": "address",
          "name": "account",
          "type": "address"
        },
        {
          "internalType": "uint256",
          "name": "blockNumber",
          "type": "uint256"
        }
      ],
      "name": "getVotes",
      "outputs": [
        {
          "internalType": "uint256",
          "name": "",
          "type": "uint256"
        }
      ],
      "stateMutability": "view",
      "type": "function",
      "constant": true
    },
    {
      "inputs": [
        {
          "internalType": "address",
          "name": "account",
          "type": "address"
        },
        {
          "internalType": "uint256",
          "name": "blockNumber",
          "type": "uint256"
        },
        {
          "internalType": "bytes",
          "name": "params",
          "type": "bytes"
        }
      ],
      "name": "getVotesWithParams",
      "outputs": [
        {
          "internalType": "uint256",
          "name": "",
          "type": "uint256"
        }
      ],
      "stateMutability": "view",
      "type": "function",
      "constant": true
    },
    {
      "inputs": [
        {
          "internalType": "uint256",
          "name": "proposalId",
          "type": "uint256"
        },
        {
          "internalType": "address",
          "name": "account",
          "type": "address"
        }
      ],
      "name": "hasVoted",
      "outputs": [
        {
          "internalType": "bool",
          "name": "",
          "type": "bool"
        }
      ],
      "stateMutability": "view",
      "type": "function",
      "constant": true
    },
    {
      "inputs": [
        {
          "internalType": "address[]",
          "name": "targets",
          "type": "address[]"
        },
        {
          "internalType": "uint256[]",
          "name": "values",
          "type": "uint256[]"
        },
        {
          "internalType": "bytes[]",
          "name": "calldatas",
          "type": "bytes[]"
        },
        {
          "internalType": "bytes32",
          "name": "descriptionHash",
          "type": "bytes32"
        }
      ],
      "name": "hashProposal",
      "outputs": [
        {
          "internalType": "uint256",
          "name": "",
          "type": "uint256"
        }
      ],
      "stateMutability": "pure",
      "type": "function",
      "constant": true
    },
    {
      "inputs": [],
      "name": "name",
      "outputs": [
        {
          "internalType": "string",
          "name": "",
          "type": "string"
        }
      ],
      "stateMutability": "view",
      "type": "function",
      "constant": true
    },
    {
      "inputs": [
        {
          "internalType": "address",
          "name": "",
          "type": "address"
        },
        {
          "internalType": "address",
          "name": "",
          "type": "address"
        },
        {
          "internalType": "uint256[]",
          "name": "",
          "type": "uint256[]"
        },
        {
          "internalType": "uint256[]",
          "name": "",
          "type": "uint256[]"
        },
        {
          "internalType": "bytes",
          "name": "",
          "type": "bytes"
        }
      ],
      "name": "onERC1155BatchReceived",
      "outputs": [
        {
          "internalType": "bytes4",
          "name": "",
          "type": "bytes4"
        }
      ],
      "stateMutability": "nonpayable",
      "type": "function"
    },
    {
      "inputs": [
        {
          "internalType": "address",
          "name": "",
          "type": "address"
        },
        {
          "internalType": "address",
          "name": "",
          "type": "address"
        },
        {
          "internalType": "uint256",
          "name": "",
          "type": "uint256"
        },
        {
          "internalType": "uint256",
          "name": "",
          "type": "uint256"
        },
        {
          "internalType": "bytes",
          "name": "",
          "type": "bytes"
        }
      ],
      "name": "onERC1155Received",
      "outputs": [
        {
          "internalType": "bytes4",
          "name": "",
          "type": "bytes4"
        }
      ],
      "stateMutability": "nonpayable",
      "type": "function"
    },
    {
      "inputs": [
        {
          "internalType": "address",
          "name": "",
          "type": "address"
        },
        {
          "internalType": "address",
          "name": "",
          "type": "address"
        },
        {
          "internalType": "uint256",
          "name": "",
          "type": "uint256"
        },
        {
          "internalType": "bytes",
          "name": "",
          "type": "bytes"
        }
      ],
      "name": "onERC721Received",
      "outputs": [
        {
          "internalType": "bytes4",
          "name": "",
          "type": "bytes4"
        }
      ],
      "stateMutability": "nonpayable",
      "type": "function"
    },
    {
      "inputs": [
        {
          "internalType": "uint256",
          "name": "proposalId",
          "type": "uint256"
        }
      ],
      "name": "proposalDeadline",
      "outputs": [
        {
          "internalType": "uint256",
          "name": "",
          "type": "uint256"
        }
      ],
      "stateMutability": "view",
      "type": "function",
      "constant": true
    },
    {
      "inputs": [
        {
          "internalType": "uint256",
          "name": "proposalId",
          "type": "uint256"
        }
      ],
      "name": "proposalSnapshot",
      "outputs": [
        {
          "internalType": "uint256",
          "name": "",
          "type": "uint256"
        }
      ],
      "stateMutability": "view",
      "type": "function",
      "constant": true
    },
    {
      "inputs": [
        {
          "internalType": "uint256",
          "name": "proposalId",
          "type": "uint256"
        }
      ],
      "name": "proposalVotes",
      "outputs": [
        {
          "internalType": "uint256",
          "name": "againstVotes",
          "type": "uint256"
        },
        {
          "internalType": "uint256",
          "name": "forVotes",
          "type": "uint256"
        },
        {
          "internalType": "uint256",
          "name": "abstainVotes",
          "type": "uint256"
        }
      ],
      "stateMutability": "view",
      "type": "function",
      "constant": true
    },
    {
      "inputs": [],
      "name": "quorumDenominator",
      "outputs": [
        {
          "internalType": "uint256",
          "name": "",
          "type": "uint256"
        }
      ],
      "stateMutability": "view",
      "type": "function",
      "constant": true
    },
    {
      "inputs": [
        {
          "internalType": "uint256",
          "name": "blockNumber",
          "type": "uint256"
        }
      ],
      "name": "quorumNumerator",
      "outputs": [
        {
          "internalType": "uint256",
          "name": "",
          "type": "uint256"
        }
      ],
      "stateMutability": "view",
      "type": "function",
      "constant": true
    },
    {
      "inputs": [],
      "name": "quorumNumerator",
      "outputs": [
        {
          "internalType": "uint256",
          "name": "",
          "type": "uint256"
        }
      ],
      "stateMutability": "view",
      "type": "function",
      "constant": true
    },
    {
      "inputs": [
        {
          "internalType": "address",
          "name": "target",
          "type": "address"
        },
        {
          "internalType": "uint256",
          "name": "value",
          "type": "uint256"
        },
        {
          "internalType": "bytes",
          "name": "data",
          "type": "bytes"
        }
      ],
      "name": "relay",
      "outputs": [],
      "stateMutability": "payable",
      "type": "function",
      "payable": true
    },
    {
      "inputs": [
        {
          "internalType": "uint256",
          "name": "newProposalThreshold",
          "type": "uint256"
        }
      ],
      "name": "setProposalThreshold",
      "outputs": [],
      "stateMutability": "nonpayable",
      "type": "function"
    },
    {
      "inputs": [
        {
          "internalType": "uint256",
          "name": "newVotingDelay",
          "type": "uint256"
        }
      ],
      "name": "setVotingDelay",
      "outputs": [],
      "stateMutability": "nonpayable",
      "type": "function"
    },
    {
      "inputs": [
        {
          "internalType": "uint256",
          "name": "newVotingPeriod",
          "type": "uint256"
        }
      ],
      "name": "setVotingPeriod",
      "outputs": [],
      "stateMutability": "nonpayable",
      "type": "function"
    },
    {
      "inputs": [],
      "name": "token",
      "outputs": [
        {
          "internalType": "contract IVotes",
          "name": "",
          "type": "address"
        }
      ],
      "stateMutability": "view",
      "type": "function",
      "constant": true
    },
    {
      "inputs": [
        {
          "internalType": "uint256",
          "name": "newQuorumNumerator",
          "type": "uint256"
        }
      ],
      "name": "updateQuorumNumerator",
      "outputs": [],
      "stateMutability": "nonpayable",
      "type": "function"
    },
    {
      "inputs": [],
      "name": "version",
      "outputs": [
        {
          "internalType": "string",
          "name": "",
          "type": "string"
        }
      ],
      "stateMutability": "view",
      "type": "function",
      "constant": true
    },
    {
      "stateMutability": "payable",
      "type": "receive",
      "payable": true
    },
    {
      "inputs": [],
      "name": "votingDelay",
      "outputs": [
        {
          "internalType": "uint256",
          "name": "",
          "type": "uint256"
        }
      ],
      "stateMutability": "view",
      "type": "function",
      "constant": true
    },
    {
      "inputs": [],
      "name": "votingPeriod",
      "outputs": [
        {
          "internalType": "uint256",
          "name": "",
          "type": "uint256"
        }
      ],
      "stateMutability": "view",
      "type": "function",
      "constant": true
    },
    {
      "inputs": [
        {
          "internalType": "uint256",
          "name": "blockNumber",
          "type": "uint256"
        }
      ],
      "name": "quorum",
      "outputs": [
        {
          "internalType": "uint256",
          "name": "",
          "type": "uint256"
        }
      ],
      "stateMutability": "view",
      "type": "function",
      "constant": true
    },
    {
      "inputs": [
        {
          "internalType": "uint256",
          "name": "proposalId",
          "type": "uint256"
        }
      ],
      "name": "state",
      "outputs": [
        {
          "internalType": "enum IGovernor.ProposalState",
          "name": "",
          "type": "uint8"
        }
      ],
      "stateMutability": "view",
      "type": "function",
      "constant": true
    },
    {
      "inputs": [
        {
          "internalType": "address[]",
          "name": "targets",
          "type": "address[]"
        },
        {
          "internalType": "uint256[]",
          "name": "values",
          "type": "uint256[]"
        },
        {
          "internalType": "bytes[]",
          "name": "calldatas",
          "type": "bytes[]"
        },
        {
          "internalType": "string",
          "name": "description",
          "type": "string"
        }
      ],
      "name": "propose",
      "outputs": [
        {
          "internalType": "uint256",
          "name": "",
          "type": "uint256"
        }
      ],
      "stateMutability": "nonpayable",
      "type": "function"
    },
    {
      "inputs": [],
      "name": "proposalThreshold",
      "outputs": [
        {
          "internalType": "uint256",
          "name": "",
          "type": "uint256"
        }
      ],
      "stateMutability": "view",
      "type": "function",
      "constant": true
    },
    {
      "inputs": [
        {
          "internalType": "bytes4",
          "name": "interfaceId",
          "type": "bytes4"
        }
      ],
      "name": "supportsInterface",
      "outputs": [
        {
          "internalType": "bool",
          "name": "",
          "type": "bool"
        }
      ],
      "stateMutability": "view",
      "type": "function",
      "constant": true
    }
  ],
  "bytecode": "0x6101606040523480156200001257600080fd5b5060405162003c1938038062003c19833981016040819052620000359162000776565b600481600161c4e060016040518060400160405280600b81526020016a26a622a3b7bb32b93737b960a91b81525080620000746200015860201b60201c565b815160209283012081519183019190912060e08290526101008190524660a0818152604080517f8b73c3c69bb8fe3d512ecc4cf759cc79239f7b179b0ffacaa9a75d522b39400f818801819052818301969096526060810194909452608080850193909352308483018190528151808603909301835260c09485019091528151919095012090529190915261012052600062000111828262000846565b506200011f90508362000173565b6200012a82620001b4565b62000135816200025b565b5050506001600160a01b03166101405262000150816200029c565b50506200093a565b6040805180820190915260018152603160f81b602082015290565b60045460408051918252602082018390527fc565b045403dc03c2eea82b81a0465edad9e2e7fc4d97e11421c209da93d7a93910160405180910390a1600455565b600081116200021a5760405162461bcd60e51b815260206004820152602760248201527f476f7665726e6f7253657474696e67733a20766f74696e6720706572696f6420604482015266746f6f206c6f7760c81b60648201526084015b60405180910390fd5b60055460408051918252602082018390527f7e3f7f0708a84de9203036abaa450dccc85ad5ff52f78c170f3edb55cf5e8828910160405180910390a1600555565b60065460408051918252602082018390527fccb45da8d5717e6c4544694297c4ba5cf151d455c9bb0ed4fc7a38411bc05461910160405180910390a1600655565b6064811115620003215760405162461bcd60e51b815260206004820152604360248201527f476f7665726e6f72566f74657351756f72756d4672616374696f6e3a2071756f60448201527f72756d4e756d657261746f72206f7665722071756f72756d44656e6f6d696e616064820152623a37b960e91b608482015260a40162000211565b60006200032d62000414565b905080158015906200033f5750600954155b15620003ba5760096000016040518060400160405280600063ffffffff16815260200162000378846200044c60201b62000ecb1760201c565b6001600160e01b0390811690915282546001810184556000938452602093849020835194909301519091166401000000000263ffffffff909316929092179101555b620003d5826009620004bb60201b62000f381790919060201c565b505060408051828152602081018490527f0553476bf02ef2726e8ce5ced78d63e26e602e4a2257b1f559418e24b4633997910160405180910390a15050565b6009546000901562000445576200043760096200050e60201b62000f6e1760201c565b6001600160e01b0316905090565b5060085490565b60006001600160e01b03821115620004b75760405162461bcd60e51b815260206004820152602760248201527f53616665436173743a2076616c756520646f65736e27742066697420696e20326044820152663234206269747360c81b606482015260840162000211565b5090565b600080620004f884600001620004dc436200055c60201b62000fb51760201c565b620004f2866200044c60201b62000ecb1760201c565b620005c3565b6001600160e01b03918216969116945092505050565b8054600090801562000552576200053a836200052c60018462000912565b600091825260209091200190565b5464010000000090046001600160e01b031662000555565b60005b9392505050565b600063ffffffff821115620004b75760405162461bcd60e51b815260206004820152602660248201527f53616665436173743a2076616c756520646f65736e27742066697420696e203360448201526532206269747360d01b606482015260840162000211565b82546000908190801562000718576000620005e5876200052c60018562000912565b60408051808201909152905463ffffffff8082168084526401000000009092046001600160e01b031660208401529192509087161015620006695760405162461bcd60e51b815260206004820152601760248201527f436865636b706f696e743a20696e76616c6964206b6579000000000000000000604482015260640162000211565b805163ffffffff808816911603620006b757846200068e886200052c60018662000912565b80546001600160e01b03929092166401000000000263ffffffff90921691909117905562000707565b6040805180820190915263ffffffff80881682526001600160e01b0380881660208085019182528b54600181018d5560008d81529190912094519151909216640100000000029216919091179101555b6020015192508391506200076e9050565b50506040805180820190915263ffffffff80851682526001600160e01b0380851660208085019182528854600181018a5560008a8152918220955192519093166401000000000291909316179201919091559050815b935093915050565b6000602082840312156200078957600080fd5b81516001600160a01b03811681146200055557600080fd5b634e487b7160e01b600052604160045260246000fd5b600181811c90821680620007cc57607f821691505b602082108103620007ed57634e487b7160e01b600052602260045260246000fd5b50919050565b601f8211156200084157600081815260208120601f850160051c810160208610156200081c5750805b601f850160051c820191505b818110156200083d5782815560010162000828565b5050505b505050565b81516001600160401b03811115620008625762000862620007a1565b6200087a81620008738454620007b7565b84620007f3565b602080601f831160018114620008b25760008415620008995750858301515b600019600386901b1c1916600185901b1785556200083d565b600085815260208120601f198616915b82811015620008e357888601518255948401946001909101908401620008c2565b5085821015620009025787850151600019600388901b60f8161c191681555b5050505050600190811b01905550565b818103818111156200093457634e487b7160e01b600052601160045260246000fd5b92915050565b60805160a05160c05160e051610100516101205161014051613276620009a3600039600081816106fd0152818161199c0152611b2501526000611dd301526000611e2201526000611dfd01526000611d5601526000611d8001526000611daa01526132766000f3fe6080604052600436106101ae5760003560e01c806301ffc9a7146101bc57806302a251a3146101f1578063034201811461021457806306f3f9e61461023457806306fdde0314610254578063150b7a02146102765780632656227d146102ba5780632d63f693146102cd5780632fe3e261146102ed5780633932abb11461030f5780633bccf4fd146103245780633e4f49e6146103445780634385963214610371578063544ffc9c146103bb57806354fd4d5014610410578063567813881461043a5780635f398a141461045a57806360c4247f1461047a57806370b0f6601461049a5780637b3c71d3146104ba5780637d5e81e2146104da57806397c3d334146104fa5780639a802a6d1461050e578063a7713a701461052e578063b58131b014610543578063bc197c8114610558578063c01f9e3714610584578063c28bc2fa146105a4578063c59057e4146105b7578063dd4e2ba5146105d7578063deaaa7cc1461061d578063ea0217cf1461063f578063eb9019d41461065f578063ece40cc11461067f578063f23a6e611461069f578063f8ce560a146106cb578063fc0c546a146106eb57600080fd5b366101b757005b005b600080fd5b3480156101c857600080fd5b506101dc6101d736600461247a565b61073c565b60405190151581526020015b60405180910390f35b3480156101fd57600080fd5b5061020661074d565b6040519081526020016101e8565b34801561022057600080fd5b5061020661022f3660046125b8565b610758565b34801561024057600080fd5b506101b561024f36600461265e565b61083e565b34801561026057600080fd5b50610269610889565b6040516101e891906126c7565b34801561028257600080fd5b506102a16102913660046126f1565b630a85bd0160e11b949350505050565b6040516001600160e01b031990911681526020016101e8565b6102066102c83660046128c7565b61091b565b3480156102d957600080fd5b506102066102e836600461265e565b610a42565b3480156102f957600080fd5b506102066000805160206131fa83398151915281565b34801561031b57600080fd5b50610206610a79565b34801561033057600080fd5b5061020661033f366004612956565b610a84565b34801561035057600080fd5b5061036461035f36600461265e565b610ae8565b6040516101e891906129ba565b34801561037d57600080fd5b506101dc61038c3660046129e2565b60008281526007602090815260408083206001600160a01b038516845260030190915290205460ff1692915050565b3480156103c757600080fd5b506103f56103d636600461265e565b6000908152600760205260409020805460018201546002909201549092565b604080519384526020840192909252908201526060016101e8565b34801561041c57600080fd5b506040805180820190915260018152603160f81b6020820152610269565b34801561044657600080fd5b50610206610455366004612a0e565b610af3565b34801561046657600080fd5b50610206610475366004612a31565b610b1c565b34801561048657600080fd5b5061020661049536600461265e565b610b66565b3480156104a657600080fd5b506101b56104b536600461265e565b610bfd565b3480156104c657600080fd5b506102066104d5366004612ab4565b610c3c565b3480156104e657600080fd5b506102066104f5366004612b0d565b610c8e565b34801561050657600080fd5b506064610206565b34801561051a57600080fd5b50610206610529366004612bc1565b610ca5565b34801561053a57600080fd5b50610206610cbc565b34801561054f57600080fd5b50610206610ce6565b34801561056457600080fd5b506102a1610573366004612c17565b63bc197c8160e01b95945050505050565b34801561059057600080fd5b5061020661059f36600461265e565b610cf1565b6101b56105b2366004612ca6565b610d20565b3480156105c357600080fd5b506102066105d23660046128c7565b610de7565b3480156105e357600080fd5b506040805180820190915260208082527f737570706f72743d627261766f2671756f72756d3d666f722c6162737461696e90820152610269565b34801561062957600080fd5b506102066000805160206131da83398151915281565b34801561064b57600080fd5b506101b561065a36600461265e565b610e21565b34801561066b57600080fd5b5061020661067a366004612ce7565b610e60565b34801561068b57600080fd5b506101b561069a36600461265e565b610e81565b3480156106ab57600080fd5b506102a16106ba366004612d11565b63f23a6e6160e01b95945050505050565b3480156106d757600080fd5b506102066106e636600461265e565b610ec0565b3480156106f757600080fd5b5061071f7f000000000000000000000000000000000000000000000000000000000000000081565b6040516001600160a01b0390911681526020016101e8565b905090565b60006107478261101a565b92915050565b600061073760055490565b6000806107ea6107e26000805160206131fa8339815191528c8c8c8c604051610782929190612d75565b60405180910390208b805190602001206040516020016107c7959493929190948552602085019390935260ff9190911660408401526060830152608082015260a00190565b60405160208183030381529060405280519060200120611085565b8686866110d3565b90506108308a828b8b8b8080601f0160208091040260200160405190810160405280939291908181526020018383808284376000920191909152508d92506110f1915050565b9a9950505050505050505050565b3330146108665760405162461bcd60e51b815260040161085d90612d85565b60405180910390fd5b61087d565b806108766002611256565b0361086b57505b610886816112cc565b50565b60606000805461089890612db7565b80601f01602080910402602001604051908101604052809291908181526020018280546108c490612db7565b80156109115780601f106108e657610100808354040283529160200191610911565b820191906000526020600020905b8154815290600101906020018083116108f457829003601f168201915b5050505050905090565b60008061092a86868686610de7565b9050600061093782610ae8565b9050600481600781111561094d5761094d6129a4565b148061096a57506005816007811115610968576109686129a4565b145b6109c05760405162461bcd60e51b815260206004820152602160248201527f476f7665726e6f723a2070726f706f73616c206e6f74207375636365737366756044820152601b60fa1b606482015260840161085d565b600082815260016020818152604092839020600201805460ff191690921790915590518381527f712ae1383f79ac853f8d882153778e0260ef8f03b504e2866e0593e04d2b291f910160405180910390a1610a1e8288888888611418565b610a2b82888888886114a5565b610a388288888888611418565b5095945050505050565b60008181526001602090815260408083208151928301909152546001600160401b0316908190525b6001600160401b031692915050565b600061073760045490565b604080516000805160206131da833981519152602082015290810186905260ff851660608201526000908190610ac0906107e2906080016107c7565b9050610add878288604051806020016040528060008152506114b2565b979650505050505050565b6000610747826114d5565b600080339050610b14848285604051806020016040528060008152506114b2565b949350505050565b600080339050610add87828888888080601f0160208091040260200160405190810160405280939291908181526020018383808284376000920191909152508a92506110f1915050565b600954600090808203610b7d575050600854919050565b60006009610b8c600184612e07565b81548110610b9c57610b9c612e1a565b60009182526020918290206040805180820190915291015463ffffffff8116808352600160201b9091046001600160e01b03169282019290925291508410610bf257602001516001600160e01b03169392505050565b610b146009856115e4565b333014610c1c5760405162461bcd60e51b815260040161085d90612d85565b610c33565b80610c2c6002611256565b03610c2157505b61088681611696565b600080339050610c8486828787878080601f0160208091040260200160405190810160405280939291908181526020018383808284376000920191909152506114b292505050565b9695505050505050565b6000610c9c858585856116d6565b95945050505050565b6000610cb2848484611973565b90505b9392505050565b60095460009015610cdf57610cd16009610f6e565b6001600160e01b0316905090565b5060085490565b600061073760065490565b60008181526001602081815260408084208151928301909152909101546001600160401b031690819052610a6a565b333014610d3f5760405162461bcd60e51b815260040161085d90612d85565b610d56565b80610d4f6002611256565b03610d4457505b600080856001600160a01b0316858585604051610d74929190612d75565b60006040518083038185875af1925050503d8060008114610db1576040519150601f19603f3d011682016040523d82523d6000602084013e610db6565b606091505b5091509150610dde82826040518060600160405280602881526020016131b260289139611a09565b50505050505050565b600084848484604051602001610e009493929190612ef9565b60408051601f19818403018152919052805160209091012095945050505050565b333014610e405760405162461bcd60e51b815260040161085d90612d85565b610e57565b80610e506002611256565b03610e4557505b61088681611a22565b6000610cb58383610e7c60408051602081019091526000815290565b611973565b333014610ea05760405162461bcd60e51b815260040161085d90612d85565b610eb7565b80610eb06002611256565b03610ea557505b61088681611ac2565b600061074782611b02565b60006001600160e01b03821115610f345760405162461bcd60e51b815260206004820152602760248201527f53616665436173743a2076616c756520646f65736e27742066697420696e20326044820152663234206269747360c81b606482015260840161085d565b5090565b600080610f5684610f4843610fb5565b610f5186610ecb565b611bac565b6001600160e01b0391821693501690505b9250929050565b80546000908015610fac57610f9683610f88600184612e07565b600091825260209091200190565b54600160201b90046001600160e01b0316610cb5565b60009392505050565b600063ffffffff821115610f345760405162461bcd60e51b815260206004820152602660248201527f53616665436173743a2076616c756520646f65736e27742066697420696e203360448201526532206269747360d01b606482015260840161085d565b60006001600160e01b0319821663bf26d89760e01b148061104b57506001600160e01b031982166379dd796f60e01b145b8061106657506001600160e01b03198216630271189760e51b145b8061074757506301ffc9a760e01b6001600160e01b0319831614610747565b6000610747611092611d49565b8360405161190160f01b6020820152602281018390526042810182905260009060620160405160208183030381529060405280519060200120905092915050565b60008060006110e487878787611e70565b91509150610a3881611f2a565b600085815260016020819052604082209061110b88610ae8565b600781111561111c5761111c6129a4565b146111755760405162461bcd60e51b815260206004820152602360248201527f476f7665726e6f723a20766f7465206e6f742063757272656e746c792061637460448201526269766560e81b606482015260840161085d565b604080516020810190915281546001600160401b03169081905260009061119e90889086611973565b90506111ad888888848861206f565b835160000361120257866001600160a01b03167fb8e138887d0aa13bab447e82de9d5c1777041ecd21ca36ba824ff1e6c07ddda4898884896040516111f59493929190612f44565b60405180910390a2610add565b866001600160a01b03167fe2babfbac5889a709b63bb7f598b324e08bc5a4fb9ec647fb3cbc9ec07eb87128988848989604051611243959493929190612f6c565b60405180910390a2979650505050505050565b60006112718254600f81810b600160801b909204900b131590565b1561128f57604051631ed9509560e11b815260040160405180910390fd5b508054600f0b6000818152600180840160205260408220805492905583546001600160801b03191692016001600160801b03169190911790915590565b606481111561134f5760405162461bcd60e51b815260206004820152604360248201527f476f7665726e6f72566f74657351756f72756d4672616374696f6e3a2071756f60448201527f72756d4e756d657261746f72206f7665722071756f72756d44656e6f6d696e616064820152623a37b960e91b608482015260a40161085d565b6000611359610cbc565b9050801580159061136a5750600954155b156113ce5760408051808201909152600081526009906020810161138d84610ecb565b6001600160e01b039081169091528254600181018455600093845260209384902083519490930151909116600160201b0263ffffffff909316929092179101555b6113d9600983610f38565b50507f0553476bf02ef2726e8ce5ced78d63e26e602e4a2257b1f559418e24b4633997818360405161140c929190612fb2565b60405180910390a15050565b61149e565b845181101561149c57306001600160a01b031685828151811061144257611442612e1a565b60200260200101516001600160a01b03160361148c5761148c83828151811061146d5761146d612e1a565b60200260200101518051906020012060026121e990919063ffffffff16565b61149581612fc0565b905061141d565b505b5050505050565b61149e8585858585612225565b6000610c9c858585856114d060408051602081019091526000815290565b6110f1565b6000818152600160205260408120600281015460ff16156114f95750600792915050565b6002810154610100900460ff16156115145750600292915050565b600061151f84610a42565b9050806000036115715760405162461bcd60e51b815260206004820152601d60248201527f476f7665726e6f723a20756e6b6e6f776e2070726f706f73616c206964000000604482015260640161085d565b438110611582575060009392505050565b600061158d85610cf1565b90504381106115a157506001949350505050565b6115aa8561231b565b80156115c9575060008581526007602052604090208054600190910154115b156115d957506004949350505050565b506003949350505050565b60004382106116355760405162461bcd60e51b815260206004820181905260248201527f436865636b706f696e74733a20626c6f636b206e6f7420796574206d696e6564604482015260640161085d565b600061164083610fb5565b8454909150600061165386848385612352565b905080156116805761166a86610f88600184612e07565b54600160201b90046001600160e01b0316611683565b60005b6001600160e01b03169695505050505050565b7fc565b045403dc03c2eea82b81a0465edad9e2e7fc4d97e11421c209da93d7a93600454826040516116c9929190612fb2565b60405180910390a1600455565b60006116e0610ce6565b6116ef3361067a600143612e07565b10156117575760405162461bcd60e51b815260206004820152603160248201527f476f7665726e6f723a2070726f706f73657220766f7465732062656c6f7720706044820152701c9bdc1bdcd85b081d1a1c995cda1bdb19607a1b606482015260840161085d565b600061176c8686868680519060200120610de7565b9050845186511461178f5760405162461bcd60e51b815260040161085d90612fd9565b83518651146117b05760405162461bcd60e51b815260040161085d90612fd9565b60008651116117fc5760405162461bcd60e51b815260206004820152601860248201527711dbdd995c9b9bdc8e88195b5c1d1e481c1c9bdc1bdcd85b60421b604482015260640161085d565b600081815260016020908152604091829020825191820190925281546001600160401b0316908190521561187c5760405162461bcd60e51b815260206004820152602160248201527f476f7665726e6f723a2070726f706f73616c20616c72656164792065786973746044820152607360f81b606482015260840161085d565b600061188e611889610a79565b6123b0565b611897436123b0565b6118a1919061301a565b905060006118b061188961074d565b6118ba908361301a565b90506118c68383612418565b6118d36001840182612418565b7f7d84a6263ae0d98d3329bd7b46bb4e8d6f98cd35a7adb45c274c8b7fd5ebd5e084338b8b8d516001600160401b03811115611911576119116124fb565b60405190808252806020026020018201604052801561194457816020015b606081526020019060019003908161192f5790505b508c88888e60405161195e99989796959493929190613041565b60405180910390a15091979650505050505050565b604051630748d63560e31b81526001600160a01b038481166004830152602482018490526000917f000000000000000000000000000000000000000000000000000000000000000090911690633a46b1a890604401602060405180830381865afa1580156119e5573d6000803e3d6000fd5b505050506040513d601f19601f82011682018060405250810190610cb29190613130565b60608315611a18575081610cb5565b610cb58383612435565b60008111611a825760405162461bcd60e51b815260206004820152602760248201527f476f7665726e6f7253657474696e67733a20766f74696e6720706572696f6420604482015266746f6f206c6f7760c81b606482015260840161085d565b7f7e3f7f0708a84de9203036abaa450dccc85ad5ff52f78c170f3edb55cf5e882860055482604051611ab5929190612fb2565b60405180910390a1600555565b7fccb45da8d5717e6c4544694297c4ba5cf151d455c9bb0ed4fc7a38411bc0546160065482604051611af5929190612fb2565b60405180910390a1600655565b60006064611b0f83610b66565b604051632394e7a360e21b8152600481018590527f00000000000000000000000000000000000000000000000000000000000000006001600160a01b031690638e539e8c90602401602060405180830381865afa158015611b74573d6000803e3d6000fd5b505050506040513d601f19601f82011682018060405250810190611b989190613130565b611ba29190613149565b6107479190613160565b825460009081908015611cec576000611bca87610f88600185612e07565b60408051808201909152905463ffffffff808216808452600160201b9092046001600160e01b031660208401529192509087161015611c455760405162461bcd60e51b8152602060048201526017602482015276436865636b706f696e743a20696e76616c6964206b657960481b604482015260640161085d565b805163ffffffff808816911603611c8d5784611c6688610f88600186612e07565b80546001600160e01b0392909216600160201b0263ffffffff909216919091179055611cdc565b6040805180820190915263ffffffff80881682526001600160e01b0380881660208085019182528b54600181018d5560008d81529190912094519151909216600160201b029216919091179101555b602001519250839150611d419050565b50506040805180820190915263ffffffff80851682526001600160e01b0380851660208085019182528854600181018a5560008a815291822095519251909316600160201b0291909316179201919091559050815b935093915050565b6000306001600160a01b037f000000000000000000000000000000000000000000000000000000000000000016148015611da257507f000000000000000000000000000000000000000000000000000000000000000046145b15611dcc57507f000000000000000000000000000000000000000000000000000000000000000090565b50604080517f00000000000000000000000000000000000000000000000000000000000000006020808301919091527f0000000000000000000000000000000000000000000000000000000000000000828401527f000000000000000000000000000000000000000000000000000000000000000060608301524660808301523060a0808401919091528351808403909101815260c0909201909252805191012090565b6000806fa2a8918ca85bafe22016d0b997e4df60600160ff1b03831115611e9d5750600090506003611f21565b6040805160008082526020820180845289905260ff881692820192909252606081018690526080810185905260019060a0016020604051602081039080840390855afa158015611ef1573d6000803e3d6000fd5b5050604051601f1901519150506001600160a01b038116611f1a57600060019250925050611f21565b9150600090505b94509492505050565b6000816004811115611f3e57611f3e6129a4565b03611f465750565b6001816004811115611f5a57611f5a6129a4565b03611fa25760405162461bcd60e51b815260206004820152601860248201527745434453413a20696e76616c6964207369676e617475726560401b604482015260640161085d565b6002816004811115611fb657611fb66129a4565b036120035760405162461bcd60e51b815260206004820152601f60248201527f45434453413a20696e76616c6964207369676e6174757265206c656e67746800604482015260640161085d565b6003816004811115612017576120176129a4565b036108865760405162461bcd60e51b815260206004820152602260248201527f45434453413a20696e76616c6964207369676e6174757265202773272076616c604482015261756560f01b606482015260840161085d565b60008581526007602090815260408083206001600160a01b0388168452600381019092529091205460ff16156120f75760405162461bcd60e51b815260206004820152602760248201527f476f7665726e6f72566f74696e6753696d706c653a20766f746520616c726561604482015266191e4818d85cdd60ca1b606482015260840161085d565b6001600160a01b03851660009081526003820160205260409020805460ff1916600117905560ff841661214357828160000160008282546121389190613182565b9091555061149c9050565b60001960ff85160161216357828160010160008282546121389190613182565b60011960ff85160161218357828160020160008282546121389190613182565b60405162461bcd60e51b815260206004820152603560248201527f476f7665726e6f72566f74696e6753696d706c653a20696e76616c69642076616044820152746c756520666f7220656e756d20566f74655479706560581b606482015260840161085d565b8154600160801b90819004600f0b6000818152600180860160205260409091209390935583546001600160801b03908116939091011602179055565b600060405180606001604052806027815260200161321a60279139905060005b8551811015610dde5760008087838151811061226357612263612e1a565b60200260200101516001600160a01b031687848151811061228657612286612e1a565b60200260200101518785815181106122a0576122a0612e1a565b60200260200101516040516122b59190613195565b60006040518083038185875af1925050503d80600081146122f2576040519150601f19603f3d011682016040523d82523d6000602084013e6122f7565b606091505b5091509150612307828286611a09565b5050508061231490612fc0565b9050612245565b60008181526007602052604081206002810154600182015461233d9190613182565b6123496106e685610a42565b11159392505050565b60005b818310156123a8576000612369848461245f565b60008781526020902090915063ffffffff86169082015463ffffffff161115612394578092506123a2565b61239f816001613182565b93505b50612355565b509392505050565b60006001600160401b03821115610f345760405162461bcd60e51b815260206004820152602660248201527f53616665436173743a2076616c756520646f65736e27742066697420696e203660448201526534206269747360d01b606482015260840161085d565b81546001600160401b0319166001600160401b0391909116179055565b8151156124455781518083602001fd5b8060405162461bcd60e51b815260040161085d91906126c7565b600061246e6002848418613160565b610cb590848416613182565b60006020828403121561248c57600080fd5b81356001600160e01b031981168114610cb557600080fd5b803560ff811681146124b557600080fd5b919050565b60008083601f8401126124cc57600080fd5b5081356001600160401b038111156124e357600080fd5b602083019150836020828501011115610f6757600080fd5b634e487b7160e01b600052604160045260246000fd5b604051601f8201601f191681016001600160401b0381118282101715612539576125396124fb565b604052919050565b60006001600160401b0383111561255a5761255a6124fb565b61256d601f8401601f1916602001612511565b905082815283838301111561258157600080fd5b828260208301376000602084830101529392505050565b600082601f8301126125a957600080fd5b610cb583833560208501612541565b60008060008060008060008060e0898b0312156125d457600080fd5b883597506125e460208a016124a4565b965060408901356001600160401b038082111561260057600080fd5b61260c8c838d016124ba565b909850965060608b013591508082111561262557600080fd5b506126328b828c01612598565b94505061264160808a016124a4565b925060a0890135915060c089013590509295985092959890939650565b60006020828403121561267057600080fd5b5035919050565b60005b8381101561269257818101518382015260200161267a565b50506000910152565b600081518084526126b3816020860160208601612677565b601f01601f19169290920160200192915050565b602081526000610cb5602083018461269b565b80356001600160a01b03811681146124b557600080fd5b6000806000806080858703121561270757600080fd5b612710856126da565b935061271e602086016126da565b92506040850135915060608501356001600160401b0381111561274057600080fd5b61274c87828801612598565b91505092959194509250565b60006001600160401b03821115612771576127716124fb565b5060051b60200190565b600082601f83011261278c57600080fd5b813560206127a161279c83612758565b612511565b82815260059290921b840181019181810190868411156127c057600080fd5b8286015b848110156127e2576127d5816126da565b83529183019183016127c4565b509695505050505050565b600082601f8301126127fe57600080fd5b8135602061280e61279c83612758565b82815260059290921b8401810191818101908684111561282d57600080fd5b8286015b848110156127e25780358352918301918301612831565b600082601f83011261285957600080fd5b8135602061286961279c83612758565b82815260059290921b8401810191818101908684111561288857600080fd5b8286015b848110156127e25780356001600160401b038111156128ab5760008081fd5b6128b98986838b0101612598565b84525091830191830161288c565b600080600080608085870312156128dd57600080fd5b84356001600160401b03808211156128f457600080fd5b6129008883890161277b565b9550602087013591508082111561291657600080fd5b612922888389016127ed565b9450604087013591508082111561293857600080fd5b5061294587828801612848565b949793965093946060013593505050565b600080600080600060a0868803121561296e57600080fd5b8535945061297e602087016124a4565b935061298c604087016124a4565b94979396509394606081013594506080013592915050565b634e487b7160e01b600052602160045260246000fd5b60208101600883106129dc57634e487b7160e01b600052602160045260246000fd5b91905290565b600080604083850312156129f557600080fd5b82359150612a05602084016126da565b90509250929050565b60008060408385031215612a2157600080fd5b82359150612a05602084016124a4565b600080600080600060808688031215612a4957600080fd5b85359450612a59602087016124a4565b935060408601356001600160401b0380821115612a7557600080fd5b612a8189838a016124ba565b90955093506060880135915080821115612a9a57600080fd5b50612aa788828901612598565b9150509295509295909350565b60008060008060608587031215612aca57600080fd5b84359350612ada602086016124a4565b925060408501356001600160401b03811115612af557600080fd5b612b01878288016124ba565b95989497509550505050565b60008060008060808587031215612b2357600080fd5b84356001600160401b0380821115612b3a57600080fd5b612b468883890161277b565b95506020870135915080821115612b5c57600080fd5b612b68888389016127ed565b94506040870135915080821115612b7e57600080fd5b612b8a88838901612848565b93506060870135915080821115612ba057600080fd5b508501601f81018713612bb257600080fd5b61274c87823560208401612541565b600080600060608486031215612bd657600080fd5b612bdf846126da565b92506020840135915060408401356001600160401b03811115612c0157600080fd5b612c0d86828701612598565b9150509250925092565b600080600080600060a08688031215612c2f57600080fd5b612c38866126da565b9450612c46602087016126da565b935060408601356001600160401b0380821115612c6257600080fd5b612c6e89838a016127ed565b94506060880135915080821115612c8457600080fd5b612c9089838a016127ed565b93506080880135915080821115612a9a57600080fd5b60008060008060608587031215612cbc57600080fd5b612cc5856126da565b93506020850135925060408501356001600160401b03811115612af557600080fd5b60008060408385031215612cfa57600080fd5b612d03836126da565b946020939093013593505050565b600080600080600060a08688031215612d2957600080fd5b612d32866126da565b9450612d40602087016126da565b9350604086013592506060860135915060808601356001600160401b03811115612d6957600080fd5b612aa788828901612598565b8183823760009101908152919050565b602080825260189082015277476f7665726e6f723a206f6e6c79476f7665726e616e636560401b604082015260600190565b600181811c90821680612dcb57607f821691505b602082108103612deb57634e487b7160e01b600052602260045260246000fd5b50919050565b634e487b7160e01b600052601160045260246000fd5b8181038181111561074757610747612df1565b634e487b7160e01b600052603260045260246000fd5b600081518084526020808501945080840160005b83811015612e695781516001600160a01b031687529582019590820190600101612e44565b509495945050505050565b600081518084526020808501945080840160005b83811015612e6957815187529582019590820190600101612e88565b600081518084526020808501808196508360051b8101915082860160005b85811015612eec578284038952612eda84835161269b565b98850198935090840190600101612ec2565b5091979650505050505050565b608081526000612f0c6080830187612e30565b8281036020840152612f1e8187612e74565b90508281036040840152612f328186612ea4565b91505082606083015295945050505050565b84815260ff84166020820152826040820152608060608201526000610c84608083018461269b565b85815260ff8516602082015283604082015260a060608201526000612f9460a083018561269b565b8281036080840152612fa6818561269b565b98975050505050505050565b918252602082015260400190565b600060018201612fd257612fd2612df1565b5060010190565b60208082526021908201527f476f7665726e6f723a20696e76616c69642070726f706f73616c206c656e67746040820152600d60fb1b606082015260800190565b6001600160401b0381811683821601908082111561303a5761303a612df1565b5092915050565b60006101208b8352602060018060a01b038c168185015281604085015261306a8285018c612e30565b9150838203606085015261307e828b612e74565b915083820360808501528189518084528284019150828160051b850101838c0160005b838110156130cf57601f198784030185526130bd83835161269b565b948601949250908501906001016130a1565b505086810360a08801526130e3818c612ea4565b9450505050506130fe60c08401876001600160401b03169052565b6001600160401b03851660e0840152828103610100840152613120818561269b565b9c9b505050505050505050505050565b60006020828403121561314257600080fd5b5051919050565b808202811582820484141761074757610747612df1565b60008261317d57634e487b7160e01b600052601260045260246000fd5b500490565b8082018082111561074757610747612df1565b600082516131a7818460208701612677565b919091019291505056fe476f7665726e6f723a2072656c617920726576657274656420776974686f7574206d657373616765150214d74d59b7d1e90c73fc22ef3d991dd0a76b046543d4d80ab92d2a50328fb3b3f3b703cd84ce352197dcff232b1b5d3cfb2025ce47cf04742d0651f1af88476f7665726e6f723a2063616c6c20726576657274656420776974686f7574206d657373616765a26469706673582212205a998ba9209be449527dbac77a3b54f71d34ed7f71e3a21ab2f48fb6340f8e7864736f6c63430008110033",
  "immutableReferences": {
    "3811": [
      {
        "length": 32,
        "start": 1789
      },
      {
        "length": 32,
        "start": 6556
      },
      {
        "length": 32,
        "start": 6949
      }
    ],
    "8369": [
      {
        "length": 32,
        "start": 7594
      }
    ],
    "8371": [
      {
        "length": 32,
        "start": 7552
      }
    ],
    "8373": [
      {
        "length": 32,
        "start": 7510
      }
    ],
    "8375": [
      {
        "length": 32,
        "start": 7677
      }
    ],
    "8377": [
      {
        "length": 32,
        "start": 7714
      }
    ],
    "8379": [
      {
        "length": 32,
        "start": 7635
      }
    ]
  },
  "source": "// SPDX-License-Identifier: MIT\npragma solidity >=0.8.17;\n\nimport \"@openzeppelin/contracts/governance/Governor.sol\";\nimport \"@openzeppelin/contracts/governance/extensions/GovernorSettings.sol\";\nimport \"@openzeppelin/contracts/governance/extensions/GovernorCountingSimple.sol\";\nimport \"@openzeppelin/contracts/governance/extensions/GovernorVotes.sol\";\nimport \"@openzeppelin/contracts/governance/extensions/GovernorVotesQuorumFraction.sol\";\nimport \"@openzeppelin/contracts/governance/extensions/GovernorTimelockControl.sol\";\n\n\n/**\n * @title The smart contract to handle the Master L&Earn govenance,\n * @author Maxence Guillemain d'Echon\n * @notice From OpenZeppelin Wizard\n**/\ncontract MLEGovernorSimple is \n    Governor, \n    GovernorSettings, \n    GovernorCountingSimple, \n    GovernorVotes, \n    GovernorVotesQuorumFraction {\n    \n    constructor(IVotes _token)\n        Governor(\"MLEGovernor\")\n        GovernorSettings(1 /* 1 block */, 50400 /* 1 week */, 1)\n        GovernorVotes(_token)\n        GovernorVotesQuorumFraction(4)\n    {}\n\n    // The following functions are overrides required by Solidity.\n\n    function votingDelay()\n        public\n        view\n        override(IGovernor, GovernorSettings)\n        returns (uint256)\n    {\n        return super.votingDelay();\n    }\n\n    function votingPeriod()\n        public\n        view\n        override(IGovernor, GovernorSettings)\n        returns (uint256)\n    {\n        return super.votingPeriod();\n    }\n\n    function quorum(uint256 blockNumber)\n        public\n        view\n        override(IGovernor, GovernorVotesQuorumFraction)\n        returns (uint256)\n    {\n        return super.quorum(blockNumber);\n    }\n\n    function state(uint256 proposalId)\n        public\n        view\n        override(Governor)\n        returns (ProposalState)\n    {\n        return super.state(proposalId);\n    }\n\n    function propose(address[] memory targets, uint256[] memory values, bytes[] memory calldatas, string memory description)\n        public\n        override(Governor)\n        returns (uint256)\n    {\n        return super.propose(targets, values, calldatas, description);\n    }\n\n    function proposalThreshold()\n        public\n        view\n        override(Governor, GovernorSettings)\n        returns (uint256)\n    {\n        return super.proposalThreshold();\n    }\n\n    function _execute(uint256 proposalId, address[] memory targets, uint256[] memory values, bytes[] memory calldatas, bytes32 descriptionHash)\n        internal\n        override(Governor)\n    {\n        super._execute(proposalId, targets, values, calldatas, descriptionHash);\n    }\n\n    function _cancel(address[] memory targets, uint256[] memory values, bytes[] memory calldatas, bytes32 descriptionHash)\n        internal\n        override(Governor)\n        returns (uint256)\n    {\n        return super._cancel(targets, values, calldatas, descriptionHash);\n    }\n\n    function _executor()\n        internal\n        view\n        override(Governor)\n        returns (address)\n    {\n        return super._executor();\n    }\n\n    function supportsInterface(bytes4 interfaceId)\n        public\n        view\n        override(Governor)\n        returns (bool)\n    {\n        return super.supportsInterface(interfaceId);\n    }\n}\n",
  "sourcePath": "/home/cyrilmarois/Code/Formations/Alyra/master-L-earn/truffle/contracts/MLEGovernorSimple.sol",
  "compiler": {
    "name": "solc",
    "version": "0.8.17+commit.8df45f5f.Emscripten.clang"
  },
  "schemaVersion": "3.4.10",
  "updatedAt": "2022-12-14T01:17:25.758Z",
  "networkType": "ethereum",
  "devdoc": {
    "author": "Maxence Guillemain d'Echon",
    "errors": {
      "Empty()": [
        {
          "details": "An operation (e.g. {front}) couldn't be completed due to the queue being empty."
        }
      ]
    },
    "kind": "dev",
    "methods": {
      "COUNTING_MODE()": {
        "details": "See {IGovernor-COUNTING_MODE}."
      },
      "castVote(uint256,uint8)": {
        "details": "See {IGovernor-castVote}."
      },
      "castVoteBySig(uint256,uint8,uint8,bytes32,bytes32)": {
        "details": "See {IGovernor-castVoteBySig}."
      },
      "castVoteWithReason(uint256,uint8,string)": {
        "details": "See {IGovernor-castVoteWithReason}."
      },
      "castVoteWithReasonAndParams(uint256,uint8,string,bytes)": {
        "details": "See {IGovernor-castVoteWithReasonAndParams}."
      },
      "castVoteWithReasonAndParamsBySig(uint256,uint8,string,bytes,uint8,bytes32,bytes32)": {
        "details": "See {IGovernor-castVoteWithReasonAndParamsBySig}."
      },
      "execute(address[],uint256[],bytes[],bytes32)": {
        "details": "See {IGovernor-execute}."
      },
      "getVotes(address,uint256)": {
        "details": "See {IGovernor-getVotes}."
      },
      "getVotesWithParams(address,uint256,bytes)": {
        "details": "See {IGovernor-getVotesWithParams}."
      },
      "hasVoted(uint256,address)": {
        "details": "See {IGovernor-hasVoted}."
      },
      "hashProposal(address[],uint256[],bytes[],bytes32)": {
        "details": "See {IGovernor-hashProposal}. The proposal id is produced by hashing the ABI encoded `targets` array, the `values` array, the `calldatas` array and the descriptionHash (bytes32 which itself is the keccak256 hash of the description string). This proposal id can be produced from the proposal data which is part of the {ProposalCreated} event. It can even be computed in advance, before the proposal is submitted. Note that the chainId and the governor address are not part of the proposal id computation. Consequently, the same proposal (with same operation and same description) will have the same id if submitted on multiple governors across multiple networks. This also means that in order to execute the same operation twice (on the same governor) the proposer will have to change the description in order to avoid proposal id conflicts."
      },
      "name()": {
        "details": "See {IGovernor-name}."
      },
      "onERC1155BatchReceived(address,address,uint256[],uint256[],bytes)": {
        "details": "See {IERC1155Receiver-onERC1155BatchReceived}."
      },
      "onERC1155Received(address,address,uint256,uint256,bytes)": {
        "details": "See {IERC1155Receiver-onERC1155Received}."
      },
      "onERC721Received(address,address,uint256,bytes)": {
        "details": "See {IERC721Receiver-onERC721Received}."
      },
      "proposalDeadline(uint256)": {
        "details": "See {IGovernor-proposalDeadline}."
      },
      "proposalSnapshot(uint256)": {
        "details": "See {IGovernor-proposalSnapshot}."
      },
      "proposalVotes(uint256)": {
        "details": "Accessor to the internal vote counts."
      },
      "propose(address[],uint256[],bytes[],string)": {
        "details": "See {IGovernor-propose}."
      },
      "quorumDenominator()": {
        "details": "Returns the quorum denominator. Defaults to 100, but may be overridden."
      },
      "quorumNumerator()": {
        "details": "Returns the current quorum numerator. See {quorumDenominator}."
      },
      "quorumNumerator(uint256)": {
        "details": "Returns the quorum numerator at a specific block number. See {quorumDenominator}."
      },
      "relay(address,uint256,bytes)": {
        "details": "Relays a transaction or function call to an arbitrary target. In cases where the governance executor is some contract other than the governor itself, like when using a timelock, this function can be invoked in a governance proposal to recover tokens or Ether that was sent to the governor contract by mistake. Note that if the executor is simply the governor itself, use of `relay` is redundant."
      },
      "setProposalThreshold(uint256)": {
        "details": "Update the proposal threshold. This operation can only be performed through a governance proposal. Emits a {ProposalThresholdSet} event."
      },
      "setVotingDelay(uint256)": {
        "details": "Update the voting delay. This operation can only be performed through a governance proposal. Emits a {VotingDelaySet} event."
      },
      "setVotingPeriod(uint256)": {
        "details": "Update the voting period. This operation can only be performed through a governance proposal. Emits a {VotingPeriodSet} event."
      },
      "state(uint256)": {
        "details": "See {IGovernor-state}."
      },
      "supportsInterface(bytes4)": {
        "details": "See {IERC165-supportsInterface}."
      },
      "updateQuorumNumerator(uint256)": {
        "details": "Changes the quorum numerator. Emits a {QuorumNumeratorUpdated} event. Requirements: - Must be called through a governance proposal. - New numerator must be smaller or equal to the denominator."
      },
      "version()": {
        "details": "See {IGovernor-version}."
      }
    },
    "title": "The smart contract to handle the Master L&Earn govenance,",
    "version": 1
  },
  "userdoc": {
    "kind": "user",
    "methods": {},
    "notice": "From OpenZeppelin Wizard*",
    "version": 1
  }
}