{
  "contractName": "MLEStaking",
  "abi": [
    {
      "inputs": [],
      "stateMutability": "nonpayable",
      "type": "constructor"
    },
    {
      "anonymous": false,
      "inputs": [
        {
          "indexed": true,
          "internalType": "address",
          "name": "previousOwner",
          "type": "address"
        },
        {
          "indexed": true,
          "internalType": "address",
          "name": "newOwner",
          "type": "address"
        }
      ],
      "name": "OwnershipTransferred",
      "type": "event"
    },
    {
      "anonymous": false,
      "inputs": [
        {
          "indexed": false,
          "internalType": "uint256",
          "name": "amount",
          "type": "uint256"
        },
        {
          "indexed": false,
          "internalType": "address",
          "name": "from",
          "type": "address"
        },
        {
          "indexed": false,
          "internalType": "uint8",
          "name": "planId",
          "type": "uint8"
        }
      ],
      "name": "StakeDeposit",
      "type": "event"
    },
    {
      "anonymous": false,
      "inputs": [
        {
          "indexed": false,
          "internalType": "uint256",
          "name": "amount",
          "type": "uint256"
        },
        {
          "indexed": false,
          "internalType": "address",
          "name": "from",
          "type": "address"
        },
        {
          "indexed": false,
          "internalType": "uint8",
          "name": "planId",
          "type": "uint8"
        }
      ],
      "name": "StakeWithdrawal",
      "type": "event"
    },
    {
      "inputs": [],
      "name": "owner",
      "outputs": [
        {
          "internalType": "address",
          "name": "",
          "type": "address"
        }
      ],
      "stateMutability": "view",
      "type": "function"
    },
    {
      "inputs": [],
      "name": "renounceOwnership",
      "outputs": [],
      "stateMutability": "nonpayable",
      "type": "function"
    },
    {
      "inputs": [
        {
          "internalType": "uint256",
          "name": "",
          "type": "uint256"
        }
      ],
      "name": "stakingPlans",
      "outputs": [
        {
          "internalType": "uint8",
          "name": "planId",
          "type": "uint8"
        },
        {
          "internalType": "uint256",
          "name": "lockPeriod",
          "type": "uint256"
        },
        {
          "internalType": "uint256",
          "name": "totalStakedValue",
          "type": "uint256"
        },
        {
          "internalType": "uint256",
          "name": "minTokenAmount",
          "type": "uint256"
        },
        {
          "internalType": "uint256",
          "name": "maxTokenAmount",
          "type": "uint256"
        },
        {
          "internalType": "string",
          "name": "title",
          "type": "string"
        }
      ],
      "stateMutability": "view",
      "type": "function"
    },
    {
      "inputs": [
        {
          "internalType": "address",
          "name": "newOwner",
          "type": "address"
        }
      ],
      "name": "transferOwnership",
      "outputs": [],
      "stateMutability": "nonpayable",
      "type": "function"
    },
    {
      "inputs": [
        {
          "internalType": "address",
          "name": "_addr",
          "type": "address"
        },
        {
          "internalType": "uint8",
          "name": "_planId",
          "type": "uint8"
        }
      ],
      "name": "getUsertotalStakedValue",
      "outputs": [
        {
          "internalType": "uint256",
          "name": "",
          "type": "uint256"
        }
      ],
      "stateMutability": "view",
      "type": "function"
    },
    {
      "inputs": [
        {
          "internalType": "address",
          "name": "_from",
          "type": "address"
        },
        {
          "internalType": "uint256",
          "name": "_amount",
          "type": "uint256"
        },
        {
          "internalType": "uint8",
          "name": "_planId",
          "type": "uint8"
        }
      ],
      "name": "stakeDeposit",
      "outputs": [],
      "stateMutability": "nonpayable",
      "type": "function"
    },
    {
      "inputs": [
        {
          "internalType": "address",
          "name": "_to",
          "type": "address"
        },
        {
          "internalType": "uint256",
          "name": "_amount",
          "type": "uint256"
        },
        {
          "internalType": "uint8",
          "name": "_planId",
          "type": "uint8"
        }
      ],
      "name": "stakeWithdraw",
      "outputs": [],
      "stateMutability": "nonpayable",
      "type": "function"
    },
    {
      "inputs": [
        {
          "internalType": "uint256",
          "name": "_profitToDistribute",
          "type": "uint256"
        }
      ],
      "name": "distributeProfits",
      "outputs": [],
      "stateMutability": "nonpayable",
      "type": "function"
    }
  ],
  "bytecode": "0x608060405260016005553480156200001657600080fd5b50620000223362000048565b6200002c62000098565b600180546001600160a01b03191633179055426004556200056a565b600080546001600160a01b038381166001600160a01b0319831681178455604051919092169283917f8be0079c531659141344cd1fd0a4f28419497f9722a3daafe3b4186f6b6457e09190a35050565b60608060006040518060e00160405280600060ff1681526020016000815260200160008152602001681b1ae4d6e2ef50000081526020016a0211654585005212800000815260200160405180604001604052806006815260200165506c616e203160d01b815250815260200184815250905060006040518060e00160405280600160ff168152602001630375f000815260200160008152602001681b1ae4d6e2ef50000081526020016a0422ca8b0a00a425000000815260200160405180604001604052806006815260200165283630b7101960d11b8152508152602001848152509050600382908060018154018082558091505060019003906000526020600020906007020160009091909190915060008201518160000160006101000a81548160ff021916908360ff1602179055506020820151816001015560408201518160020155606082015181600301556080820151816004015560a08201518160050190816200020891906200049e565b5060c082015180516200022691600684019160209091019062000378565b50506003805460018101825560009190915282517fc2575a0e9e593c00f959f8c92f12db2869c3395a3b0502d05e2516446f71f85b6007909202918201805460ff191660ff90921691909117815560208401517fc2575a0e9e593c00f959f8c92f12db2869c3395a3b0502d05e2516446f71f85c83015560408401517fc2575a0e9e593c00f959f8c92f12db2869c3395a3b0502d05e2516446f71f85d83015560608401517fc2575a0e9e593c00f959f8c92f12db2869c3395a3b0502d05e2516446f71f85e83015560808401517fc2575a0e9e593c00f959f8c92f12db2869c3395a3b0502d05e2516446f71f85f83015560a084015184935090917fc2575a0e9e593c00f959f8c92f12db2869c3395a3b0502d05e2516446f71f86001906200035190826200049e565b5060c082015180516200036f91600684019160209091019062000378565b50505050505050565b828054828255906000526020600020908101928215620003d0579160200282015b82811115620003d057825182546001600160a01b0319166001600160a01b0390911617825560209092019160019091019062000399565b50620003de929150620003e2565b5090565b5b80821115620003de5760008155600101620003e3565b634e487b7160e01b600052604160045260246000fd5b600181811c908216806200042457607f821691505b6020821081036200044557634e487b7160e01b600052602260045260246000fd5b50919050565b601f8211156200049957600081815260208120601f850160051c81016020861015620004745750805b601f850160051c820191505b81811015620004955782815560010162000480565b5050505b505050565b81516001600160401b03811115620004ba57620004ba620003f9565b620004d281620004cb84546200040f565b846200044b565b602080601f8311600181146200050a5760008415620004f15750858301515b600019600386901b1c1916600185901b17855562000495565b600085815260208120601f198616915b828110156200053b578886015182559484019460019091019084016200051a565b50858210156200055a5787850151600019600388901b60f8161c191681555b5050505050600190811b01905550565b6113a6806200057a6000396000f3fe608060405234801561001057600080fd5b50600436106100785760003560e01c80636efc6d931461007d578063715018a614610092578063762e7a341461009a57806382369def146100c8578063853a3346146100db5780638da5cb5b146100fc5780639a96976814610111578063f2fde38b14610124575b600080fd5b61009061008b366004611040565b610137565b005b61009061025b565b6100ad6100a836600461107c565b61026f565b6040516100bf96959493929190611095565b60405180910390f35b6100906100d6366004611040565b610347565b6100ee6100e936600461110a565b6105ce565b6040519081526020016100bf565b61010461060a565b6040516100bf919061113d565b61009061011f36600461107c565b610619565b610090610132366004611151565b61088f565b61013f610908565b60018160ff16111561016c5760405162461bcd60e51b815260040161016390611173565b60405180910390fd5b61017a838260ff1684610967565b6001546040516323b872dd60e01b81526001600160a01b03909116906323b872dd906101ae908390879087906004016111a9565b6020604051808303816000875af11580156101cd573d6000803e3d6000fd5b505050506040513d601f19601f820116820180604052508101906101f191906111cd565b61020d5760405162461bcd60e51b8152600401610163906111ef565b61021b838260ff1684610ada565b7fd528c97d64de1294b16315170ac446fd4a93c82e9ba85bb06e10ea9fe1888cc582848360405161024e93929190611222565b60405180910390a1505050565b610263610908565b61026d6000610c1b565b565b6003818154811061027f57600080fd5b600091825260209091206007909102018054600182015460028301546003840154600485015460058601805460ff90961697509395929491939092916102c490611244565b80601f01602080910402602001604051908101604052809291908181526020018280546102f090611244565b801561033d5780601f106103125761010080835404028352916020019161033d565b820191906000526020600020905b81548152906001019060200180831161032057829003601f168201915b5050505050905086565b61034f610908565b60018160ff1611156103735760405162461bcd60e51b815260040161016390611173565b60038160ff16815481106103895761038961127e565b9060005260206000209060070201600401548260038360ff16815481106103b2576103b261127e565b9060005260206000209060070201600201546103ce91906112aa565b1061041b5760405162461bcd60e51b815260206004820152601d60248201527f5374616b696e67206465706f736974206c696d697420726561636865640000006044820152606401610163565b6001546040516370a0823160e01b815283916001600160a01b0316906370a082319061044b90879060040161113d565b602060405180830381865afa158015610468573d6000803e3d6000fd5b505050506040513d601f19601f8201168201806040525081019061048c91906112bd565b10156104d15760405162461bcd60e51b8152602060048201526014602482015273496e73756666696369656e742062616c616e636560601b6044820152606401610163565b6001546040516323b872dd60e01b81526001600160a01b03909116906323b872dd90610505908690849087906004016111a9565b6020604051808303816000875af1158015610524573d6000803e3d6000fd5b505050506040513d601f19601f8201168201806040525081019061054891906111cd565b61058d5760405162461bcd60e51b815260206004820152601660248201527511985a5b1959081cdd185ada5b99c819195c1bdcda5d60521b6044820152606401610163565b61059b838260ff1684610c6b565b7fb72f28219f1f1456e8f5b4862718755bf520ff53a139e8616c347826e91f98b982848360405161024e93929190611222565b6001600160a01b038216600090815260026020819052604082206004019060ff84169081106105ff576105ff61127e565b015490505b92915050565b6000546001600160a01b031690565b610621610908565b60008060036001815481106106385761063861127e565b906000526020600020906007020160020154600360008154811061065e5761065e61127e565b90600052602060002090600702016002015461067a91906112aa565b90506000805b60028160ff1610156108845760005b60038260ff16815481106106a5576106a561127e565b9060005260206000209060070201600601805490508110156108715760038260ff16815481106106d7576106d761127e565b906000526020600020906007020160060181815481106106f9576106f961127e565b600091825260209091200154600380546001600160a01b039092169450859160ff851690811061072b5761072b61127e565b90600052602060002090600702016002015460038460ff16815481106107535761075361127e565b90600052602060002090600702016002015460026000876001600160a01b03166001600160a01b031681526020019081526020016000206004018560ff16600281106107a1576107a161127e565b01546107ad908a6112d6565b6107b791906112ed565b6107c191906112d6565b6107cb91906112ed565b6001546040516323b872dd60e01b81529196506001600160a01b0316906323b872dd9061080090839087908a906004016111a9565b6020604051808303816000875af115801561081f573d6000803e3d6000fd5b505050506040513d601f19601f8201168201806040525081019061084391906111cd565b61085f5760405162461bcd60e51b8152600401610163906111ef565b806108698161130f565b91505061068f565b508061087c81611328565b915050610680565b505042600455505050565b610897610908565b6001600160a01b0381166108fc5760405162461bcd60e51b815260206004820152602660248201527f4f776e61626c653a206e6577206f776e657220697320746865207a65726f206160448201526564647265737360d01b6064820152608401610163565b61090581610c1b565b50565b3361091161060a565b6001600160a01b03161461026d5760405162461bcd60e51b815260206004820181905260248201527f4f776e61626c653a2063616c6c6572206973206e6f7420746865206f776e65726044820152606401610163565b8060026000856001600160a01b03166001600160a01b0316815260200190815260200160002060040183600281106109a1576109a161127e565b015410156109f15760405162461bcd60e51b815260206004820181905260248201527f496e73756666696369656e742062616c616e636520746f2077697468647261776044820152606401610163565b6001600160a01b038316600090815260026020819052604082209084908110610a1c57610a1c61127e565b01600081548110610a2f57610a2f61127e565b9060005260206000209060020201600001549050600060038481548110610a5857610a5861127e565b90600052602060002090600702016001015490508082610a7891906112aa565b421015610ad35760405162461bcd60e51b8152602060048201526024808201527f596f752063616e2774207769746864726177206265666f7265206c6f636b50656044820152631c9a5bd960e21b6064820152608401610163565b5050505050565b6000604051806040016040528042815260200183815250905060026000856001600160a01b03166001600160a01b031681526020019081526020016000206002018360028110610b2c57610b2c61127e565b018054600181810183556000928352602080842085516002948502909101908155818601519201919091556001600160a01b03871683528190526040909120839160049091019085908110610b8357610b8361127e565b016000828254610b939190611347565b925050819055508160038481548110610bae57610bae61127e565b90600052602060002090600702016002016000828254610bce9190611347565b90915550506001600160a01b03841660009081526002602081905260409091206004019084908110610c0257610c0261127e565b0154600003610c1557610c158484610d5c565b50505050565b600080546001600160a01b038381166001600160a01b0319831681178455604051919092169283917f8be0079c531659141344cd1fd0a4f28419497f9722a3daafe3b4186f6b6457e09190a35050565b60408051808201825242815260208082018490526001600160a01b038616600090815260029182905292909220909184908110610caa57610caa61127e565b018054600181810183556000928352602080842085516002948502909101908155818601519201919091556001600160a01b03871683528190526040909120839160049091019085908110610d0157610d0161127e565b016000828254610d1191906112aa565b925050819055508160038481548110610d2c57610d2c61127e565b90600052602060002090600702016002016000828254610d4c91906112aa565b90915550610c1590508484610f17565b600060038281548110610d7157610d7161127e565b6000918252602082206006600790920201015491505b81811015610ebc57836001600160a01b031660038481548110610dac57610dac61127e565b90600052602060002090600702016006018281548110610dce57610dce61127e565b6000918252602090912001546001600160a01b031603610eaa5760038381548110610dfb57610dfb61127e565b9060005260206000209060070201600601600183610e199190611347565b81548110610e2957610e2961127e565b600091825260209091200154600380546001600160a01b039092169185908110610e5557610e5561127e565b90600052602060002090600702016006018281548110610e7757610e7761127e565b9060005260206000200160006101000a8154816001600160a01b0302191690836001600160a01b03160217905550610ebc565b80610eb48161130f565b915050610d87565b5060038281548110610ed057610ed061127e565b9060005260206000209060070201600601805480610ef057610ef061135a565b600082815260209020810160001990810180546001600160a01b0319169055019055505050565b60005b60038281548110610f2d57610f2d61127e565b906000526020600020906007020160060180549050811015610fb957826001600160a01b031660038381548110610f6657610f6661127e565b90600052602060002090600702016006018281548110610f8857610f8861127e565b6000918252602090912001546001600160a01b031603610fa757505050565b80610fb18161130f565b915050610f1a565b5060038181548110610fcd57610fcd61127e565b60009182526020808320600792909202909101600601805460018101825590835291200180546001600160a01b0319166001600160a01b03939093169290921790915550565b80356001600160a01b038116811461102a57600080fd5b919050565b803560ff8116811461102a57600080fd5b60008060006060848603121561105557600080fd5b61105e84611013565b9250602084013591506110736040850161102f565b90509250925092565b60006020828403121561108e57600080fd5b5035919050565b60ff8716815260006020878184015286604084015285606084015284608084015260c060a084015283518060c085015260005b818110156110e45785810183015185820160e0015282016110c8565b50600060e0828601015260e0601f19601f83011685010192505050979650505050505050565b6000806040838503121561111d57600080fd5b61112683611013565b91506111346020840161102f565b90509250929050565b6001600160a01b0391909116815260200190565b60006020828403121561116357600080fd5b61116c82611013565b9392505050565b6020808252601c908201527b5374616b696e6720706c616e20646f6573206e6f742065786973747360201b604082015260600190565b6001600160a01b039384168152919092166020820152604081019190915260600190565b6000602082840312156111df57600080fd5b8151801515811461116c57600080fd5b60208082526019908201527811985a5b1959081cdd185ada5b99c81dda5d1a191c985dd85b603a1b604082015260600190565b9283526001600160a01b0391909116602083015260ff16604082015260600190565b600181811c9082168061125857607f821691505b60208210810361127857634e487b7160e01b600052602260045260246000fd5b50919050565b634e487b7160e01b600052603260045260246000fd5b634e487b7160e01b600052601160045260246000fd5b8082018082111561060457610604611294565b6000602082840312156112cf57600080fd5b5051919050565b808202811582820484141761060457610604611294565b60008261130a57634e487b7160e01b600052601260045260246000fd5b500490565b60006001820161132157611321611294565b5060010190565b600060ff821660ff810361133e5761133e611294565b60010192915050565b8181038181111561060457610604611294565b634e487b7160e01b600052603160045260246000fdfea26469706673582212207be5588807211806afeef93580c92346129b3317f03a6121e6eb61904320754664736f6c63430008110033",
  "immutableReferences": {},
  "source": "// SPDX-License-Identifier: MIT\npragma solidity ^0.8.17;\n\nimport \"@openzeppelin/contracts/token/ERC20/ERC20.sol\";\nimport \"@openzeppelin/contracts/access/Ownable.sol\";\nimport \"@openzeppelin/contracts/utils/Strings.sol\";\nimport \"./MLE.sol\";\n\n/**\n * @title The smart contract to handle the MLE Staking\n * @author Cyril Marois & Maxence Guillemain d'Echon\n**/\ncontract MLEStaking is Ownable {\n/******************************** STRUCTS & ENUMS ********************************/\n\n    struct StakingRecord {\n        uint256 date;\n        uint256 amount;\n    }\n\n    struct StakingPlan {\n        uint8 planId;\n        uint256 lockPeriod;     // exprimed in seconds\n        uint256 totalStakedValue;\n        uint256 minTokenAmount; // exprimed in MLE\n        uint256 maxTokenAmount; // exprimed in MLE\n        string title;\n        address[] stakers;\n    }\n\n    struct Stake {\n        StakingRecord[][2] deposits;\n        StakingRecord[][2] withdrawals;\n        uint[2] totalStakedValue;\n        uint[2] profits;\n    }\n\n\n/******************************** STATE VARIABLES ********************************/\n\n    MLE mle;\n\n    mapping (address => Stake) userStakes;\n\n    StakingPlan[] public stakingPlans;\n    uint256 lastProfitDistribution;\n    uint distributionPeriod = 1 seconds; \n\n\n\n/************************************ EVENTS *************************************/\n\n    event StakeDeposit (uint256 amount, address from, uint8 planId);\n    event StakeWithdrawal (uint256 amount, address from, uint8 planId);\n\n/*********************************** FUNCTIONS ***********************************/\n/**************** GETTERS *******************/\n\nfunction getUsertotalStakedValue(address _addr, uint8 _planId) external view returns(uint) {\n    return userStakes[_addr].totalStakedValue[_planId];\n}\n\n/************ TOKEN FUNCTIONS ***************/\n\n    constructor() Ownable() {\n        _initStakingPlans();\n        mle = MLE(payable(msg.sender));\n        lastProfitDistribution = block.timestamp;\n    }\n\n    function _initStakingPlans() internal {\n        address[] memory s0;\n        address[] memory s1;\n        StakingPlan memory stakingPlanOne = StakingPlan({\n            planId : 0,\n            totalStakedValue: 0,\n            lockPeriod: 0,       // demo purpose, otherise 12 * 4 weeks (1 year)\n            minTokenAmount: 500e18,\n            maxTokenAmount: 2500000e18,\n            title: \"Plan 1\",\n            stakers: s0\n        });\n        StakingPlan memory stakingPlanTwo = StakingPlan({\n            planId : 1,\n            totalStakedValue: 0,\n            lockPeriod: 24 * 4 weeks, // demo purpose, otherise 24 * 4 weeks (2 years)\n            minTokenAmount: 500e18,\n            maxTokenAmount: 5000000e18,\n            title: \"Plan 2\",\n            stakers: s1\n        });\n        stakingPlans.push(stakingPlanOne);\n        stakingPlans.push(stakingPlanTwo);\n    }\n\n    function stakeDeposit(address _from, uint256 _amount, uint8 _planId) onlyOwner external {\n        require(_planId <= 1, \"Staking plan does not exists\");\n        require(stakingPlans[_planId].totalStakedValue + _amount < stakingPlans[_planId].maxTokenAmount, \"Staking deposit limit reached\");\n        require(mle.balanceOf(_from) >= _amount, \"Insufficient balance\");\n        require(mle.transferFrom(_from, address(mle), _amount), \"Failed staking deposit\");\n\n        _afterDepositTransfer(_from, _planId, _amount);\n\n        emit StakeDeposit(_amount, _from, _planId);\n    }\n\n    function stakeWithdraw(address _to, uint256 _amount, uint8 _planId) \n        onlyOwner external {\n        require(_planId <= 1, \"Staking plan does not exists\");\n\n        _beforeWithdrawalTransfer(_to, _planId, _amount);\n\n        require(mle.transferFrom(address(mle), _to, _amount), \"Failed staking withdrawal\");\n\n        _afterWithdrawalTransfer(_to, _planId, _amount);\n\n        emit StakeWithdrawal(_amount, _to, _planId);\n    }\n\n    function _afterDepositTransfer(address _from, uint _planId, uint _amount) internal {\n        // register deposit\n        StakingRecord memory userStakingDeposit = StakingRecord({\n            date: block.timestamp,\n            amount: _amount\n        });\n        userStakes[_from].deposits[_planId].push(userStakingDeposit);\n        \n        userStakes[_from].totalStakedValue[_planId] += _amount;\n\n        // update total deposit from all users\n        stakingPlans[_planId].totalStakedValue += _amount;\n\n        // update stakers\n        _registerStakers(_from, _planId);\n    }\n\n    function _beforeWithdrawalTransfer(address _to, uint _planId, uint _amount) \n        internal view {\n\n        require(userStakes[_to].totalStakedValue[_planId] >= _amount, \"Insufficient balance to withdraw\");\n\n        uint firstDepositDate = userStakes[_to].deposits[_planId][0].date;\n\n        uint lockPeriod = stakingPlans[_planId].lockPeriod;\n        // string memory str1 = Strings.toString(lockPeriod);\n        // string memory str2 = Strings.toString(block.timestamp);\n        // string memory str3 = Strings.toString(firstDepositDate);\n        // require (block.timestamp >= firstDepositDate + lockPeriod, \n        //     string(bytes.concat( bytes(str1), bytes(\" \"),  bytes(str2), bytes(\" \"), bytes(str3)  ))\n        //     );\n        require (block.timestamp >= firstDepositDate + lockPeriod, \"You can't withdraw before lockPeriod\");\n    }\n\n    function _afterWithdrawalTransfer(address _to, uint _planId, uint _amount) internal {\n        // register withdraw\n        StakingRecord memory tmpUserStakingWithdraw = StakingRecord({\n            date: block.timestamp,\n            amount: _amount\n        });\n        userStakes[_to].withdrawals[_planId].push(tmpUserStakingWithdraw);\n        userStakes[_to].totalStakedValue[_planId] -= _amount;\n\n        // update staking plan total Staking amount deposit\n        stakingPlans[_planId].totalStakedValue -= _amount;\n        \n        // if user withdrawal all staking balance, remove it from staker\n        if (userStakes[_to].totalStakedValue[_planId] == 0) {\n            _deleteStakers(_to, _planId);\n        }\n    }\n\n    function distributeProfits(uint256 _profitToDistribute) external onlyOwner {\n        //require (block.timestamp - lastProfitDistribution > distributionPeriod, \"\");\n\n        uint profitShare;\n        uint totalStakedValue = stakingPlans[0].totalStakedValue + stakingPlans[1].totalStakedValue; \n        address staker;\n        for (uint8 _planId; _planId<2; _planId++) {\n            for (uint i; i < stakingPlans[_planId].stakers.length; i++) {\n                staker = stakingPlans[_planId].stakers[i];\n                profitShare = _profitToDistribute \n                        * userStakes[staker].totalStakedValue[_planId] / stakingPlans[_planId].totalStakedValue\n                        * stakingPlans[_planId].totalStakedValue / totalStakedValue ;\n                require(mle.transferFrom(address(mle), staker, profitShare), \"Failed staking withdrawal\");\n            }\n        }\n        lastProfitDistribution = block.timestamp;\n    }\n\n    function _registerStakers(address _addr, uint _planId) internal {\n        for (uint i; i < stakingPlans[_planId].stakers.length; i++) {\n            if (stakingPlans[_planId].stakers[i] == _addr) {\n                return;\n            }\n        }\n        stakingPlans[_planId].stakers.push(_addr);\n    }\n\n    function _deleteStakers(address _addr, uint _planId) internal {\n        uint l = stakingPlans[_planId].stakers.length;\n        for (uint i; i < l; i++) {\n            if (stakingPlans[_planId].stakers[i] == _addr) {\n                stakingPlans[_planId].stakers[i] = stakingPlans[_planId].stakers[l-1];\n                break;\n            }\n        }\n        stakingPlans[_planId].stakers.pop();\n    }\n\n}",
  "sourcePath": "/home/cyrilmarois/Code/Formations/Alyra/master-L-earn/truffle/contracts/MLEStaking.sol",
  "compiler": {
    "name": "solc",
    "version": "0.8.17+commit.8df45f5f.Emscripten.clang"
  },
  "schemaVersion": "3.4.10",
  "updatedAt": "2022-12-14T01:17:24.223Z",
  "devdoc": {
    "author": "Cyril Marois & Maxence Guillemain d'Echon*",
    "kind": "dev",
    "methods": {
      "owner()": {
        "details": "Returns the address of the current owner."
      },
      "renounceOwnership()": {
        "details": "Leaves the contract without owner. It will not be possible to call `onlyOwner` functions anymore. Can only be called by the current owner. NOTE: Renouncing ownership will leave the contract without an owner, thereby removing any functionality that is only available to the owner."
      },
      "transferOwnership(address)": {
        "details": "Transfers ownership of the contract to a new account (`newOwner`). Can only be called by the current owner."
      }
    },
    "title": "The smart contract to handle the MLE Staking",
    "version": 1
  },
  "userdoc": {
    "kind": "user",
    "methods": {},
    "version": 1
  }
}