{
  "contractName": "MLEStaking",
  "abi": [
    {
      "inputs": [],
      "stateMutability": "nonpayable",
      "type": "constructor"
    },
    {
      "anonymous": false,
      "inputs": [
        {
          "indexed": true,
          "internalType": "address",
          "name": "previousOwner",
          "type": "address"
        },
        {
          "indexed": true,
          "internalType": "address",
          "name": "newOwner",
          "type": "address"
        }
      ],
      "name": "OwnershipTransferred",
      "type": "event"
    },
    {
      "anonymous": false,
      "inputs": [
        {
          "indexed": false,
          "internalType": "uint256",
          "name": "amount",
          "type": "uint256"
        },
        {
          "indexed": false,
          "internalType": "address",
          "name": "from",
          "type": "address"
        },
        {
          "indexed": false,
          "internalType": "uint8",
          "name": "planId",
          "type": "uint8"
        },
        {
          "indexed": false,
          "internalType": "uint256",
          "name": "totalDeposit",
          "type": "uint256"
        }
      ],
      "name": "StakeDeposit",
      "type": "event"
    },
    {
      "anonymous": false,
      "inputs": [
        {
          "indexed": false,
          "internalType": "uint256",
          "name": "amount",
          "type": "uint256"
        },
        {
          "indexed": false,
          "internalType": "address",
          "name": "from",
          "type": "address"
        },
        {
          "indexed": false,
          "internalType": "uint8",
          "name": "planId",
          "type": "uint8"
        },
        {
          "indexed": false,
          "internalType": "uint256",
          "name": "newUserStakingBalanceTotal",
          "type": "uint256"
        }
      ],
      "name": "StakeWithdrawal",
      "type": "event"
    },
    {
      "inputs": [],
      "name": "owner",
      "outputs": [
        {
          "internalType": "address",
          "name": "",
          "type": "address"
        }
      ],
      "stateMutability": "view",
      "type": "function"
    },
    {
      "inputs": [],
      "name": "renounceOwnership",
      "outputs": [],
      "stateMutability": "nonpayable",
      "type": "function"
    },
    {
      "inputs": [
        {
          "internalType": "uint256",
          "name": "",
          "type": "uint256"
        }
      ],
      "name": "stakingPlans",
      "outputs": [
        {
          "internalType": "uint8",
          "name": "planId",
          "type": "uint8"
        },
        {
          "internalType": "uint8",
          "name": "apr",
          "type": "uint8"
        },
        {
          "internalType": "uint128",
          "name": "lockPeriod",
          "type": "uint128"
        },
        {
          "internalType": "uint256",
          "name": "totalStakers",
          "type": "uint256"
        },
        {
          "internalType": "uint256",
          "name": "totalStakingDeposit",
          "type": "uint256"
        },
        {
          "internalType": "uint256",
          "name": "minTokenAmount",
          "type": "uint256"
        },
        {
          "internalType": "uint256",
          "name": "maxTokenDeposit",
          "type": "uint256"
        },
        {
          "internalType": "string",
          "name": "title",
          "type": "string"
        }
      ],
      "stateMutability": "view",
      "type": "function"
    },
    {
      "inputs": [
        {
          "internalType": "address",
          "name": "newOwner",
          "type": "address"
        }
      ],
      "name": "transferOwnership",
      "outputs": [],
      "stateMutability": "nonpayable",
      "type": "function"
    },
    {
      "inputs": [
        {
          "internalType": "address",
          "name": "",
          "type": "address"
        },
        {
          "internalType": "uint256",
          "name": "",
          "type": "uint256"
        },
        {
          "internalType": "uint256",
          "name": "",
          "type": "uint256"
        }
      ],
      "name": "userStakingDepositBalance",
      "outputs": [
        {
          "internalType": "uint256",
          "name": "date",
          "type": "uint256"
        },
        {
          "internalType": "uint256",
          "name": "amount",
          "type": "uint256"
        }
      ],
      "stateMutability": "view",
      "type": "function"
    },
    {
      "inputs": [
        {
          "internalType": "address",
          "name": "",
          "type": "address"
        },
        {
          "internalType": "uint256",
          "name": "",
          "type": "uint256"
        },
        {
          "internalType": "uint256",
          "name": "",
          "type": "uint256"
        }
      ],
      "name": "userStakingWithdrawalBalance",
      "outputs": [
        {
          "internalType": "uint256",
          "name": "date",
          "type": "uint256"
        },
        {
          "internalType": "uint256",
          "name": "amount",
          "type": "uint256"
        }
      ],
      "stateMutability": "view",
      "type": "function"
    },
    {
      "inputs": [
        {
          "internalType": "address",
          "name": "_from",
          "type": "address"
        },
        {
          "internalType": "uint256",
          "name": "_amount",
          "type": "uint256"
        },
        {
          "internalType": "uint8",
          "name": "_planId",
          "type": "uint8"
        }
      ],
      "name": "stakeDeposit",
      "outputs": [],
      "stateMutability": "nonpayable",
      "type": "function"
    },
    {
      "inputs": [
        {
          "internalType": "address",
          "name": "_to",
          "type": "address"
        },
        {
          "internalType": "uint256",
          "name": "_amount",
          "type": "uint256"
        },
        {
          "internalType": "uint8",
          "name": "_planId",
          "type": "uint8"
        }
      ],
      "name": "stakeWithdraw",
      "outputs": [],
      "stateMutability": "nonpayable",
      "type": "function"
    }
  ],
  "bytecode": "0x60806040523480156200001157600080fd5b506200001d336200003f565b620000276200008f565b600180546001600160a01b0319163317905562000550565b600080546001600160a01b038381166001600160a01b0319831681178455604051919092169283917f8be0079c531659141344cd1fd0a4f28419497f9722a3daafe3b4186f6b6457e09190a35050565b6000604051806101000160405280600060ff168152602001600a60ff16815260200160006001600160801b031681526020016000815260200160008152602001681b1ae4d6e2ef50000081526020016a0211654585005212800000815260200160405180604001604052806006815260200165506c616e203160d01b81525081525090506000604051806101000160405280600160ff168152602001601460ff168152602001630375f0006001600160801b031681526020016000815260200160008152602001681b1ae4d6e2ef50000081526020016a0422ca8b0a00a425000000815260200160405180604001604052806006815260200165283630b7101960d11b8152508152509050600582908060018154018082558091505060019003906000526020600020906006020160009091909190915060008201518160000160006101000a81548160ff021916908360ff16021790555060208201518160000160016101000a81548160ff021916908360ff16021790555060408201518160000160026101000a8154816001600160801b0302191690836001600160801b03160217905550606082015181600101556080820151816002015560a0820151816003015560c0820151816004015560e082015181600501908162000274919062000484565b505060058054600181018255600091909152825160069091027f036b6384b5eca791c62761152d0c79bb0604c104a5fb6f4eb0703f3154bb3db081018054602086015160408701516001600160801b0316620100000262010000600160901b031960ff9283166101000261ffff199094169290961691909117919091179390931692909217825560608401517f036b6384b5eca791c62761152d0c79bb0604c104a5fb6f4eb0703f3154bb3db182015560808401517f036b6384b5eca791c62761152d0c79bb0604c104a5fb6f4eb0703f3154bb3db282015560a08401517f036b6384b5eca791c62761152d0c79bb0604c104a5fb6f4eb0703f3154bb3db382015560c08401517f036b6384b5eca791c62761152d0c79bb0604c104a5fb6f4eb0703f3154bb3db482015560e08401518493507f036b6384b5eca791c62761152d0c79bb0604c104a5fb6f4eb0703f3154bb3db590910190620003d8908262000484565b5050505050565b634e487b7160e01b600052604160045260246000fd5b600181811c908216806200040a57607f821691505b6020821081036200042b57634e487b7160e01b600052602260045260246000fd5b50919050565b601f8211156200047f57600081815260208120601f850160051c810160208610156200045a5750805b601f850160051c820191505b818110156200047b5782815560010162000466565b5050505b505050565b81516001600160401b03811115620004a057620004a0620003df565b620004b881620004b18454620003f5565b8462000431565b602080601f831160018114620004f05760008415620004d75750858301515b600019600386901b1c1916600185901b1785556200047b565b600085815260208120601f198616915b82811015620005215788860151825594840194600190910190840162000500565b5085821015620005405787850151600019600388901b60f8161c191681555b5050505050600190811b01905550565b61124780620005606000396000f3fe608060405234801561001057600080fd5b50600436106100785760003560e01c80636efc6d931461007d578063715018a614610092578063731c689a1461009a57806375caee97146100c7578063762e7a34146100da57806382369def146101015780638da5cb5b14610114578063f2fde38b14610129575b600080fd5b61009061008b366004610f2d565b61013c565b005b610090610251565b6100ad6100a8366004610f73565b610265565b604080519283526020830191909152015b60405180910390f35b6100ad6100d5366004610f73565b6102b2565b6100ed6100e8366004610fa6565b6102ce565b6040516100be989796959493929190610fbf565b61009061010f366004610f2d565b6103b7565b61011c610677565b6040516100be9190611056565b61009061013736600461106a565b610686565b6101446106ff565b60018160ff1611156101715760405162461bcd60e51b81526004016101689061108c565b60405180910390fd5b6000610181848360ff168561075e565b6001546040516323b872dd60e01b81529192506001600160a01b0316906323b872dd906101b6908390889088906004016110cf565b6020604051808303816000875af11580156101d5573d6000803e3d6000fd5b505050506040513d601f19601f820116820180604052508101906101f991906110f3565b50600061020b858460ff1686856108ae565b90507fefec184a7664a43868bb22a3991b53aa57ea0bb497a859754dd9a0d8b67b9ffe848685846040516102429493929190611115565b60405180910390a15050505050565b6102596106ff565b61026360006109ad565b565b6003602052826000526040600020826002811061028157600080fd5b01818154811061029057600080fd5b6000918252602090912060029091020180546001909101549093509150839050565b6002602052826000526040600020826002811061028157600080fd5b600581815481106102de57600080fd5b600091825260209091206006909102018054600182015460028301546003840154600485015460058601805460ff808816995061010088041697620100009097046001600160801b03169691906103349061113c565b80601f01602080910402602001604051908101604052809291908181526020018280546103609061113c565b80156103ad5780601f10610382576101008083540402835291602001916103ad565b820191906000526020600020905b81548152906001019060200180831161039057829003601f168201915b5050505050905088565b6103bf6106ff565b60018160ff1611156103e35760405162461bcd60e51b81526004016101689061108c565b60058160ff16815481106103f9576103f9611176565b9060005260206000209060060201600401548260058360ff168154811061042257610422611176565b90600052602060002090600602016002015461043e91906111a2565b106104965760405162461bcd60e51b815260206004820152602260248201527f4572726f722c207374616b696e67206465706f736974206c696d6974207265616044820152610c6d60f31b6064820152608401610168565b6001546040516370a0823160e01b815283916001600160a01b0316906370a08231906104c6908790600401611056565b602060405180830381865afa1580156104e3573d6000803e3d6000fd5b505050506040513d601f19601f8201168201806040525081019061050791906111b5565b101561055f5760405162461bcd60e51b815260206004820152602160248201527f4572726f722c20696e737566666973616e742066756e647320746f207374616b6044820152606560f81b6064820152608401610168565b6001546040516323b872dd60e01b81526001600160a01b03909116906323b872dd90610593908690849087906004016110cf565b6020604051808303816000875af11580156105b2573d6000803e3d6000fd5b505050506040513d601f19601f820116820180604052508101906105d691906110f3565b6106225760405162461bcd60e51b815260206004820152601d60248201527f4572726f722c206661696c6564207374616b696e67206465706f7369740000006044820152606401610168565b6000610632848360ff16856109fd565b90507f13d904717d3de3873e9fbd05dd78ac3c6b05e76126881d62902fb939a6bc87da838584846040516106699493929190611115565b60405180910390a150505050565b6000546001600160a01b031690565b61068e6106ff565b6001600160a01b0381166106f35760405162461bcd60e51b815260206004820152602660248201527f4f776e61626c653a206e6577206f776e657220697320746865207a65726f206160448201526564647265737360d01b6064820152608401610168565b6106fc816109ad565b50565b33610708610677565b6001600160a01b0316146102635760405162461bcd60e51b815260206004820181905260248201527f4f776e61626c653a2063616c6c6572206973206e6f7420746865206f776e65726044820152606401610168565b60008061076b8585610bce565b905060008061077a8787610cbf565b9092509050600061078b84846111ce565b9050600061079987836111ce565b10156107ff5760405162461bcd60e51b815260206004820152602f60248201527f4572726f722c20696e737566666973616e742066756e647320696e207374616b60448201526e696e6720746f20776974686472617760881b6064820152608401610168565b60006005888154811061081457610814611176565b60009182526020909120600690910201546201000090046001600160801b0316905061084081846111a2565b42116108a25760405162461bcd60e51b815260206004820152602b60248201527f4572726f722c20596f752063616e2774207769746864726177206265666f726560448201526a081b1bd8dad4195c9a5bd960aa1b6064820152608401610168565b50979650505050505050565b60408051808201825242815260208082018590526001600160a01b0387166000908152600390915291822085600281106108ea576108ea611176565b018054600181810183556000928352602092839020845160029093020191825591830151910155600580548591908790811061092857610928611176565b9060005260206000209060060201600201600082825461094891906111ce565b909155506000905061095a85856111ce565b9050806000036109a3576005868154811061097757610977611176565b600091825260208220600160069092020101805491610995836111e1565b91905055506109a387610ddd565b9695505050505050565b600080546001600160a01b038381166001600160a01b0319831681178455604051919092169283917f8be0079c531659141344cd1fd0a4f28419497f9722a3daafe3b4186f6b6457e09190a35050565b60408051808201825242815260208082018490526001600160a01b03861660009081526002918290529283209085908110610a3a57610a3a611176565b0180546001818101835560009283526020928390208451600290930201918255918301519101556005805484919086908110610a7857610a78611176565b90600052602060002090600602016002016000828254610a9891906111a2565b90915550610aa7905085610e64565b6004546005805486908110610abe57610abe611176565b90600052602060002090600602016001018190555060008060026000886001600160a01b03166001600160a01b031681526020019081526020016000208660028110610b0c57610b0c611176565b01805480602002602001604051908101604052809291908181526020016000905b82821015610b7357838290600052602060002090600202016040518060400160405290816000820154815260200160018201548152505081526020019060010190610b2d565b50505050905060005b8151811015610bc257818181518110610b9757610b97611176565b60200260200101516020015183610bae91906111a2565b925080610bba816111f8565b915050610b7c565b50909695505050505050565b6001600160a01b038216600090815260036020526040812081908360028110610bf957610bf9611176565b01805480602002602001604051908101604052809291908181526020016000905b82821015610c6057838290600052602060002090600202016040518060400160405290816000820154815260200160018201548152505081526020019060010190610c1a565b505050509050600080600090505b8251811015610cb457828181518110610c8957610c89611176565b60200260200101516020015182610ca091906111a2565b915080610cac816111f8565b915050610c6e565b509150505b92915050565b6001600160a01b03821660009081526002602081905260408220829182919085908110610cee57610cee611176565b01805480602002602001604051908101604052809291908181526020016000905b82821015610d5557838290600052602060002090600202016040518060400160405290816000820154815260200160018201548152505081526020019060010190610d0f565b50505050905060008060005b8351811015610dd05780600003610d9357838181518110610d8457610d84611176565b60200260200101516000015191505b838181518110610da557610da5611176565b60200260200101516020015183610dbc91906111a2565b925080610dc8816111f8565b915050610d61565b5090969095509350505050565b60005b600454811015610e6057816001600160a01b031660048281548110610e0757610e07611176565b6000918252602090912001546001600160a01b031603610e4e5760048181548110610e3457610e34611176565b600091825260209091200180546001600160a01b03191690555b80610e58816111f8565b915050610de0565b5050565b60005b600454811015610ebe57816001600160a01b031660048281548110610e8e57610e8e611176565b6000918252602090912001546001600160a01b031603610eac575050565b80610eb6816111f8565b915050610e67565b50600480546001810182556000919091527f8a35acfbc15ff81a39ae7d344fd709f28e8600b4aa8c65c6b64bfe7fe36bd19b0180546001600160a01b0319166001600160a01b0392909216919091179055565b80356001600160a01b0381168114610f2857600080fd5b919050565b600080600060608486031215610f4257600080fd5b610f4b84610f11565b925060208401359150604084013560ff81168114610f6857600080fd5b809150509250925092565b600080600060608486031215610f8857600080fd5b610f9184610f11565b95602085013595506040909401359392505050565b600060208284031215610fb857600080fd5b5035919050565b600061010060ff8b168352602060ff8b168185015260018060801b038a1660408501528860608501528760808501528660a08501528560c08501528160e085015284518083860152600092505b8083101561102b5785830182015185840161012001529181019161100c565b6101209250600083828701015282601f19601f83011686010193505050509998505050505050505050565b6001600160a01b0391909116815260200190565b60006020828403121561107c57600080fd5b61108582610f11565b9392505050565b60208082526023908201527f4572726f722c207374616b696e6720706c616e20646f6573206e6f742065786960408201526273747360e81b606082015260800190565b6001600160a01b039384168152919092166020820152604081019190915260600190565b60006020828403121561110557600080fd5b8151801515811461108557600080fd5b9384526001600160a01b0392909216602084015260ff166040830152606082015260800190565b600181811c9082168061115057607f821691505b60208210810361117057634e487b7160e01b600052602260045260246000fd5b50919050565b634e487b7160e01b600052603260045260246000fd5b634e487b7160e01b600052601160045260246000fd5b80820180821115610cb957610cb961118c565b6000602082840312156111c757600080fd5b5051919050565b81810381811115610cb957610cb961118c565b6000816111f0576111f061118c565b506000190190565b60006001820161120a5761120a61118c565b506001019056fea2646970667358221220e601eed01455b7da58e802a085ea842e618e968f75189438b32edd360620d39b64736f6c63430008110033",
  "immutableReferences": {},
  "source": "// SPDX-License-Identifier: MIT\npragma solidity ^0.8.17;\n\nimport \"@openzeppelin/contracts/token/ERC20/ERC20.sol\";\nimport \"@openzeppelin/contracts/access/Ownable.sol\";\nimport \"./MLE.sol\";\n\n/**\n * @title The smart contract to handle the MLE Staking\n * @author Cyril Marois & Maxence Guillemain d'Echon\n**/\ncontract MLEStaking is Ownable {\n/******************************** STRUCTS & ENUMS ********************************/\n\n    struct StakingRecord {\n        uint256 date;\n        uint256 amount;\n    }\n\n    struct StakingPlan {\n        uint8 planId;\n        uint8 apr;\n        uint128 lockPeriod;     // exprimed in seconds\n        uint256 totalStakers;\n        uint256 totalStakingDeposit;\n        uint256 minTokenAmount; // exprimed in MLE\n        uint256 maxTokenDeposit; // exprimed in MLE\n        string title;\n    }\n\n\n/******************************** STATE VARIABLES ********************************/\n\n    MLE mle;\n\n    mapping (address => StakingRecord[][2]) public userStakingDepositBalance;\n    mapping (address => StakingRecord[][2]) public userStakingWithdrawalBalance;\n\n    address[] stakers;\n    StakingPlan[] public stakingPlans;\n\n\n/************************************ EVENTS *************************************/\n\n    event StakeDeposit (uint256 amount, address from, uint8 planId, uint256 totalDeposit);\n    event StakeWithdrawal (uint256 amount, address from, uint8 planId, uint256 newUserStakingBalanceTotal);\n\n/*********************************** FUNCTIONS ***********************************/\n    /************ TOKEN FUNCTIONS ***************/\n\n    constructor() Ownable() {\n        _initStakingPlans();\n        mle = MLE(payable(msg.sender));\n    }\n\n    function _initStakingPlans() internal {\n        StakingPlan memory stakingPlanOne = StakingPlan({\n            planId : 0,\n            apr: 10,\n            totalStakers: 0,\n            totalStakingDeposit: 0,\n            lockPeriod: 0,       // demo purpose, otherise 12 * 4 weeks (1 year)\n            minTokenAmount: 500e18,\n            maxTokenDeposit: 2500000e18,\n            title: \"Plan 1\"\n        });\n        StakingPlan memory stakingPlanTwo = StakingPlan({\n            planId : 1,\n            apr: 20,\n            totalStakers: 0,\n            totalStakingDeposit: 0,\n            lockPeriod: 24 * 4 weeks,        //2 years\n            minTokenAmount: 500e18,\n            maxTokenDeposit: 5000000e18,\n            title: \"Plan 2\"\n        });\n        stakingPlans.push(stakingPlanOne);\n        stakingPlans.push(stakingPlanTwo);\n    }\n\n    function stakeDeposit(address _from, uint256 _amount, uint8 _planId) onlyOwner external {\n        require(_planId <= 1, \"Error, staking plan does not exists\");\n        require(stakingPlans[_planId].totalStakingDeposit + _amount < stakingPlans[_planId].maxTokenDeposit, \"Error, staking deposit limit reach\");\n        require(mle.balanceOf(_from) >= _amount, \"Error, insuffisant funds to stake\");\n        require(mle.transferFrom(_from, address(mle), _amount), \"Error, failed staking deposit\");\n\n        uint256 newUserStakingDepositBalanceTotal = _afterDepositStakingTransfer(_from, _planId, _amount);\n\n        emit StakeDeposit(_amount, _from, _planId, newUserStakingDepositBalanceTotal);\n    }\n\n    function stakeWithdraw(address _to, uint256 _amount, uint8 _planId) onlyOwner external {\n        require(_planId <= 1, \"Error, staking plan does not exists\");\n\n        uint256 userStakingBalanceTotal = _beforeWithdrawalStakingTransfer(_to, _planId, _amount);\n\n        mle.transferFrom(address(mle), _to, _amount);\n\n        uint256 newUserStakingBalanceTotal =\n            _afterWithdrawalStakingTransfer(_to, _planId, _amount, userStakingBalanceTotal);\n\n        emit StakeWithdrawal(_amount, _to, _planId, newUserStakingBalanceTotal);\n    }\n\n    function _afterDepositStakingTransfer(address _from, uint _planId, uint _amount) internal returns (uint) {\n        // register deposit\n        StakingRecord memory userStakingDeposit = StakingRecord({\n            date: block.timestamp,\n            amount: _amount\n        });\n        userStakingDepositBalance[_from][_planId].push(userStakingDeposit);\n\n        // update total deposit from all users\n        stakingPlans[_planId].totalStakingDeposit += _amount;\n\n        // update stakers\n        _registerStakers(_from);\n\n        // update staking plan stakers total\n        stakingPlans[_planId].totalStakers = stakers.length;\n\n        // update user total staking deposit balance\n        uint256 newUserStakingDepositBalanceTotal;\n        StakingRecord[] memory deposits = userStakingDepositBalance[_from][_planId];\n        for (uint i = 0; i < deposits.length; i++) {\n            newUserStakingDepositBalanceTotal += deposits[i].amount;\n        }\n\n        return newUserStakingDepositBalanceTotal;\n    }\n\n    function _registerStakers(address _addr) internal {\n        for (uint i =0; i < stakers.length; i++) {\n            if (stakers[i] == _addr) {\n                return;\n            }\n        }\n        stakers.push(_addr);\n    }\n\n    function _beforeWithdrawalStakingTransfer(address _to, uint _planId, uint _amount) internal view returns (uint) {\n        // count withdraw amount\n        uint256 userStakingWithdrawalBalanceTotal = _getUserWithdrawalBalance(_to, _planId);\n\n        // count deposit amount\n        uint256 userStakingDepositBalanceTotal;\n        uint256 firstDepositDate;\n        (userStakingDepositBalanceTotal, firstDepositDate) = _getUserStakingDepositBalance(_to, _planId);\n\n        uint256 userStakingBalanceTotal = userStakingDepositBalanceTotal - userStakingWithdrawalBalanceTotal;\n        require(userStakingBalanceTotal - _amount >= 0, \"Error, insuffisant funds in staking to withdraw\");\n\n        uint256 lockPeriod = stakingPlans[_planId].lockPeriod;\n        require(block.timestamp > firstDepositDate + lockPeriod, \"Error, You can't withdraw before lockPeriod\");\n\n        return userStakingBalanceTotal;\n    }\n\n    function _afterWithdrawalStakingTransfer(address _to, uint _planId, uint _amount, uint _userStakingBalanceTotal) internal returns (uint) {\n        // register withdraw\n        StakingRecord memory tmpUserStakingWithdraw = StakingRecord({\n            date: block.timestamp,\n            amount: _amount\n        });\n        userStakingWithdrawalBalance[_to][_planId].push(tmpUserStakingWithdraw);\n\n        // update staking plan total Staking amount deposit\n        stakingPlans[_planId].totalStakingDeposit -= _amount;\n\n        // if user withdrawal all staking balance, remove it from staker\n        uint256 userStakingBalanceTotal = _userStakingBalanceTotal - _amount;\n        if (userStakingBalanceTotal == 0) {\n            stakingPlans[_planId].totalStakers--;\n            deleteStakers(_to);\n        }\n\n        return userStakingBalanceTotal;\n    }\n\n    function _getUserStakingDepositBalance(address _addr, uint _planId) internal view returns (uint, uint) {\n        StakingRecord[] memory tmpUserStakingDepositBalances = userStakingDepositBalance[_addr][_planId];\n        uint256 userStakingDepositBalanceTotal;\n        uint256 firstDepositDate;\n        for (uint i = 0; i < tmpUserStakingDepositBalances.length; i++) {\n            if (i == 0) {\n                firstDepositDate = tmpUserStakingDepositBalances[i].date;\n            }\n            userStakingDepositBalanceTotal += tmpUserStakingDepositBalances[i].amount;\n        }\n\n        return (userStakingDepositBalanceTotal, firstDepositDate);\n    }\n\n    function _getUserWithdrawalBalance(address _to, uint _planId) internal view returns (uint) {\n        StakingRecord[] memory tmpUserStakingWithdrawalBalances =\n            userStakingWithdrawalBalance[_to][_planId];\n        uint256 userStakingWithdrawalBalanceTotal;\n        for (uint i = 0; i < tmpUserStakingWithdrawalBalances.length; i++) {\n            userStakingWithdrawalBalanceTotal += tmpUserStakingWithdrawalBalances[i].amount;\n        }\n\n        return userStakingWithdrawalBalanceTotal;\n    }\n\n    function deleteStakers(address _addr) internal {\n        for (uint i = 0; i < stakers.length; i++) {\n            if (stakers[i] == _addr) {\n                delete(stakers[i]);\n            }\n        }\n    }\n\n}",
  "sourcePath": "/home/cyrilmarois/Code/Formations/Alyra/master-L-earn/truffle/contracts/MLEStaking.sol",
  "compiler": {
    "name": "solc",
    "version": "0.8.17+commit.8df45f5f.Emscripten.clang"
  },
  "schemaVersion": "3.4.10",
  "updatedAt": "2022-12-12T01:07:56.391Z",
  "devdoc": {
    "author": "Cyril Marois & Maxence Guillemain d'Echon*",
    "kind": "dev",
    "methods": {
      "owner()": {
        "details": "Returns the address of the current owner."
      },
      "renounceOwnership()": {
        "details": "Leaves the contract without owner. It will not be possible to call `onlyOwner` functions anymore. Can only be called by the current owner. NOTE: Renouncing ownership will leave the contract without an owner, thereby removing any functionality that is only available to the owner."
      },
      "transferOwnership(address)": {
        "details": "Transfers ownership of the contract to a new account (`newOwner`). Can only be called by the current owner."
      }
    },
    "title": "The smart contract to handle the MLE Staking",
    "version": 1
  },
  "userdoc": {
    "kind": "user",
    "methods": {},
    "version": 1
  }
}