{
  "contractName": "Staking",
  "abi": [
    {
      "inputs": [],
      "stateMutability": "nonpayable",
      "type": "constructor"
    },
    {
      "anonymous": false,
      "inputs": [
        {
          "indexed": false,
          "internalType": "address",
          "name": "recruiterAddress",
          "type": "address"
        },
        {
          "indexed": false,
          "internalType": "uint256",
          "name": "announceId",
          "type": "uint256"
        }
      ],
      "name": "AnnouncePublished",
      "type": "event"
    },
    {
      "anonymous": false,
      "inputs": [
        {
          "indexed": true,
          "internalType": "address",
          "name": "owner",
          "type": "address"
        },
        {
          "indexed": true,
          "internalType": "address",
          "name": "spender",
          "type": "address"
        },
        {
          "indexed": false,
          "internalType": "uint256",
          "name": "value",
          "type": "uint256"
        }
      ],
      "name": "Approval",
      "type": "event"
    },
    {
      "anonymous": false,
      "inputs": [
        {
          "indexed": false,
          "internalType": "address",
          "name": "teacherAddress",
          "type": "address"
        },
        {
          "indexed": false,
          "internalType": "uint256",
          "name": "teacherFormationId",
          "type": "uint256"
        },
        {
          "indexed": false,
          "internalType": "address",
          "name": "studentAddress",
          "type": "address"
        }
      ],
      "name": "FormationCertified",
      "type": "event"
    },
    {
      "anonymous": false,
      "inputs": [
        {
          "indexed": false,
          "internalType": "address",
          "name": "teacherAddress",
          "type": "address"
        },
        {
          "indexed": false,
          "internalType": "uint256",
          "name": "teacherFormationId",
          "type": "uint256"
        }
      ],
      "name": "FormationPublished",
      "type": "event"
    },
    {
      "anonymous": false,
      "inputs": [
        {
          "indexed": true,
          "internalType": "address",
          "name": "previousOwner",
          "type": "address"
        },
        {
          "indexed": true,
          "internalType": "address",
          "name": "newOwner",
          "type": "address"
        }
      ],
      "name": "OwnershipTransferred",
      "type": "event"
    },
    {
      "anonymous": false,
      "inputs": [
        {
          "indexed": false,
          "internalType": "address",
          "name": "recruiterAddress",
          "type": "address"
        }
      ],
      "name": "RecruiterRegistered",
      "type": "event"
    },
    {
      "anonymous": false,
      "inputs": [
        {
          "indexed": false,
          "internalType": "address",
          "name": "_studentAddress",
          "type": "address"
        },
        {
          "indexed": false,
          "internalType": "uint16",
          "name": "_jobId",
          "type": "uint16"
        }
      ],
      "name": "RecruitmentReward",
      "type": "event"
    },
    {
      "anonymous": false,
      "inputs": [
        {
          "indexed": false,
          "internalType": "uint256",
          "name": "amount",
          "type": "uint256"
        },
        {
          "indexed": false,
          "internalType": "address",
          "name": "from",
          "type": "address"
        },
        {
          "indexed": false,
          "internalType": "uint8",
          "name": "planId",
          "type": "uint8"
        },
        {
          "indexed": false,
          "internalType": "uint256",
          "name": "totalDeposit",
          "type": "uint256"
        }
      ],
      "name": "StakeDeposit",
      "type": "event"
    },
    {
      "anonymous": false,
      "inputs": [
        {
          "indexed": false,
          "internalType": "uint256",
          "name": "amount",
          "type": "uint256"
        },
        {
          "indexed": false,
          "internalType": "address",
          "name": "from",
          "type": "address"
        },
        {
          "indexed": false,
          "internalType": "uint8",
          "name": "planId",
          "type": "uint8"
        },
        {
          "indexed": false,
          "internalType": "uint256",
          "name": "newUserStakingBalanceTotal",
          "type": "uint256"
        }
      ],
      "name": "StakeWithdrawal",
      "type": "event"
    },
    {
      "anonymous": false,
      "inputs": [
        {
          "indexed": false,
          "internalType": "address",
          "name": "studentAddress",
          "type": "address"
        }
      ],
      "name": "StudentRegistered",
      "type": "event"
    },
    {
      "anonymous": false,
      "inputs": [
        {
          "indexed": false,
          "internalType": "address",
          "name": "teacherAddress",
          "type": "address"
        }
      ],
      "name": "TeacherRegistered",
      "type": "event"
    },
    {
      "anonymous": false,
      "inputs": [
        {
          "indexed": false,
          "internalType": "address",
          "name": "teacherAddress",
          "type": "address"
        }
      ],
      "name": "TeacherRewarded",
      "type": "event"
    },
    {
      "anonymous": false,
      "inputs": [
        {
          "indexed": true,
          "internalType": "address",
          "name": "from",
          "type": "address"
        },
        {
          "indexed": true,
          "internalType": "address",
          "name": "to",
          "type": "address"
        },
        {
          "indexed": false,
          "internalType": "uint256",
          "name": "value",
          "type": "uint256"
        }
      ],
      "name": "Transfer",
      "type": "event"
    },
    {
      "stateMutability": "payable",
      "type": "fallback",
      "payable": true
    },
    {
      "inputs": [
        {
          "internalType": "address",
          "name": "owner",
          "type": "address"
        },
        {
          "internalType": "address",
          "name": "spender",
          "type": "address"
        }
      ],
      "name": "allowance",
      "outputs": [
        {
          "internalType": "uint256",
          "name": "",
          "type": "uint256"
        }
      ],
      "stateMutability": "view",
      "type": "function",
      "constant": true
    },
    {
      "inputs": [
        {
          "internalType": "address",
          "name": "spender",
          "type": "address"
        },
        {
          "internalType": "uint256",
          "name": "amount",
          "type": "uint256"
        }
      ],
      "name": "approve",
      "outputs": [
        {
          "internalType": "bool",
          "name": "",
          "type": "bool"
        }
      ],
      "stateMutability": "nonpayable",
      "type": "function"
    },
    {
      "inputs": [
        {
          "internalType": "address",
          "name": "account",
          "type": "address"
        }
      ],
      "name": "balanceOf",
      "outputs": [
        {
          "internalType": "uint256",
          "name": "",
          "type": "uint256"
        }
      ],
      "stateMutability": "view",
      "type": "function",
      "constant": true
    },
    {
      "inputs": [],
      "name": "decimals",
      "outputs": [
        {
          "internalType": "uint8",
          "name": "",
          "type": "uint8"
        }
      ],
      "stateMutability": "view",
      "type": "function",
      "constant": true
    },
    {
      "inputs": [
        {
          "internalType": "address",
          "name": "spender",
          "type": "address"
        },
        {
          "internalType": "uint256",
          "name": "subtractedValue",
          "type": "uint256"
        }
      ],
      "name": "decreaseAllowance",
      "outputs": [
        {
          "internalType": "bool",
          "name": "",
          "type": "bool"
        }
      ],
      "stateMutability": "nonpayable",
      "type": "function"
    },
    {
      "inputs": [
        {
          "internalType": "address",
          "name": "spender",
          "type": "address"
        },
        {
          "internalType": "uint256",
          "name": "addedValue",
          "type": "uint256"
        }
      ],
      "name": "increaseAllowance",
      "outputs": [
        {
          "internalType": "bool",
          "name": "",
          "type": "bool"
        }
      ],
      "stateMutability": "nonpayable",
      "type": "function"
    },
    {
      "inputs": [],
      "name": "name",
      "outputs": [
        {
          "internalType": "string",
          "name": "",
          "type": "string"
        }
      ],
      "stateMutability": "view",
      "type": "function",
      "constant": true
    },
    {
      "inputs": [],
      "name": "owner",
      "outputs": [
        {
          "internalType": "address",
          "name": "",
          "type": "address"
        }
      ],
      "stateMutability": "view",
      "type": "function",
      "constant": true
    },
    {
      "inputs": [],
      "name": "renounceOwnership",
      "outputs": [],
      "stateMutability": "nonpayable",
      "type": "function"
    },
    {
      "inputs": [
        {
          "internalType": "uint256",
          "name": "",
          "type": "uint256"
        }
      ],
      "name": "stakingPlans",
      "outputs": [
        {
          "internalType": "uint8",
          "name": "planId",
          "type": "uint8"
        },
        {
          "internalType": "uint8",
          "name": "apr",
          "type": "uint8"
        },
        {
          "internalType": "uint128",
          "name": "lockPeriod",
          "type": "uint128"
        },
        {
          "internalType": "uint256",
          "name": "totalStakers",
          "type": "uint256"
        },
        {
          "internalType": "uint256",
          "name": "totalStakingDeposit",
          "type": "uint256"
        },
        {
          "internalType": "uint256",
          "name": "minTokenAmount",
          "type": "uint256"
        },
        {
          "internalType": "uint256",
          "name": "maxTokenDeposit",
          "type": "uint256"
        },
        {
          "internalType": "string",
          "name": "title",
          "type": "string"
        }
      ],
      "stateMutability": "view",
      "type": "function",
      "constant": true
    },
    {
      "inputs": [],
      "name": "symbol",
      "outputs": [
        {
          "internalType": "string",
          "name": "",
          "type": "string"
        }
      ],
      "stateMutability": "view",
      "type": "function",
      "constant": true
    },
    {
      "inputs": [],
      "name": "totalSupply",
      "outputs": [
        {
          "internalType": "uint256",
          "name": "",
          "type": "uint256"
        }
      ],
      "stateMutability": "view",
      "type": "function",
      "constant": true
    },
    {
      "inputs": [
        {
          "internalType": "address",
          "name": "to",
          "type": "address"
        },
        {
          "internalType": "uint256",
          "name": "amount",
          "type": "uint256"
        }
      ],
      "name": "transfer",
      "outputs": [
        {
          "internalType": "bool",
          "name": "",
          "type": "bool"
        }
      ],
      "stateMutability": "nonpayable",
      "type": "function"
    },
    {
      "inputs": [
        {
          "internalType": "address",
          "name": "from",
          "type": "address"
        },
        {
          "internalType": "address",
          "name": "to",
          "type": "address"
        },
        {
          "internalType": "uint256",
          "name": "amount",
          "type": "uint256"
        }
      ],
      "name": "transferFrom",
      "outputs": [
        {
          "internalType": "bool",
          "name": "",
          "type": "bool"
        }
      ],
      "stateMutability": "nonpayable",
      "type": "function"
    },
    {
      "inputs": [
        {
          "internalType": "address",
          "name": "newOwner",
          "type": "address"
        }
      ],
      "name": "transferOwnership",
      "outputs": [],
      "stateMutability": "nonpayable",
      "type": "function"
    },
    {
      "inputs": [
        {
          "internalType": "address",
          "name": "",
          "type": "address"
        },
        {
          "internalType": "uint256",
          "name": "",
          "type": "uint256"
        },
        {
          "internalType": "uint256",
          "name": "",
          "type": "uint256"
        }
      ],
      "name": "userStakingDepositBalance",
      "outputs": [
        {
          "internalType": "uint256",
          "name": "date",
          "type": "uint256"
        },
        {
          "internalType": "uint256",
          "name": "amount",
          "type": "uint256"
        }
      ],
      "stateMutability": "view",
      "type": "function",
      "constant": true
    },
    {
      "inputs": [
        {
          "internalType": "address",
          "name": "",
          "type": "address"
        },
        {
          "internalType": "uint256",
          "name": "",
          "type": "uint256"
        },
        {
          "internalType": "uint256",
          "name": "",
          "type": "uint256"
        }
      ],
      "name": "userStakingWithdrawalBalance",
      "outputs": [
        {
          "internalType": "uint256",
          "name": "date",
          "type": "uint256"
        },
        {
          "internalType": "uint256",
          "name": "amount",
          "type": "uint256"
        }
      ],
      "stateMutability": "view",
      "type": "function",
      "constant": true
    },
    {
      "stateMutability": "payable",
      "type": "receive",
      "payable": true
    },
    {
      "inputs": [
        {
          "internalType": "address",
          "name": "_recruiterAddress",
          "type": "address"
        },
        {
          "internalType": "uint16",
          "name": "_announceId",
          "type": "uint16"
        }
      ],
      "name": "getAnnounceForRecruiter",
      "outputs": [
        {
          "components": [
            {
              "internalType": "bool",
              "name": "isActive",
              "type": "bool"
            },
            {
              "internalType": "uint256",
              "name": "creationDate",
              "type": "uint256"
            },
            {
              "internalType": "string",
              "name": "title",
              "type": "string"
            },
            {
              "internalType": "string[]",
              "name": "tags",
              "type": "string[]"
            },
            {
              "internalType": "address[]",
              "name": "candidates",
              "type": "address[]"
            }
          ],
          "internalType": "struct Staking.Announce",
          "name": "",
          "type": "tuple"
        }
      ],
      "stateMutability": "view",
      "type": "function",
      "constant": true
    },
    {
      "inputs": [
        {
          "internalType": "address",
          "name": "_recruiterAddress",
          "type": "address"
        }
      ],
      "name": "getAnnouncesForRecruiter",
      "outputs": [
        {
          "components": [
            {
              "internalType": "bool",
              "name": "isActive",
              "type": "bool"
            },
            {
              "internalType": "uint256",
              "name": "creationDate",
              "type": "uint256"
            },
            {
              "internalType": "string",
              "name": "title",
              "type": "string"
            },
            {
              "internalType": "string[]",
              "name": "tags",
              "type": "string[]"
            },
            {
              "internalType": "address[]",
              "name": "candidates",
              "type": "address[]"
            }
          ],
          "internalType": "struct Staking.Announce[]",
          "name": "",
          "type": "tuple[]"
        }
      ],
      "stateMutability": "view",
      "type": "function",
      "constant": true
    },
    {
      "inputs": [
        {
          "internalType": "address",
          "name": "_teacherAddress",
          "type": "address"
        },
        {
          "internalType": "uint16",
          "name": "_formationId",
          "type": "uint16"
        }
      ],
      "name": "getFormationForTeacher",
      "outputs": [
        {
          "components": [
            {
              "internalType": "uint8",
              "name": "modulesCount",
              "type": "uint8"
            },
            {
              "internalType": "uint32",
              "name": "ratingsSum",
              "type": "uint32"
            },
            {
              "internalType": "uint32",
              "name": "ratingsCount",
              "type": "uint32"
            },
            {
              "internalType": "uint32",
              "name": "duration",
              "type": "uint32"
            },
            {
              "internalType": "uint128",
              "name": "creationDate",
              "type": "uint128"
            },
            {
              "internalType": "uint256",
              "name": "price",
              "type": "uint256"
            },
            {
              "internalType": "string",
              "name": "title",
              "type": "string"
            },
            {
              "internalType": "string[]",
              "name": "tags",
              "type": "string[]"
            },
            {
              "internalType": "address[]",
              "name": "students",
              "type": "address[]"
            }
          ],
          "internalType": "struct Staking.TeacherFormation",
          "name": "",
          "type": "tuple"
        }
      ],
      "stateMutability": "view",
      "type": "function",
      "constant": true
    },
    {
      "inputs": [
        {
          "internalType": "address",
          "name": "_teacherAddress",
          "type": "address"
        }
      ],
      "name": "getTeacherFormationsForTeacher",
      "outputs": [
        {
          "components": [
            {
              "internalType": "uint8",
              "name": "modulesCount",
              "type": "uint8"
            },
            {
              "internalType": "uint32",
              "name": "ratingsSum",
              "type": "uint32"
            },
            {
              "internalType": "uint32",
              "name": "ratingsCount",
              "type": "uint32"
            },
            {
              "internalType": "uint32",
              "name": "duration",
              "type": "uint32"
            },
            {
              "internalType": "uint128",
              "name": "creationDate",
              "type": "uint128"
            },
            {
              "internalType": "uint256",
              "name": "price",
              "type": "uint256"
            },
            {
              "internalType": "string",
              "name": "title",
              "type": "string"
            },
            {
              "internalType": "string[]",
              "name": "tags",
              "type": "string[]"
            },
            {
              "internalType": "address[]",
              "name": "students",
              "type": "address[]"
            }
          ],
          "internalType": "struct Staking.TeacherFormation[]",
          "name": "",
          "type": "tuple[]"
        }
      ],
      "stateMutability": "view",
      "type": "function",
      "constant": true
    },
    {
      "inputs": [
        {
          "internalType": "address",
          "name": "_studentAddress",
          "type": "address"
        }
      ],
      "name": "getFormationsForStudent",
      "outputs": [
        {
          "components": [
            {
              "internalType": "address",
              "name": "teacherAddress",
              "type": "address"
            },
            {
              "internalType": "uint16",
              "name": "formationId",
              "type": "uint16"
            },
            {
              "internalType": "uint8",
              "name": "validatedModulesNumber",
              "type": "uint8"
            },
            {
              "internalType": "bool",
              "name": "isCertified",
              "type": "bool"
            },
            {
              "internalType": "bool",
              "name": "isRated",
              "type": "bool"
            },
            {
              "internalType": "uint256",
              "name": "cashback",
              "type": "uint256"
            }
          ],
          "internalType": "struct Staking.StudentFormation[]",
          "name": "",
          "type": "tuple[]"
        }
      ],
      "stateMutability": "view",
      "type": "function",
      "constant": true
    },
    {
      "inputs": [
        {
          "internalType": "address",
          "name": "_studentAddress",
          "type": "address"
        }
      ],
      "name": "getJobsForStudent",
      "outputs": [
        {
          "components": [
            {
              "internalType": "bool",
              "name": "isAccepted",
              "type": "bool"
            },
            {
              "internalType": "address",
              "name": "recruiterAddress",
              "type": "address"
            },
            {
              "internalType": "uint16",
              "name": "announceId",
              "type": "uint16"
            },
            {
              "internalType": "uint128",
              "name": "entryDate",
              "type": "uint128"
            },
            {
              "internalType": "string",
              "name": "title",
              "type": "string"
            },
            {
              "internalType": "string",
              "name": "description",
              "type": "string"
            },
            {
              "internalType": "uint256",
              "name": "challenge",
              "type": "uint256"
            }
          ],
          "internalType": "struct Staking.Job[]",
          "name": "",
          "type": "tuple[]"
        }
      ],
      "stateMutability": "view",
      "type": "function",
      "constant": true
    },
    {
      "inputs": [
        {
          "internalType": "uint256",
          "name": "_announcePostPrice",
          "type": "uint256"
        }
      ],
      "name": "setAnnouncePostPrice",
      "outputs": [],
      "stateMutability": "nonpayable",
      "type": "function"
    },
    {
      "inputs": [
        {
          "internalType": "uint256",
          "name": "_formationFee",
          "type": "uint256"
        }
      ],
      "name": "setFormationFee",
      "outputs": [],
      "stateMutability": "nonpayable",
      "type": "function"
    },
    {
      "inputs": [
        {
          "internalType": "uint256",
          "name": "_formationFeeBurn",
          "type": "uint256"
        }
      ],
      "name": "setFormationFeeBurn",
      "outputs": [],
      "stateMutability": "nonpayable",
      "type": "function"
    },
    {
      "inputs": [
        {
          "internalType": "uint256",
          "name": "_teacherReward",
          "type": "uint256"
        }
      ],
      "name": "setQualityFormationReward",
      "outputs": [],
      "stateMutability": "nonpayable",
      "type": "function"
    },
    {
      "inputs": [
        {
          "internalType": "uint256",
          "name": "_jobSignedReward",
          "type": "uint256"
        }
      ],
      "name": "setJobSignedReward",
      "outputs": [],
      "stateMutability": "nonpayable",
      "type": "function"
    },
    {
      "inputs": [
        {
          "internalType": "address",
          "name": "_address",
          "type": "address"
        },
        {
          "internalType": "bool",
          "name": "_asStudent",
          "type": "bool"
        },
        {
          "internalType": "bool",
          "name": "_asTeacher",
          "type": "bool"
        },
        {
          "internalType": "bool",
          "name": "_asRecruiter",
          "type": "bool"
        }
      ],
      "name": "registerUser",
      "outputs": [],
      "stateMutability": "nonpayable",
      "type": "function"
    },
    {
      "inputs": [
        {
          "internalType": "uint8",
          "name": "_modulesCount",
          "type": "uint8"
        },
        {
          "internalType": "uint16",
          "name": "_duration",
          "type": "uint16"
        },
        {
          "internalType": "uint256",
          "name": "_price",
          "type": "uint256"
        },
        {
          "internalType": "string",
          "name": "_title",
          "type": "string"
        },
        {
          "internalType": "string[]",
          "name": "_tags",
          "type": "string[]"
        }
      ],
      "name": "postFormation",
      "outputs": [],
      "stateMutability": "nonpayable",
      "type": "function"
    },
    {
      "inputs": [
        {
          "internalType": "address",
          "name": "_studentAddress",
          "type": "address"
        },
        {
          "internalType": "uint16",
          "name": "_teacherFormationId",
          "type": "uint16"
        }
      ],
      "name": "validateUserModule",
      "outputs": [],
      "stateMutability": "nonpayable",
      "type": "function"
    },
    {
      "inputs": [
        {
          "internalType": "address",
          "name": "_studentAddress",
          "type": "address"
        },
        {
          "internalType": "uint16",
          "name": "_teacherFormationId",
          "type": "uint16"
        }
      ],
      "name": "certifyUserFormation",
      "outputs": [],
      "stateMutability": "nonpayable",
      "type": "function"
    },
    {
      "inputs": [
        {
          "internalType": "address",
          "name": "_teacherAddress",
          "type": "address"
        },
        {
          "internalType": "uint16",
          "name": "_teacherFormationId",
          "type": "uint16"
        }
      ],
      "name": "buyFormation",
      "outputs": [],
      "stateMutability": "nonpayable",
      "type": "function"
    },
    {
      "inputs": [
        {
          "internalType": "address",
          "name": "_teacherAddress",
          "type": "address"
        },
        {
          "internalType": "uint16",
          "name": "_teacherFormationId",
          "type": "uint16"
        },
        {
          "internalType": "uint8",
          "name": "grade",
          "type": "uint8"
        }
      ],
      "name": "evaluateFormation",
      "outputs": [],
      "stateMutability": "nonpayable",
      "type": "function"
    },
    {
      "inputs": [
        {
          "internalType": "string",
          "name": "_title",
          "type": "string"
        },
        {
          "internalType": "string[]",
          "name": "_tags",
          "type": "string[]"
        }
      ],
      "name": "postAnnounce",
      "outputs": [],
      "stateMutability": "nonpayable",
      "type": "function"
    },
    {
      "inputs": [
        {
          "internalType": "address",
          "name": "_studentAddress",
          "type": "address"
        },
        {
          "internalType": "uint16",
          "name": "_announceId",
          "type": "uint16"
        },
        {
          "internalType": "string",
          "name": "_title",
          "type": "string"
        },
        {
          "internalType": "string",
          "name": "_description",
          "type": "string"
        }
      ],
      "name": "offerJob",
      "outputs": [],
      "stateMutability": "nonpayable",
      "type": "function"
    },
    {
      "inputs": [
        {
          "internalType": "address",
          "name": "_recruiterAddress",
          "type": "address"
        },
        {
          "internalType": "uint16",
          "name": "_announceId",
          "type": "uint16"
        }
      ],
      "name": "applyAnnounce",
      "outputs": [],
      "stateMutability": "nonpayable",
      "type": "function"
    },
    {
      "inputs": [
        {
          "internalType": "bool",
          "name": "_doAccept",
          "type": "bool"
        },
        {
          "internalType": "uint16",
          "name": "_jobId",
          "type": "uint16"
        }
      ],
      "name": "answerJobOffer",
      "outputs": [],
      "stateMutability": "nonpayable",
      "type": "function"
    },
    {
      "inputs": [
        {
          "internalType": "uint16",
          "name": "_jobId",
          "type": "uint16"
        },
        {
          "internalType": "uint256",
          "name": "_challenge",
          "type": "uint256"
        }
      ],
      "name": "proveId",
      "outputs": [],
      "stateMutability": "nonpayable",
      "type": "function"
    },
    {
      "inputs": [
        {
          "internalType": "address",
          "name": "_studentAddress",
          "type": "address"
        },
        {
          "internalType": "uint16",
          "name": "_jobId",
          "type": "uint16"
        },
        {
          "internalType": "uint256",
          "name": "_challenge",
          "type": "uint256"
        }
      ],
      "name": "verifyId",
      "outputs": [],
      "stateMutability": "nonpayable",
      "type": "function"
    },
    {
      "inputs": [
        {
          "internalType": "uint256",
          "name": "_amount",
          "type": "uint256"
        },
        {
          "internalType": "uint8",
          "name": "_planId",
          "type": "uint8"
        }
      ],
      "name": "stakeDeposit",
      "outputs": [],
      "stateMutability": "nonpayable",
      "type": "function"
    },
    {
      "inputs": [
        {
          "internalType": "uint256",
          "name": "_amount",
          "type": "uint256"
        },
        {
          "internalType": "uint8",
          "name": "_planId",
          "type": "uint8"
        }
      ],
      "name": "stakeWithdraw",
      "outputs": [],
      "stateMutability": "nonpayable",
      "type": "function"
    }
  ],
  "bytecode": "0x60806040526802b5e3af16b1880000600e556003600f556000601055683635c9adc5dea000006011819055601255601380546001600160401b0319166423000000051790553480156200005157600080fd5b506040518060400160405280600d81526020016c26b0b9ba32b910261322b0b93760991b815250604051806040016040528060038152602001624d4c4560e81b8152508160039081620000a59190620008f0565b506004620000b48282620008f0565b505050620000d1620000cb620001ab60201b60201c565b620001af565b620000e73369d3c21bcecceda100000062000201565b620000f1620002b7565b73c2d1a543861ea9a99fbd57db0f8820026c887768738c558db06f214a38aedee77017560555f71a140273e38613fb92cab66312c2a7110836a43cc4ba9cf36200014582683635c9adc5dea000006200060a565b506200015682600060018162000626565b6200016b83683635c9adc5dea000006200060a565b506200017c83600160008062000626565b6200019181683635c9adc5dea000006200060a565b50620001a281600080600162000626565b505050620009de565b3390565b600580546001600160a01b038381166001600160a01b0319831681179093556040519116919082907f8be0079c531659141344cd1fd0a4f28419497f9722a3daafe3b4186f6b6457e090600090a35050565b6001600160a01b0382166200025d5760405162461bcd60e51b815260206004820152601f60248201527f45524332303a206d696e7420746f20746865207a65726f20616464726573730060448201526064015b60405180910390fd5b8060026000828254620002719190620009bc565b90915550506001600160a01b03821660008181526020818152604080832080548601905551848152600080516020620062b3833981519152910160405180910390a35050565b6000604051806101000160405280600060ff168152602001600a60ff1681526020016301baf8006001600160801b031681526020016000815260200160008152602001681b1ae4d6e2ef50000081526020016a0211654585005212800000815260200160405180604001604052806006815260200165506c616e203160d01b81525081525090506000604051806101000160405280600160ff168152602001601460ff168152602001630375f0006001600160801b031681526020016000815260200160008152602001681b1ae4d6e2ef50000081526020016a0422ca8b0a00a425000000815260200160405180604001604052806006815260200165283630b7101960d11b8152508152509050600d82908060018154018082558091505060019003906000526020600020906006020160009091909190915060008201518160000160006101000a81548160ff021916908360ff16021790555060208201518160000160016101000a81548160ff021916908360ff16021790555060408201518160000160026101000a8154816001600160801b0302191690836001600160801b03160217905550606082015181600101556080820151816002015560a0820151816003015560c0820151816004015560e08201518160050190816200049f9190620008f0565b5050600d8054600181018255600091909152825160069091027fd7b6990105719101dabeb77144f2a3385c8033acd3af97e9423a695e81ad1eb581018054602086015160408701516001600160801b0316620100000262010000600160901b031960ff9283166101000261ffff199094169290961691909117919091179390931692909217825560608401517fd7b6990105719101dabeb77144f2a3385c8033acd3af97e9423a695e81ad1eb682015560808401517fd7b6990105719101dabeb77144f2a3385c8033acd3af97e9423a695e81ad1eb782015560a08401517fd7b6990105719101dabeb77144f2a3385c8033acd3af97e9423a695e81ad1eb882015560c08401517fd7b6990105719101dabeb77144f2a3385c8033acd3af97e9423a695e81ad1eb982015560e08401518493507fd7b6990105719101dabeb77144f2a3385c8033acd3af97e9423a695e81ad1eba90910190620006039082620008f0565b5050505050565b6000336200061a818585620006b2565b60019150505b92915050565b821562000651576001600160a01b0384166000908152600660205260409020805460ff191660011790555b81156200067c576001600160a01b0384166000908152600760205260409020805460ff191660011790555b8015620006a7576001600160a01b0384166000908152600860205260409020805460ff191660011790555b50505050565b505050565b6001600160a01b038316620007185760405162461bcd60e51b815260206004820152602560248201527f45524332303a207472616e736665722066726f6d20746865207a65726f206164604482015264647265737360d81b606482015260840162000254565b6001600160a01b0382166200077c5760405162461bcd60e51b815260206004820152602360248201527f45524332303a207472616e7366657220746f20746865207a65726f206164647260448201526265737360e81b606482015260840162000254565b6001600160a01b03831660009081526020819052604090205481811015620007f65760405162461bcd60e51b815260206004820152602660248201527f45524332303a207472616e7366657220616d6f756e7420657863656564732062604482015265616c616e636560d01b606482015260840162000254565b6001600160a01b0384811660008181526020818152604080832087870390559387168083529184902080548701905592518581529092600080516020620062b3833981519152910160405180910390a3620006a7565b634e487b7160e01b600052604160045260246000fd5b600181811c908216806200087757607f821691505b6020821081036200089857634e487b7160e01b600052602260045260246000fd5b50919050565b601f821115620006ad57600081815260208120601f850160051c81016020861015620008c75750805b601f850160051c820191505b81811015620008e857828155600101620008d3565b505050505050565b81516001600160401b038111156200090c576200090c6200084c565b62000924816200091d845462000862565b846200089e565b602080601f8311600181146200095c5760008415620009435750858301515b600019600386901b1c1916600185901b178555620008e8565b600085815260208120601f198616915b828110156200098d578886015182559484019460019091019084016200096c565b5085821015620009ac5787850151600019600388901b60f8161c191681555b5050505050600190811b01905550565b808201808211156200062057634e487b7160e01b600052601160045260246000fd5b6158c580620009ee6000396000f3fe6080604052600436106102a55760003560e01c806370a0823111610161578063a2a818e1116100ca578063ac82200f11610084578063dd62ed3e11610061578063dd62ed3e14610823578063e472b03a14610869578063f2fde38b1461088957005b8063ac82200f146107a9578063cb345c16146107d6578063d2c36ad11461080357005b8063a457c2d7116100b2578063a457c2d714610749578063a9059cbb14610769578063aa5428681461078957005b8063a2a818e1146106fc578063a3c718db1461072957005b806376c967fb1161011b5780638da5cb5b116101035780638da5cb5b1461069257806395d89b41146106ba57806395febcde146106cf57005b806376c967fb1461064557806384acbe5d1461066557005b8063731c689a11610149578063731c689a146105bc57806375caee97146105f1578063762e7a341461061157005b806370a0823114610571578063715018a6146105a757005b80632b8e567f1161020e57806359946ff9116101c857806368cb519b116101a557806368cb519b146105045780636a559c71146105315780636b9d1cf41461055157005b806359946ff9146104a45780635babdc7c146104c45780635c4f8419146104e457005b806332bb0940116101f657806332bb09401461044457806339509351146104645780634be70e2a1461048457005b80632b8e567f14610408578063313ce5671461042857005b80631678e87c1161025f57806318160ddd1161024757806318160ddd146103a95780631c63f258146103c857806323b872dd146103e857005b80631678e87c14610369578063170b8a1c1461038957005b8063095ea7b31161028d578063095ea7b3146102f95780630b2138281461032957806313d5a7f71461034957005b806306fdde03146102ae578063079d1ce8146102d957005b366102ac57005b005b3480156102ba57600080fd5b506102c36108a9565b6040516102d09190614c1f565b60405180910390f35b3480156102e557600080fd5b506102ac6102f4366004614c67565b61093b565b34801561030557600080fd5b50610319610314366004614c9a565b610f70565b60405190151581526020016102d0565b34801561033557600080fd5b506102ac610344366004614cc4565b610f8a565b34801561035557600080fd5b506102ac610364366004614cc4565b610f97565b34801561037557600080fd5b506102ac610384366004614e44565b610fa4565b34801561039557600080fd5b506102ac6103a4366004614ed3565b611130565b3480156103b557600080fd5b506002545b6040519081526020016102d0565b3480156103d457600080fd5b506102ac6103e3366004614c67565b611174565b3480156103f457600080fd5b50610319610403366004614eef565b61144a565b34801561041457600080fd5b506102ac610423366004614c67565b61146e565b34801561043457600080fd5b50604051601281526020016102d0565b34801561045057600080fd5b506102ac61045f366004614f2b565b6116cc565b34801561047057600080fd5b5061031961047f366004614c9a565b611856565b34801561049057600080fd5b506102ac61049f366004614f57565b611895565b3480156104b057600080fd5b506102ac6104bf366004614f7a565b61197e565b3480156104d057600080fd5b506102ac6104df366004614cc4565b611aa7565b3480156104f057600080fd5b506102ac6104ff366004614fde565b611ab4565b34801561051057600080fd5b5061052461051f366004615021565b611e99565b6040516102d0919061503c565b34801561053d57600080fd5b506102ac61054c366004615119565b6120f0565b34801561055d57600080fd5b506102ac61056c366004614c67565b6122d2565b34801561057d57600080fd5b506103ba61058c366004615021565b6001600160a01b031660009081526020819052604090205490565b3480156105b357600080fd5b506102ac612539565b3480156105c857600080fd5b506105dc6105d736600461519e565b61254d565b604080519283526020830191909152016102d0565b3480156105fd57600080fd5b506105dc61060c36600461519e565b61259a565b34801561061d57600080fd5b5061063161062c366004614cc4565b6125b6565b6040516102d09897969594939291906151d1565b34801561065157600080fd5b506102ac61066036600461523d565b61269f565b34801561067157600080fd5b50610685610680366004614c67565b612752565b6040516102d09190615350565b34801561069e57600080fd5b506005546040516001600160a01b0390911681526020016102d0565b3480156106c657600080fd5b506102c3612aa0565b3480156106db57600080fd5b506106ef6106ea366004614c67565b612aaf565b6040516102d09190615428565b34801561070857600080fd5b5061071c610717366004615021565b612e0e565b6040516102d0919061543b565b34801561073557600080fd5b506102ac610744366004614cc4565b6130ca565b34801561075557600080fd5b50610319610764366004614c9a565b61314d565b34801561077557600080fd5b50610319610784366004614c9a565b6131f7565b34801561079557600080fd5b506102ac6107a436600461549d565b613205565b3480156107b557600080fd5b506107c96107c4366004615021565b613288565b6040516102d091906154f1565b3480156107e257600080fd5b506107f66107f1366004615021565b6133b5565b6040516102d09190615570565b34801561080f57600080fd5b506102ac61081e366004614f57565b6136c1565b34801561082f57600080fd5b506103ba61083e3660046155c5565b6001600160a01b03918216600090815260016020908152604080832093909416825291909152205490565b34801561087557600080fd5b506102ac610884366004614cc4565b61393b565b34801561089557600080fd5b506102ac6108a4366004615021565b6139be565b6060600380546108b8906155ef565b80601f01602080910402602001604051908101604052809291908181526020018280546108e4906155ef565b80156109315780601f1061090657610100808354040283529160200191610931565b820191906000526020600020905b81548152906001019060200180831161091457829003601f168201915b5050505050905090565b6001600160a01b03821660009081526007602052604090205460ff166109a85760405162461bcd60e51b815260206004820152601e60248201527f53747564656e742061646472657373206e6f742072656769737465726564000060448201526064015b60405180910390fd5b6001600160a01b03821660009081526007602052604090206001015461ffff821610610a165760405162461bcd60e51b815260206004820152601360248201527f466f726d6174696f6e206e6f7420666f756e6400000000000000000000000000604482015260640161099f565b6001600160a01b0382166000908152600760205260408120600101805461ffff8416908110610a4757610a47615629565b600091825260209182902060408051610120810182526005909302909101805460ff8116845263ffffffff61010082048116958501959095526501000000000081048516928401929092526901000000000000000000820490931660608301526001600160801b03600160681b909104166080820152600182015460a082015260028201805491929160c084019190610adf906155ef565b80601f0160208091040260200160405190810160405280929190818152602001828054610b0b906155ef565b8015610b585780601f10610b2d57610100808354040283529160200191610b58565b820191906000526020600020905b815481529060010190602001808311610b3b57829003601f168201915b5050505050815260200160038201805480602002602001604051908101604052809291908181526020016000905b82821015610c32578382906000526020600020018054610ba5906155ef565b80601f0160208091040260200160405190810160405280929190818152602001828054610bd1906155ef565b8015610c1e5780601f10610bf357610100808354040283529160200191610c1e565b820191906000526020600020905b815481529060010190602001808311610c0157829003601f168201915b505050505081526020019060010190610b86565b50505050815260200160048201805480602002602001604051908101604052809291908181526020018280548015610c9357602002820191906000526020600020905b81546001600160a01b03168152600190910190602001808311610c75575b50505050508152505090508060a001516002610caf9190615655565b336000908152602081905260409020541015610d0d5760405162461bcd60e51b815260206004820152601460248201527f496e73756666696369656e742062616c616e6365000000000000000000000000604482015260640161099f565b60006064600f548360a00151610d239190615655565b610d2d919061566c565b905060006064601054600f54610d439190615655565b610d4d919061566c565b90506000828460a00151610d61919061568e565b9050610d6d86826131f7565b610d7657600080fd5b610da6610d8b6005546001600160a01b031690565b83858760a00151610d9c91906156a1565b610784919061568e565b610daf57600080fd5b610db98683613a4e565b60a0840151336000908152600b602052604081208054909190610ddd9084906156a1565b9091555050835160a0850151600091610dfb9160ff9091169061566c565b6040805160c0810182526001600160a01b03808b1680835261ffff808c16602080860182815260008789018181526060890182815260808a0183815260a08b018d8152338552600687528c85206001908101805480830182559087528887208e51600290920201805498519651955194511515600160c01b0260ff60c01b19951515600160b81b0260ff60b81b1960ff98909816600160b01b02979097167fffffffffffffffff0000ffffffffffffffffffffffffffffffffffffffffffff98909d16600160a01b027fffffffffffffffffffff00000000000000000000000000000000000000000000909a1692909e1691909117979097179490941698909817919091171697909717825593519086015592825260079092529390932001805493945090929091908110610f3257610f32615629565b60009182526020808320600460059093020191909101805460018101825590835291200180546001600160a01b031916331790555050505050505050565b600033610f7e818585613bb9565b60019150505b92915050565b610f92613d09565b600e55565b610f9f613d09565b601155565b33600090815260076020908152604080832081516101208101835260ff808b16825281850186815293820186815261ffff8b1660608481019182526001600160801b034281166080870190815260a087018e815260c088018e815260e089018e9052610100808a0186905260019a8b018054808d018255908f529c909d2089516005909d020180549b51975196519351909416600160681b027fffffff00000000000000000000000000000000ffffffffffffffffffffffffff63ffffffff9485166901000000000000000000026cffffffff000000000000000000199886166501000000000002989098166cffffffffffffffff00000000001999909516909e0264ffffffffff19909c169c9098169b909b179990991794909416939093179190911797909716919091178155925191830191909155915160028201906110ec90826156fa565b5060e08201518051611108916003840191602090910190614ab6565b506101008201518051611125916004840191602090910190614b0c565b505050505050505050565b336000908152600660205260409020600201805482919061ffff851690811061115b5761115b615629565b9060005260206000209060050201600401819055505050565b6001600160a01b03821660009081526006602052604090205460ff166111dc5760405162461bcd60e51b815260206004820152601e60248201527f53747564656e742061646472657373206e6f7420726567697374657265640000604482015260640161099f565b60006111e9833384613d63565b6001600160a01b03841660009081526006602052604081206001018054929350909161ffff841690811061121f5761121f615629565b60009182526020918290206040805160c081018252600290930290910180546001600160a01b038116845261ffff600160a01b8204169484019490945260ff600160b01b8504811692840192909252600160b81b840482161580156060850152600160c01b909404909116151560808301526001015460a082015291506112e85760405162461bcd60e51b815260206004820152601b60248201527f466f726d6174696f6e20616c7265616479206365727469666965640000000000604482015260640161099f565b336000908152600760205260409020600101805461ffff851690811061131057611310615629565b6000918252602090912060059091020154604082015160ff9182169116106113545760405162461bcd60e51b8152602060048201526000602482015260440161099f565b6001600160a01b0384166000908152600660205260409020600101805461ffff841690811061138557611385615629565b600091825260209091206002909102018054600160b01b900460ff169060166113ad836157ba565b91906101000a81548160ff021916908360ff160217905550508060a00151600b6000866001600160a01b03166001600160a01b031681526020019081526020016000205411156114445760a08101516001600160a01b0385166000908152600b60205260408120805490919061142490849061568e565b9091555050600554611444906001600160a01b0316858360a00151613eb3565b50505050565b6000336114588582856140a0565b611463858585613eb3565b506001949350505050565b6001600160a01b03821660009081526006602052604090205460ff166114d65760405162461bcd60e51b815260206004820152601e60248201527f53747564656e742061646472657373206e6f7420726567697374657265640000604482015260640161099f565b60006114e3833384613d63565b6001600160a01b038416600090815260066020526040902060010180549192509061ffff831690811061151857611518615629565b6000918252602090912060029091020154600160b81b900460ff16156115805760405162461bcd60e51b815260206004820152601b60248201527f466f726d6174696f6e20616c7265616479206365727469666965640000000000604482015260640161099f565b336000908152600760205260409020600101805461161d919061ffff85169081106115ad576115ad615629565b906000526020600020906005020160040180548060200260200160405190810160405280929190818152602001828054801561161257602002820191906000526020600020905b81546001600160a01b031681526001909101906020018083116115f4575b50505050508461412c565b336000908152600760205260409020600101805461ffff851690811061164557611645615629565b90600052602060002090600502016004019080519060200190611669929190614b0c565b506001600160a01b03831660009081526006602052604090206001908101805461ffff841690811061169d5761169d615629565b600091825260209091206002909102018054911515600160b81b0260ff60b81b19909216919091179055505050565b6001600160a01b0383166000908152600660205260409020600201805482919061ffff851690811061170057611700615629565b9060005260206000209060050201600401541461175f5760405162461bcd60e51b815260206004820152600f60248201527f4964206e6f742076657269666965640000000000000000000000000000000000604482015260640161099f565b6001600160a01b0383166000908152600660205260408120600201805461ffff851690811061179057611790615629565b60009182526020808320600592909202909101543383526008909152604082206001018054600160a81b90920461ffff16935090839081106117d4576117d4615629565b60009182526020909120600591820201805460ff1916921515929092179091555461180a906001600160a01b0316601254614214565b604080516001600160a01b038616815261ffff851660208201527fc6921912a8b31c32b2619342be5b4850647fd26a3b11a2a31621af0fe41c9ee591015b60405180910390a150505050565b3360008181526001602090815260408083206001600160a01b0387168452909152812054909190610f7e90829086906118909087906156a1565b613bb9565b60018160ff1611156118f55760405162461bcd60e51b815260206004820152602360248201527f4572726f722c207374616b696e6720706c616e20646f6573206e6f742065786960448201526273747360e81b606482015260840161099f565b60006119048260ff16846142d3565b905061192261191b6005546001600160a01b031690565b3385613eb3565b60006119328360ff16858461438a565b6040805186815233602082015260ff861691810191909152606081018290529091507fefec184a7664a43868bb22a3991b53aa57ea0bb497a859754dd9a0d8b67b9ffe90608001611848565b61199b6119936005546001600160a01b031690565b600e546131f7565b6119e75760405162461bcd60e51b815260206004820152601160248201527f4e6f7420656e6f75676820746f6b656e73000000000000000000000000000000604482015260640161099f565b336000908152600860209081526040808320815160a08101835260018082524282860190815293820188815260608084018990526080840181905293820180548084018255908852959096208251600590960201805460ff191695151595909517855592519284019290925592519091906002820190611a6790826156fa565b5060608201518051611a83916003840191602090910190614ab6565b5060808201518051611a9f916004840191602090910190614b0c565b505050505050565b611aaf613d09565b601255565b60328160ff161115611b085760405162461bcd60e51b815260206004820152600e60248201527f477261646520746f6f2068696768000000000000000000000000000000000000604482015260640161099f565b6001600160a01b03831660009081526007602052604090205460ff16611b705760405162461bcd60e51b815260206004820152601e60248201527f546561636865722061646472657373206e6f7420726567697374657265640000604482015260640161099f565b6001600160a01b03831660009081526007602052604090206001015461ffff831610611bde5760405162461bcd60e51b815260206004820152601360248201527f466f726d6174696f6e206e6f7420666f756e6400000000000000000000000000604482015260640161099f565b6000611beb338585613d63565b33600090815260066020526040902060010180549192509061ffff8316908110611c1757611c17615629565b6000918252602090912060029091020154600160b81b900460ff16611c7e5760405162461bcd60e51b815260206004820152601b60248201527f53747564656e742063616e6e6f74206576616c75617465207965740000000000604482015260640161099f565b336000908152600660205260409020600101805461ffff8316908110611ca657611ca6615629565b6000918252602090912060029091020154600160c01b900460ff1615611d345760405162461bcd60e51b815260206004820152602860248201527f53747564656e7420616c7265616479206576616c75617465642074686973206660448201527f6f726d6174696f6e000000000000000000000000000000000000000000000000606482015260840161099f565b3360009081526006602052604090206001908101805461ffff8416908110611d5e57611d5e615629565b6000918252602080832060029092029091018054931515600160c01b0260ff60c01b19909416939093179092556001600160a01b0386168152600790915260409020600101805460ff8416919061ffff8616908110611dbf57611dbf615629565b600091825260209091206005909102018054600190611dea908490610100900463ffffffff166157d9565b92506101000a81548163ffffffff021916908363ffffffff16021790555060076000856001600160a01b03166001600160a01b031681526020019081526020016000206001018361ffff1681548110611e4557611e45615629565b60009182526020909120600591820201805465010000000000900463ffffffff1691611e70836157fd565b91906101000a81548163ffffffff021916908363ffffffff160217905550506114448484614475565b6001600160a01b03811660009081526006602052604090205460609060ff16611f045760405162461bcd60e51b815260206004820152601e60248201527f53747564656e742061646472657373206e6f7420726567697374657265640000604482015260640161099f565b6001600160a01b038216600090815260066020908152604080832060020180548251818502810185019093528083529193909284015b828210156120e55760008481526020908190206040805160e08101825260058602909201805460ff81161515845261010081046001600160a01b031694840194909452600160a81b90930461ffff169082015260018201546001600160801b03166060820152600282018054919291608084019190611fb8906155ef565b80601f0160208091040260200160405190810160405280929190818152602001828054611fe4906155ef565b80156120315780601f1061200657610100808354040283529160200191612031565b820191906000526020600020905b81548152906001019060200180831161201457829003601f168201915b5050505050815260200160038201805461204a906155ef565b80601f0160208091040260200160405190810160405280929190818152602001828054612076906155ef565b80156120c35780601f10612098576101008083540402835291602001916120c3565b820191906000526020600020905b8154815290600101906020018083116120a657829003601f168201915b5050505050815260200160048201548152505081526020019060010190611f3a565b505050509050919050565b6001600160a01b03841660009081526006602052604090205460ff166121585760405162461bcd60e51b815260206004820152601e60248201527f53747564656e742061646472657373206e6f7420726567697374657265640000604482015260640161099f565b6001600160a01b038481166000908152600660209081526040808320815160e0810183528481523381850190815261ffff8a811694830194855260608301878152608084018b815260a085018b905260c085018990526002958601805460018082018355918b529890992085516005909902018054945197517fffffffffffffffffffffff0000000000000000000000000000000000000000009095169815157fffffffffffffffffffffff0000000000000000000000000000000000000000ff169890981761010097909a1696909602989098177fffffffffffffffffff0000ffffffffffffffffffffffffffffffffffffffffff16600160a81b9290911691909102178455945193830180547fffffffffffffffffffffffffffffffff00000000000000000000000000000000166001600160801b03909516949094179093555190918201906122aa90826156fa565b5060a082015160038201906122bf90826156fa565b5060c08201518160040155505050505050565b6001600160a01b03821660009081526008602052604090205460ff1661233a5760405162461bcd60e51b815260206004820181905260248201527f5265637275697465722061646472657373206e6f742072656769737465726564604482015260640161099f565b6001600160a01b03821660009081526008602052604090206001015461ffff8216106123a85760405162461bcd60e51b815260206004820152601260248201527f416e6e6f756e6365206e6f7420666f756e640000000000000000000000000000604482015260640161099f565b6000805b6001600160a01b0384166000908152600860205260409020600101805461ffff85169081106123dd576123dd615629565b906000526020600020906005020160040180549050811015612480576001600160a01b0384166000908152600860205260409020600101805433919061ffff861690811061242d5761242d615629565b9060005260206000209060050201600401828154811061244f5761244f615629565b6000918252602090912001546001600160a01b03160361246e57600191505b8061247881615820565b9150506123ac565b5080156124cf5760405162461bcd60e51b815260206004820152601860248201527f416e6e6f756e636520616c7265616479206170706c6965640000000000000000604482015260640161099f565b6001600160a01b0383166000908152600860205260409020600101805461ffff841690811061250057612500615629565b60009182526020808320600460059093020191909101805460018101825590835291200180546001600160a01b03191633179055505050565b612541613d09565b61254b600061459c565b565b600a602052826000526040600020826002811061256957600080fd5b01818154811061257857600080fd5b6000918252602090912060029091020180546001909101549093509150839050565b6009602052826000526040600020826002811061256957600080fd5b600d81815481106125c657600080fd5b600091825260209091206006909102018054600182015460028301546003840154600485015460058601805460ff808816995061010088041697620100009097046001600160801b031696919061261c906155ef565b80601f0160208091040260200160405190810160405280929190818152602001828054612648906155ef565b80156126955780601f1061266a57610100808354040283529160200191612695565b820191906000526020600020905b81548152906001019060200180831161267857829003601f168201915b5050505050905088565b3360009081526006602052604090206002015461ffff8216106127045760405162461bcd60e51b815260206004820152600d60248201527f4a6f62206e6f7420666f756e6400000000000000000000000000000000000000604482015260640161099f565b336000908152600660205260409020600201805483919061ffff841690811061272f5761272f615629565b60009182526020909120600590910201805460ff19169115159190911790555050565b6127866040518060a00160405280600015158152602001600081526020016060815260200160608152602001606081525090565b6001600160a01b03831660009081526008602052604090205460ff166127ee5760405162461bcd60e51b815260206004820181905260248201527f5265637275697465722061646472657373206e6f742072656769737465726564604482015260640161099f565b6001600160a01b03831660009081526008602052604090206001015461ffff83161061285c5760405162461bcd60e51b815260206004820152601260248201527f416e6e6f756e6365206e6f7420666f756e640000000000000000000000000000604482015260640161099f565b6001600160a01b0383166000908152600860205260409020600101805461ffff841690811061288d5761288d615629565b90600052602060002090600502016040518060a00160405290816000820160009054906101000a900460ff16151515158152602001600182015481526020016002820180546128db906155ef565b80601f0160208091040260200160405190810160405280929190818152602001828054612907906155ef565b80156129545780601f1061292957610100808354040283529160200191612954565b820191906000526020600020905b81548152906001019060200180831161293757829003601f168201915b5050505050815260200160038201805480602002602001604051908101604052809291908181526020016000905b82821015612a2e5783829060005260206000200180546129a1906155ef565b80601f01602080910402602001604051908101604052809291908181526020018280546129cd906155ef565b8015612a1a5780601f106129ef57610100808354040283529160200191612a1a565b820191906000526020600020905b8154815290600101906020018083116129fd57829003601f168201915b505050505081526020019060010190612982565b50505050815260200160048201805480602002602001604051908101604052809291908181526020018280548015612a8f57602002820191906000526020600020905b81546001600160a01b03168152600190910190602001808311612a71575b505050505081525050905092915050565b6060600480546108b8906155ef565b612b1c604051806101200160405280600060ff168152602001600063ffffffff168152602001600063ffffffff168152602001600063ffffffff16815260200160006001600160801b03168152602001600081526020016060815260200160608152602001606081525090565b6001600160a01b03831660009081526007602052604090205460ff16612b845760405162461bcd60e51b815260206004820152601e60248201527f546561636865722061646472657373206e6f7420726567697374657265640000604482015260640161099f565b6001600160a01b03831660009081526007602052604090206001015461ffff831610612bf25760405162461bcd60e51b815260206004820152601360248201527f466f726d6174696f6e206e6f7420666f756e6400000000000000000000000000604482015260640161099f565b6001600160a01b0383166000908152600760205260409020600101805461ffff8416908110612c2357612c23615629565b600091825260209182902060408051610120810182526005909302909101805460ff8116845263ffffffff61010082048116958501959095526501000000000081048516928401929092526901000000000000000000820490931660608301526001600160801b03600160681b909104166080820152600182015460a082015260028201805491929160c084019190612cbb906155ef565b80601f0160208091040260200160405190810160405280929190818152602001828054612ce7906155ef565b8015612d345780601f10612d0957610100808354040283529160200191612d34565b820191906000526020600020905b815481529060010190602001808311612d1757829003601f168201915b5050505050815260200160038201805480602002602001604051908101604052809291908181526020016000905b82821015612a2e578382906000526020600020018054612d81906155ef565b80601f0160208091040260200160405190810160405280929190818152602001828054612dad906155ef565b8015612dfa5780601f10612dcf57610100808354040283529160200191612dfa565b820191906000526020600020905b815481529060010190602001808311612ddd57829003601f168201915b505050505081526020019060010190612d62565b6001600160a01b03811660009081526008602052604090205460609060ff16612e795760405162461bcd60e51b815260206004820181905260248201527f5265637275697465722061646472657373206e6f742072656769737465726564604482015260640161099f565b6001600160a01b038216600090815260086020908152604080832060010180548251818502810185019093528083529193909284015b828210156120e55760008481526020908190206040805160a08101825260058602909201805460ff161515835260018101549383019390935260028301805492939291840191612efe906155ef565b80601f0160208091040260200160405190810160405280929190818152602001828054612f2a906155ef565b8015612f775780601f10612f4c57610100808354040283529160200191612f77565b820191906000526020600020905b815481529060010190602001808311612f5a57829003601f168201915b5050505050815260200160038201805480602002602001604051908101604052809291908181526020016000905b82821015613051578382906000526020600020018054612fc4906155ef565b80601f0160208091040260200160405190810160405280929190818152602001828054612ff0906155ef565b801561303d5780601f106130125761010080835404028352916020019161303d565b820191906000526020600020905b81548152906001019060200180831161302057829003601f168201915b505050505081526020019060010190612fa5565b505050508152602001600482018054806020026020016040519081016040528092919081815260200182805480156130b257602002820191906000526020600020905b81546001600160a01b03168152600190910190602001808311613094575b50505050508152505081526020019060010190612eaf565b6130d2613d09565b606481106131485760405162461bcd60e51b815260206004820152602160248201527f666f726d6174696f6e46656520697320696e2070657263656e7420283c31303060448201527f2900000000000000000000000000000000000000000000000000000000000000606482015260840161099f565b600f55565b3360008181526001602090815260408083206001600160a01b0387168452909152812054909190838110156131ea5760405162461bcd60e51b815260206004820152602560248201527f45524332303a2064656372656173656420616c6c6f77616e63652062656c6f7760448201527f207a65726f000000000000000000000000000000000000000000000000000000606482015260840161099f565b6114638286868403613bb9565b600033610f7e818585613eb3565b821561322f576001600160a01b0384166000908152600660205260409020805460ff191660011790555b8115613259576001600160a01b0384166000908152600760205260409020805460ff191660011790555b8015611444576001600160a01b0384166000908152600860205260409020805460ff1916600117905550505050565b6001600160a01b03811660009081526006602052604090205460609060ff166132f35760405162461bcd60e51b815260206004820152601e60248201527f53747564656e742061646472657373206e6f7420726567697374657265640000604482015260640161099f565b6001600160a01b038216600090815260066020908152604080832060010180548251818502810185019093528083529193909284015b828210156120e55760008481526020908190206040805160c0810182526002860290920180546001600160a01b038116845261ffff600160a01b8204168486015260ff600160b01b8204811693850193909352600160b81b8104831615156060850152600160c01b90049091161515608083015260019081015460a08301529083529092019101613329565b6001600160a01b03811660009081526007602052604090205460609060ff166134205760405162461bcd60e51b815260206004820152601e60248201527f546561636865722061646472657373206e6f7420726567697374657265640000604482015260640161099f565b6001600160a01b038216600090815260076020908152604080832060010180548251818502810185019093528083529193909284015b828210156120e5576000848152602090819020604080516101208101825260058602909201805460ff8116845263ffffffff61010082048116958501959095526501000000000081048516928401929092526901000000000000000000820490931660608301526001600160801b03600160681b909104166080820152600182015460a082015260028201805491929160c0840191906134f5906155ef565b80601f0160208091040260200160405190810160405280929190818152602001828054613521906155ef565b801561356e5780601f106135435761010080835404028352916020019161356e565b820191906000526020600020905b81548152906001019060200180831161355157829003601f168201915b5050505050815260200160038201805480602002602001604051908101604052809291908181526020016000905b828210156136485783829060005260206000200180546135bb906155ef565b80601f01602080910402602001604051908101604052809291908181526020018280546135e7906155ef565b80156136345780601f1061360957610100808354040283529160200191613634565b820191906000526020600020905b81548152906001019060200180831161361757829003601f168201915b50505050508152602001906001019061359c565b505050508152602001600482018054806020026020016040519081016040528092919081815260200182805480156136a957602002820191906000526020600020905b81546001600160a01b0316815260019091019060200180831161368b575b50505050508152505081526020019060010190613456565b60018160ff1611156137215760405162461bcd60e51b815260206004820152602360248201527f4572726f722c207374616b696e6720706c616e20646f6573206e6f742065786960448201526273747360e81b606482015260840161099f565b600d8160ff168154811061373757613737615629565b90600052602060002090600602016004015482600d8360ff168154811061376057613760615629565b90600052602060002090600602016002015461377c91906156a1565b106137ef5760405162461bcd60e51b815260206004820152602260248201527f4572726f722c207374616b696e67206465706f736974206c696d69742072656160448201527f6368000000000000000000000000000000000000000000000000000000000000606482015260840161099f565b336000908152602081905260409020548211156138745760405162461bcd60e51b815260206004820152602160248201527f4572726f722c20696e737566666973616e742066756e647320746f207374616b60448201527f6500000000000000000000000000000000000000000000000000000000000000606482015260840161099f565b61388f6138896005546001600160a01b031690565b836131f7565b6138db5760405162461bcd60e51b815260206004820152601d60248201527f4572726f722c206661696c6564207374616b696e67206465706f736974000000604482015260640161099f565b60006138ea8260ff16846145ee565b6040805185815233602082015260ff8516818301526060810183905290519192507f13d904717d3de3873e9fbd05dd78ac3c6b05e76126881d62902fb939a6bc87da919081900360800190a1505050565b613943613d09565b606481106139b95760405162461bcd60e51b815260206004820152602560248201527f666f726d6174696f6e4665654275726e20697320696e2070657263656e74202860448201527f3c31303029000000000000000000000000000000000000000000000000000000606482015260840161099f565b601055565b6139c6613d09565b6001600160a01b038116613a425760405162461bcd60e51b815260206004820152602660248201527f4f776e61626c653a206e6577206f776e657220697320746865207a65726f206160448201527f6464726573730000000000000000000000000000000000000000000000000000606482015260840161099f565b613a4b8161459c565b50565b6001600160a01b038216613aca5760405162461bcd60e51b815260206004820152602160248201527f45524332303a206275726e2066726f6d20746865207a65726f2061646472657360448201527f7300000000000000000000000000000000000000000000000000000000000000606482015260840161099f565b6001600160a01b03821660009081526020819052604090205481811015613b595760405162461bcd60e51b815260206004820152602260248201527f45524332303a206275726e20616d6f756e7420657863656564732062616c616e60448201527f6365000000000000000000000000000000000000000000000000000000000000606482015260840161099f565b6001600160a01b0383166000818152602081815260408083208686039055600280548790039055518581529192917fddf252ad1be2c89b69c2b068fc378daa952ba7f163c4a11628f55a4df523b3ef91015b60405180910390a35b505050565b6001600160a01b038316613c345760405162461bcd60e51b8152602060048201526024808201527f45524332303a20617070726f76652066726f6d20746865207a65726f2061646460448201527f7265737300000000000000000000000000000000000000000000000000000000606482015260840161099f565b6001600160a01b038216613cb05760405162461bcd60e51b815260206004820152602260248201527f45524332303a20617070726f766520746f20746865207a65726f20616464726560448201527f7373000000000000000000000000000000000000000000000000000000000000606482015260840161099f565b6001600160a01b0383811660008181526001602090815260408083209487168084529482529182902085905590518481527f8c5be1e5ebec7d5bd14f71427d1e84f3dd0314c0f7b2291e5b200ac8c7c3b9259101613bab565b6005546001600160a01b0316331461254b5760405162461bcd60e51b815260206004820181905260248201527f4f776e61626c653a2063616c6c6572206973206e6f7420746865206f776e6572604482015260640161099f565b60008060005b6001600160a01b03861660009081526006602052604090206001015461ffff82161015613e5d576001600160a01b03868116600090815260066020526040902060010180549187169161ffff8416908110613dc657613dc6615629565b60009182526020909120600290910201546001600160a01b0316148015613e3d57506001600160a01b0386166000908152600660205260409020600101805461ffff8087169291908416908110613e1f57613e1f615629565b6000918252602090912060029091020154600160a01b900461ffff16145b15613e4b5760019150613e5d565b80613e5581615839565b915050613d69565b81613eaa5760405162461bcd60e51b815260206004820152601360248201527f666f726d6174696f6e206e6f7420666f756e6400000000000000000000000000604482015260640161099f565b95945050505050565b6001600160a01b038316613f2f5760405162461bcd60e51b815260206004820152602560248201527f45524332303a207472616e736665722066726f6d20746865207a65726f20616460448201527f6472657373000000000000000000000000000000000000000000000000000000606482015260840161099f565b6001600160a01b038216613fab5760405162461bcd60e51b815260206004820152602360248201527f45524332303a207472616e7366657220746f20746865207a65726f206164647260448201527f6573730000000000000000000000000000000000000000000000000000000000606482015260840161099f565b6001600160a01b0383166000908152602081905260409020548181101561403a5760405162461bcd60e51b815260206004820152602660248201527f45524332303a207472616e7366657220616d6f756e742065786365656473206260448201527f616c616e63650000000000000000000000000000000000000000000000000000606482015260840161099f565b6001600160a01b03848116600081815260208181526040808320878703905593871680835291849020805487019055925185815290927fddf252ad1be2c89b69c2b068fc378daa952ba7f163c4a11628f55a4df523b3ef910160405180910390a3611444565b6001600160a01b038381166000908152600160209081526040808320938616835292905220546000198114611444578181101561411f5760405162461bcd60e51b815260206004820152601d60248201527f45524332303a20696e73756666696369656e7420616c6c6f77616e6365000000604482015260640161099f565b6114448484848403613bb9565b606060005b835181101561420c57826001600160a01b031684828151811061415657614156615629565b60200260200101516001600160a01b0316036141fa57836001855161417b919061568e565b8151811061418b5761418b615629565b60200260200101518482815181106141a5576141a5615629565b60200260200101906001600160a01b031690816001600160a01b03168152505083600185516141d4919061568e565b815181106141e4576141e4615629565b6020026020010160006001600160a01b03168152505b8061420481615820565b915050614131565b509192915050565b6001600160a01b03821661426a5760405162461bcd60e51b815260206004820152601f60248201527f45524332303a206d696e7420746f20746865207a65726f206164647265737300604482015260640161099f565b806002600082825461427c91906156a1565b90915550506001600160a01b038216600081815260208181526040808320805486019055518481527fddf252ad1be2c89b69c2b068fc378daa952ba7f163c4a11628f55a4df523b3ef910160405180910390a35050565b6000806142df8461479e565b90506000806142ed86614883565b909250905060006142fe848461568e565b9050600061430c878361568e565b10156143805760405162461bcd60e51b815260206004820152602f60248201527f4572726f722c20696e737566666973616e742066756e647320696e207374616b60448201527f696e6720746f2077697468647261770000000000000000000000000000000000606482015260840161099f565b9695505050505050565b6040805180820182524281526020808201859052336000908152600a90915291822085600281106143bd576143bd615629565b018054600181810183556000928352602092839020845160029093020191825591830151910155600d8054859190879081106143fb576143fb615629565b9060005260206000209060060201600201600082825461441b919061568e565b909155506000905061442d858561568e565b905080600003613eaa57600d868154811061444a5761444a615629565b60009182526020822060016006909202010180549161446883615850565b9190505550613eaa614995565b6001600160a01b0382166000908152600760205260408120600101805461ffff84169081106144a6576144a6615629565b60009182526020808320600592909202909101546001600160a01b0386168352600790915260408220600101805461010090920463ffffffff1693509061ffff85169081106144f7576144f7615629565b600091825260209091206005909102015460135463ffffffff65010000000000909204821692501681118015614552575060135461454390640100000000900463ffffffff1682615867565b63ffffffff168263ffffffff16115b156114445761456384601154614214565b6040516001600160a01b03851681527fbb11e28bff673d5e1588f064cd972443dd1cad19d46e9d744529e30524bade0190602001611848565b600580546001600160a01b038381166001600160a01b0319831681179093556040519116919082907f8be0079c531659141344cd1fd0a4f28419497f9722a3daafe3b4186f6b6457e090600090a35050565b60408051808201825242815260208082018490523360009081526009909152918220846002811061462157614621615629565b018054600181810183556000928352602092839020845160029093020191825591830151910155600d80548491908690811061465f5761465f615629565b9060005260206000209060060201600201600082825461467f91906156a1565b9091555061468d9050614a18565b600c54600d8054869081106146a4576146a4615629565b6000918252602080832060016006909302019190910192909255338152600990915260408120819086600281106146dd576146dd615629565b01805480602002602001604051908101604052809291908181526020016000905b82821015614744578382906000526020600020906002020160405180604001604052908160008201548152602001600182015481525050815260200190600101906146fe565b50505050905060005b81518110156147935781818151811061476857614768615629565b6020026020010151602001518361477f91906156a1565b92508061478b81615820565b91505061474d565b509095945050505050565b336000908152600a60205260408120819083600281106147c0576147c0615629565b01805480602002602001604051908101604052809291908181526020016000905b82821015614827578382906000526020600020906002020160405180604001604052908160008201548152602001600182015481525050815260200190600101906147e1565b505050509050600080600090505b825181101561487b5782818151811061485057614850615629565b6020026020010151602001518261486791906156a1565b91508061487381615820565b915050614835565b509392505050565b3360009081526009602052604081208190819084600281106148a7576148a7615629565b01805480602002602001604051908101604052809291908181526020016000905b8282101561490e578382906000526020600020906002020160405180604001604052908160008201548152602001600182015481525050815260200190600101906148c8565b50505050905060008060005b8351811015614989578060000361494c5783818151811061493d5761493d615629565b60200260200101516000015191505b83818151811061495e5761495e615629565b6020026020010151602001518361497591906156a1565b92508061498181615820565b91505061491a565b50909590945092505050565b60005b600c54811015613a4b57336001600160a01b0316600c82815481106149bf576149bf615629565b6000918252602090912001546001600160a01b031603614a0657600c81815481106149ec576149ec615629565b600091825260209091200180546001600160a01b03191690555b80614a1081615820565b915050614998565b60005b600c54811015614a7157336001600160a01b0316600c8281548110614a4257614a42615629565b6000918252602090912001546001600160a01b031603614a5f5750565b80614a6981615820565b915050614a1b565b50600c80546001810182556000919091527fdf6966c971051c3d54ec59162606531493a51404a002842f56009d7e5cf4a8c70180546001600160a01b03191633179055565b828054828255906000526020600020908101928215614afc579160200282015b82811115614afc5782518290614aec90826156fa565b5091602001919060010190614ad6565b50614b08929150614b6d565b5090565b828054828255906000526020600020908101928215614b61579160200282015b82811115614b6157825182546001600160a01b0319166001600160a01b03909116178255602090920191600190910190614b2c565b50614b08929150614b8a565b80821115614b08576000614b818282614b9f565b50600101614b6d565b5b80821115614b085760008155600101614b8b565b508054614bab906155ef565b6000825580601f10614bbb575050565b601f016020900490600052602060002090810190613a4b9190614b8a565b6000815180845260005b81811015614bff57602081850181015186830182015201614be3565b506000602082860101526020601f19601f83011685010191505092915050565b602081526000614c326020830184614bd9565b9392505050565b80356001600160a01b0381168114614c5057600080fd5b919050565b803561ffff81168114614c5057600080fd5b60008060408385031215614c7a57600080fd5b614c8383614c39565b9150614c9160208401614c55565b90509250929050565b60008060408385031215614cad57600080fd5b614cb683614c39565b946020939093013593505050565b600060208284031215614cd657600080fd5b5035919050565b803560ff81168114614c5057600080fd5b634e487b7160e01b600052604160045260246000fd5b604051601f8201601f1916810167ffffffffffffffff81118282101715614d2d57614d2d614cee565b604052919050565b600082601f830112614d4657600080fd5b813567ffffffffffffffff811115614d6057614d60614cee565b614d73601f8201601f1916602001614d04565b818152846020838601011115614d8857600080fd5b816020850160208301376000918101602001919091529392505050565b600082601f830112614db657600080fd5b8135602067ffffffffffffffff80831115614dd357614dd3614cee565b8260051b614de2838201614d04565b9384528581018301938381019088861115614dfc57600080fd5b84880192505b85831015614e3857823584811115614e1a5760008081fd5b614e288a87838c0101614d35565b8352509184019190840190614e02565b98975050505050505050565b600080600080600060a08688031215614e5c57600080fd5b614e6586614cdd565b9450614e7360208701614c55565b935060408601359250606086013567ffffffffffffffff80821115614e9757600080fd5b614ea389838a01614d35565b93506080880135915080821115614eb957600080fd5b50614ec688828901614da5565b9150509295509295909350565b60008060408385031215614ee657600080fd5b614cb683614c55565b600080600060608486031215614f0457600080fd5b614f0d84614c39565b9250614f1b60208501614c39565b9150604084013590509250925092565b600080600060608486031215614f4057600080fd5b614f4984614c39565b9250614f1b60208501614c55565b60008060408385031215614f6a57600080fd5b82359150614c9160208401614cdd565b60008060408385031215614f8d57600080fd5b823567ffffffffffffffff80821115614fa557600080fd5b614fb186838701614d35565b93506020850135915080821115614fc757600080fd5b50614fd485828601614da5565b9150509250929050565b600080600060608486031215614ff357600080fd5b614ffc84614c39565b925061500a60208501614c55565b915061501860408501614cdd565b90509250925092565b60006020828403121561503357600080fd5b614c3282614c39565b60006020808301818452808551808352604092508286019150828160051b87010184880160005b8381101561510b57603f19898403018552815160e08151151585526001600160a01b0389830151168986015261ffff8883015116888601526060808301516150b5828801826001600160801b03169052565b505060808083015182828801526150ce83880182614bd9565b9250505060a080830151868303828801526150e98382614bd9565b60c0948501519790940196909652505094870194925090860190600101615063565b509098975050505050505050565b6000806000806080858703121561512f57600080fd5b61513885614c39565b935061514660208601614c55565b9250604085013567ffffffffffffffff8082111561516357600080fd5b61516f88838901614d35565b9350606087013591508082111561518557600080fd5b5061519287828801614d35565b91505092959194509250565b6000806000606084860312156151b357600080fd5b6151bc84614c39565b95602085013595506040909401359392505050565b600061010060ff8b16835260ff8a1660208401526001600160801b03891660408401528760608401528660808401528560a08401528460c08401528060e084015261521e81840185614bd9565b9b9a5050505050505050505050565b80358015158114614c5057600080fd5b6000806040838503121561525057600080fd5b614c838361522d565b600081518084526020808501808196508360051b8101915082860160005b858110156152a157828403895261528f848351614bd9565b98850198935090840190600101615277565b5091979650505050505050565b600081518084526020808501945080840160005b838110156152e75781516001600160a01b0316875295820195908201906001016152c2565b509495945050505050565b805115158252602081015160208301526000604082015160a0604085015261531d60a0850182614bd9565b9050606083015184820360608601526153368282615259565b91505060808301518482036080860152613eaa82826152ae565b602081526000614c3260208301846152f2565b805160ff16825260006101206020830151615386602086018263ffffffff169052565b50604083015161539e604086018263ffffffff169052565b5060608301516153b6606086018263ffffffff169052565b5060808301516153d160808601826001600160801b03169052565b5060a083015160a085015260c08301518160c08601526153f382860182614bd9565b91505060e083015184820360e086015261540d8282615259565b915050610100808401518583038287015261438083826152ae565b602081526000614c326020830184615363565b6000602080830181845280855180835260408601915060408160051b870101925083870160005b8281101561549057603f1988860301845261547e8583516152f2565b94509285019290850190600101615462565b5092979650505050505050565b600080600080608085870312156154b357600080fd5b6154bc85614c39565b93506154ca6020860161522d565b92506154d86040860161522d565b91506154e66060860161522d565b905092959194509250565b602080825282518282018190526000919060409081850190868401855b828110156152a157815180516001600160a01b031685528681015161ffff16878601528581015160ff168686015260608082015115159086015260808082015115159086015260a0908101519085015260c0909301929085019060010161550e565b6000602080830181845280855180835260408601915060408160051b870101925083870160005b8281101561549057603f198886030184526155b3858351615363565b94509285019290850190600101615597565b600080604083850312156155d857600080fd5b6155e183614c39565b9150614c9160208401614c39565b600181811c9082168061560357607f821691505b60208210810361562357634e487b7160e01b600052602260045260246000fd5b50919050565b634e487b7160e01b600052603260045260246000fd5b634e487b7160e01b600052601160045260246000fd5b8082028115828204841417610f8457610f8461563f565b60008261568957634e487b7160e01b600052601260045260246000fd5b500490565b81810381811115610f8457610f8461563f565b80820180821115610f8457610f8461563f565b601f821115613bb457600081815260208120601f850160051c810160208610156156db5750805b601f850160051c820191505b81811015611a9f578281556001016156e7565b815167ffffffffffffffff81111561571457615714614cee565b6157288161572284546155ef565b846156b4565b602080601f83116001811461575d57600084156157455750858301515b600019600386901b1c1916600185901b178555611a9f565b600085815260208120601f198616915b8281101561578c5788860151825594840194600190910190840161576d565b50858210156157aa5787850151600019600388901b60f8161c191681555b5050505050600190811b01905550565b600060ff821660ff81036157d0576157d061563f565b60010192915050565b63ffffffff8181168382160190808211156157f6576157f661563f565b5092915050565b600063ffffffff8083168181036158165761581661563f565b6001019392505050565b6000600182016158325761583261563f565b5060010190565b600061ffff8083168181036158165761581661563f565b60008161585f5761585f61563f565b506000190190565b63ffffffff8181168382160280821691908281146158875761588761563f565b50509291505056fea264697066735822122043cca8b704fd8bf421a6fb1ba5418ace9f0482e175e76701d4ca24766d0be20964736f6c63430008110033ddf252ad1be2c89b69c2b068fc378daa952ba7f163c4a11628f55a4df523b3ef",
  "immutableReferences": {},
  "source": "// SPDX-License-Identifier: MIT\npragma solidity ^0.8.17;\n\nimport \"@openzeppelin/contracts/token/ERC20/ERC20.sol\";\nimport \"@openzeppelin/contracts/access/Ownable.sol\";\n\n\n/**\n * @title The smart contract to handle the MLE token, and interractions between :\n * - the students,\n * - the teachers,\n * - the recruiters.\n * @author Cyril Marois & Maxence Guillemain d'Echon\n**/\ncontract Staking is ERC20, Ownable {\n/******************************** STRUCTS & ENUMS ********************************/\n\n    struct TeacherFormation {\n        uint8 modulesCount;\n        uint32 ratingsSum;\n        uint32 ratingsCount;\n        uint32 duration;         // exprimed in seconds\n        uint128 creationDate;    // exprimed in seconds since 1970\n        uint price;              // exprimed in MLE\n        string title;\n        string[] tags;\n        address[] students;\n    }\n\n    struct StudentFormation {\n        address teacherAddress;\n        uint16 formationId;\n        uint8 validatedModulesNumber;\n        bool isCertified;\n        bool isRated;\n        uint cashback;\n    }\n\n    struct Announce {\n        bool isActive;\n        uint creationDate;     // exprimed in seconds since 1970\n        string title;\n        string[] tags;\n        address[] candidates;\n        // TBD : add specific conditions to be able to apply ?\n    }\n\n    struct Job {\n        bool isAccepted;\n        address recruiterAddress;\n        uint16 announceId;\n        uint128 entryDate;     // exprimed in seconds since 1970\n        string title;\n        string description;\n        uint challenge;\n    }\n\n    struct Student {\n        bool isRegistered;\n        StudentFormation[] formations;\n        Job[] jobs;\n    }\n\n    struct Teacher {\n        bool isRegistered;\n        TeacherFormation[] formations;\n    }\n\n    struct Recruiter {\n        bool isRegistered;\n        Announce[] announces;\n    }\n\n    struct stakingRecord {\n        uint256 date;\n        uint256 amount;\n    }\n\n    struct stakingPlan {\n        uint8 planId;\n        uint8 apr;\n        uint128 lockPeriod;     // exprimed in seconds\n        uint256 totalStakers;\n        uint256 totalStakingDeposit;\n        uint256 minTokenAmount; // exprimed in MLE\n        uint256 maxTokenDeposit; // exprimed in MLE\n        string title;\n    }\n\n\n/******************************** STATE VARIABLES ********************************/\n\n    mapping (address => Student) students;\n    mapping (address => Teacher) teachers;\n    mapping (address => Recruiter) recruiters;\n\n    mapping (address => stakingRecord[][2]) public userStakingDepositBalance;\n    mapping (address => stakingRecord[][2]) public userStakingWithdrawalBalance;\n    mapping (address => uint256) formationStakingBalance;\n\n    address[] stakers;\n    stakingPlan[] public stakingPlans;\n    uint announcePostPrice = 50e18;\n    uint formationFee = 3; // %\n    uint formationFeeBurn = 0; // %\n    uint teacherReward = 1000e18;\n    uint jobSignedReward = 1000e18;\n    uint32 minRatingCountForTeacherReward = 5;\n    uint32 minRatingForTeacherReward = 35;\n\n    uint constant INITIAL_SUPPLY = 1000000e18;\n    uint constant RECRUITMENT_COMMISSION = 10; // %\n    uint constant MAX_GRADE = 50;\n\n/************************************ EVENTS *************************************/\n\n    event StudentRegistered (address studentAddress);\n    event TeacherRegistered (address teacherAddress);\n    event RecruiterRegistered (address recruiterAddress);\n\n    event FormationPublished (address teacherAddress, uint teacherFormationId);\n    event FormationCertified (address teacherAddress, uint teacherFormationId, address studentAddress);\n    event AnnouncePublished (address recruiterAddress, uint announceId);\n\n    event TeacherRewarded(address teacherAddress);\n    event RecruitmentReward(address _studentAddress, uint16 _jobId);\n\n    event StakeDeposit (uint256 amount, address from, uint8 planId, uint256 totalDeposit);\n    event StakeWithdrawal (uint256 amount, address from, uint8 planId, uint256 newUserStakingBalanceTotal);\n\n\n/******************************* DEFAULT FUNCTIONS *******************************/\n\n    /**\n     * @notice Initializes the contract.\n    **/\n    constructor() ERC20(\"Master L&Earn\", \"MLE\") Ownable() {\n        _mint(msg.sender, INITIAL_SUPPLY);\n\n        _initStakingPlans();\n\n        // address teacher1 = 0xAb8483F64d9C6d1EcF9b849Ae677dD3315835cb2;\n        // address student1 = 0x4B20993Bc481177ec7E8f571ceCaE8A9e22C02db;\n        // address student2 = 0x78731D3Ca6b7E34aC0F824c42a7cC18A495cabaB;\n        // address recruiter1 = 0x617F2E2fD72FD9D5503197092aC168c91465E7f2;\n\n        //0x5666eD746E98FA440ceD3714d5915c2556888a5c\n        address student1= 0xC2d1a543861Ea9A99FBd57db0F8820026c887768;\n        address teacher1 = 0x8c558Db06F214a38AeDee77017560555F71A1402;\n        address recruiter1 = 0xE38613fb92CAB66312C2A7110836A43CC4BA9CF3;\n\n        //teacher\n        transfer(teacher1, 1000e18);\n        registerUser(teacher1, false, true, false);\n\n        //student\n        transfer(student1, 1000e18);\n        registerUser(student1, true, false, false);\n        // transfer(student2, 1000e18);\n        // registerUser(student2, true, false, false);\n\n        // recruiter\n        transfer(recruiter1, 1000e18);\n        registerUser(recruiter1, false, false, true);\n\n    }\n\n    receive() external payable {}\n    fallback() external payable {}\n\n/*********************************** MODIFIERS ***********************************/\n/*********************************** FUNCTIONS ***********************************/\n    /***************** UTILS ********************/\n    function _removeAddressFromTab(address[] memory _tab, address _address)\n    internal pure returns(address[] memory) {\n        for (uint _i; _i < _tab.length; _i++) {\n            if (_tab[_i] == _address) {\n                _tab[_i] = _tab[_tab.length - 1];\n                delete (_tab[_tab.length - 1]);\n            }\n        }\n        return _tab;\n    }\n\n\n\n    /************* GETTERS & SETTERS ************/\n\n    function getAnnounceForRecruiter (address _recruiterAddress, uint16 _announceId)\n    external view returns(Announce memory) {\n        require (recruiters[_recruiterAddress].isRegistered, \"Recruiter address not registered\");\n        require (_announceId < recruiters[_recruiterAddress].announces.length, \"Announce not found\");\n        return recruiters[_recruiterAddress].announces[_announceId];\n    }\n\n    function getAnnouncesForRecruiter (address _recruiterAddress)\n    external view returns(Announce[] memory) {\n        require (recruiters[_recruiterAddress].isRegistered, \"Recruiter address not registered\");\n        return recruiters[_recruiterAddress].announces;\n    }\n\n    function getFormationForTeacher (address _teacherAddress, uint16 _formationId)\n    external view returns(TeacherFormation memory) {\n        require (teachers[_teacherAddress].isRegistered, \"Teacher address not registered\");\n        require (_formationId < teachers[_teacherAddress].formations.length, \"Formation not found\");\n        return teachers[_teacherAddress].formations[_formationId];\n    }\n\n    function getTeacherFormationsForTeacher (address _teacherAddress)\n    external view returns(TeacherFormation[] memory) {\n        require (teachers[_teacherAddress].isRegistered, \"Teacher address not registered\");\n        return teachers[_teacherAddress].formations;\n    }\n\n    function getFormationsForStudent (address _studentAddress)\n    external view returns(StudentFormation[] memory) {\n        require (students[_studentAddress].isRegistered, \"Student address not registered\");\n        return students[_studentAddress].formations;\n    }\n\n    function getJobsForStudent (address _studentAddress)\n    external view returns(Job[] memory) {\n        require (students[_studentAddress].isRegistered, \"Student address not registered\");\n        return students[_studentAddress].jobs;\n    }\n\n    function setAnnouncePostPrice (uint _announcePostPrice) external onlyOwner {\n        announcePostPrice = _announcePostPrice;\n    }\n\n    function setFormationFee (uint _formationFee) external onlyOwner {\n        require (_formationFee < 100, \"formationFee is in percent (<100)\");\n        formationFee = _formationFee;\n    }\n\n    function setFormationFeeBurn (uint _formationFeeBurn) external onlyOwner {\n        require (_formationFeeBurn < 100, \"formationFeeBurn is in percent (<100)\");\n        formationFeeBurn = _formationFeeBurn;\n    }\n\n    function setQualityFormationReward (uint _teacherReward) external onlyOwner {\n        teacherReward = _teacherReward;\n    }\n\n    function setJobSignedReward (uint _jobSignedReward) external onlyOwner {\n        jobSignedReward = _jobSignedReward;\n    }\n\n    function registerUser(address _address, bool _asStudent, bool _asTeacher, bool _asRecruiter) public {\n        if (_asStudent)\n            students[_address].isRegistered = true;\n        if (_asTeacher)\n            teachers[_address].isRegistered = true;\n        if (_asRecruiter)\n            recruiters[_address].isRegistered = true;\n    }\n\n    /********** FORMATIONS FUNCTIONS ************/\n\n    function postFormation (\n        uint8 _modulesCount,\n        uint16 _duration,\n        uint _price,\n        string memory _title,\n        string[] memory _tags\n    ) external {\n        address[] memory stds;\n        teachers[msg.sender].formations.push( TeacherFormation (\n            _modulesCount,\n            0,\n            0,\n            _duration,\n            uint128(block.timestamp),\n            _price,\n            _title,\n            _tags,\n            stds\n        ));\n    }\n\n    function validateUserModule (address _studentAddress, uint16 _teacherFormationId) external {\n        require (students[_studentAddress].isRegistered, \"Student address not registered\");\n\n        uint16 _id = _retrieveStudentFormationId(_studentAddress, msg.sender, _teacherFormationId);\n        StudentFormation memory _studentFormation = students[_studentAddress].formations[_id];\n        require (!_studentFormation.isCertified, \"Formation already certified\");\n        require (_studentFormation.validatedModulesNumber < teachers[msg.sender].formations[_teacherFormationId].modulesCount, \"\");\n\n        students[_studentAddress].formations[_id].validatedModulesNumber++;\n\n        // Cashback\n        if (formationStakingBalance[_studentAddress] > _studentFormation.cashback) {\n            formationStakingBalance[_studentAddress] -= _studentFormation.cashback;\n            _transfer(owner(), _studentAddress, _studentFormation.cashback);\n        }\n    }\n\n    function certifyUserFormation (address _studentAddress, uint16 _teacherFormationId) external {\n        require (students[_studentAddress].isRegistered, \"Student address not registered\");\n\n        uint16 _id = _retrieveStudentFormationId(_studentAddress, msg.sender, _teacherFormationId);\n        require (!students[_studentAddress].formations[_id].isCertified, \"Formation already certified\");\n\n        teachers[msg.sender].formations[_teacherFormationId].students\n         = _removeAddressFromTab(teachers[msg.sender].formations[_teacherFormationId].students,\n         _studentAddress);\n\n        students[_studentAddress].formations[_id].isCertified = true;\n    }\n\n    function _retrieveStudentFormationId (address _studentAddress, address _teacherAddress, uint16 _teacherFormationId)\n        internal view returns(uint16) {\n        // Retrieve within the formations owned by the sender and followed by the student the formation which:\n        // - has the teacherAddress msg.sender\n        // - has the id _teacherFormationId\n        bool _found;\n        uint16 _id;\n        for (; _id < students[_studentAddress].formations.length; _id++) {\n            if (students[_studentAddress].formations[_id].teacherAddress == _teacherAddress\n                && students[_studentAddress].formations[_id].formationId == _teacherFormationId) {\n                _found = true;\n                break;\n            }\n        }\n        require (_found, \"formation not found\");\n        return _id;\n    }\n\n    function buyFormation (address _teacherAddress, uint16 _teacherFormationId) external {\n        require (teachers[_teacherAddress].isRegistered, \"Student address not registered\");\n        require (_teacherFormationId < teachers[_teacherAddress].formations.length, \"Formation not found\");\n\n        TeacherFormation memory _teacherFormation = teachers[_teacherAddress].formations[_teacherFormationId];\n\n        // Pay formation\n        require (balanceOf(msg.sender) >= 2 * _teacherFormation.price, \"Insufficient balance\");\n        uint _fee = _teacherFormation.price * formationFee / 100;\n        uint _feeBurn = formationFee * formationFeeBurn / 100;\n        uint _teacherCut = _teacherFormation.price - _fee;\n        require (transfer(_teacherAddress, _teacherCut));\n        require (transfer(owner(), _teacherFormation.price + _fee - _feeBurn));\n        _burn(_teacherAddress, _feeBurn);\n        formationStakingBalance[msg.sender] += _teacherFormation.price;\n\n        // Add new StudentFormation to student\n        uint cashback = _teacherFormation.price / _teacherFormation.modulesCount ;\n        StudentFormation memory _studentFormation =\n            StudentFormation (_teacherAddress, _teacherFormationId, 0, false, false, cashback);\n        students[msg.sender].formations.push(_studentFormation);\n\n        // Add student address to formation\n        teachers[_teacherAddress].formations[_teacherFormationId].students.push(msg.sender);\n    }\n\n    function evaluateFormation (address _teacherAddress, uint16 _teacherFormationId, uint8 grade) external {\n        require (grade <= MAX_GRADE, \"Grade too high\");\n        require (teachers[_teacherAddress].isRegistered, \"Teacher address not registered\");\n        require (_teacherFormationId < teachers[_teacherAddress].formations.length, \"Formation not found\");\n        uint16 _id = _retrieveStudentFormationId(msg.sender, _teacherAddress, _teacherFormationId);\n        // TBD conditions de droit de notation :\n        require (students[msg.sender].formations[_id].isCertified, \"Student cannot evaluate yet\");\n        require (!students[msg.sender].formations[_id].isRated, \"Student already evaluated this formation\");\n\n        students[msg.sender].formations[_id].isRated = true;\n        teachers[_teacherAddress].formations[_teacherFormationId].ratingsSum += grade;\n        teachers[_teacherAddress].formations[_teacherFormationId].ratingsCount ++;\n\n        _rewardTeacher(_teacherAddress, _teacherFormationId);\n    }\n\n    function _rewardTeacher (address _teacherAddress, uint16 _teacherFormationId) internal {\n        // TDB condition reward\n\n        uint32 ratingsSum = teachers[_teacherAddress].formations[_teacherFormationId].ratingsSum;\n        uint32 ratingsCount = teachers[_teacherAddress].formations[_teacherFormationId].ratingsCount;\n\n        if (ratingsCount > minRatingCountForTeacherReward &&\n            ratingsSum > ratingsCount * minRatingForTeacherReward) {\n            _mint(_teacherAddress, teacherReward);\n            emit TeacherRewarded(_teacherAddress);\n        }\n    }\n\n    /******* ANNOUNCES & JOBS FUNCTIONS *********/\n\n    function postAnnounce(\n        string memory _title,\n        string[] memory _tags\n    ) external {\n        require (transfer(owner(), announcePostPrice), \"Not enough tokens\");\n        address[] memory candidates;\n        recruiters[msg.sender].announces.push( Announce (\n            true,\n            block.timestamp,\n            _title,\n            _tags,\n            candidates\n        ));\n    }\n\n    function offerJob(\n        address _studentAddress,\n        uint16 _announceId,\n        string memory _title,\n        string memory _description\n    ) external {\n        require (students[_studentAddress].isRegistered, \"Student address not registered\");\n        students[_studentAddress].jobs.push( Job (\n            false,\n            msg.sender,\n            _announceId,\n            0,\n            _title,\n            _description,\n            0\n        ));\n    }\n\n    function applyAnnounce(address _recruiterAddress, uint16 _announceId) external {\n        require (recruiters[_recruiterAddress].isRegistered, \"Recruiter address not registered\");\n        require (_announceId < recruiters[_recruiterAddress].announces.length, \"Announce not found\");\n\n        bool _found;\n        // TBD : limit size of candidates tab ?\n        for (uint _id; _id < recruiters[_recruiterAddress].announces[_announceId].candidates.length; _id++) {\n            if (recruiters[_recruiterAddress].announces[_announceId].candidates[_id] == msg.sender)\n                _found = true;\n        }\n        require (!_found, \"Announce already applied\");\n\n        recruiters[_recruiterAddress].announces[_announceId].candidates.push(msg.sender);\n    }\n\n    function answerJobOffer(bool _doAccept, uint16 _jobId) external {\n        require (_jobId < students[msg.sender].jobs.length, \"Job not found\");\n\n        students[msg.sender].jobs[_jobId].isAccepted = _doAccept;\n    }\n\n    function proveId(uint16 _jobId, uint _challenge) external {\n        students[msg.sender].jobs[_jobId].challenge = _challenge;\n    }\n\n    function verifyId(address _studentAddress, uint16 _jobId, uint _challenge) external {\n        // verify ID by checking challenge\n        require (students[_studentAddress].jobs[_jobId].challenge == _challenge, \"Id not verified\");\n\n        // Remove Job Announce\n        uint16 _id = students[_studentAddress].jobs[_jobId].announceId;\n        recruiters[msg.sender].announces[_id].isActive = false;\n\n        // Reward the DAO by minting 1000 MLE\n        _mint(owner(), jobSignedReward);\n        emit RecruitmentReward(_studentAddress, _jobId);\n    }\n\n    /************ TOKEN FUNCTIONS ***************/\n\n    function _initStakingPlans() internal {\n        stakingPlan memory stakingPlanOne = stakingPlan({\n            planId : 0,\n            apr: 10,\n            totalStakers: 0,\n            totalStakingDeposit: 0,\n            lockPeriod: 12 * 4 weeks,       // 1 year\n            minTokenAmount: 500e18,\n            maxTokenDeposit: 2500000e18,\n            title: \"Plan 1\"\n        });\n        stakingPlan memory stakingPlanTwo = stakingPlan({\n            planId : 1,\n            apr: 20,\n            totalStakers: 0,\n            totalStakingDeposit: 0,\n            lockPeriod: 24 * 4 weeks,        //2 years\n            minTokenAmount: 500e18,\n            maxTokenDeposit: 5000000e18,\n            title: \"Plan 2\"\n        });\n        stakingPlans.push(stakingPlanOne);\n        stakingPlans.push(stakingPlanTwo);\n    }\n\n    function stakeDeposit(uint256 _amount, uint8 _planId) external {\n        require(_planId <= 1, \"Error, staking plan does not exists\");\n        require(stakingPlans[_planId].totalStakingDeposit + _amount < stakingPlans[_planId].maxTokenDeposit, \"Error, staking deposit limit reach\");\n        require(balanceOf(msg.sender) >= _amount, \"Error, insuffisant funds to stake\");\n        require(transfer(owner(), _amount), \"Error, failed staking deposit\");\n\n        uint256 newUserStakingDepositBalanceTotal = _afterDepositStakingTransfer(_planId, _amount);\n\n        emit StakeDeposit(_amount, msg.sender, _planId, newUserStakingDepositBalanceTotal);\n    }\n\n    function stakeWithdraw(uint256 _amount, uint8 _planId) external {\n        require(_planId <= 1, \"Error, staking plan does not exists\");\n\n        uint256 userStakingBalanceTotal = _beforeWithdrawalStakingTransfer(_planId, _amount);\n\n        _transfer(owner(), msg.sender, _amount);\n\n        uint256 newUserStakingBalanceTotal = _afterWithdrawalStakingTransfer(_planId, _amount, userStakingBalanceTotal);\n\n        emit StakeWithdrawal(_amount, msg.sender, _planId, newUserStakingBalanceTotal);\n    }\n\n    function _afterDepositStakingTransfer(uint _planId, uint _amount) internal returns (uint) {\n        // register deposit\n        stakingRecord memory userStakingDeposit = stakingRecord({\n            date: block.timestamp,\n            amount: _amount\n        });\n        userStakingDepositBalance[msg.sender][_planId].push(userStakingDeposit);\n\n        // update total deposit from all users\n        stakingPlans[_planId].totalStakingDeposit += _amount;\n\n        // update stakers\n        _registerStakers();\n\n        // update staking plan stakers total\n        stakingPlans[_planId].totalStakers = stakers.length;\n\n        // update user total staking deposit balance\n        uint256 newUserStakingDepositBalanceTotal;\n        stakingRecord[] memory deposits = userStakingDepositBalance[msg.sender][_planId];\n        for (uint i = 0; i < deposits.length; i++) {\n            newUserStakingDepositBalanceTotal += deposits[i].amount;\n        }\n\n        return newUserStakingDepositBalanceTotal;\n    }\n\n    function _registerStakers() internal {\n        for (uint i =0; i < stakers.length; i++) {\n            if (stakers[i] == msg.sender) {\n                return;\n            }\n        }\n        stakers.push(msg.sender);\n    }\n\n    function _beforeWithdrawalStakingTransfer(uint _planId, uint _amount) internal view returns (uint) {\n        // count withdraw amount\n        uint256 userStakingWithdrawalBalanceTotal = _getUserWithdrawalBalance(_planId);\n\n        // count deposit amount\n        uint256 userStakingDepositBalanceTotal;\n        uint256 firstDepositDate;\n        (userStakingDepositBalanceTotal, firstDepositDate) = _getUserStakingDepositBalance(_planId);\n\n        uint256 userStakingBalanceTotal = userStakingDepositBalanceTotal - userStakingWithdrawalBalanceTotal;\n        require(userStakingBalanceTotal  - _amount >= 0, \"Error, insuffisant funds in staking to withdraw\");\n\n        // uint256 lockPeriod = stakingPlans[_planId].lockPeriod;\n        // require(block.timestamp > firstDepositDate + lockPeriod, \"Error, You can't withdraw before lockPeriod\");\n\n        return userStakingBalanceTotal;\n    }\n\n    function _afterWithdrawalStakingTransfer(uint _planId, uint _amount, uint _userStakingBalanceTotal) internal returns (uint) {\n        // register withdraw\n        stakingRecord memory tmpUserStakingWithdraw = stakingRecord({\n            date: block.timestamp,\n            amount: _amount\n        });\n        userStakingWithdrawalBalance[msg.sender][_planId].push(tmpUserStakingWithdraw);\n\n        // update staking plan total Staking amount deposit\n        stakingPlans[_planId].totalStakingDeposit -= _amount;\n\n        // if user withdrawal all staking balance, remove it from staker\n        uint256 userStakingBalanceTotal = _userStakingBalanceTotal - _amount;\n        if (userStakingBalanceTotal == 0) {\n            stakingPlans[_planId].totalStakers--;\n            deleteStakers();\n        }\n\n        return userStakingBalanceTotal;\n    }\n\n\n    function _getUserStakingDepositBalance(uint _planId) internal view returns (uint, uint) {\n        stakingRecord[] memory tmpUserStakingDepositBalances = userStakingDepositBalance[msg.sender][_planId];\n        uint256 userStakingDepositBalanceTotal;\n        uint256 firstDepositDate;\n        for (uint i = 0; i < tmpUserStakingDepositBalances.length; i++) {\n            if (i == 0) {\n                firstDepositDate = tmpUserStakingDepositBalances[i].date;\n            }\n            userStakingDepositBalanceTotal += tmpUserStakingDepositBalances[i].amount;\n        }\n\n        return (userStakingDepositBalanceTotal, firstDepositDate);\n    }\n\n    function _getUserWithdrawalBalance(uint _planId) internal view returns (uint) {\n        stakingRecord[] memory tmpUserStakingWithdrawalBalances = userStakingWithdrawalBalance[msg.sender][_planId];\n        uint256 userStakingWithdrawalBalanceTotal;\n        for (uint i = 0; i < tmpUserStakingWithdrawalBalances.length; i++) {\n            userStakingWithdrawalBalanceTotal += tmpUserStakingWithdrawalBalances[i].amount;\n        }\n\n        return userStakingWithdrawalBalanceTotal;\n    }\n\n    function deleteStakers() internal {\n        for (uint i = 0; i < stakers.length; i++) {\n            if (stakers[i] == msg.sender) {\n                delete(stakers[i]);\n            }\n        }\n    }\n\n}",
  "sourcePath": "/home/cyrilmarois/Code/Formations/Alyra/master-L-earn/truffle/contracts/Staking.sol",
  "compiler": {
    "name": "solc",
    "version": "0.8.17+commit.8df45f5f.Emscripten.clang"
  },
  "schemaVersion": "3.4.10",
  "updatedAt": "2022-12-10T12:26:31.496Z",
  "networkType": "ethereum",
  "devdoc": {
    "author": "Cyril Marois & Maxence Guillemain d'Echon*",
    "kind": "dev",
    "methods": {
      "allowance(address,address)": {
        "details": "See {IERC20-allowance}."
      },
      "approve(address,uint256)": {
        "details": "See {IERC20-approve}. NOTE: If `amount` is the maximum `uint256`, the allowance is not updated on `transferFrom`. This is semantically equivalent to an infinite approval. Requirements: - `spender` cannot be the zero address."
      },
      "balanceOf(address)": {
        "details": "See {IERC20-balanceOf}."
      },
      "decimals()": {
        "details": "Returns the number of decimals used to get its user representation. For example, if `decimals` equals `2`, a balance of `505` tokens should be displayed to a user as `5.05` (`505 / 10 ** 2`). Tokens usually opt for a value of 18, imitating the relationship between Ether and Wei. This is the value {ERC20} uses, unless this function is overridden; NOTE: This information is only used for _display_ purposes: it in no way affects any of the arithmetic of the contract, including {IERC20-balanceOf} and {IERC20-transfer}."
      },
      "decreaseAllowance(address,uint256)": {
        "details": "Atomically decreases the allowance granted to `spender` by the caller. This is an alternative to {approve} that can be used as a mitigation for problems described in {IERC20-approve}. Emits an {Approval} event indicating the updated allowance. Requirements: - `spender` cannot be the zero address. - `spender` must have allowance for the caller of at least `subtractedValue`."
      },
      "increaseAllowance(address,uint256)": {
        "details": "Atomically increases the allowance granted to `spender` by the caller. This is an alternative to {approve} that can be used as a mitigation for problems described in {IERC20-approve}. Emits an {Approval} event indicating the updated allowance. Requirements: - `spender` cannot be the zero address."
      },
      "name()": {
        "details": "Returns the name of the token."
      },
      "owner()": {
        "details": "Returns the address of the current owner."
      },
      "renounceOwnership()": {
        "details": "Leaves the contract without owner. It will not be possible to call `onlyOwner` functions anymore. Can only be called by the current owner. NOTE: Renouncing ownership will leave the contract without an owner, thereby removing any functionality that is only available to the owner."
      },
      "symbol()": {
        "details": "Returns the symbol of the token, usually a shorter version of the name."
      },
      "totalSupply()": {
        "details": "See {IERC20-totalSupply}."
      },
      "transfer(address,uint256)": {
        "details": "See {IERC20-transfer}. Requirements: - `to` cannot be the zero address. - the caller must have a balance of at least `amount`."
      },
      "transferFrom(address,address,uint256)": {
        "details": "See {IERC20-transferFrom}. Emits an {Approval} event indicating the updated allowance. This is not required by the EIP. See the note at the beginning of {ERC20}. NOTE: Does not update the allowance if the current allowance is the maximum `uint256`. Requirements: - `from` and `to` cannot be the zero address. - `from` must have a balance of at least `amount`. - the caller must have allowance for ``from``'s tokens of at least `amount`."
      },
      "transferOwnership(address)": {
        "details": "Transfers ownership of the contract to a new account (`newOwner`). Can only be called by the current owner."
      }
    },
    "title": "The smart contract to handle the MLE token, and interractions between : - the students, - the teachers, - the recruiters.",
    "version": 1
  },
  "userdoc": {
    "kind": "user",
    "methods": {
      "constructor": {
        "notice": "Initializes the contract.*"
      }
    },
    "version": 1
  }
}